:020000040800F2
:10000000000002200D2700082D1B0008311B0008EE
:10001000351B0008391B00083D1B000800000000CC
:10002000000000000000000000000000411B00086C
:10003000451B000800000000491B00084D1B00087C
:100040005D2700085D2700085D2700085D27000880
:100050005D2700085D2700085D2700085D27000870
:100060005D2700085D2700085D270008511B000878
:100070005D1B0008691B0008751B00085D27000850
:10008000811B00085D2700088D1B00085D27000804
:10009000991B0008A51B00085D2700085D270008C4
:1000A0005D2700085D2700085D2700085D27000820
:1000B0005D2700085D270008B11B00085D270008C8
:1000C0005D2700085D2700085D270008BD1B0008AC
:1000D0005D270008C91B0008D51B0008E11B0008AC
:1000E0005D2700085D2700085D2700085D270008E0
:1000F0005D2700085D2700085D2700085D270008D0
:100100005D2700085D270008ED1B00085D2700083B
:10011000F91B0008051C00085D2700085D27000882
:10012000111C00081D1C0008291C0008351C0008B3
:10013000411C00085D2700085D2700085D270008B6
:100140004D1C0008591C00085D270008651C0008AC
:100150005D270008711C00085D2700087D1C000851
:100160005D2700085D2700085D2700085D2700085F
:100170005D2700085D2700085D27000800000000DB
:080180005D2700085D2700085F
:1001C00053B94AB9002908BF00281CBF4FF0FF31BE
:1001D0004FF0FF3000F0E2B8ADF1080C6DE904CE4D
:1001E0000AF0DAFBDDF804E0DDE9022304B0704731
:1001F00000F1340191E838009C46A6464CF8045DB5
:1002000090E8FF0FE54600BD90EC210B704700BF62
:1002100080EC210B704700BF90EC200B704700BFB3
:1002200080EC200B704700BFD0EC200B704700BF64
:10023000C0EC200B704700BFF0EC0201F0EC0211A3
:10024000F0EC0221F0EC0231F0EC0241F0EC025152
:10025000F0EC0261F0EC0271F0EC0281F0EC029142
:10026000F0EC02A1F0EC02B1F0EC02C1F0EC02D132
:10027000F0EC02E1F0EC02F1704700BFE0EC0201AB
:10028000E0EC0211E0EC0221E0EC0231E0EC024192
:10029000E0EC0251E0EC0261E0EC0271E0EC028182
:1002A000E0EC0291E0EC02A1E0EC02B1E0EC02C172
:1002B000E0EC02D1E0EC02E1E0EC02F1704700BFBB
:1002C000B0FC0181B0FC0191B0FC01A1B0FC01B116
:1002D000704700BFA0FC0181A0FC0191A0FC01A11E
:1002E000A0FC01B1704700BFEC4600B52DE90050FD
:1002F0002DE9FF1F4FF000032DE90C0001A90AF0C2
:10030000D6FDDDF840E012B0704700BFEC4600B506
:100310002DE900502DE9FF1F4FF000032DE90C00DF
:1003200001A90AF0FBFDDDF840E012B0704700BF04
:10033000EC4600B52DE900502DE9FF1F4FF00003FA
:100340002DE90C0001A90AF009FEDDF840E012B029
:10035000704700BFEC4600B52DE900502DE9FF1FA6
:100360004FF000032DE90C0001AB0AF0CDFDDDF8E4
:1003700040E012B0704700BFEC4600B52DE90050D8
:100380002DE9FF1F4FF000032DE90C0001AA0AF030
:1003900037FEDDF840E012B0704700BF704700BF85
:1003A00008B5062000F0F8F8012001F077FC00BF46
:1003B000002301461A46184600F00EBB830730B5ED
:1003C00047D0541E002A3ED0CAB2034601E0013C89
:1003D00039D303F8012B9D07F9D1032C2CD9CDB2C9
:1003E00005EB05250F2C05EB054535D9A4F11002C9
:1003F00022F00F0C03F1100EE6444FEA121C1A46CD
:10040000156055609560D56010327245F8D10CF1D9
:10041000010214F00C0F03EB021204F00F0C13D0C6
:10042000ACF1040323F003030433134442F8045BE8
:100430009A42FBD10CF003042CB1C9B21C4403F85E
:10044000011B9C42FBD130BD64461346002CF4D105
:10045000F9E703461446C0E71A46A446E0E700BFA2
:1004600038B5D0F818410CB1002038BD80210546C0
:1004700000F04CFC0246C5F8180130B1031F7C3275
:1004800043F8044F9342FBD1EEE74FF0FF3038BD05
:1004900030B51F2983B0054609D8D0F818310C466D
:1004A00053B153F8240043F8242003B030BD162381
:1004B00003604FF0FF30F8E78021019200F026FC46
:1004C000019AC5F8180103460028F2D0011F00F177
:1004D0007C05002041F8040FA942FBD1E1E700BFF1
:1004E0001F2938B505461FD8D0F818210C466AB127
:1004F00052F8213053B1012B06D0591C10D00021E5
:1005000042F8241020469847002038BD284600F0C5
:10051000FDF8224601462846BDE8384000F0E0B824
:1005200016230360012038BD162303604FF0FF300F
:1005300038BD00BF1F292CD838B5D0F818310C466B
:100540000546A3B153F8242003EB84034AB1511CA0
:100550000BD0012A07D0002520461D609047284671
:1005600038BD012038BD032038BD022038BD8021B0
:1005700000F0CCFB0346C5F8180138B1021F00217A
:100580007C3042F8041F9042FBD1DBE74FF0FF3094
:1005900038BD4FF0FF30704738B5144B1F281D6829
:1005A0001ED8D5F81821044662B152F820304BB15C
:1005B000012B05D0591C0FD0002142F8201098477C
:1005C000002038BD284600F0A1F822460146284602
:1005D000BDE8384000F084B816232B60012038BDF8
:1005E00016232B604FF0FF3038BD00BF0000002005
:1005F000124B1F2870B51E6809D8D6F8183104466A
:100600000D464BB153F8240043F8245070BD162317
:1006100033604FF0FF3070BD8021304600F076FB34
:100620000346C6F818010028F3D0021F00217C30D1
:1006300042F8041F9042FBD1E4E700BF0000002015
:1006400038B50C4B1D68D5F818410CB1002038BDE9
:100650008021284600F05AFBC5F8180138B1031F65
:1006600000F17C0243F8044F9342FBD1EEE74FF0D8
:10067000FF3038BD0000002038B5184B1F281D681A
:1006800028D80446D5F81801A0B150F8243000EB62
:1006900084004BB15A1C0BD0012B07D000250560FC
:1006A00020469847284638BD012038BD032038BD74
:1006B000022038BD8021284600F028FBC5F818012B
:1006C00040B1031F00F17C01002243F8042F99423E
:1006D000FBD1DAE74FF0FF3038BD00BF000000204B
:1006E00070B50C46084D03460026204611461C46B0
:1006F0002E6001F0CBFA431C00D070BD2B68002B9C
:10070000FBD0236070BD00BF7407002001F0BCBAAD
:10071000014B1868704700BF0000002070B50F4BF8
:100720000F4DAB42A3EB050607D0B610002455F8D9
:10073000043B01349847A642F9D80BF02FF8094D35
:10074000094B5E1BAB424FEAA60606D0002455F8C3
:10075000043B01349847A642F9D870BDE4B80008BC
:10076000E4B80008E4B80008F0B8000838B5074D50
:10077000074C2C1BA41005D0013C55F8043D9847AC
:10078000002CF9D1BDE838400BF00EB8F4B80008E1
:10079000F0B80008704700BF704700BF704700BF47
:1007A000704700BF704700BF704700BF012070470F
:1007B00001207047704700BF704700BF844641EA80
:1007C000000313F003036DD1403A41D351F8043BC9
:1007D00040F8043B51F8043B40F8043B51F8043B1B
:1007E00040F8043B51F8043B40F8043B51F8043B0B
:1007F00040F8043B51F8043B40F8043B51F8043BFB
:1008000040F8043B51F8043B40F8043B51F8043BEA
:1008100040F8043B51F8043B40F8043B51F8043BDA
:1008200040F8043B51F8043B40F8043B51F8043BCA
:1008300040F8043B51F8043B40F8043B51F8043BBA
:1008400040F8043B51F8043B40F8043B403ABDD229
:10085000303211D351F8043B40F8043B51F8043BCB
:1008600040F8043B51F8043B40F8043B51F8043B8A
:1008700040F8043B103AEDD20C3205D351F8043B5A
:1008800040F8043B043AF9D2043208D0D2071CBF26
:1008900011F8013B00F8013B01D30B88038060464F
:1008A000704700BF082A13D38B078DD010F00303C5
:1008B0008AD0C3F10403D21ADB071CBF11F8013B35
:1008C00000F8013B80D331F8023B20F8023B7BE784
:1008D000043AD9D3013A11F8013B00F8013BF9D2AF
:1008E0000B7803704B7843708B7883706046704749
:1008F00000000000000000000000000000000000F8
:1009000030B490F800F020F007016FF0000C10F008
:10091000070491F820F040F048804FF000046FF099
:100920000700D1E9002391F840F000F1080082FAB5
:100930004CF2A4FA8CF283FA4CF3A2FA8CF34BBB80
:10094000D1E9022382FA4CF200F10800A4FA8CF2F9
:1009500083FA4CF3A2FA8CF3E3B9D1E9042382FAC7
:100960004CF200F10800A4FA8CF283FA4CF3A2FADC
:100970008CF37BB9D1E9062301F1200182FA4CF214
:1009800000F10800A4FA8CF283FA4CF3A2FA8CF37B
:10099000002BC6D0002A04BF04301A4612BAB2FA9D
:1009A00082F200EBD20030BC7047D1E9002304F0A2
:1009B0000305C4F100004FEAC50514F0040F91F8D7
:1009C00040F00CFA05F562EA05021CBF63EA050374
:1009D00062464FF00004AAE72DE9F8431B4D064696
:1009E000286898460F469146FFF7DEFE184B1C68B4
:1009F0001CB3286865681F2D22DC4EB96B1C0235BC
:100A0000636044F82570FFF7D7FE0020BDE8F88347
:100A100004EB85010123C1F88890D4F88821AB400C
:100A20001A43022EC4F88821C1F80881E6D1D4F80F
:100A30008C211A43C4F88C21E0E7064C1C60D8E7EF
:100A4000FFF7BAFE4FF0FF30E0E700BF28010020BB
:100A500028090020980700202DE9F84306460820C1
:100A6000894600F02BFCDFF8A4800546304600F0F4
:100A700007FCD8F808305F6827F00307A7F11104D6
:100A8000A4EB09042C44B4FBF5F4013C05FB04F48D
:100A9000A54208DC0021304600F0FEFBD8F8083003
:100AA0003B44984205D0304600F0F0FB0020BDE802
:100AB000F8836142304600F0EFFB01300FD0114A5D
:100AC000D8F808303F1B47F001075F6013683046D5
:100AD0001B1B136000F0DAFB0120BDE8F883002146
:100AE000304600F0D9FBD8F80820831A0F2BDADD46
:100AF00043F001035360044B02491B68C01A0860AD
:100B0000D1E700BF30090020380500203001002067
:100B100000297CD02DE9F0410C46804600F0B0FB66
:100B200054F8043C764FA4F1080523F0010168183D
:100B3000BE684268864222F0030200F08380DE072E
:100B4000426000EB020C33D454F8084CDCF804305B
:100B50002D1B2144AC6807F1080C644503F0010328
:100B600064D0D5F80CE0C4F80CE0CEF80840002BB7
:100B700000F0818041F001036B600160B1F5007FFE
:100B800022D27868CB080122490901338A40024306
:100B900057F833107A6007EBC302083AC5E902122E
:100BA00047F83350CD604046BDE8F04100F06EBBE1
:100BB000DCF80430DB072BD541F00103B1F5007FF1
:100BC00044F8043C0160DCD3B1F5206F4FEA5123B7
:100BD00053D28B0903F1390003F13802C300F8182E
:100BE000FB580838984203D163E09B68984204D0D0
:100BF0005A6822F003028A42F7D8D868C5E9023061
:100C00008560DD604046BDE8F04100F03FBB7047C5
:100C1000114407F1080C836863453FD0C268DA606D
:100C2000936041F001036B606950A7E7002B61D12D
:100C30000A44D0E90213CB60996042F001036B6073
:100C4000AA50B0E7DB070A4407D454F8083CED1A71
:100C50001A44D5E90213CB60996042F001036B603E
:100C6000284BBD601B6893429DD8274B40461968AE
:100C7000FFF7F2FE97E71144CDE7142B08D9542B68
:100C80001FD80B0B03F16F0003F16E02C300A6E740
:100C900003F15C0003F15B02C300A0E741F0010334
:100CA0003D617D61C5F808C0C5F80CC06B60695036
:100CB00079E779689210012404FA02F20A437A6013
:100CC0009CE7B3F5AA7F06D8CB0B03F1780003F1BC
:100CD0007702C30083E740F25452934206D88B0C4C
:100CE00003F17D0003F17C02C30078E74FF47E73CB
:100CF0007E2274E741F001036B60016053E700BF9F
:100D0000300100203C0500202C0900202DE9F04F87
:100D100001F10B05162D83B0064624D8102900F2E8
:100D2000B08000F0ADFA102518224FF0020CC14F30
:100D30003A44A2F1080354689C4200F03081636891
:100D4000E268A16823F003032344CA6091605A68F3
:100D500042F0010230465A60083400F097FA20460B
:100D600003B0BDE8F08F35F0070500F18A80A94295
:100D700000F2878000F084FAB5F5FC7FC0F079813D
:100D80006B0A00F08280042B00F23081AB0903F182
:100D9000390C03F138044FEACC03A64F3B44A3F1CE
:100DA00008005B68984206D10CE0002980F2E580DB
:100DB000DB68984206D05A6822F00302511B0F29C3
:100DC000F3DDA446DFF870823C69444500F0C28040
:100DD000636823F00309A9EB05030F2B00F34E8191
:100DE000002BC7E9048880F23881B9F5007FD7F875
:100DF00004E080F0DB804FEAD90101314FEA591954
:100E0000012303FA09F357F83120A2604EEA030EDA
:100E100007EBC103083BE360C7F804E047F8314043
:100E2000D4604FEAAC0301209840704533D810EAF3
:100E30000E0F07D12CF0030C400010EA0E0F0CF13E
:100E4000040CF9D007EBCC0A5346E146D9680EE012
:100E50004A6822F00302A2EB050EBEF10F0F0C460A
:100E6000C96800F3D080BEF1000F80F2E9808B42A8
:100E7000EED109F1010919F0030F03F10803E5D1DF
:100E800028E10C233360002469E74FF400734FF02E
:100E9000400C3F2481E7BC68636823F00309A9453F
:100EA00003D3A9EB05030F2B57DCDFF890B1DBF878
:100EB00000200820103202EB050800F0FFF9D7F8F7
:100EC00008140131024604EB090305D008F1FF388C
:100ED0008044414201EA080841463046CDE90032EB
:100EE00000F0DAF9B0F1FF3FDDE90032824600F0B0
:100EF000E280834200F2DD80DBF804104144CBF84D
:100F00000410084602F1FF3C40F001811AEA0C0F80
:100F100040F0FD80D7F808A0C84448F00100CAF8A6
:100F20000400DBF82C208A42DBF8302038BFCBF8F5
:100F30002C108A4238BFCBF83010544620F00308FA
:100F4000A845A8EB050301D30F2B06DC304600F0C3
:100F50009DF998E7D7F804E063E7621943F00103CD
:100F600045F0010565603046BA60536000F08EF9C7
:100F70000834204603B0BDE8F08FD3E902411A449B
:100F8000E1608C60516841F001013046516003F12D
:100F9000080400F07BF9204603B0BDE8F08FD46868
:100FA000A2427FF4CCAE0CF1020C0BE7B9F5206F36
:100FB0004FEA592276D3142A00F20B8102F15C0326
:100FC000DB005B32F918FB580839994203D1E8E09D
:100FD0009B68994204D05A6822F003024A45F7D828
:100FE000D968C4E902318C60DC601AE7142B65D93A
:100FF000542B00F2F7802B0B03F16F0C03F16E04FE
:101000004FEACC03C9E63046A668631945F00105EE
:101010006560F1608E604EF00101C7E90433C3F8EA
:101020000880C3F80C80596044F802E000F02EF903
:10103000083494E630010020380100202C090020FB
:1010400022443046536843F00103536054F8083F8C
:10105000D9608B6000F01AF981E6A1443046D9F8D6
:10106000043043F00103C9F80430083400F00EF9ED
:1010700075E64FEAD50C05F1080258E6621943F00F
:10108000010145F0010565603046C7E90422C2F858
:101090000880C2F80C80516044F8093000F0F6F87E
:1010A00008345CE64FEA991202F13903DB0038326A
:1010B00088E7BC4224D0BC6860683FE703F15C0C61
:1010C00003F15B044FEACC0367E65AF8083953454D
:1010D00040F0D3801CF0030F0CF1FF3CF5D17B688E
:1010E00023EA00037B60400098423FF6D4AE18B973
:1010F000D1E6400009F104091842FAD0CC46A1E635
:10110000DBF804004044CBF8040002F1FF3CD7F8C0
:10111000081401311BBFAAEB0303C018C7F808A4C9
:10112000CBF804001AF00703009343D0C3F1080181
:101130008A44D0440A4408EA0C01521A02EA0C011B
:101140003046019100F0A8F8421C7AD00199A0EB3A
:101150000A0000EB0108DBF80420C7F808A048F0FB
:1011600001001144BC42CAF80400CBF804103FF45B
:10117000D8AEB9F10F0F40D96268A9F10C0020F088
:10118000070002F001020243626022184FF0050CD2
:101190000F28C2F804C0C2F808C048D8DAF8040022
:1011A000BFE69210012000FA02F24EEA020EC7F8E2
:1011B00004E016E70AEB080101EA0C01521A02EA00
:1011C0000C013046019100F067F8431CBED1009934
:1011D000C1E7542A15D84FEA193202F16F03DB0038
:1011E0006E32EFE6B3F5AA7F15D8EB0B03F1780C5E
:1011F00003F177044FEACC03CFE50123CAF80430AA
:10120000A4E6B2F5AA7F23D84FEAD93202F17803D7
:10121000DB007732D6E640F25452934223D8AB0C2F
:1012200003F17D0C03F17C044FEACC03B5E504F136
:1012300008013046FFF76CFCDBF80410D7F808A073
:10124000ACE7009B083B9844A8EB0A08002182E722
:1012500040F254539A420CD84FEA994202F17D036E
:10126000DB007C32AEE64FF47E734FF07F0C7E24C1
:1012700093E54FF47E737E22A4E67B6833E700BFDC
:101280000148FFF791BA00BF880700200148FFF727
:1012900093BA00BF8807002038B5074D00220446E6
:1012A00008462A6000F000FD431C00D038BD2B68C2
:1012B000002BFBD0236038BD74070020082802D122
:1012C0004FF48050704708B5FFF722FA16230360E9
:1012D0004FF0FF3008BD00BF10B5054C237833B97F
:1012E000044B13B10448AFF300800123237010BDF9
:1012F00060090020000000009CB7000808B5034BFF
:101300001BB103490348AFF3008008BD0000000093
:10131000640900209CB7000800B51D481D49012242
:1013200085B00023016002614FF440310276C26152
:1013300080F830204261184A80F82030CDE900332F
:10134000CDE90233C0E90113C3600023C0E90A23D9
:1013500001F068FA68B99FED0C7B07230C480293F3
:1013600069468DED007B01F09FFB28B905B05DF863
:1013700004FB00F015FBEEE700F012FB05B05DF892
:1013800004FB00BFAFF3008002000000010000007A
:10139000E0090020002001400100000F70B5294B3A
:1013A000026888B000249A42CDE90244CDE90444A1
:1013B000069401D008B070BD03F58C3300945A6CCC
:1013C000214E42F480725A645A6C02F48072009288
:1013D000009A01941A6B42F001021A631B6B03F02E
:1013E0000103019304220323054602A91748CDE90E
:1013F0000223019B02F0F6F8154A74624FF48063F1
:10140000C6E9002433614FF400624FF40053C6E98B
:10141000052330464FF48073C6E90244C6E9073419
:1014200001F0DEFE58B90022AE6311461220B5630A
:1014300001F072FE122001F0ABFE08B070BD00F0AA
:10144000AFFAF0E7002001407C09002000000240D4
:10145000706402400D480E49032210B50023C0E914
:1014600000124FF4C0244FF4A0014FF00122C0E954
:101470000233C0E904418261838301F0BFFB00B9FC
:1014800010BDBDE8104000F08BBA00BF540A002028
:10149000006400400D480E49032210B50023C0E946
:1014A00000124FF4C0244FF4A0014FF00122C0E914
:1014B0000233C0E904418261838301F09FFB00B9DC
:1014C00010BDBDE8104000F06BBA00BF2C0A002030
:1014D000006800400000000030B502684C498DB043
:1014E00000238A42CDE90633CDE908330A933FD081
:1014F00048498A4201D00DB030BD474A0393116C70
:10150000464841F080611164116C01F080610391E3
:101510000168039C01310129016065D000243E4B24
:1015200005941A6B3E4842F002021A631B6B9FED52
:10153000347B03F00203059306A909230322CDE9B6
:1015400009238DED067B059D02F04CF822462146CD
:10155000402001F0E1FD402001F01AFE2246214624
:10156000412001F0D9FD412001F012FE0DB030BD47
:101570002A490A680132012A0A6029D00024264B30
:1015800002941A6B274842F008021A631B6B9FED06
:101590001E7B03F00803029306A909230322CDE969
:1015A00009238DED067B029D02F01CF822462146A0
:1015B000142001F0B1FD142001F0EAFD224621467D
:1015C000152001F0A9FD152001F0E2FD0DB030BDA0
:1015D000114A0193136C43F000731364136C03F00E
:1015E00000730193019BC9E70493136C43F00073EC
:1015F0001364136C03F000730493049B8EE700BF25
:1016000000300000020000000300000002000000A3
:10161000006400400068004000380240280A0020B2
:1016200000040240000C024010B582B00024384B88
:101630000094196B41F400111963186B00F4001049
:10164000009000980194186B40F4800018631B6BA5
:1016500003F480032246214601930B20019B01F0F5
:101660005BFD0B2001F094FD224621460C2001F089
:1016700053FD0C2001F08CFD224621460D2001F087
:101680004BFD0D2001F084FD224621460E2001F085
:1016900043FD0E2001F07CFD22462146102001F082
:1016A0003BFD102001F074FD22462146382001F058
:1016B00033FD382001F06CFD22462146392001F02F
:1016C0002BFD392001F064FD224621463A2001F02D
:1016D00023FD3A2001F05CFD224621463B2001F02B
:1016E0001BFD3B2001F054FD224621463C2001F029
:1016F00013FD3C2001F04CFD22462146452001F01F
:101700000BFD452002B0BDE8104001F041BD00BF17
:10171000003802402DE9F04300248DB0CDE90644A5
:10172000CDE908444F4B00940A941A6B4E4DDFF8F4
:101730004491DFF844814D4F4D4E42F010021A6340
:101740001A6B02F010020092009A01941A6B42F098
:1017500080021A631A6B02F080020192019A0294CD
:101760001A6B42F004021A631A6B02F0040202922E
:10177000029A03941A6B42F001021A631A6B02F088
:1017800001020392039A04941A6B42F002021A6354
:101790001A6B02F002020492049A05941A6B42F04A
:1017A00008021A631B6B03F00803059322462846C0
:1017B00041F27001059B02F0FFF8224648463F21A6
:1017C00002F0FAF822464046102102F0F5F82246CF
:1017D0003846032102F0F0F8284601224FF4006158
:1017E00002F0EAF8224630464FF4704102F0E4F885
:1017F0000024284606A9002541F670020123CDE900
:101800000623CDE9084501F0EDFE484606A93F2232
:101810000123CDE90623CDE9084501F0E3FE40466A
:1018200006A910220123CDE90623CDE9084501F0E0
:10183000D9FE384606A903220123CDE90623CDE9C6
:10184000084501F0CFFE4FF47042012306A930464F
:10185000CDE90845CDE9062301F0C4FE0DB0BDE891
:10186000F08300BF00380240001002400004024034
:10187000000C0240000802400000024007480849EE
:1018800008B50322642380E80E0002F099F800B93D
:1018900008BDBDE8084000F083B800BF800A002002
:1018A0000030004030B5002395B0CDE90A33CDE9D2
:1018B0000333CDE90533234901930C930793086C57
:1018C000214A40F080500864096C01F08051019178
:1018D00001990293136843F480431360136803F47F
:1018E0008043022409204FF48031029301224FF4F7
:1018F0008003CDE90801CDE90D2402980F93192149
:101900004FF4A872072308A8CDE91012CDE91243BD
:1019100003F002FA08B172B6FEE70F220346CDE9E2
:1019200003244FF4A0554FF4805203A80521CDE9BC
:101930000535079203F006FC08B172B6FEE715B054
:1019400030BD00BF003802400070004008B500F014
:101950002BFFFFF7A7FFFFF7DDFEFFF765FEFFF7A1
:1019600099FD00F0CDF900F059FA00F091FA00F07D
:10197000CBFAFFF76FFD00F0E7FB00F005FC00F08D
:101980001FFC00F039FC06F061FAFFF7C5FCFFF719
:1019900075FF00F007F800F09FFB00F0B9FBFEE7D1
:1019A00072B6FEE710B50F480F4C4FF48272C0E9D3
:1019B0000042022101220023C0E904124FF4007406
:1019C00010210A22C0E90233C0E90641C0E9083308
:1019D000C0E90A3203F07AFC00B910BDBDE810403E
:1019E000FFF7DEBF500B002000300140F0B53B4B4D
:1019F000026889B000249A42CDE90244CDE904444A
:101A0000069401D009B0F0BD03F5843300945A6CFC
:101A1000334E42F480525A645A6C02F4805200925F
:101A2000009A01941A6B42F001021A631B6B03F0D7
:101A300001030193E0220223CDE9022303270523BA
:101A4000054602A92748019ACDE9057301F0CAFDB0
:101A5000254A34634FF0C063C6E900234FF4806326
:101A6000336130460423C6E90244C6E90544C6E9A9
:101A70000744C6E90A74736201F0B2FB40BB1B4C19
:101A80001B49EE644FF0C0620023C4E900124021FC
:101A90004FF48062C4E9021322610421032220462C
:101AA000C4E90533C4E90733C4E90912C4E90B33B7
:101AB000B56301F095FB70B900221146AC64232098
:101AC000A56301F029FB232001F062FB09B0F0BD02
:101AD000FFF766FFD3E7FFF763FFEDE70030014054
:101AE000EC0A002000000240106402408C0A002032
:101AF0005864024082B00C4B002100915A6C42F4B1
:101B000080425A645A6C02F480420092009A019119
:101B10001A6C42F080521A641B6C03F080530193DC
:101B2000019B02B0704700BF00380240FEE700BFD3
:101B3000FEE700BFFEE700BFFEE700BFFEE700BF15
:101B4000704700BF704700BF704700BF00F046BE3F
:101B5000014801F071BC00BF0C0F0020014801F0EA
:101B60006BBC00BFEC0D0020014801F065BC00BF5C
:101B70006C0F0020014801F05FBC00BF8C0D0020FD
:101B8000014801F059BC00BF4C0E0020014800F094
:101B9000FBBE00BFE0090020014801F049B900BFC9
:101BA000540A0020014801F043B900BF540A002044
:101BB000014803F087BF00BF3C0C0020014803F040
:101BC000E9BB00BF500B0020014804F015BA00BF6C
:101BD000A8100020014804F00FBA00BF60100020D8
:101BE000014804F009BA00BF18100020014803F0B2
:101BF00069BF00BFF40B0020014804F0FDB900BF2D
:101C000038110020014804F0F7B900BFF01000209F
:101C1000014801F011BC00BFEC0A0020014801F0AE
:101C20000BBC00BF2C0D0020014801F005BC00BF1B
:101C3000AC0E0020014801F0FFBB00BF8C0A002061
:101C4000014801F0F9BB00BF7C090020014801F008
:101C5000EFB800BF2C0A0020014801F0E9B800BF2E
:101C60002C0A0020014802F0FFB800BF84280020A1
:101C7000014801F0E1BB00BFCC0C0020014804F09A
:101C8000BBB900BFD00F00200120704708B5FEF798
:101C90003FFD162303604FF0FF3008BD08B5FEF787
:101CA00037FD16230360FEE70C490D4A0B6810B59B
:101CB0000C4C121B2BB11844904207D808601846F0
:101CC00010BD094B0B6018449042F7D9FEF720FD78
:101CD0000C2303604FF0FF33184610BDA80B002003
:101CE0000000022000000100186A0020034AD2F818
:101CF000883043F47003C2F88830704700ED00E08C
:101D000010B5414C414A92B00023226020464FF664
:101D1000FF72CDE90233CDE90A33CDE90C33CDE9C9
:101D20000E33C4E901331093E2602361A36103F031
:101D300079FC20BB00220023334802A9CDE902230D
:101D400003F05CFF08BB9FED2A7B00232E480C9319
:101D50000AA904228DED0A7B0E9303F0FBFC88B9DF
:101D600022682A4900238A42CDE90433CDE90633AB
:101D700008930DD026498A4221D012B010BDFFF73A
:101D80000FFED7E7FFF70CFEEAE7FFF709FEDAE7F9
:101D9000204A0093136B204843F002031363136B34
:101DA0009FED157B03F00203009304A902238DED40
:101DB000047B009A089301F015FC12B010BD154A7F
:101DC0000193136B144843F002031363136B9FEDED
:101DD0000C7B03F00203019304A909238DED047B1E
:101DE000019A089301F0FEFB12B010BDAFF3008022
:101DF0006000000000000000200000000200000061
:101E00000040000002000000840C0020000400409C
:101E100000180040003802400004024000B51A4893
:101E20001A4A87B002605322002342606322CDE940
:101E30000233CDE90433CDE90033C0E90232036156
:101E4000836103F057FB98B94FF480530E48029317
:101E500002A903F085FD98B9002200230A486946CB
:101E6000CDE9002303F0CAFE28B907B05DF804FBF2
:101E7000FFF796FDE8E7FFF793FD07B05DF804FB79
:101E8000FFF78EFDE8E700BF3C0C00200008004093
:101E900000B51A481A4A87B00260532200234260F4
:101EA00040F2E732CDE90233CDE90433CDE9003326
:101EB000C0E902320361836103F01CFB98B94FF45F
:101EC00080530E48029302A903F04AFD98B90022FC
:101ED00000230A486946CDE9002303F08FFE28B9A4
:101EE00007B05DF804FBFFF75BFDE8E7FFF758FD7F
:101EF00007B05DF804FBFFF753FDE8E7F40B0020A3
:101F0000000C00400000000010B53949394C90B079
:101F10000A220023C4E9001220464FF4AF52CDE953
:101F20000833CDE90A33CDE90C33C4E902320E930C
:101F30002361A36103F076FBD0B99FED277B0022DC
:101F40002C480A9208A98DED087B0C9203F002FC44
:101F500088B92268284900238A42CDE90233CDE9B5
:101F6000043306930AD022498A421ED010B010BD15
:101F7000FFF716FDE1E7FFF713FDEAE71F4A0093BD
:101F8000136B1F4843F002031363136B9FED147B25
:101F900003F00203009302A902238DED027B009A55
:101FA000069301F01FFB10B010BD144A0193136B90
:101FB000134843F002031363136B9FED0B7B03F095
:101FC0000203019302A909238DED027B019A069376
:101FD00001F008FB10B010BD600000000000000020
:101FE000200000000200000000400000020000008D
:101FF00000180040AC0B00200004004000380240F4
:1020000000040240124A0368934282B012D0114A7F
:10201000934201D002B070470F4B002201921A6C1C
:1020200042F040021A641B6C03F040030193019BD1
:1020300002B07047084B002200921A6C42F0020274
:102040001A641B6C03F002030093009B02B07047FC
:1020500000040040001800400038024000B51B4A50
:102060000368934283B005D0194A934218D003B055
:102070005DF804FB174B00220092196C41F004013B
:1020800019641B6C03F00403009301211E20009BC4
:1020900001F042F81E2003B05DF804EB01F078B8BF
:1020A0000C4B00220192196C41F0080119641B6C61
:1020B00003F00803019301213220019B01F02CF869
:1020C000322003B05DF804EB01F062B80008004074
:1020D000000C00400038024010B50B480B4C0023A8
:1020E0004FF461210C22C0E90041C0E90233C0E98C
:1020F0000432C0E9063303F0C5FD00B910BDBDE8E8
:102100001040FFF74DBC00BF38110020004C0040CC
:1021100010B50B480B4C00234FF461210C22C0E991
:102120000041C0E90233C0E90432C0E9063303F0DC
:10213000A9FD00B910BDBDE81040FFF731BC00BFDC
:10214000F0100020005000400C480D490D4A10B519
:102150000023C0E900124FF480544FF48061042240
:10216000C0E90243C0E90412C0E9063303F08AFD66
:1021700000B910BDBDE81040FFF712BCA810002048
:1021800000100140A086010010B50A480A4C0B4916
:1021900000230C22C0E90041C0E90233C0E9043247
:1021A000C0E9063303F06EFD00B910BDBDE8104074
:1021B000FFF7F6BB601000200044004040420F00D3
:1021C00010B50B480B4C00234FF4E1310C22C0E951
:1021D0000041C0E90233C0E90432C0E9063303F02C
:1021E00051FD00B910BDBDE81040FFF7D9BB00BFDD
:1021F000181000200048004010B50B480B4C00237D
:102200004FF4E1310C22C0E90041C0E90233C0E9DA
:102210000432C0E9063303F035FD00B910BDBDE856
:102220001040FFF7BDBB00BFD00F002000140140DD
:10223000F0B50368A74A95B000249342CDE90E4457
:10224000CDE91044054612945AD0A34A934200F0B7
:102250009E80A24A934200F0F480A14A934209D0A2
:10226000A04A934200F05C819F4A934200F0BE81F5
:1022700015B0F0BD9D4B08941A6C9D489D4E42F4DC
:1022800000321A641A6C02F400320892089A099417
:102290001A6B42F008021A631B6B03F008030993E0
:1022A00060220223CDE90E23032707230EA9CDE9DF
:1022B0001173099A01F096F98F4834634FF0006367
:1022C000C6E900034FF48063336130460423C6E956
:1022D0000244C6E90544C6E90744C6E90A747362C4
:1022E00000F07EFF002840F0F1810022EE631146ED
:1022F0002620B56300F010FF262000F049FFB7E765
:102300007A4B01941A6C7D487D4E42F400221A6487
:102310001A6C02F400220192019A02941A6B42F0A4
:1023200001021A631B6B03F00103029303220223D1
:10233000CDE90E23032708230EA9CDE91173029AD4
:1023400001F050F96F4A34634FF00063C6E900238F
:102350004FF48063336130460423C6E90244C6E982
:102360000544C6E90744C6E90A74736200F038FF01
:10237000002840F09C8100221146EE633420B563B2
:1023800000F0CAFE342000F003FF15B0F0BD574B3B
:1023900003941A6C5C4842F480121A641A6C02F4BA
:1023A00080120392039A04941A6B42F004021A6397
:1023B0001A6B02F004020492049A05941A6B42F01C
:1023C00008021A631B6B03F008034FF48052059355
:1023D0000826022303270EA9CDE90E23CDE91176A5
:1023E000059B01F0FFF80223414812964FF0040EBE
:1023F0000EA9464E1197CDE90EE3109401F0F2F8C4
:10240000434A4FF00063C6E9002330464FF480632F
:10241000C6E90244C6E90434C6E90644C6E90844EC
:1024200000F0DEFE002840F04B8100221146EE63F2
:102430003520B56300F070FE352000F0A9FE15B020
:10244000F0BD2A4B06945A6C3248334E42F01002CB
:102450005A645A6C02F010020692069A07941A6B9C
:1024600042F002021A631B6B03F002030793C022BF
:102470000223CDE90E23032707230EA9CDE911730B
:10248000079A01F0AFF8DFF894C034634FF00063AF
:10249000C6E900C34FF48063336130460423C6E9C4
:1024A0000244C6E90544C6E90744C6E90A747362F2
:1024B00000F096FE002840F0068100221146EE63EF
:1024C0002520B56300F028FE252000F061FE15B040
:1024D000F0BD00BF004C0040005000400010014023
:1024E0000044004000480040001401400038024011
:1024F000000C02404C0E00208860024000000240A8
:102500006C0F002040600240000802400C0F0020C9
:102510001060024000040240AC0E00204064024003
:102520006F4B0A941A6C6F486F4E42F480221A6403
:102530001A6C02F480220A920A9A0B941A6B42F0E7
:1025400008021A631B6B03F008030B934FF44072ED
:102550000223CDE90E230EA907230327CDE911732A
:102560000B9A01F03FF8614934634FF00063C6E90C
:1025700000134FF48063336130460423C6E90244FC
:10258000C6E90544C6E90744C6E90A74736200F067
:1025900027FE002840F09D80554C5649EE634FF0D1
:1025A00000620023C4E9001240214FF48062C4E9B4
:1025B00002132261042103222046C4E90533C4E941
:1025C0000733C4E90912C4E90B33B56300F008FE10
:1025D000002840F081800022AC6311462720A563CB
:1025E00000F09AFD272000F0D3FD41E63C4B0C940F
:1025F0005A6C4148414E42F020025A645A6C02F033
:1026000020020C920C9A0D941A6B42F004021A6389
:102610001B6B03F004030D93C0220223CDE90E23AC
:10262000032708230EA9CDE911730D9A00F0DAFFF4
:10263000334A34634FF02063C6E900234FF48063CC
:10264000336130460423C6E90244C6E90544C6E9BD
:102650000744C6E90A74736200F0C2FD68BB294CE6
:102660002949EE634FF020620023C4E900124021A3
:102670004FF48062C4E90213226104210322204640
:10268000C4E90533C4E90733C4E90912C4E90B33CB
:10269000B56300F0A5FD68B90022AC631146472080
:1026A000A56300F039FD472000F072FDE0E5FFF77B
:1026B00077F960E6FFF774F9EEE7FFF771F9CEE717
:1026C000FFF76EF9B1E6FFF76BF9F6E6FFF768F989
:1026D0000BE6FFF765F95FE7FFF762F97BE700BFFD
:1026E00000380240000C0240EC0D0020286002403F
:1026F0008C0D002058600240000802402C0D002084
:1027000028640240CC0C0020A0640240DFF834D0E2
:10271000FFF7ECFA0C480D490D4A002302E0D458AB
:10272000C4500433C4188C42F9D30A4A0A4C00231B
:1027300001E013600432A242FBD3FDF7EFFFFFF785
:1027400005F9704700000220000000203806002034
:10275000F4B8000838060020146A0020FEE70000E4
:1027600038B50E4A0E4B1278054618684FF47A7346
:10277000B3FBF2F3B0FBF3F000F018FD08B90F2D36
:1027800001D9012038BD0446024629464FF0FF30EA
:1027900000F0C2FC034B20461D6038BD44050020FC
:1027A000400500204805002008B50B4B1A6842F48C
:1027B00000721A601A6842F480621A601A6842F461
:1027C00080721A60032000F095FC0F20FFF7C8FF0D
:1027D000FFF790F9002008BD003C0240034A044B7B
:1027E00011681B780B441360704700BF80110020F4
:1027F00044050020014B1868704700BF801100207D
:1028000038B50446FFF7F6FF631C054602D0044BBB
:102810001B781C44FFF7EEFF401BA042FAD338BDE3
:1028200044050020002800F09E8038B5056C044661
:102830003DB1236CDB060CD5002384F83C3001202D
:1028400038BDFEF7ABFD6564236C84F83C50DB06B5
:10285000F2D4236C474A23F4885323F0020343F055
:10286000020323645168236821F4403151605168A8
:102870006068014351605A682069A16822F480723F
:102880005A605A6842EA00225A605A68E06822F0A8
:1028900040725A605A680A435A609A68A16A22F4E0
:1028A00000629A609A6802439A60334A91429A6839
:1028B00051D022F07062E06A9A609A681143996080
:1028C0009A6822F040529A609A6802439A609A6825
:1028D00022F002029A609A68217E42EA41029A60DE
:1028E00094F82020002A40D05A68616A42F40062BD
:1028F0005A605A6822F460425A605A68013942EAC2
:1029000041325A60DA6AE16922F47002DA62DA6A04
:10291000013942EA0152DA629A68616922F400726E
:102920009A609A6894F8300042EA40229A609A6865
:1029300022F480629A609A68002042EA81229A60BA
:102940006064236C23F0030343F00103236400233A
:1029500084F83C3038BD22F070629A609A6822F0A8
:1029600040529A60B3E7012070475A6822F400622F
:102970005A60C7E7002301400100000F704700BF05
:10298000704700BF704700BF036870B51D685E6880
:10299000AA07044601D5B0064DD4690701D5320611
:1029A00017D4E90701D5720604D4A90601D572012E
:1029B00069D470BD1A68D007F7D5236C43F480330F
:1029C00023642046FFF7DCFF23686FF001021A60E2
:1029D000EBE7226CD00603D4226C42F4005222644E
:1029E0009A6812F4401F1ED19A6B12F4401F02D055
:1029F0009A68510517D45A68520514D49A6812F08F
:102A0000405F10D1227E72B95A6822F080025A606B
:102A1000236C23F480532364236CD80503D4236CE4
:102A200043F001032364204600F0E6F823686FF0CA
:102A30000C021A60B5E7226CD10603D4226C42F472
:102A4000007222649A6812F0405F14D1227E92B91B
:102A5000DA6A12F4700F23D15A6822F020025A6009
:102A6000236C23F480732364236CD80403D4236C75
:102A700043F0010323642046FFF780FF23686FF0D3
:102A800012021A6089E7626C6FF0200542F00202C0
:102A9000626420461D60FFF775FF23681D6070BDEE
:102AA0009A685205E7D4D7E770B590F83C3082B009
:102AB0000246012B4FF00000019000F093800123AB
:102AC00082F83C300D6813688C68092DA8B228D8AC
:102AD0001E6905EB450E4FF0070C0CFA0EFC26EABA
:102AE0000C061E611E6904FA0EF434431C614C6826
:102AF000062C04EB84012AD85C6B05394FF01F0CBF
:102B000088400CFA01F124EA01015963596B08432A
:102B1000586336498B422BD0002082F83C0002B02B
:102B200070BD00EB400CDE68ACF11E0C4FF0070EE0
:102B300004FA0CF40EFA0CFC26EA0C06DE60DE68E1
:102B40003443DC604C68062C04EB8401D4D90C2C93
:102B500034D81C6B23391F26884006FA01F124EA79
:102B600001011963196B0843204918638B42D3D1C3
:102B7000122D30D0A5F11003012BCDD81C494B6884
:102B8000102D43F400034B60C6D11A4B01F146717E
:102B90001B6801F52E3101F28331A1FB03139B0C5D
:102BA00003EB83035B000193019B002BB4D0019BDB
:102BB000013B0193019B002BF9D1ADE7DC6A413960
:102BC0001F26884006FA01F124EA0101D962D96A78
:102BD0000843D8629DE7D1F8043343F48003C1F879
:102BE000043399E7022002B070BD00BF002001400D
:102BF0000023014040050020704700BF00287BD023
:102C000038B590F820300446002B72D02268136843
:102C100043F001031360FFF7EDFD054604E0FFF705
:102C2000E9FD401B0A285BD823685A68D107F6D50E
:102C30001A6822F002021A60FFF7DCFD054604E084
:102C4000FFF7D8FD401B0A284AD823685A68920724
:102C5000F6D4227E012A1A680CBF42F0800222F0CC
:102C600080021A60627E012A1A680CBF42F040029C
:102C700022F040021A60A27E012A1A680CBF42F0BC
:102C8000200222F020021A60E27E012A1A680CBF9C
:102C900022F0100242F010021A60227F012A1A6804
:102CA0000CBF42F0080222F008021A60627F012A7B
:102CB0001A680CBF42F0040222F004021A60D4E940
:102CC0000220216902430A436069616802430139B5
:102CD0000A4300200121DA61606284F8201038BDC7
:102CE000636A052243F40033636284F820200120E4
:102CF00038BDFEF7F1FB89E70120704790F820C04E
:102D00000CF1FF3CBCF1010F6BD870B5046841B900
:102D1000E568AD0708D1436A43F40013436201201C
:102D200070BD2569AE07F6D004EB011C4FEA011E09
:102D3000DCF8B05105F004059560002D57D0DCF8A3
:102D4000B051ED085560DCF8B05105F00205D560D2
:102D5000DCF8B4512D0758BFDCF8B451DCF8B4618D
:102D600054BF05F00F05082515617444DCF8B45113
:102D7000C6F3072696612D0CD4F8B86155611E7014
:102D800002687244D2F8B821120A5A70026872447A
:102D9000D2F8B821120C9A7002687244D2F8B821A5
:102DA000120EDA7002687244D2F8BC211A710268FD
:102DB0007244D2F8BC21120A5A7102687244D2F8E5
:102DC000BC21120C9A7102687244D2F8BC21120E16
:102DD000DA71026881B9D36843F02003D360002020
:102DE00070BD436A43F48023436201207047DCF8DE
:102DF000B0516D0D1560A6E7136943F02003136110
:102E0000EDE700BF704700BF704700BF704700BFCD
:102E1000704700BF704700BF704700BF704700BFDA
:102E2000704700BF704700BF704700BF704700BFCA
:102E30002DE9F04F03685C69D3F804809F68D3F8EC
:102E40000CB0D3F81090D3F818A014F0010683B09A
:102E5000054625D0FA0700F1AA804FF400564FF43A
:102E600080400021FB0540F1B6802B684FF4807252
:102E70009A60BA0500F1AA807B0503D43E0540F1B3
:102E800005810646F9030BD52B684FF480329A6012
:102E9000BA0300F1E5807B0340F1DD8046F4004693
:102EA000210702D51BF0100F7BD1620703D51BF061
:102EB000080F40F09280A30704D52B68DB689F07BA
:102EC00040F0AB80600602D519F0100F63D1A10667
:102ED00003D519F0080F40F08780E20604D52B686F
:102EE0001B699B0740F08E80A70303D518F0100FD5
:102EF00040F08C80E00302D518F0080F7BD121044C
:102F000044D518F0040F2B683ED0E20544BF0AF008
:102F100001021643A70500F18480610504F40062F4
:102F20002ED51AF0040F2BD046F00406002A00F02C
:102F300088801AF0700A00F08480BAF1400F00F027
:102F4000B58000F29180BAF1200F00F0CA80BAF18A
:102F5000300F00F0BD80BAF1100F40F0A2809A69E6
:102F6000042122F070029A6146F0080659606B6AEB
:102F7000334328466B62FFF759FF03B0BDE8F08F7B
:102F800012B11AF0700AD8D104225A60002EEED184
:102F900003B0BDE8F08F2B68102246F480661A61FA
:102FA00095E72B68102246F40076DA607DE701226F
:102FB000BE079A6042D4790746D43A0763D54FF4E6
:102FC00040564FF4A0404FF480514BE72846019102
:102FD000FFF71AFF01990E4654E72B680822DA60C2
:102FE0002846FFF71BFF66E72B6808221A61284670
:102FF000FFF716FF71E72B6808225A602846FFF793
:1030000013FF7CE7284605F0F7F96DE72B681022DF
:103010005A602846FFF706FF6CE7284605F0B8F926
:1030200050E71AF0020F3FF478AF600546F0020651
:1030300004F400623FF575AF1AB17AE7FFF7E2FEDC
:103040000BE704225A6092E74FF420564FF4904069
:103050004FF4006106E738031FD546F480361FE7BA
:103060002846FFF7D3FE1BE7BAF1500F27D0BAF17D
:10307000600F16D19A69042122F070029A6146F419
:103080008076596073E7FFF7C3FEE6E628460191B4
:10309000FFF7C0FE01990E46F4E62846FFF7BCFE96
:1030A000FEE69A6922F070029A616DE79A6904213E
:1030B00022F070029A6146F04006596057E79A691B
:1030C000042122F070029A6146F0800659604EE7B2
:1030D0009A69042122F070029A6146F02006596034
:1030E00045E79A69042122F070029A6146F01006C1
:1030F00059603CE70749CA6803024FF6FF0003F432
:10310000E0630240134343F0BF6343F40033CB60FA
:10311000704700BF00ED00E01B4BDB68C3F30223E8
:1031200000B5C3F1070EBEF1040F03F1040C28BF74
:103130004FF0040EBCF1060F1CD9A3F1030C4FF0A5
:10314000FF3303FA0CF322EA03024FF0FF3303FAD2
:103150000EF321EA030303FA0CF313431B010028C7
:10316000DBB20ADB00F1604000F5614080F800331B
:103170005DF804FB00229446E7E7044A00F00F00E4
:10318000024413765DF804FB00ED00E0FCEC00E087
:10319000002807DB044A4109012300F01F00834097
:1031A00042F82130704700BF00E100E00138B0F183
:1031B000807F01D30120704710B44FF0E023074C0B
:1031C00058614FF0F00C84F823C00022072110460C
:1031D0009A615DF8044B1961704700BF00ED00E093
:1031E00038B50446FFF706FB002C6DD0236800229B
:1031F000022184F8351084F834201A6822F0010284
:1032000005461A6005E0FFF7F5FA431B052B37D892
:1032100023681A68D107F6D4D4E90120E168024393
:103220000A43D4E90451A0692A430A43E1691D68AD
:1032300002430A4331492940256A2A430A43616A05
:10324000042924D01A605A6922F007021143D8B227
:103250002B4A59611038A2FB0052120929496FF319
:103260000903895CE1655F2888BF04333F228A40F7
:10327000A36500209A600123606584F8353038BD6D
:1032800003232022626584F83530184638BDD4E91E
:103290000B512943114319605969A26A21F00701B2
:1032A000114341F00401002DD1D078B1B0F5005F99
:1032B00016D0022A03D9032AC9D1EA01C7D5402270
:1032C0000123626584F83530012038BD012A03D01E
:1032D00032F00202BBD1F0E7B5F1C07FB7D1EEE723
:1032E000032AB4D801A050F822F000BFBF32000872
:1032F000BB320008BF320008D93200083F8010F00E
:10330000ABAAAAAAECB7000870B490F83440856D57
:10331000012C0AD090F835404FF0010C644580F83C
:1033200034C005D0002380F83430022070BC7047D0
:10333000022680F83560046800264665266826F473
:103340008026266063608368402B0EBFA260A16068
:10335000E260C26D08BFE1603F239340AB60236829
:10336000026C43F0160323601AB1236843F008038C
:103370002360236843F001030020236070BC704782
:1033800070B50446866DFFF735FA94F83530022B98
:1033900006D080236365002384F83430012070BD9B
:1033A00023681A6822F016021A605A6922F0800215
:1033B0005A61226C054642B31A6822F008021A606C
:1033C0001A6822F001021A6005E0FFF713FA431BA6
:1033D000052B10D823681B6813F00103F5D1E16DAC
:1033E0003F228A40184601210023B26084F835103C
:1033F00084F8343070BD032320226265184684F8B7
:103400003530002384F8343070BDA26C002AD3D14B
:10341000D6E700BF90F83530022B03D080234365F8
:10342000012070470268052380F83530136823F0C7
:103430000103002013607047F0B583B0674A876DC1
:10344000166800230193C36D3D6808229A402A4202
:10345000044603D001680868400778D401229A40E6
:103460002A4203D02168496908066AD404229A4096
:103470002A4203D02168096889075CD410229A4047
:103480002A4203D021680868000741D420229A40CC
:103490002A4214D021680868C00610D5BA6094F892
:1034A0003520052A63D00B6813F4802F0B687ED07B
:1034B000190340F18980E36B0BB120469847636D97
:1034C00023B3636DDA071AD522684549052384F8CA
:1034D00035301368A1FB061623F00103B60A13600A
:1034E00002E01368DB0704D5019B0133B34201936B
:1034F000F7D90122002384F8352084F83430E36CB6
:1035000023B1204603B0BDE8F040184703B0F0BD3A
:10351000BA600A6812F4802F0A6822D1D20503D457
:103520000A6822F008020A60226C002AAED0204607
:103530009047E36DAAE7BA60626D42F004026265EB
:103540009CE7BA60626D42F0020262658EE708682D
:1035500020F004000860BA60626D42F0010262650A
:103560007CE71103E0D5A26C002AE0D18EE70A685F
:1035700022F016020A604A6922F080024A61226C37
:103580003AB30A6822F008020A603F2202FA03F303
:10359000216DBB600122002384F8352084F834308B
:1035A0000029B3D0204603B0BDE8F040084713F42B
:1035B000807380D10A6822F010020A60012284F828
:1035C000352084F8343076E7636C002B7FF475AFD8
:1035D00075E7A26C002AD4D1D7E700BF40050020D0
:1035E000B5814E1B2DE9F04FA44A0B68904285B07F
:1035F0004FF0000200F0D480DFF890824FF0010B12
:103600008A4603E00132102A00F09E800BFA02F194
:1036100001EA03069943F5D1DAF8044004F0030CFB
:10362000510003250CF1FF378D40012F6FEA05058E
:1036300050D9BCF1030F40F0A58107680CFA01F1E5
:103640003D40294314F4403F0160DBD08C4D002104
:103650000391696C41F480416964696C01F48041B3
:103660000391039922F0030101F1804101F59C319E
:1036700002F003078D68BF004FF00F0C0CFA07FC37
:1036800025EA0C0E7F4DA84261D07F4DA84200F084
:103690005681DFF8FCC1604500F05881DFF8F4C1C5
:1036A000604500F06181DFF8F0C1604500F06381A2
:1036B000DFF8E8C1604500F05081DFF8E4C1604503
:1036C0000CBF4FF0070C4FF0080C0CFA07F74EEA4E
:1036D000070542E0876807EA050EDAF80C708F40AC
:1036E00047EA0E078760476827EA060EC4F300170B
:1036F000974047EA0E074760C76807EA050EDAF801
:1037000008708F4047EA0E07BCF1020FC76094D1E2
:103710004FEAD20900EB890902F0070ED9F82070B0
:103720000097DAF810704FEA8E0E07FA0EF701973D
:103730000F2707FA0EFE009F27EA0E0E019F47EAA9
:103740000E07C9F8207078E705B0BDE8F08F4FF09C
:10375000010C0CFA07F74EEA07058D60D8F808103F
:10376000F543E70254BF29403143C8F80810D8F8A0
:103770000C10A70254BF29403143C8F80C10D8F8E8
:103780000410A70354BF29403143C8F80410D8F8E7
:103790000010E40354BF29403143C8F8001031E75A
:1037A000DFF8DCB04FF0010A02E00132102ACBD082
:1037B0000AFA02F403EA04069C43F6D14D68540069
:1037C000032707FA04FC05F003086FEA0C0908F167
:1037D000FF3CBCF1010F65D9B8F1030F40F0DC806C
:1037E000D0F800C008FA04F40CEA090C44EA0C040E
:1037F00015F4403F0460D8D000240394DBF8444023
:1038000044F48044CBF84440DBF8444004F4804462
:103810000394039C22F0030404F1804404F59C34D7
:1038200002F0030CD4F808E00F274FEA8C0C07FADB
:103830000CFC2EEA0C0CC4F808C0144CEF02A4686F
:103840006FEA060C79D404EA0C04104FBC60FC68E3
:10385000AF0270D404EA0C040C4FFC607C68AF0328
:1038600067D40CEA0404094FED037C603C685ED425
:103870000CEA0404054D2C6097E700BF00000240ED
:10388000003802400004024000080240003C0140B1
:10389000000C0240001002400014024000180240D8
:1038A000001C0240D0F808E0CF6809EA0E0E07FAC3
:1038B00004FC4CEA0E0CC0F808C0D0F804E0C5F3D4
:1038C000001C2EEA060E0CFA02FC4CEA0E0CC0F8A4
:1038D00004C0D0F80CE08F6809EA0E0E07FA04FC69
:1038E0004CEA0E0CB8F1020FC0F80CC07FF478AFB0
:1038F0004FEAD20C4FEA8C0C0CF1804C0CF5003CDA
:1039000002F0070EDCF8207000970F694FEA8E0E68
:1039100007FA0EF701970F2707FA0EFE009F27EA16
:103920000E0E019F47EA0E0ECCF820E058E7344314
:10393000A0E7344397E734438EE7344385E74FF0FD
:10394000020C0CFA07F74EEA070506E74FF0030CE6
:103950000CFA07F74EEA0705FFE64FF0060C0CFAE3
:1039600007F74EEA0705F8E64FF0040C0CFA07F7E4
:103970004EEA0705F1E64FF0050C0CFA07F74EEAA0
:103980000705EAE6C76807EA050EDAF808708F400F
:1039900047EA0E07C76050E6DFF818C08F68DCF80A
:1039A0000CE0A74009EA0E0E47EA0E0ECCF80CE038
:1039B00016E700BF0000024002B9090481617047A8
:1039C00018B338B5D0E90031826804464CF6CC40D3
:1039D000186045F25550186059609A60FEF70AFF6A
:1039E00023680546DA6891070AD0FEF703FF401BFB
:1039F00031282368F6D9DA689207F3D0032038BD5E
:103A00004AF6AA221A60002038BD0120704700BF84
:103A100030B583B008B390F895340568044603F0D8
:103A2000FF02002B00F0EF8128460323B5F1A04FE1
:103A300084F8953404BF0023A37102F013FE237CA5
:103A40008DF80030251D95E80E00206802F004FD79
:103A5000014630B1022384F895340125284603B08D
:103A600030BD206802F006FE0028F3D12279002A3A
:103A700000F0B3814FF48073012AC4E90700A382E8
:103A8000E0852076606200F0C48140F20113238754
:103A9000022A4FF00103C4E91000A4F8523084F860
:103AA0003C00A06400F0E2804FF48173A4F85C3025
:103AB000032A4FF00203C4E91900A4F8763084F811
:103AC0006000E06600F0D28040F20313A4F880307A
:103AD000042A4FF00303C4E92200A4F89A3084F8C2
:103AE0008400C4F8900000F0C1804FF48273A4F801
:103AF000A430052A4FF00403C4E92B00A4F8BE301B
:103B000084F8A800C4F8B40000F0B08040F20513B7
:103B1000A4F8C830062A4FF00503C4E93400A4F81D
:103B2000E23084F8CC00C4F8D80000F09F804FF455
:103B30008373A4F8EC30072A4FF00603C4E93D0074
:103B4000A4F8063184F8F000C4F8FC0000F08E8080
:103B500040F207110023A4F81011082A4FF00701C2
:103B6000C4E94633A4F82A1184F81431C4F820318A
:103B70007CD04FF48471A4F83411092A4FF0080165
:103B8000C4E94F33A4F84E1184F83831C4F84431F5
:103B90006CD040F20911A4F858110A2A4FF009011B
:103BA000C4E95833A4F8721184F85C31C4F8683160
:103BB0005CD04FF48571A4F87C110B2A4FF00A01F8
:103BC000C4E96133A4F8961184F88031C4F88C31CB
:103BD0004CD040F20B11A4F8A0110C2A4FF00B01AD
:103BE000C4E96A33A4F8BA1184F8A431C4F8B03136
:103BF0003CD04FF48671A4F8C4110D2A4FF00C018B
:103C0000C4E97333A4F8DE1184F8C831C4F8D431A0
:103C10002CD040F20D11A4F8E8110E2A4FF00D013E
:103C2000C4E97C33A4F8021284F8EC31C4F8F8310A
:103C30001CD04FF48771A4F80C120F2A4FF00E011C
:103C4000C4E98533A4F8261284F81032C4F81C3273
:103C50000CD040F20F11C4E98E33A4F830120F21BA
:103C6000A4F84A1284F83432C4F840320023012107
:103C7000022AC4E99733C4E9A033A4F8543284F883
:103C80005832C4F86432A4F8781284F87C32C4F84C
:103C9000883200F0A2800221032AC4E9A933A4F8E3
:103CA0009C1284F8A032C4F8AC3200F09680032154
:103CB000042AC4E9B233A4F8C01284F8C432C4F8A8
:103CC000D03200F08A800421052AC4E9BB33A4F86D
:103CD000E41284F8E832C4F8F4327ED00521062AD2
:103CE000C4E9C433A4F8081384F80C33C4F81833B7
:103CF00073D00621072AC4E9CD33A4F82C1384F825
:103D00003033C4F83C3368D00721082AC4E9D633DD
:103D1000A4F8501384F85433C4F860335DD00821FC
:103D2000092AC4E9DF33A4F8741384F87833C4F89B
:103D3000843352D009210A2AC4E9E833A4F898133D
:103D400084F89C33C4F8A83347D00A210B2AC4E96D
:103D5000F133A4F8BC1384F8C033C4F8CC333CD09E
:103D60000B210C2AC4E9FA33A4F8E01384F8E433F5
:103D7000C4F8F03331D00C210D2AA4F8041484F8CF
:103D80000834C4F80C34C4F81034C4F8143424D003
:103D90000D210E2AA4F8281484F82C34C4F83034E9
:103DA000C4F83434C4F8383417D00E210F2AA4F8DC
:103DB0004C1484F85034C4F85434C4F85834C4F85B
:103DC0005C340AD00F22A4F8702484F87434C4F848
:103DD0007834C4F87C34C4F88034207C95E80E0034
:103DE0008DF80000206802F07DFC054600287FF475
:103DF00031AE01236074206884F8953403F092F8A2
:103E0000284603B030BD80F8942404F06DF9206892
:103E10000BE6C4E99700A4F8540284F85802C4F8E9
:103E20006402DAE710B590F89434012B0446006878
:103E300017D0012384F89434C3685B0602D5637BF2
:103E4000012B09D002F006FC206803F05BF8002388
:103E500084F89434184610BD836B43F48033836335
:103E6000F0E7022010BD00BF2DE9F04F066889B0D1
:103E70000446304603F094F810B109B0BDE8F08F65
:103E80000546206803F05EF80028F6D0D6F808381A
:103E90002068C3F30D23C4F8D43406F500630393FC
:103EA00003F050F810F0020F20681EBF436903F0C2
:103EB0000203436103F046F810F0100F206814D09D
:103EC000836923F010038361376A07F4F013B3F5B5
:103ED000802F07F00F0800F0B783B3F5402F00F0F4
:103EE0005683836943F01003836103F02BF810F4C9
:103EF000002F206840F0B18203F024F8470300F15E
:103F00001082206803F01EF80028C0F28281206829
:103F100003F018F8030500F13D81206803F012F862
:103F2000C00400F1A081206803F00CF810F4005FD9
:103F3000206840F0818103F005F8010700F1E88175
:103F4000206802F0FFFF020671D5B36923F08003F9
:103F5000B3612379012B6AD994F87B22012A00F0FE
:103F6000E083022B63D994F89F22012A00F0F483A6
:103F7000032B5CD994F8C322012A00F00183042B9F
:103F800055D994F8E722012A00F01483052B4ED965
:103F900094F80B23012A00F01A84062B47D994F8D1
:103FA0002F23012A00F02784072B40D994F85323AC
:103FB000012A00F03984082B39D994F87723012A93
:103FC00000F04684092B32D994F89B23012A00F093
:103FD00053840A2B2BD994F8BF23012A00F0608464
:103FE0000B2B24D994F8E323012A00F06D840C2BC9
:103FF0001DD994F80724012A00F072840D2B16D9DC
:1040000094F82B24012A00F08E840E2B0FD994F8FB
:104010004F24012A00F095840F2B08D994F87334AB
:10402000012B04D1206804F58E6102F07BFE20682C
:1040300002F088FFC30240F1AB802379012B40F2EC
:10404000898094F83C20D6F82019012A00F061827A
:10405000022B7FD994F86020D6F84019012A00F08D
:104060006B82032B76D994F88420D6F86019012A44
:1040700000F06E82042B6DD994F8A820D6F8801930
:10408000012A00F07182052B64D994F8CC20D6F86F
:10409000A019012A00F03983062B5BD994F8F0208F
:1040A000D6F8C019012A00F04B83072B52D994F897
:1040B0001421D6F8E019012A00F05583082B49D9BC
:1040C00094F83821D6F8001A012A00F05883092BF9
:1040D00040D994F85C21D6F8201A012A00F06B83AD
:1040E0000A2B37D994F88021D6F8401A012A00F01B
:1040F00076830B2B2ED994F8A421D6F8601A012AC6
:1041000000F086830C2B25D994F8C821D6F8801AA4
:10411000012A00F091830D2B1CD994F8EC21D6F8DC
:10412000A01A012A00F09C830E2B13D994F81022B8
:10413000D6F8C01A012A00F0A7830F2B0AD994F8E9
:104140003422D6F8E01A012A00F0B283102B01D9EC
:10415000D6F8003B2068436903F48013436102F002
:10416000F1FE870221D4206802F0ECFE400000F14D
:10417000C680206802F0E6FE41077FF57EAE236828
:104180005D686A0700F181825A682A435A6074E6C2
:104190002068E4E7039B9B68DF0700F172822068D8
:1041A000436903F400634361B8E694F804C0BCF1CA
:1041B000010F28D906F532622346012106E00131BC
:1041C000614502F1200203F124031CD093F87C0224
:1041D00015680128F3D1002DF1DAD4F8D47405F470
:1041E000803507F00107BD42E9D183F87B02B06951
:1041F00040F08000B06170690506E0D4039A53680E
:1042000043F4007353602068436903F4001343616F
:10421000AAE7039A536823F00103536094F8CC345F
:10422000012B00F08281204603F0ECFF20684369F7
:1042300003F0004343616BE602F0B6FE206802F033
:10424000A5FBE071256801F01BF8E27901462846DC
:1042500002F086F9204603F0A7FF2068436903F4C3
:104260000053436167E6039A2068536823F0010313
:104270005360102102F062FB2079D8B106F510637B
:104280004FF67F3199601A6822F400121A60C3F861
:104290000812D3F8002222F40012C3F80022D3F847
:1042A0000022013542F000628542C3F8002203F18A
:1042B0002003E7D1039AD36943F00113D361E37B71
:1042C000002B40F01B81536943F4005343F02B0350
:1042D0005361136943F00B031361D6F8003820686B
:1042E00023F4FE63C6F80038A17904F29C4202F080
:1042F0006BFE2068436903F48053436114E6204653
:1043000003F08CFF2068436903F08043436131E789
:10431000204603F045FF2068436903F0080343612A
:104320000FE6206802F01AFE81462068B9F1000FFE
:104330003FF4E8ADCDE9046506F51067A0464FF0FF
:10434000000A064609E05FEA59090AF1010A08F184
:10435000240807F1200700F0378119F0010FF2D08F
:104360005FFA8AFB3046594602F00AFEC20705464C
:1043700012D503980121436B0AF00F0201FA02F2F1
:1043800023EA02034363B960A179012900F0828125
:104390005946204603F0FAFE2B0744BF0823BB60B2
:1043A000EE0644BF1023BB60680644BF4023BB60D9
:1043B000A90700F13D812A062668C4D5D8E909532A
:1043C000AB42C0D806F51061D8F81C00079601EB87
:1043D0004A11A5EB030C84458A6928BF84461FFA5D
:1043E00082FE0CF1030CBEEB9C0FC0F08A81069795
:1043F0000F4621E0ED1AD8F81C30D8F820109D4265
:1044000028BF1D46A37900935A46ABB2304602F04E
:10441000D3FCD8F82030BA692B44C8F82030D8F83B
:10442000283092B22B440335B2EB950FC8F82830F0
:10443000C0F06381D8F824509D42DBD8069F2668DF
:10444000079B0AF00F0503F500610122D3F8343809
:10445000AA4023EA02034B6375E702F077FD0746A3
:104460002068002F3FF448AD049506F53068A34658
:104470004FF0000A254608E07F080AF1010A08F11A
:1044800020080BF1240B00F09C80FC07F4D55FFAA8
:104490008AF4214602F06AFD10F0010F814640F0D7
:1044A000A88019F0080F40F0938019F0100F1CBF7E
:1044B0001022C8F8082019F0020F0FD072691106F7
:1044C00004D5039B5A6842F480625A609BF85722D5
:1044D000012A00F02D810223C8F8083019F0200FBE
:1044E0001CBF2023C8F8083019F4005F18BF4FF430
:1044F0000053286818BFC8F80830BDE7D2F88430E8
:1045000043F00B03C2F88430536C43F00B03536445
:10451000E3E60029BFF69CAD206884F83B2004F157
:10452000380102F0FFFB237992E5002184F8CC14D6
:10453000204600F0EFFB79E60029BFF692AD206837
:1045400084F85F2004F15C0102F0ECFB237988E53C
:104550000029BFF68FAD206884F8832004F1800124
:1045600002F0E0FB237985E50029BFF68CAD2068D9
:1045700084F8A72004F1A40102F0D4FB237982E59A
:10458000206804F5307102F0CDFB2379F7E40822AE
:1045900004F29C41304608EBC80802F023FC04EB0F
:1045A0008802C7F30A13D2F8681220680B44C2F8D5
:1045B000683296E4206804F5397102F0B3FB237980
:1045C000E4E42C46049D97E43046059D049E99E45E
:1045D00029680822C8F80820086C01F53062BE4935
:1045E00002EB4A128842936867D8284603F0BEFD62
:1045F0005BE728680122C8F80820A979D0F840E0D4
:1046000000F5306202EB4A120129936867D0B34982
:104610008E4500F0C080BAF1000F04D1D5F86422B5
:10462000002A00F088812146284603F0A5FD38E7DE
:104630000498514602F082F998F81730012B00F0E7
:10464000B2800223BB60B6E647F6F0731F423FF428
:1046500048AC08EBC80804EB8808C7F30A12D8F87E
:1046600060123046174602F0BDFBD8F86032206871
:104670003B44C8F86032D8F868323B44C8F8683226
:104680002FE4204603F0A6FD89E5204603F0CAFD8D
:10469000236879E5D8E907231344C8F82030BAF134
:1046A000000F7FF475AE636A002B7FF471AE206853
:1046B00004F29C4202F088FC6AE6180444BF4FF4FE
:1046C00000419160284603F051FDA97901297FF44A
:1046D000ECAE286805F29C4202F076FCE5E619078C
:1046E00040F191807C498E457FF6DBAE18047FF562
:1046F000D8AE4FF400419160D3E6069FD8F824501D
:1047000026689D423FF61FAE9AE60029BFF6C4AC6C
:10471000206884F8CB2004F1C80102F003FB237960
:10472000BAE4206804F51E7102F0FCFA237918E45B
:10473000002221468BF85722284603F067FDCAE67F
:104740000029BFF6B2AC206884F8EF2004F1EC0138
:1047500002F0E8FA2379A8E4206804F5277102F052
:10476000E1FA237904E40029BFF6A8AC206884F8B4
:10477000132104F5887102F0D5FA23799EE400290B
:10478000BFF6A5AC206884F8372104F59A7102F0D1
:10479000C9FA23799BE41904ABD49B067FF543AF98
:1047A000202191603FE7002388F8173059462046C2
:1047B00003F030FD45E70029BFF692AC206884F88D
:1047C0005B2104F5AC7102F0ADFA237988E420682E
:1047D00004F5427102F0A6FA2379FFF7DEBB002947
:1047E000BFF687AC206884F87F2104F5BE7102F023
:1047F00099FA23797DE4206804F54B7102F092FA6E
:104800002379FFF7D1BB990672D52021916048E644
:104810000029BFF677AC206884F8A32104F5D07195
:1048200002F080FA23796DE4206804F5547102F0F7
:1048300079FA2379FFF7BFBB0029BFF66CAC20687B
:1048400084F8C72104F5E27102F06CFA237962E47E
:10485000206804F55D7102F065FA2379FFF7B2BBB9
:104860000029BFF661AC206884F8EB2104F5F471EF
:1048700002F058FA237957E4206804F5667102F0D3
:1048800051FA2379FFF7A5BB0029BFF656AC206883
:1048900084F80F2204F5037102F044FA23794CE402
:1048A000206804F56F7102F03DFA2379FFF798BB99
:1048B0000029BFF64BAC206884F8332204F50C7154
:1048C00002F030FA237941E4206804F5787102F0AF
:1048D00029FA2379FFF78BBB0A30544F0A31544F22
:1048E000206804F2044102F01DFA2379FFF786BB29
:1048F0001B498E4502D91B043FF5FBAE1169DBF85D
:104900007422C1F31201521ACBF86822BAF1000FD7
:104910007FF489AED5F86412D9B1D5F8601211448C
:10492000C5F860127FE6206804F5856102F0FAF9A7
:104930002379FFF76ABB05F29C42514602F044FB23
:1049400071E6206804F24C4102F0ECF92379FFF79C
:1049500063BB05F29C42012102F036FB63E600BF17
:104960000A30544F90F89424012A0DD010B5044613
:104970000122006884F89424617402F0B3FA0023E1
:1049800084F89434184610BD0220704710B501F029
:104990000F0E0EEBCE0C090604464FEA8C0C27D402
:1049A0000CF5157101440EEBCE0004EB80004FF0C6
:1049B000000C80F855C2C2F30A028A604A7881F876
:1049C00000E00B710AB1A1F81AE0022B04BF00232A
:1049D0004B7194F89434012B16D0012384F894344D
:1049E000206801F0DFFF002384F89434184610BDDE
:1049F0000CF1140101440EEBCE0004EB80004FF0EB
:104A0000010C80F815C0D6E7022010BD01F00F039D
:104A100001F00F0210B503EBC3030446090602EBD5
:104A2000C2004FEA830304EB800016D403F515732C
:104A3000E1184FF0000C80F855C20A7094F89434D5
:104A4000012B15D0012384F89434206801F0F2FF83
:104A5000002384F89434184610BD1433E1184FF045
:104A6000010C80F815C00A7094F89434012BE9D138
:104A7000022010BD10B501F00F0E0EEBCE0C00EBB6
:104A80008C0C1446CCF8643200238CF854E2CCF839
:104A90006022CCF868328CF855328279242101FBEF
:104AA0000E01012A01F5157108BFCCF870420068AB
:104AB00002F022F8002010BD01F00F0101EBC1014E
:104AC00000EB8100D0F86802704700BF10B501F01C
:104AD0000F0E0EEBCE0C00EB8C0C1446CCF82430F1
:104AE0000023CCF8283001238CF814E0CCF82020E7
:104AF0008CF815308279242101FB0E019A4201F1D4
:104B0000140108BFCCF83040006801F0F5FF002028
:104B100010BD00BF38B5037901F00F05AB4232D3A9
:104B20000B0604461CD401EBC103242202FB010145
:104B300000EB830301F51571002283F85522012350
:104B40008B700D7094F894249A421AD0206884F8DF
:104B5000943402F06DF9C5B1002084F8940438BD96
:104B600005EBC503242101FB050100EB83030122B2
:104B700014315A7501238B700D7094F894249A4265
:104B8000E4D1022038BD012038BDA179206804F2AB
:104B90009C4202F019FADFE738B5037901F00F0201
:104BA00093422ED3044602EBC20302EBC200090675
:104BB0004FEA830304EB800016D403F51573E11864
:104BC000002580F8555200258D700A7094F89434B1
:104BD000012B14D00123206884F8943402F056F994
:104BE00084F89454284638BD1433E11801254575DE
:104BF00000258D700A7094F89434012BEAD10220BC
:104C000038BD012038BD00BF00681204436A19B9DD
:104C1000134383620020704730B4846A013903EB88
:104C200014436BD0D0F80441012903EB144365D041
:104C3000D0F80841022903EB14435FD0D0F80C41AF
:104C4000032903EB144359D0D0F81041042903EB96
:104C5000144353D0D0F81441052903EB14434DD02D
:104C6000D0F81841062903EB144347D0D0F81C4173
:104C7000072903EB144341D0D0F82041082903EB66
:104C800014433BD0D0F82441092903EB144335D019
:104C9000D0F828410A2903EB14432FD0D0F82C4137
:104CA0000B2903EB144329D0D0F830410C2903EB36
:104CB000144323D0D0F834410D2903EB14431DD005
:104CC000D0F838410E2903EB144317D0D0F83C41FB
:104CD0000F2903EB144311D0D0F84041102903EB06
:104CE00014430BD0102404F1400C00EB8C0C013465
:104CF000DCF804508C4203EB1543F4D3403100EB55
:104D000081011A43002030BC4A60704703680020CC
:104D100059627047704700BF002800F0D8812DE924
:104D2000F0410368DD0782B004462FD59D498A68AB
:104D300002F00C02042A00F0EC808A6802F00C02F7
:104D4000082A00F0E2806368B3F5803F00F0EB8052
:104D5000B3F5A02F00F07381924D2A6822F48032BF
:104D60002A602A6822F480222A60002B40F0E0802A
:104D7000FDF740FD064605E0FDF73CFD801B64287D
:104D800000F200812B689F03F6D423689D0728D585
:104D9000844A916811F00C0F00F09B80916801F03B
:104DA0000C01082900F09180E368002B00F00C81D1
:104DB0007D4B7C4E01221A60FDF71CFD054605E087
:104DC000FDF718FD401B022800F2DC8033689F07C6
:104DD000F6D53368226923F0F80343EAC20333604F
:104DE00023681A075CD45D073AD56E4A136C13F03A
:104DF000805340F088800193136C43F08053136418
:104E0000136C03F080530193019B0125674E3368B7
:104E1000D80540F1A780A368012B00F0B780052BCF
:104E200000F01D815F4E326F22F001023267326F57
:104E300022F004023267002B40F0AD80FDF7DAFC6F
:104E400041F28838074605E0FDF7D4FCC01B404519
:104E500000F29880336F9B07F6D4002D40F0F98064
:104E6000A369CBB14F4DAA6802F00C02082A00F0EA
:104E7000BC80022B4C4B4FF000021A6600F0F98008
:104E8000FDF7B8FC044604E0FDF7B4FC001B022863
:104E900078D82B689B01F7D4002002B0BDE8F081E0
:104EA0006369FBB1404B3F4E0122C3F8802EFDF7F2
:104EB000A1FC054604E0FDF79DFC401B022861D8DB
:104EC000736F9B07F7D523688DE7526851023FF552
:104ED0006BAF344A1268920738D5E268012A35D0A0
:104EE0000120DAE7304A2F4EC2F8803EFDF782FCFF
:104EF000054604E0FDF77EFC401B022842D8736F94
:104F00009F07F7D4DFE7002580E74A6851027FF565
:104F10001AAF244A126892037FF538AF6268002AFC
:104F20007FF434AFDCE71F4A136843F48033136027
:104F3000FDF760FC1B4E054604E0FDF75BFC401BE3
:104F400064281FD833689B03F7D51EE715492069ED
:104F50000A6822F0F80242EAC0020A601A077FF5E6
:104F600042AF9DE7336843F480733360FDF742FC42
:104F700007463368D9053FF54EAFFDF73BFCC01B34
:104F80000228F6D9032002B0BDE8F081054A136F6C
:104F900043F001031367FDF72DFC024F064641F273
:104FA00088380AE0003802400000474200700040A4
:104FB000FDF720FC801B4045E4D83B6F9A07F7D5EE
:104FC000002D3FF44DAF44E0424A434E1360FDF7DD
:104FD00011FC054604E0FDF70DFC401B0228D1D86A
:104FE00033689907F7D42368FBE6012B3FF478AFC9
:104FF0006B68E26903F4800191427FF471AF226A29
:1050000003F03F0191427FF46BAF616A47F6C072D3
:105010001A40B2EB811F7FF463AFA26A520803F417
:105020004031013AB1EB024F7FF45AAFE26A03F02C
:105030007063B3EB026F14BF012000202DE7264BF5
:105040001A6842F480221A601A6842F480321A60A8
:105050006EE7214A136C23F08053136400E71E4B64
:105060001A6F42F004021A671A6F42F001021A67BF
:1050700091E7FDF7BFFB064605E0FDF7BBFB801B94
:1050800002283FF67FAF2B689901F6D4D4E90731A7
:10509000626A0B4343EA8213D4E90A2052080D499D
:1050A00043EA0063013A43EA024301226B600A6665
:1050B000FDF7A0FB084D044605E0FDF79BFB001B38
:1050C00002283FF65FAF2B689A01F6D5E4E601208F
:1050D000704700BF0000474200380240164908B53B
:1050E0008B6803F00C03042B1BD0082B01D0134852
:1050F00008BD4A684B68496813F4800302F03F0218
:1051000011D10E48C1F38811A1FB0001FBF758F83B
:10511000094B5B68C3F3014301335B00B0FBF3F061
:1051200008BD074808BD0648C1F388110023A1FB4C
:105130000001FBF745F8EBE7003802400024F400DB
:1051400040787D01002800F08780484A136803F00A
:1051500007038B422DE9F0410D46044609D2CBB23C
:105160001370136803F007038B4202D00120BDE8DF
:10517000F0812368980714D5590704D53C498A68FB
:1051800042F4E0528A601A0704D539498A6842F429
:1051900060428A603649A0688A6822F0F0020243C1
:1051A0008A60DF0721D56268012A57D0931E012B40
:1051B0002F4B1B684DD99907D8D52D4EB36823F0D6
:1051C00003031343B360FDF715FB41F2883807462C
:1051D00004E0FDF70FFBC01B404544D8B36862688C
:1051E00003F00C03B3EB820FF3D1204A136803F0F2
:1051F0000703AB4206D9EBB21370136803F0070341
:10520000AB42B3D123685A0706D51949E0688A68CA
:1052100022F4E05202438A601B0707D5144A216931
:10522000936823F4604343EAC1039360FFF756FF9A
:105230000F4A104C92681049C2F303120346A25C55
:105240000E48D34000680B60FDF78AFA0020BDE8E5
:10525000F0819801B1D489E701207047044B1B68A5
:105260009E03AAD482E7032081E700BF003C0240EE
:1052700000380240DCB70008400500204805002047
:10528000014B1868704700BF40050020044B0549DA
:105290009B68054A0868C3F38223D35CD8407047F3
:1052A0000038024040050020D4B70008044B0549EF
:1052B0009B68054A0868C3F34233D35CD840704703
:1052C0000038024040050020D4B7000800285CD018
:1052D00070B50446406A002847D00023C4E904336F
:1052E00094F851300022A26203F0FF01002B42D05B
:1052F00094462168A568A269266A022384F8513081
:105300000B6823F040030B60636805F4044503F465
:1053100082732B43E56805F400652B43256905F08E
:1053200002052B43656905F001052B43E56906F08D
:10533000800E02F4007605F0380533432B43120C3F
:1053400000F0100043EA0E0302F0040243EA0C03EB
:1053500002430B604A60CB69002023F40063012202
:10536000CB61606584F8512070BD6368B3F5827FBE
:10537000B6D0E061B4E7204684F85010FCF736FB65
:10538000D4E9090303F4005CB3E70120704700BFD0
:10539000704700BF30B502685168936813F0400F42
:1053A00085B00446C3F3801516D113F0010F53D115
:1053B00098076AD508067CD4980613D4DB0568D50F
:1053C0008D0666D5636D002043F008036365039086
:1053D00093680393039B18E0980742D5080668D4A6
:1053E000980640D5880654D5002D56D1606D40F002
:1053F000010060650020029090680290106820F023
:10540000400010600298DB05DCD4636D002B40D0B7
:105410005368012023F0E0038D07536084F85100A6
:1054200059D05368E06C23F00303536040B12C4B18
:105430000365FDF7EFFF18B1636D43F0400363654B
:10544000A06C30B3264B0365FDF7E4FF08B3636D32
:1054500043F0400363651CE011F0400FA8D0036CDB
:1054600029E09D0617D4880613D594F85100032827
:1054700017D0606D40F00400606500200090D06897
:105480000090906800900098BDE7980696D5880631
:10549000ACD405B030BD8D06FBD594F8510003287F
:1054A0000DD100230193D368019393680193019B6D
:1054B000EFE7636C204605B0BDE830401847606DEB
:1054C00040F00400606500200090D0680090906873
:1054D000009000988AE72046FFF75AFFD9E700BFFF
:1054E000E554000808B5806B0023C387C386FFF727
:1054F0004FFF08BD002800F08F8038B590F83D3090
:10550000044603F0FF02002B00F08180226843492B
:10551000022384F83D308A42136864D0B2F1804F90
:1055200030D0A1F57C418A422CD001F580618A42BD
:1055300028D001F580618A4224D001F578418A4261
:1055400051D037498A4221D001F580618A421DD06D
:1055500001F580618A4219D0A1F598318A4215D0AF
:1055600001F580618A4211D001F580618A420DD037
:10557000A5696168E06823F080032B431360D06263
:10558000916210E0A16823F070030B432069A169C8
:1055900023F44073034323F08003E0680B43616806
:1055A0001360D0629162012353611369DB0703D555
:1055B000136923F001031361012384F8463084F852
:1055C0003E3084F83F3084F8403084F8413084F82D
:1055D000423084F8433084F8443084F8453084F80D
:1055E0003D30002038BDA068216923F070030343DB
:1055F00023F440730B43A16923F080030B43136032
:10560000E368D3626368936263691363CBE780F8EE
:105610003C20FCF723FD79E70120704700000140A2
:1056200000400140002800F08F8038B590F83D30F0
:10563000044603F0FF02002B00F0818022684349FA
:10564000022384F83D308A42136864D0B2F1804F5F
:1056500030D0A1F57C418A422CD001F580618A428C
:1056600028D001F580618A4224D001F578418A4230
:1056700051D037498A4221D001F580618A421DD03C
:1056800001F580618A4219D0A1F598318A4215D07E
:1056900001F580618A4211D001F580618A420DD006
:1056A000A5696168E06823F080032B431360D06232
:1056B000916210E0A16823F070030B432069A16997
:1056C00023F44073034323F08003E0680B436168D5
:1056D0001360D0629162012353611369DB0703D524
:1056E000136923F001031361012384F8463084F821
:1056F0003E3084F83F3084F8403084F8413084F8FC
:10570000423084F8433084F8443084F8453084F8DB
:105710003D30002038BDA068216923F070030343A9
:1057200023F440730B43A16923F080030B43136000
:10573000E368D3626368936263691363CBE780F8BD
:105740003C20FCF75FFC79E7012070470000014036
:105750000040014090F83C30012B00F0C78001234D
:1057600070B5844680F83C300C2A08D8DFE802F097
:105770003E07070768070707940707070C00002381
:105780008CF83C30012070BD03680D681A6A186AF5
:1057900020F4805018625C68D86920F4E64040EA42
:1057A00005208D6822F4005242EA05326B4DAB426F
:1057B00000F0AE8005F58065AB4200F0A9805C602A
:1057C000D861486818641A62DA69096942F40062AB
:1057D000DA61DA6922F48062DA61DA6942EA012286
:1057E000DA6100238CF83C30002070BD03680D683E
:1057F0001A6A186A20F0010018625C68986920F043
:10580000730028438D6822F002022A43534DAB42B5
:1058100000F0848005F58065AB427FD05C609861C4
:10582000486858631A629A69096942F008029A61E5
:105830009A6922F004029A619A690A439A61D0E750
:1058400003680D681A6A186A20F0100018625C6814
:10585000986920F4E64040EA05208D6822F0200295
:1058600042EA05123D4DAB4267D005F58065AB427B
:1058700063D05C609861486898631A629A690969A4
:1058800042F400629A619A6922F480629A619A698C
:1058900042EA01229A61A4E703680D681A6A186A4D
:1058A00020F4807018625C68D86920F07300284387
:1058B0008D6822F4007242EA0522284DAB4217D0CF
:1058C00005F58065AB4213D05C60D8614868D86349
:1058D0001A62DA69096942F00802DA61DA6922F0CB
:1058E0000402DA61DA690A43DA617AE70220704772
:1058F000CD6822F4006242EA0522D1E9056524F46C
:10590000405446EA050E22F4806244EA0E14DBE7B6
:105910004D6924F4804444EA851450E7CD6822F0B0
:1059200008022A43D1E9056524F4407446EA050ECD
:1059300022F004024EEA040470E7CD6822F08002EF
:1059400042EA0512D1E9056524F4406446EA050EF1
:1059500022F0400244EA8E048BE700BF00000140C1
:1059600090F83C20012A6ED00346026830B4012032
:10597000022483F83C0083F83D40946824F47F447B
:1059800024F0770494600C68602C76D011D8402CF9
:105990005BD02ED8202C04D000F2888034F0100187
:1059A0001FD1916821F07001214341F007019160FE
:1059B00016E0B4F5805F13D0B4F5005F33D0702CDF
:1059C0000FD1D1E9015094682843CD6824F47F4178
:1059D00040EA052008439060916841F077019160AA
:1059E00000200121002283F83D1083F83C2030BCC8
:1059F0007047502CF5D14868CC68116A21F00A0133
:105A00000843116A21F001011162916921F0F0014E
:105A100041EA041191611062916821F0700141F036
:105A200057019160DCE7D1E9015094682843CD68C3
:105A300024F47F4140EA052008439060916841F4D6
:105A400080419160CCE7022070474868CC68116AB9
:105A500021F00A010843116A21F0010111629169E4
:105A600021F0F00141EA041191611062916821F086
:105A7000700141F047019160B2E74868CC68116A53
:105A800021F0A00141EA0011106A20F0100010621C
:105A9000906920F4704040EA04309061116291688E
:105AA00021F0700141F06701916099E7302C3FF4DB
:105AB00078AF96E7704700BF704700BF704700BFE0
:105AC000704700BF036870B5DE681D69A90704460A
:105AD00001D5B20751D4690701D572073AD42B0713
:105AE00001D5300724D4EA0601D5F30610D4E8071F
:105AF00001D5F10757D42A0601D533065BD46806D1
:105B000001D571065FD4AA0601D5B30642D470BD93
