:020000040800F2
:100000000000032059390008A52D0008A92D00087B
:10001000AD2D0008B12D0008B52D0008000000002E
:10002000000000000000000000000000B92D0008E2
:10003000BD2D000800000000C12D0008C52D0008DE
:10004000A9390008A9390008A9390008A939000808
:10005000A9390008A9390008A9390008A9390008F8
:10006000A9390008A9390008A9390008A9390008E8
:10007000C92D0008A9390008D52D0008E12D000878
:10008000ED2D0008F92D0008052E0008A9390008FB
:10009000112E00081D2E0008A9390008A9390008F2
:1000A000A9390008A9390008A9390008A9390008A8
:1000B000A9390008A9390008292E0008A939000823
:1000C000A9390008A9390008A9390008A939000888
:1000D000A9390008352E0008412E00084D2E0008D1
:1000E000A9390008A9390008A9390008A939000868
:1000F000A9390008A9390008A9390008A939000858
:10010000A9390008A9390008592E0008A9390008A2
:10011000A9390008A9390008A9390008A939000837
:10012000652E0008712E00087D2E0008892E00081B
:10013000952E0008A9390008A9390008A939000836
:10014000A12E0008AD2E0008A9390008B92E00081C
:10015000A9390008C52E0008A9390008D12E0008C9
:10016000A9390008A9390008A9390008A9390008E7
:10017000A9390008A9390008A939000800000000C1
:10018000A9390008A9390008DD2E0008E92E000869
:10019000A9390008F52E0008A9390008A939000876
:0C01A0000000000000000000A939000869
:1001C00000F08CB808B52DED028BF0EE408AB0EE51
:1001D000608A00F029F9F4EE488AF1EE10FA06D6AA
:1001E000DFED098AB4EE688AF1EE10FA02D0BDECB8
:1001F000028B08BD01F04CF988EEA80ABDEC028B19
:100200002123036008BD00BF0000000008B52DEDEC
:10021000048BB0EE608AB0EE409A00F0B7F9B4EE0D
:10022000488AF1EE10FAF0EE408A0BD6B5EE409A0D
:10023000F1EE10FA17D1B5EE408AF1EE10FA06D1C0
:10024000F7EE008AB0EE680ABDEC048B08BDB0EE94
:10025000480A00F039F80028F4D0B5EEC08AF1EE73
:1002600010FAEFD525E000F02FF888B1F5EE408ABE
:10027000F1EE10FAE6D1B0EE490A00F025F80028B8
:10028000E0D0B0EE480A00F01FF80028DAD010E005
:10029000B0EE490A00F018F80028E7D0B0EE480A9E
:1002A00000F012F80028E1D0F4EE688AF1EE10FABE
:1002B00004D601F0EDF822230360C3E701F0E8F86B
:1002C00021230360BEE700BF10EE103A23F0004088
:1002D000B0F1FF4FACBF00200120704710B582B0D5
:1002E000CDED010A019B23F00042B2F1FF4FF0EE89
:1002F000407A30D810EE100A20F00041B1F1FF4FE3
:1003000029D8B3F17E5F42D09C1704F0020444EA7E
:10031000D07431B37AB3B2F1FF4F40D0B1F1FF4F97
:1003200029D0891AB1F1F45F4FEAE15234DA002B97
:1003300042DA3C3240DA9FED340A012C4ED0022CD6
:1003400043D064B19FED317ADFED317A30EE070AA8
:1003500030EE670A03E09DED017A37EE270A02B01E
:1003600010BD022C10D09FED2B7A032C08BFB0EEED
:10037000470A02B010BD9FED280ADFED287A002859
:10038000B8BFB0EE670AEAE79FED210AE7E702B0DF
:10039000BDE8104000F040BC9FED1F0ACDE7B1F171
:1003A000FF4F04F1FF3420D0022C26D81C4B03EB66
:1003B000840393ED030AD2E79DED017A87EE870A65
:1003C00000F0FAFC00F028FCB7E79FED107ADFEDB3
:1003D000107A30EE070A37EEC00AC0E710EE103A86
:1003E00003F1004300EE103AB9E7022C08D80C4B99
:1003F00003EB840393ED000AB1E79FED030AAEE738
:100400009FED080AABE700BF000000002EBDBB3324
:10041000DB0F4940DB0F49C0DB0FC93FDB0FC9BF12
:100420006C500108DB0F493F70B582B0CDED010A79
:10043000019921F00040431EB3F1FF4F42D210EE6C
:10044000104A24F00045B5F1FF4F3BD285423FDB17
:1004500004F0004C3ED014F0FF4F01F0FF4659D19C
:100460002B02002BC8BF6FF07D0279DD5B00002BF3
:1004700002F1FF32FADC002E5DD103024DD46FF0A1
:100480007D0E5B000EF1FF3EFBD512F17E0F57DBB8
:10049000C4F3160444F400031EF17E0F46DA6FF035
:1004A0007D01A1EB0E0100FA01F1B2EB0E0204D1C5
:1004B00017E00FD04300013A13D0581A0028F8DA99
:1004C0005B00F8E7DDED017A60EE277A87EEA70A98
:1004D00002B070BD2C4B03EB5C7393ED000A02B0CD
:1004E00070BD591A58BF0B461BB9F3E75B000EF1FC
:1004F000FF3EB3F5000FF9DB1EF17E0F26DBA3F5FF
:1005000000030EF17F0E43EA0C0343EACE5300EEE4
:10051000103ADDE7EA157F3AADE712F17E0F2BDAEC
:100520006FF07D0EAEEB020305FA03F3C1F3160183
:1005300041F40001B9E74FEAE05EAEF17F0EA4E7B7
:100540006FF07D039B1A05FA03F3A5E76FF07D02B8
:10055000A2EB0E02134143EA0C0300EE103AB7E798
:1005600036B14FEAE05EAEF17F0E6FF07D028FE7AD
:1005700003026FF07D0282D5C4F3160444F4000335
:100580006FF07D0ED2E700BF845001082DE9F043E3
:100590002DED028B83B0CDED010A8DED000ADDE972
:1005A000004535F0004610D184F48004640014F551
:1005B000000F1BD9DDED007A9DED017A37EE870A39
:1005C00003B0BDEC028BBDE8F08324F00047B7F127
:1005D000FF4F02D8B6F1FF4F0FD9B4F17E5FE9D1DA
:1005E00085F480056D0015F5000FE3D8B7EE000A1D
:1005F00003B0BDEC028BBDE8F083002CB846C0F21E
:10060000F180B6F1FF4F00F00281B6F17E5F00F09D
:100610004481B5F1804F00F051814FF00009B5F1F0
:100620007C5F40F01C81002C9DED000A80F24B8124
:1006300000F0C2FBB7F1FF4F00F02481002F00F063
:100640002181B7F17E5F00F01481E20F013A59EA8F
:10065000020300F04481B6F19A4F40F26781A34B48
:100660009F4240F26882A24B9F4200F27182F7EEF5
:10067000007A30EE670A9FED9F6ADFED9F5AF5EE34
:10068000007AA0EE676AF6EE006AE6EE406A20EEB7
:10069000007ADFED9A7A9FED9A6A27EE267A67EE66
:1006A000C77AE0EE257AF0EE676AE0EE066A16EEAB
:1006B000903A23F47F6323F00F0306EE903AB0EEF6
:1006C000667AA0EE467A77EEC77A25F47F6525F044
:1006D0000F059DED017A06EE105A67EE877A37EE28
:1006E000466A07EE105AE6EE267A09F1FF3959EA12
:1006F000020926EE877ABFEE008A77EE876AB7EEA8
:10070000006A16EE902A18BFB0EE468A002A1346F9
:1007100022F0004140F3D681B1F1864F00F24582CC
:1007200000F02982B1F17C5F00F24782002210467E
:1007300023F47F6323F00F0306EE103ADFED716AB6
:100740009FED713A9FED712ADFED713A9FED714A8D
:10075000DFED714A9FED715A36EE477AF0EE002ACE
:1007600077EEC77A26EE267ADFED6D6AA7EEA67AD7
:10077000B7EE000AF0EE476AE6EE036A66EEA65AA6
:10078000F0EE667AE5EE823AE6EE437AB0EE446A3F
:10079000A3EEA56A77EE677AB0EE647AA6EE257AC4
:1007A000B0EE456AA7EE256AB0EE667AA6EE657AE7
:1007B000E6EEA77A66EE875A37EE626A85EE867AAB
:1007C00077EE677A77EEE67A30EE670A10EE103A47
:1007D0001344B3F5000FC0F2B88100EE103A20EEDA
:1007E000080AEDE6B6F1974F21D2B6F17E5F24D22A
:1007F000B5F1804F62D0B5F17C5F2ED100F0DCFA0C
:10080000B7F1FF4F3FF4DCAE4FF0000916E7B7F148
:100810007E5F3FF4EBAE45D99FED420ADDED017AF4
:10082000002DB8BFF0EE407AB0EE670AC8E6B6F128
:10083000FF4FECD04FF00209F1E6F315C3F1960338
:1008400046FA03F202FA03F3B34200F02781B6F14D
:100850007E5F22D0B5F1804F30D04FF000099DED82
:10086000000A00F0A9FAB7F1FF4F02D0002F7FF481
:10087000E8AE002DBCBFF7EE007A87EE800A002CB0
:10088000BFF69EAEA7F17E5757EA090740F01381E5
:1008900070EE407A87EEA70A92E6002D07DB9DED09
:1008A000000A8DE6002D15DB9FED1E0A88E69DED02
:1008B000007AF7EE007A87EE870A81E6DDED007AAE
:1008C00027EEA70A7CE603B0BDEC028BBDE8F0433F
:1008D00000F032BBDDED017AB1EE670A70E6DDEDC6
:1008E000007A77EEE77A87EEA70A69E6F3FF7F3FA3
:1008F0000700803FABAAAA3E70A5EC363BAAB83FE2
:1009000000AAB83F8CBEBF350072313F4CBB3133BB
:100910000EEADDB555B38A38610B36BBABAA2A3E69
:100920001872313F000000000000804B14F0FF4FB0
:1009300040F0FF805FED047A60EE277A6FF01703D6
:1009400017EE908AA2484FEAE851C8F316087F399B
:100950008045194448F07E5340F3E3809D4880452C
:1009600040F300819FED9C4A0131B0EE443AA3F57B
:100970000003F7EE005A002006EE903A76EEA57AD4
:10098000B7EE007A87EE270A5B1043F0005303F5B9
:100990008023034436EEE56A07EE901A66EE003ACD
:1009A000B8EEE77A07EE903A13EE901A8B4BDFED34
:1009B0008C0A9FED8C8A9FED8C1ADFED8C2ADFED7F
:1009C0008C1A9FED8C2A77EEE55A194076EEE55A9F
:1009D00006EE901A23EEA35AA6EEE76AF0EE607ACE
:1009E000E5EE087AA6EEE56AA7EE851A26EE006A1D
:1009F000E1EE052A73EEA67AE2EE851A25EE058A67
:100A0000A1EE852A67EE867AF0EE084AF0EE645A87
:100A1000E6EEA65AE8EE027ADFED770A9FED771A46
:100A2000DFED772A75EEA75A15EE901A194005EEFC
:100A3000901A75EEE44AE6EEE64A77EEE47A67EE5F
:100A4000A37AE6EE257AB0EE676AA6EEA56A16EE00
:100A5000101A194006EE101AB0EE465AA6EEE55AE4
:100A600077EEC57A67EEA07AE6EE017A77EE837AC2
:100A7000F0EE676AE6EE226A76EE846A76EE876AC0
:100A800016EE901A194006EE901A36EEC77A37EE37
:100A9000447AA6EE627A77EEC77A16E6B6F17E5F02
:100AA0003FF4FBAEB5F1804F3FF408AF02F0010216
:100AB000C2F10209D3E6B9F1010F7FF481ADB1EEC5
:100AC000400A7DE54F48814279D87FF42BAE76EE1F
:100AD000C76AF4EEE76AF1EE10FA70DA86214FF495
:100AE00000037E3943FA01F11144C1F3C7547F3C3E
:100AF00003F17F43C1F31600234140F40000C4F129
:100B000017042041002A03EA0103B8BF404206EE61
:100B1000903A37EE667AC20577EE876A16EE903A1B
:100B200006E69FED2D4AF7EE005AB0EE443A00205B
:100B300022E7002306E7002D0CDB002003B0BDEC0C
:100B4000028BBDE8F04300F0CDB900F03DF946E678
:100B5000002DF2DD002003B0BDEC028BBDE8F043B8
:100B600000F0C6B99FED284A9FED283AF7EE085AE3
:100B70004FF4001000E79FED266A76EEC76A37EE65
:100B8000866AB4EEE66AF1EE10FA0EDC02F5004277
:100B9000204BD1157F39C2F316000B4140F4000001
:100BA000C1F1170113400841B1E7B5EEC08AF1EE7B
:100BB00010FA4CBF01200020CDE7C9158FE7B5EE34
:100BC000C08AF1EE10FA4CBF01200020B6E700BF4A
:100BD00071C41C00D6B35D000000000000F0FFFFF0
:100BE00055326C3E42F1533E05A38B3EABAAAA3E62
:100BF000B76DDB3E9A99193F4F38763FA0C39D36BB
:100C00000038763F0000164300C0153FDCCFD135D9
:100C10003CAA3833000080FF38B510EE105A25F09A
:100C20000044B4F1A14FF0EE407A0DD3B4F1FF4F80
:100C300058D8DFED4F7A9FED4F7A002DCCBFB0EE44
:100C4000470AB0EE670A38BD4B4B9C4259D8B4F105
:100C5000445F4AD34FF0FF3227EEA76A9FED475A11
:100C60009FED477ADFED475ADFED474A66EE066AA9
:100C7000531CA6EE857AE6EEA54A9FED445ADFEDB9
:100C8000445AA7EE265AE4EEA65A9FED427ADFEDCB
:100C9000424AA5EE267AE5EEA64A9FED405ADFEDE0
:100CA000405AA7EE265A9FED3F7AA4EEA67AE5EECB
:100CB000265A27EE267AA5EE867A27EE877A35D051
:100CC000394B03EB820393ED046AD3ED006A37EEF0
:100CD000467A002D37EE677A36EEC70AB3DAB1EE00
:100CE000400A38BD30EE000A38BD9FED307A30EE54
:100CF000077AF7EE006AB4EEE67AF1EE10FAA9DDB3
:100D000038BD00F059F82A4B9C4212D8A3F5D00305
:100D10009C4223D8F0EE007ABFEE007AA0EE277A4C
:100D2000002230EE270AC7EE007A95E737EEC70AB1
:100D300038BD204B9C420BD8F7EE087AB7EE007A0C
:100D4000A0EE277A022230EE670AC0EE077A83E728
:100D5000BFEE007AC7EE007A03227DE7F7EE007A55
:100D600030EE677A30EE270A0122C7EE007A73E789
:100D7000DB0FC9BFDB0FC93FFFFFDF3ED769853CF3
:100D800059DA4B3D21A215BD6BF16EBD356B883D27
:100D900095879DBD6E2EBA3D388EE3BD2549123E26
:100DA000ABAAAA3ECDCC4CBE8C500108CAF2497108
:100DB000FFFF973FFFFF1B4010EE103A23F0004368
:100DC00000EE103A704700BF10EE103A33F00041C9
:100DD0001A4627D0B1F1FF4F21D213F0FF4F22D195
:100DE000DFED2B7A2B4A60EE277A904217EE903A8D
:100DF00033DB4CF2503CC3F3C75160451A46A1F1B6
:100E0000190116DDDFED247ADFED246A002BB0EE48
:100E1000677AB8BFF0EE667A27EE870A704730EE41
:100E2000000A704770474CF2503C60454FEAD15180
:100E3000E8DC0144FE29E5DC002915DC11F1160F80
:100E400019DB193122F0FF4242EAC15207EE902A23
:100E50009FED130A27EE800A7047DFED127A07EE46
:100E6000103A27EE270A704722F0FF4242EAC153A8
:100E700000EE103A7047DFED0B7ADFED0B6A002BC6
:100E8000B0EE677AB8BFF0EE667A27EE870A704751
:100E90000000004CB03CFFFFCAF24971CAF249F1B0
:100EA000000000336042A20D6042A28D10B52DED0E
:100EB000028BB0EE408A044600F0EAFAB0EE480A2F
:100EC000BDEC028B046010BD28B1F1EE407A27EE34
:100ED000800A2220EAE7F0EE407A27EE800A2220FC
:100EE000E4E700BF9FED010AEEE700BF000000103D
:100EF0009FED010AE8E700BF0000007000289FEDA9
:100F0000060AF7EE007ABFEE007A18BFF0EE477AD5
:100F100087EE800A2220C9E700000000F0EE407A48
:100F200030EE407AF4EE677AF1EE10FA87EE070AB7
:100F300001D62120BAE77047B1EEC00A704700BF62
:100F400053B94AB9002908BF00281CBF4FF0FF3130
:100F50004FF0FF3000F0E2B8ADF1080C6DE904CEBF
:100F600013F066F9DDF804E0DDE9022304B0704710
:100F700000F1340191E838009C46A6464CF8045D27
:100F800090E8FF0FE54600BD90EC210B704700BFD5
:100F900080EC210B704700BF90EC200B704700BF26
:100FA00080EC200B704700BFD0EC200B704700BFD7
:100FB000C0EC200B704700BFF0EC0201F0EC021116
:100FC000F0EC0221F0EC0231F0EC0241F0EC0251C5
:100FD000F0EC0261F0EC0271F0EC0281F0EC0291B5
:100FE000F0EC02A1F0EC02B1F0EC02C1F0EC02D1A5
:100FF000F0EC02E1F0EC02F1704700BFE0EC02011E
:10100000E0EC0211E0EC0221E0EC0231E0EC024104
:10101000E0EC0251E0EC0261E0EC0271E0EC0281F4
:10102000E0EC0291E0EC02A1E0EC02B1E0EC02C1E4
:10103000E0EC02D1E0EC02E1E0EC02F1704700BF2D
:10104000B0FC0181B0FC0191B0FC01A1B0FC01B188
:10105000704700BFA0FC0181A0FC0191A0FC01A190
:10106000A0FC01B1704700BFEC4600B52DE900506F
:101070002DE9FF1F4FF000032DE90C0001A913F02B
:1010800062FBDDF840E012B0704700BFEC4600B5EF
:101090002DE900502DE9FF1F4FF000032DE90C0052
:1010A00001A913F087FBDDF840E012B0704700BFE4
:1010B000EC4600B52DE900502DE9FF1F4FF000036D
:1010C0002DE90C0001A913F095FBDDF840E012B00A
:1010D000704700BFEC4600B52DE900502DE9FF1F19
:1010E0004FF000032DE90C0001AB13F059FBDDF8C4
:1010F00040E012B0704700BFEC4600B52DE900504B
:101100002DE9FF1F4FF000032DE90C0001AA13F099
:10111000C3FBDDF840E012B0704700BF704700BF6E
:1011200008B5062000F0F8F8012001F0F3FE00BF3A
:10113000002301461A46184600F0EEBC830730B57E
:1011400047D0541E002A3ED0CAB2034601E0013CFB
:1011500039D303F8012B9D07F9D1032C2CD9CDB23B
:1011600005EB05250F2C05EB054535D9A4F110023B
:1011700022F00F0C03F1100EE6444FEA121C1A463F
:10118000156055609560D56010327245F8D10CF14C
:10119000010214F00C0F03EB021204F00F0C13D039
:1011A000ACF1040323F003030433134442F8045B5B
:1011B0009A42FBD10CF003042CB1C9B21C4403F8D1
:1011C000011B9C42FBD130BD64461346002CF4D178
:1011D000F9E703461446C0E71A46A446E0E700BF15
:1011E00038B5D0F818410CB1002038BD8021054633
:1011F00000F02CFE0246C5F8180130B1031F7C3206
:1012000043F8044F9342FBD1EEE74FF0FF3038BD77
:1012100030B51F2983B0054609D8D0F818310C46DF
:1012200053B153F8240043F8242003B030BD1623F3
:1012300003604FF0FF30F8E78021019200F006FED6
:10124000019AC5F8180103460028F2D0011F00F1E9
:101250007C05002041F8040FA942FBD1E1E700BF63
:101260001F2938B505461FD8D0F818210C466AB199
:1012700052F8213053B1012B06D0591C10D0002157
:1012800042F8241020469847002038BD284600F038
:10129000FDF8224601462846BDE8384000F0E0B897
:1012A00016230360012038BD162303604FF0FF3082
:1012B00038BD00BF1F292CD838B5D0F818310C46DE
:1012C0000546A3B153F8242003EB84034AB1511C13
:1012D0000BD0012A07D0002520461D6090472846E4
:1012E00038BD012038BD032038BD022038BD802123
:1012F00000F0ACFD0346C5F8180138B1021F00210B
:101300007C3042F8041F9042FBD1DBE74FF0FF3006
:1013100038BD4FF0FF30704738B5144B1F281D689B
:101320001ED8D5F81821044662B152F820304BB1CE
:10133000012B05D0591C0FD0002142F820109847EE
:10134000002038BD284600F0A1F822460146284674
:10135000BDE8384000F084B816232B60012038BD6A
:1013600016232B604FF0FF3038BD00BF0000002077
:10137000124B1F2870B51E6809D8D6F818310446DC
:101380000D464BB153F8240043F8245070BD16238A
:1013900033604FF0FF3070BD8021304600F056FDC5
:1013A0000346C6F818010028F3D0021F00217C3044
:1013B00042F8041F9042FBD1E4E700BF0000002088
:1013C00038B50C4B1D68D5F818410CB1002038BD5C
:1013D0008021284600F03AFDC5F8180138B1031FF6
:1013E00000F17C0243F8044F9342FBD1EEE74FF04B
:1013F000FF3038BD0000002038B5184B1F281D688D
:1014000028D80446D5F81801A0B150F8243000EBD4
:1014100084004BB15A1C0BD0012B07D0002505606E
:1014200020469847284638BD012038BD032038BDE6
:10143000022038BD8021284600F008FDC5F81801BB
:1014400040B1031F00F17C01002243F8042F9942B0
:10145000FBD1DAE74FF0FF3038BD00BF00000020BD
:1014600070B50C46084D03460026204611461C4622
:101470002E6001F047FD431C00D070BD2B68002B8F
:10148000FBD0236070BD00BFCC09002001F038BD47
:10149000014B1868704700BF0000002070B50F4B6B
:1014A0000F4DAB42A3EB050607D0B610002455F84C
:1014B000043B01349847A642F9D813F0BBFD094D0F
:1014C000094B5E1BAB424FEAA60606D0002455F836
:1014D000043B01349847A642F9D870BD6C640108FA
:1014E0006C6401086C6401087864010838B5074D24
:1014F000074C2C1BA41005D0013C55F8043D98471F
:10150000002CF9D1BDE8384013F09ABD7C64010885
:1015100078640108704700BF704700BF704700BF84
:10152000704700BF704700BF704700BF0120704781
:1015300001207047704700BF704700BF00000000E7
:1015400002780B78012A28BF9A4240F0D8806DE9D2
:10155000044540EA0104CDE902676FF0000C4FEA50
:1015600044721AB380EA010414F0070F6BD100F043
:10157000070420F0070004F0030521F007014FEAFB
:10158000C505F0E8042314F0040FF1E804670CFA31
:1015900005F462EA040266EA04060BD063EA040377
:1015A000624667EA0407664604E000BFF0E80423E9
:1015B000F1E8046782FA4CF582EA0604A4FA8CF496
:1015C0006CBB83FA4CF583EA0705A5FA8CF595B94F
:1015D00050E9022351E9026782FA4CF582EA0604D7
:1015E000A4FA8CF483FA4CF583EA0705A5FA8CF586
:1015F0002543DBD09CB92DBAB5FA85F424F0070455
:1016000027FA04F1DDE9026723FA04F303F0FF008F
:1016100001F0FF01FDE80445A0EB0100704724BA8A
:10162000B4FA84F424F0070426FA04F1DDE9026731
:1016300022FA04F202F0FF0001F0FF01FDE8044588
:10164000A0EB0100704714F0030F3CD110F003042D
:1016500028D150F8082B51F8083B82FA4CF582EA61
:101660000305A5FA8CF55DB950F8042C51F8043C3B
:1016700082FA4CF582EA0305A5FA8CF5002DE8D034
:101680002DBAB5FA85F424F0070423FA04F122FAFE
:1016900004F202F0FF0001F0FF01FDE80445A0EBB9
:1016A000010070474FEAC40420F0030050F8082BF3
:1016B00021F0030151F8083B0CFA04F462EA040239
:1016C00063EA0403C9E710F003041DD0A1EB040191
:1016D00020F00300E40750F8042B06D012D28B78D8
:1016E0005FFAA2F4E41A06D12BB1CB785FFAB2F418
:1016F000E41A00D133B920465DF8104B7047A2EBD5
:101700000300704701F1040150F8042BCC0721F0CD
:10171000030151F8043B48D824D222F07F4482FAD6
:101720004CF594EA1325A5FA8CF50AD165B951F860
:10173000043B84EA0204B4EB036F0ED150F8042B8F
:10174000EBE74FEA132355E035F07F454DD108789C
:10175000FDE80445C0F1000070474FEA126203F053
:10176000FF0347E002EA1C4482FA4CF594EA134571
:10177000A5FA8CF50AD165B951F8043B84EA020454
:10178000B4EB034F0CD150F8042BEBE74FEA1343B3
:1017900030E015EA1C4528D10B884FEA124229E0B7
:1017A0004FEA124203EA1C4324E002F0FF0482FAEB
:1017B0004CF594EA1365A5FA8CF50AD165B951F890
:1017C000043B84EA0204B4EB032F09D150F8042B44
:1017D000EBE74FEA13630DE015F0FF0F05D10B683F
:1017E0004FEA122223F07F4304E04FF00000FDE8AF
:1017F0000445704712BA1BBA82FA4CF482EA030419
:10180000A4FA8CF5B5FA85F402FA04F203FA04F3AB
:101810004FEA1260FDE80445A0EB1360704700BF7B
:1018200080EA0102844612F0030F4FD111F0030F3A
:1018300032D14DF8044D11F0040F51F8043B0BD098
:10184000A3F101329A4312F0803F04BF4CF8043BED
:1018500051F8043B16D100BF51F8044BA3F10132FB
:101860009A4312F0803FA4F101320BD14CF8043BB3
:10187000A24312F0803F04BF51F8043B4CF8044BE4
:10188000EAD023460CF8013B13F0FF0F4FEA332355
:10189000F8D15DF8044B704711F0010F06D011F834
:1018A000012B0CF8012B002A08BF704711F0020F22
:1018B000BFD031F8022B12F0FF0F16BF2CF8022B0D
:1018C0008CF8002012F47F4FB3D1704711F8012B30
:1018D0000CF8012B002AF9D1704700BF844641EA79
:1018E000000313F003036DD1403A41D351F8043B98
:1018F00040F8043B51F8043B40F8043B51F8043BEA
:1019000040F8043B51F8043B40F8043B51F8043BD9
:1019100040F8043B51F8043B40F8043B51F8043BC9
:1019200040F8043B51F8043B40F8043B51F8043BB9
:1019300040F8043B51F8043B40F8043B51F8043BA9
:1019400040F8043B51F8043B40F8043B51F8043B99
:1019500040F8043B51F8043B40F8043B51F8043B89
:1019600040F8043B51F8043B40F8043B403ABDD2F8
:10197000303211D351F8043B40F8043B51F8043B9A
:1019800040F8043B51F8043B40F8043B51F8043B59
:1019900040F8043B103AEDD20C3205D351F8043B29
:1019A00040F8043B043AF9D2043208D0D2071CBFF5
:1019B00011F8013B00F8013B01D30B88038060461E
:1019C000704700BF082A13D38B078DD010F0030394
:1019D0008AD0C3F10403D21ADB071CBF11F8013B04
:1019E00000F8013B80D331F8023B20F8023B7BE753
:1019F000043AD9D3013A11F8013B00F8013BF9D27E
:101A00000B7803704B7843708B7883706046704717
:101A100000000000000000000000000000000000C6
:101A200000000000000000000000000000000000B6
:101A300000000000000000000000000000000000A6
:101A400030B490F800F020F007016FF0000C10F0B7
:101A5000070491F820F040F048804FF000046FF048
:101A60000700D1E9002391F840F000F1080082FA64
:101A70004CF2A4FA8CF283FA4CF3A2FA8CF34BBB2F
:101A8000D1E9022382FA4CF200F10800A4FA8CF2A8
:101A900083FA4CF3A2FA8CF3E3B9D1E9042382FA76
:101AA0004CF200F10800A4FA8CF283FA4CF3A2FA8B
:101AB0008CF37BB9D1E9062301F1200182FA4CF2C3
:101AC00000F10800A4FA8CF283FA4CF3A2FA8CF32A
:101AD000002BC6D0002A04BF04301A4612BAB2FA4C
:101AE00082F200EBD20030BC7047D1E9002304F051
:101AF0000305C4F100004FEAC50514F0040F91F886
:101B000040F00CFA05F562EA05021CBF63EA050322
:101B100062464FF00004AAE72DE9F8431B4D064644
:101B2000286898460F469146FFF7FEFC184B1C6844
:101B30001CB3286865681F2D22DC4EB96B1C02356A
:101B4000636044F82570FFF7F7FC0020BDE8F883D8
:101B500004EB85010123C1F88890D4F88821AB40BB
:101B60001A43022EC4F88821C1F80881E6D1D4F8BE
:101B70008C211A43C4F88C21E0E7064C1C60D8E79E
:101B8000FFF7DAFC4FF0FF30E0E700BF280100204C
:101B9000800B0020F00900202DE9F84306460820BC
:101BA000894600F02BFCDFF8A4800546304600F0A3
:101BB00007FCD8F808305F6827F00307A7F1110485
:101BC000A4EB09042C44B4FBF5F4013C05FB04F43C
:101BD000A54208DC0021304600F0FEFBD8F80830B2
:101BE0003B44984205D0304600F0F0FB0020BDE8B1
:101BF000F8836142304600F0EFFB01300FD0114A0C
:101C0000D8F808303F1B47F001075F601368304683
:101C10001B1B136000F0DAFB0120BDE8F8830021F4
:101C2000304600F0D9FBD8F80820831A0F2BDADDF4
:101C300043F001035360044B02491B68C01A08605B
:101C4000D1E700BF880B00203805002030010020BC
:101C500000297CD02DE9F0410C46804600F0B0FB15
:101C600054F8043C764FA4F1080523F001016818EC
:101C7000BE684268864222F0030200F08380DE07DD
:101C8000426000EB020C33D454F8084CDCF804300A
:101C90002D1B2144AC6807F1080C644503F00103D7
:101CA00064D0D5F80CE0C4F80CE0CEF80840002B66
:101CB00000F0818041F001036B600160B1F5007FAD
:101CC00022D27868CB080122490901338A400243B5
:101CD00057F833107A6007EBC302083AC5E90212DD
:101CE00047F83350CD604046BDE8F04100F06EBB90
:101CF000DCF80430DB072BD541F00103B1F5007FA0
:101D000044F8043C0160DCD3B1F5206F4FEA512365
:101D100053D28B0903F1390003F13802C300F818DC
:101D2000FB580838984203D163E09B68984204D07E
:101D30005A6822F003028A42F7D8D868C5E902300F
:101D40008560DD604046BDE8F04100F03FBB704774
:101D5000114407F1080C836863453FD0C268DA601C
:101D6000936041F001036B606950A7E7002B61D1DC
:101D70000A44D0E90213CB60996042F001036B6022
:101D8000AA50B0E7DB070A4407D454F8083CED1A20
:101D90001A44D5E90213CB60996042F001036B60ED
:101DA000284BBD601B6893429DD8274B404619685D
:101DB000FFF7F2FE97E71144CDE7142B08D9542B17
:101DC0001FD80B0B03F16F0003F16E02C300A6E7EF
:101DD00003F15C0003F15B02C300A0E741F00103E3
:101DE0003D617D61C5F808C0C5F80CC06B606950E5
:101DF00079E779689210012404FA02F20A437A60C2
:101E00009CE7B3F5AA7F06D8CB0B03F1780003F16A
:101E10007702C30083E740F25452934206D88B0CFA
:101E200003F17D0003F17C02C30078E74FF47E7379
:101E30007E2274E741F001036B60016053E700BF4D
:101E4000300100203C050020840B00202DE9F04FDC
:101E500001F10B05162D83B0064624D8102900F297
:101E6000B08000F0ADFA102518224FF0020CC14FDF
:101E70003A44A2F1080354689C4200F03081636840
:101E8000E268A16823F003032344CA6091605A68A2
:101E900042F0010230465A60083400F097FA2046BA
:101EA00003B0BDE8F08F35F0070500F18A80A94244
:101EB00000F2878000F084FAB5F5FC7FC0F07981EC
:101EC0006B0A00F08280042B00F23081AB0903F131
:101ED000390C03F138044FEACC03A64F3B44A3F17D
:101EE00008005B68984206D10CE0002980F2E5808A
:101EF000DB68984206D05A6822F00302511B0F2972
:101F0000F3DDA446DFF870823C69444500F0C280EE
:101F1000636823F00309A9EB05030F2B00F34E813F
:101F2000002BC7E9048880F23881B9F5007FD7F823
:101F300004E080F0DB804FEAD90101314FEA591902
:101F4000012303FA09F357F83120A2604EEA030E89
:101F500007EBC103083BE360C7F804E047F83140F2
:101F6000D4604FEAAC0301209840704533D810EAA2
:101F70000E0F07D12CF0030C400010EA0E0F0CF1ED
:101F8000040CF9D007EBCC0A5346E146D9680EE0C1
:101F90004A6822F00302A2EB050EBEF10F0F0C46B9
:101FA000C96800F3D080BEF1000F80F2E9808B4257
:101FB000EED109F1010919F0030F03F10803E5D18E
:101FC00028E10C233360002469E74FF400734FF0DD
:101FD000400C3F2481E7BC68636823F00309A945EE
:101FE00003D3A9EB05030F2B57DCDFF890B1DBF827
:101FF00000200820103202EB050800F0FFF9D7F8A6
:1020000008140131024604EB090305D008F1FF383A
:102010008044414201EA080841463046CDE9003299
:1020200000F0DAF9B0F1FF3FDDE90032824600F05E
:10203000E280834200F2DD80DBF804104144CBF8FB
:102040000410084602F1FF3C40F001811AEA0C0F2F
:1020500040F0FD80D7F808A0C84448F00100CAF855
:102060000400DBF82C208A42DBF8302038BFCBF8A4
:102070002C108A4238BFCBF83010544620F00308A9
:10208000A845A8EB050301D30F2B06DC304600F072
:102090009DF998E7D7F804E063E7621943F001037C
:1020A00045F0010565603046BA60536000F08EF976
:1020B0000834204603B0BDE8F08FD3E902411A444A
:1020C000E1608C60516841F001013046516003F1DC
:1020D000080400F07BF9204603B0BDE8F08FD46817
:1020E000A2427FF4CCAE0CF1020C0BE7B9F5206FE5
:1020F0004FEA592276D3142A00F20B8102F15C03D5
:10210000DB005B32F918FB580839994203D1E8E04B
:102110009B68994204D05A6822F003024A45F7D8D6
:10212000D968C4E902318C60DC601AE7142B65D9E8
:10213000542B00F2F7802B0B03F16F0C03F16E04AC
:102140004FEACC03C9E63046A668631945F001059D
:102150006560F1608E604EF00101C7E90433C3F899
:102160000880C3F80C80596044F802E000F02EF9B2
:10217000083494E63001002038010020840B002050
:1021800022443046536843F00103536054F8083F3B
:10219000D9608B6000F01AF981E6A1443046D9F885
:1021A000043043F00103C9F80430083400F00EF99C
:1021B00075E64FEAD50C05F1080258E6621943F0BE
:1021C000010145F0010565603046C7E90422C2F807
:1021D0000880C2F80C80516044F8093000F0F6F82D
:1021E00008345CE64FEA991202F13903DB00383219
:1021F00088E7BC4224D0BC6860683FE703F15C0C10
:1022000003F15B044FEACC0367E65AF808395345FB
:1022100040F0D3801CF0030F0CF1FF3CF5D17B683C
:1022200023EA00037B60400098423FF6D4AE18B921
:10223000D1E6400009F104091842FAD0CC46A1E6E3
:10224000DBF804004044CBF8040002F1FF3CD7F86F
:10225000081401311BBFAAEB0303C018C7F808A478
:10226000CBF804001AF00703009343D0C3F1080130
:102270008A44D0440A4408EA0C01521A02EA0C01CA
:102280003046019100F0A8F8421C7AD00199A0EBE9
:102290000A0000EB0108DBF80420C7F808A048F0AA
:1022A00001001144BC42CAF80400CBF804103FF40A
:1022B000D8AEB9F10F0F40D96268A9F10C0020F037
:1022C000070002F001020243626022184FF0050C81
:1022D0000F28C2F804C0C2F808C048D8DAF80400D1
:1022E000BFE69210012000FA02F24EEA020EC7F891
:1022F00004E016E70AEB080101EA0C01521A02EAAF
:102300000C013046019100F067F8431CBED10099E2
:10231000C1E7542A15D84FEA193202F16F03DB00E6
:102320006E32EFE6B3F5AA7F15D8EB0B03F1780C0C
:1023300003F177044FEACC03CFE50123CAF8043058
:10234000A4E6B2F5AA7F23D84FEAD93202F1780386
:10235000DB007732D6E640F25452934223D8AB0CDE
:1023600003F17D0C03F17C044FEACC03B5E504F1E5
:1023700008013046FFF76CFCDBF80410D7F808A022
:10238000ACE7009B083B9844A8EB0A08002182E7D1
:1023900040F254539A420CD84FEA994202F17D031D
:1023A000DB007C32AEE64FF47E734FF07F0C7E2470
:1023B00093E54FF47E737E22A4E67B6833E700BF8B
:1023C0000148FFF7B1B800BFE00900200148FFF75E
:1023D000B3B800BFE009002038B5074D002204461D
:1023E00008462A6000F09CFD431C00D038BD2B68D5
:1023F000002BFBD0236038BDCC090020082802D177
:102400004FF48050704708B5FFF742F81623036079
:102410004FF0FF3008BD00BF10B5054C237833B92D
:10242000044B13B10448AFF300800123237010BDA7
:10243000B80B0020000000003450010808B5034B21
:102440001BB103490348AFF3008008BD0000000042
:10245000BC0B00203450010800B51D481D49012265
:1024600085B00023016002614FF440310276C26101
:1024700080F830204261184A80F82030CDE90033DE
:10248000CDE90233C0E90113C3600023C0E90A2388
:1024900001F0EEFA68B99FED0C7B07230C4802931C
:1024A00069468DED007B01F025FC28B905B05DF88B
:1024B00004FB00F0AFFBEEE700F0ACFB05B05DF80D
:1024C00004FB00BFAFF30080020000000100000029
:1024D000380C0020002001400100000F70B5294B8E
:1024E000026888B000249A42CDE90244CDE9044450
:1024F000069401D008B070BD03F58C3300945A6C7B
:10250000214E42F480725A645A6C02F48072009236
:10251000009A01941A6B42F001021A631B6B03F0DC
:102520000103019304220323054602A91748CDE9BC
:102530000223019B02F0AEFA154A74624FF48063E5
:10254000C6E9002433614FF400624FF40053C6E93A
:10255000052330464FF48073C6E90244C6E90734C8
:1025600002F096F858B90022AE6311461220B56306
:1025700002F018F8122002F051F808B070BD00F017
:1025800049FBF0E700200140D40B0020000002408E
:10259000106402400D480E49032210B50023C0E923
:1025A00000124FF4C0244FF4A0014FF00122C0E903
:1025B0000233C0E904418261838301F053FC00B916
:1025C00010BDBDE8104000F025BB00BFAC0C0020E2
:1025D000006400400D480E49032210B50023C0E9F5
:1025E00000124FF4C0244FF4A0014FF00122C0E9C3
:1025F0000233C0E904418261838301F033FC00B9F6
:1026000010BDBDE8104000F005BB00BF840C0020E9
:10261000006800400000000030B502684C498DB0F1
:1026200000238A42CDE90633CDE908330A933FD02F
:1026300048498A4201D00DB030BD474A0393116C1E
:10264000464841F080611164116C01F08061039192
:102650000168039C01310129016065D000243E4BD3
:1026600005941A6B3E4842F002021A631B6B9FED01
:10267000347B03F00203059306A909230322CDE965
:1026800009238DED067B059D02F004FA22462146C2
:10269000402001F087FF402001F0C0FF2246214684
:1026A000412001F07FFF412001F0B8FF0DB030BDA7
:1026B0002A490A680132012A0A6029D00024264BDF
:1026C00002941A6B274842F008021A631B6B9FEDB5
:1026D0001E7B03F00803029306A909230322CDE918
:1026E00009238DED067B029D02F0D4F92246214696
:1026F000142001F057FF142001F090FF22462146DC
:10270000152001F04FFF152001F088FF0DB030BDFE
:10271000114A0193136C43F000731364136C03F0BC
:1027200000730193019BC9E70493136C43F000739A
:102730001364136C03F000730493049B8EE700BFD3
:102740000030000002000000030000000200000052
:10275000006400400068004000380240800C002007
:1027600000040240000C024010B582B00024384B37
:102770000094196B41F480011963186B00F4800018
:10278000009000980194186B40F4001018631B6BC4
:1027900003F400132246214601930C20019B01F013
:1027A00001FF0C2001F03AFF224621460E2001F0E5
:1027B000F9FE0E2001F032FF224621460F2001F0E3
:1027C000F1FE0F2001F02AFF22462146102001F0E1
:1027D000E9FE102001F022FF22462146112001F0DF
:1027E000E1FE112001F01AFF22462146382001F0B7
:1027F000D9FE382001F012FF22462146392001F08F
:10280000D1FE392001F00AFF224621463A2001F08C
:10281000C9FE3A2001F002FF224621463B2001F08A
:10282000C1FE3B2001F0FAFE224621463C2001F089
:10283000B9FE3C2001F0F2FE22462146452001F07F
:10284000B1FE452002B0BDE8104001F0E7BE00BF78
:1028500000380240000000002DE9F04F2DED028B02
:10286000002491B0CDE90A44CDE90C44964B019483
:102870000E941A6B954F964DDFF860B2954EDFF8C7
:1028800060A2DFF86092DFF8608242F010021A6303
:102890001A6B02F010020192019A02941A6B42F034
:1028A00002021A631A6B02F002020292029A039465
:1028B0001A6B42F040021A631A6B02F04002039254
:1028C000039A04941A6B42F001021A631A6B02F025
:1028D00001020492049A05941A6B42F008021A63EA
:1028E0001A6B02F008020592059A06941A6B42F4DC
:1028F00080721A631A6B02F480720692069A079429
:102900001A6B42F020021A631A6B02F0200207923F
:10291000079A08941A6B42F080021A631A6B02F04D
:1029200080020892089A09941A6B42F004021A6312
:102930001B6B03F0040309932246384641F27001F1
:10294000099B02F0ADFA644B2246184640F2E5219D
:1029500002F0A6FA2246284640F2034102F0A0FA0D
:102960002246584641F63C4102F09AFA304601228E
:102970004FF4FB7102F094FA2846012244F2400120
:1029800002F08EFA22463046082102F089FA2246E9
:1029900050464FF4704102F083FA224648463F21E8
:1029A00002F07EFA22464046332102F079FA384698
:1029B00001224FF4006102F073FA224604F18044D0
:1029C00004F50134204603219FED3B8B02F068FAA9
:1029D0009FED3B7B38460AA98DED0A7B8DED0C8B74
:1029E00002F058F83C4B0AA9184640F2E5220123B0
:1029F000CDE90A238DED0C8B02F04CF80AA928468C
:102A000044F203420123CDE90A238DED0C8B02F041
:102A100041F858460AA941F63C420123CDE90A2370
:102A20008DED0C8B02F036F830460AA94FF4FF7298
:102A30000123CDE90A238DED0C8B02F02BF8402207
:102A40000123CDE90A2328460AA900220323CDE960
:102A50000C2302F01FF850460AA94FF470420123DC
:102A6000CDE90A238DED0C8B02F014F848460AA933
:102A70003F220123CDE90A238DED0C8B02F00AF8E9
:102A800040460AA933220123CDE90A238DED0C8BA0
:102A900002F000F8032201230AA920468DED0C8BD9
:102AA000CDE90A2301F0F6FF11B0BDEC028BBDE8C1
:102AB000F08F00BFAFF300800000000000000000B6
:102AC00070180000010000000038024000100240B1
:102AD000001402400018024000200240001C024086
:102AE000000C02400008024000000240074808496C
:102AF00008B50322642380E80E0002F0D5F900B97E
:102B000008BDBDE8084000F085B800BFD80C002023
:102B10000030004030B5002395B0CDE90A33CDE94F
:102B20000333CDE90533224901930C930793086CD5
:102B3000204A40F080500864096C01F080510191F6
:102B400001990293136843F440431360136803F43C
:102B50004043022409204FF48031029301224FF4B4
:102B60008003CDE90801CDE90D2402980F930621D9
:102B7000A822072308A8CDE91012CDE9124303F0DB
:102B8000D7F908B172B6FEE70F220346CDE9032458
:102B90004FF4A0554FF4805203A80521CDE9053527
:102BA000079203F0DBFB08B172B6FEE715B030BD4B
:102BB000003802400070004008B500F01BFFFFF72E
:102BC000A9FFFFF749FEFFF7CFFDFFF703FD00F078
:102BD000D3F900F061FA00F099FA00F0D1FAFFF7AA
:102BE000D9FC00F0EFFB00F00DFC00F027FC00F03A
:102BF00041FC00F0AFFB00F0C9FB06F08BFCFFF7D7
:102C00002BFCFFF773FF00F007F80FF0EDF80FF063
:102C100079F9FCE772B6FEE710B50F480F4C4FF498
:102C20008272C0E90042022101220023C0E904129D
:102C30004FF4007410210A22C0E90233C0E90641B2
:102C4000C0E90833C0E90A3203F04CFC00B910BDFA
:102C5000BDE81040FFF7DEBFA80D00200050014086
:102C6000F0B53C4B026889B000249A42CDE9024499
:102C7000CDE90444069401D009B0F0BD03F56843E2
:102C800000945A6C344E42F480125A645A6C02F426
:102C900080120092009A01941A6B42F020021A638B
:102CA0001B6B03F0200301934FF460720223CDE904
:102CB000022303270523054602A92848019ACDE9E6
:102CC000057301F0E7FE264A34634FF08063C6E9DE
:102CD00000234FF48063336130460423C6E9024485
:102CE000C6E90544C6E90744C6E90A74736201F0FF
:102CF000CFFC40BB1B4C1C49EE644FF080620023AC
:102D0000C4E9001240214FF48062C4E90213226139
:102D1000042103222046C4E90533C4E90733C4E98A
:102D20000912C4E90B33B56301F0B2FC70B900229B
:102D30001146AC645520A56301F034FC552001F028
:102D40006DFC09B0F0BDFFF765FFD3E7FFF762FF49
:102D5000EDE700BF00500140440D00200014024088
:102D600058640240E40C00207064024082B00C4BB6
:102D7000002100915A6C42F480425A645A6C02F469
:102D800080420092009A01911A6C42F080521A64BB
:102D90001B6C03F080530193019B02B0704700BF8E
:102DA00000380240FEE700BFFEE700BFFEE700BFBD
:102DB000FEE700BFFEE700BF704700BF704700BFDF
:102DC000704700BF00F030BE014801F08DBD00BF6C
:102DD00044100020014801F087BD00BFC41100204D
:102DE000014801F081BD00BFE40F0020014801F05F
:102DF0007BBD00BFA4100020014801F075BD00BFDD
:102E000064110020014800F0E5BE00BF380C00202E
:102E1000014801F053BA00BFAC0C0020014801F09A
:102E20004DBA00BFAC0C0020014803F0E9BF00BF61
:102E3000940E0020014804F0DFBB00BF0013002007
:102E4000014804F0D9BB00BFB8120020014804F0CB
:102E5000D3BB00BF70120020014803F0D1BF00BFF8
:102E60004C0E0020014801F03FBD00BFD40B0020F4
:102E7000014801F039BD00BF840F0020014801F076
:102E800033BD00BF04110020014801F02DBD00BF7B
:102E9000440D0020014801F027BD00BFE40C0020D4
:102EA000014801F00BBA00BF840C0020014801F07A
:102EB00005BA00BF840C0020014802F0CDB800BF65
:102EC000D82A0020014801F00FBD00BF240F0020C8
:102ED000014804F091BB00BF28120020014804F013
:102EE0008BBB00BF90130020014804F085BB00BFDE
:102EF00048130020014803F059BB00BFA80D002073
:102F00000120704708B5FEF7C3FA162303604FF09F
:102F1000FF3008BD08B5FEF7BBFA16230360FEE7D5
:102F20000C490D4A0B6810B50C4C121B2BB1184400
:102F3000904207D80860184610BD094B0B60184432
:102F40009042F7D9FEF7A4FA0C2303604FF0FF3349
:102F5000184610BD000E0020000003200080000075
:102F600020750020034AD2F8883043F47003C2F879
:102F70008830704700ED00E010B5414C414A92B0F6
:102F80000023226020464FF6FF72CDE90233CDE9DF
:102F90000A33CDE90C33CDE90E33C4E90133109384
:102FA000E2602361A36103F07BFC20BB00220023CD
:102FB000334802A9CDE9022303F0CCFF08BB9FED03
:102FC0002A7B00232E480C930AA904228DED0A7B4C
:102FD0000E9303F05DFD88B922682A4900238A42D6
:102FE000CDE90433CDE9063308930DD026498A4252
:102FF00021D012B010BDFFF70DFED7E7FFF70AFE94
:10300000EAE7FFF707FEDAE7204A0093136B204850
:1030100043F002031363136B9FED157B03F0020370
:10302000009304A902238DED047B009A089301F01C
:1030300031FD12B010BD154A0193136B154843F0D2
:1030400080031363136B9FED0C7B03F080030193EC
:1030500004A909238DED047B019A089301F01AFD60
:1030600012B010BDAFF3008060000000000000004F
:1030700020000000020000004000000002000000EC
:10308000DC0E002000040040001800400038024020
:1030900000040240001C024000B51A481A4A87B0DA
:1030A00002605322002342606322CDE90233CDE95E
:1030B0000433CDE90033C0E902320361836103F0D8
:1030C00025FB98B94FF480530E48029302A903F0F0
:1030D000E5FD98B9002200230A486946CDE900239E
:1030E00003F038FF28B907B05DF804FBFFF792FD45
:1030F000E8E7FFF78FFD07B05DF804FBFFF78AFDF7
:10310000E8E700BF940E00200008004000B51A4810
:103110001A4A87B0026053220023426040F2E7322D
:10312000CDE90233CDE90433CDE90033C0E9023201
:103130000361836103F0EAFA98B94FF480530E48B3
:10314000029302A903F0AAFD98B9002200230A48BD
:103150006946CDE9002303F0FDFE28B907B05DF80C
:1031600004FBFFF757FDE8E7FFF754FD07B05DF8F4
:1031700004FBFFF74FFDE8E74C0E0020000C004079
:1031800010B53949394C90B00A220023C4E9001225
:1031900020464FF4AF52CDE90833CDE90A33CDE9EB
:1031A0000C33C4E902320E932361A36103F078FB70
:1031B000D0B99FED277B00222C480A9208A98DEDFB
:1031C000087B0C9203F064FC88B92268284900232C
:1031D0008A42CDE90233CDE9043306930AD022496D
:1031E0008A421ED010B010BDFFF714FDE1E7FFF7D3
:1031F00011FDEAE71F4A0093136B1F4843F00203D7
:103200001363136B9FED147B03F00203009302A979
:1032100002238DED027B009A069301F03BFC10B077
:1032200010BD144A0193136B144843F080031363D9
:10323000136B9FED0B7B03F08003019302A909231D
:103240008DED027B019A069301F024FC10B010BDB5
:1032500060000000000000002000000002000000EC
:10326000400000000200000000180040040E002092
:10327000000400400038024000040240001C0240EC
:10328000124A0368934282B012D0114A934201D08D
:1032900002B070470F4B002201921A6C42F04002BC
:1032A0001A641B6C03F040030193019B02B070474A
:1032B000084B002200921A6C42F002021A641B6C46
:1032C00003F002030093009B02B07047000400402B
:1032D000001800400038024000B51B4A03689342C2
:1032E00083B005D0194A934218D003B05DF804FBAF
:1032F000174B00220092196C41F0040119641B6CF9
:1033000003F00403009301211E20009B01F04AF901
:103310001E2003B05DF804EB01F080B90C4B0022D5
:103320000192196C41F0080119641B6C03F0080349
:10333000019301213220019B01F034F9322003B0C6
:103340005DF804EB01F06AB900080040000C004091
:103350000038024010B50B480B4C00234FF461219C
:103360000C22C0E90041C0E90233C0E90432C0E9DF
:10337000063303F033FE00B910BDBDE81040FFF77F
:1033800049BC00BF901300200078004010B50B48E6
:103390000B4C00234FF461210C22C0E90041C0E92D
:1033A0000233C0E90432C0E9063303F017FE00B966
:1033B00010BDBDE81040FFF72DBC00BF4813002032
:1033C000007C00400C480D490D4A10B50023C0E9AF
:1033D00000124FF480544FF480610422C0E902438C
:1033E000C0E90412C0E9063303F0F8FD00B910BDCE
:1033F000BDE81040FFF70EBC001300200010014094
:10340000A086010010B50A480A4C0B4900230C2283
:10341000C0E90041C0E90233C0E90432C0E9063323
:1034200003F0DCFD00B910BDBDE81040FFF7F2BBB2
:10343000B81200200044004040420F0010B50B4875
:103440000B4C00234FF4E1310C22C0E90041C0E9EC
:103450000233C0E90432C0E9063303F0BFFD00B90E
:1034600010BDBDE81040FFF7D5BB00BF70120020B3
:103470000048004010B50B480B4C00234FF4E131DD
:103480000C22C0E90041C0E90233C0E90432C0E9BE
:10349000063303F0A3FD00B910BDBDE81040FFF7EF
:1034A000B9BB00BF2812002000140140F0B503682A
:1034B0009C4A93B000249342CDE90C44CDE90E44DC
:1034C000054610945AD0984A934200F0A080974A3B
:1034D000934200F0DF80964A934209D0954A934286
:1034E00000F04481944A934200F0A68113B0F0BDED
:1034F000924B06941A6C9248924E42F400321A642F
:103500001A6C02F400320692069A07941A6B42F083
:1035100008021A631B6B03F008030793602202235F
:10352000CDE90C23032707230CA9CDE90F73079AD4
:1035300001F0B0FA844834634FF00063C6E9000339
:103540004FF48063336130460423C6E90244C6E980
:103550000544C6E90744C6E90A74736201F098F8A5
:10356000002840F0DA810022AE6311462620B563C0
:1035700001F018F8262001F051F8B7E76F4B0094DE
:103580001A6C7248724E42F080421A641A6C02F051
:1035900080420092009A01941A6B42F010021A6362
:1035A0001B6B03F0100301934FF4C0720223CDE9AB
:1035B0000C23032708230CA9CDE90F73019A01F00E
:1035C00069FADFF8A0E134634FF02063C6E900E355
:1035D0004FF48063336130460423C6E90244C6E9F0
:1035E0000544C6E90744C6E90A74736201F050F85D
:1035F000002840F083810022AE6311465220B5635B
:1036000000F0D0FF522001F009F813B0F0BD4B4B91
:1036100002941A6C4F4E42F000421A641A6C02F087
:1036200000420292029A03941A6B42F010021A634B
:103630001B6B03F01003039303220223CDE90C2339
:1036400003984248032208230CA9CDE90F2301F077
:1036500021FA414A4FF02063C6E9002330464FF477
:103660008063C6E90244C6E90434C6E90644C6E9F3
:10367000084401F00DF8002840F049810022AE63B3
:1036800011465320B56300F08DFF532000F0C6FFB4
:1036900013B0F0BD294B04945A6C3048304E42F0C0
:1036A00010025A645A6C02F010020492049A0594B3
:1036B0001A6B42F002021A631B6B03F002030593BC
:1036C000C0220223CDE90C23032707230CA9CDE94F
:1036D0000F73059A01F0DEF9DFF88CC034634FF008
:1036E0000063C6E900C34FF48063336130460423AE
:1036F000C6E90244C6E90544C6E90744C6E90A74B6
:10370000736200F0C5FF002840F004810022AE6320
:1037100011462520B56300F045FF252000F07EFF0F
:1037200013B0F0BD00780040007C00400010014064
:1037300000440040004800400014014000380240AE
:10374000000C0240A41000208860024000100240DB
:10375000C411002064110020A06002400004024057
:103760000411002058600240406402406F4B0894EE
:103770001A6C6F486F4E42F480221A641A6C02F47D
:1037800080220892089A09941A6B42F008021A6380
:103790001B6B03F0080309934FF440720223CDE939
:1037A0000C230CA907230327CDE90F73099A01F015
:1037B00071F9614934634FF00063C6E900134FF4B7
:1037C0008063336130460423C6E90244C6E90544F8
:1037D000C6E90744C6E90A74736200F059FF00287D
:1037E00040F09E80554C564A22604FF060620023A4
:1037F000402162604FF48062C4E90213AE6322612B
:10380000042103222046C4E90533C4E90733C4E98F
:103810000912C4E90B33B56300F03AFF002840F009
:10382000828000226C6311462720A56300F0BAFE57
:10383000272000F0F3FE59E63C4B0A945A6C4148AD
:10384000414E42F020025A645A6C02F020020A9261
:103850000A9A0B941A6B42F040021A631B6B03F036
:1038600040030B934FF484420223CDE90C2303273A
:1038700008230CA9CDE90F730B9A01F00BF9334A19
:1038800034634FF02063C6E900234FF48063336153
:1038900030460423C6E90244C6E90544C6E90744A4
:1038A000C6E90A74736200F0F3FE68BB284C294A2B
:1038B00022604FF020620023402162604FF480625A
:1038C000C4E90213AE632261042103222046C4E945
:1038D0000533C4E90733C4E90912C4E90B33B563FE
:1038E00000F0D6FE68B900226C6311464720A5633C
:1038F00000F058FE472000F091FEF7E5FFF78AF947
:1039000079E6FFF787F9EEE7FFF784F9CEE7FFF7EF
:1039100081F9B3E6FFF77EF9F8E6FFF77BF922E6D7
:10392000FFF778F95EE7FFF775F97AE700380240AC
:10393000000C02404410002028600240E40F0020E8
:103940007060024000180240840F0020286402408A
:10395000240F0020A0640240DFF834D00D480E4947
:103960000E4A002302E0D458C4500433C4188C42D9
:10397000F9D30B4A0B4C002301E013600432A2423E
:10398000FBD3FFF7EFFAFDF789FDFFF715F9704755
:103990000000032000000020900800207C64010843
:1039A000900800201C750020FEE7000038B50E4A84
:1039B0000E4B1278054618684FF47A73B3FBF2F396
:1039C000B0FBF3F000F04AFE08B90F2D01D9012039
:1039D00038BD0446024629464FF0FF3000F0E2FDB4
:1039E000034B20461D6038BD4405002040050020E3
:1039F0004805002008B50B4B1A6842F400721A60A3
:103A00001A6842F480621A601A6842F480721A607E
:103A1000032000F0B5FD0F20FFF7C8FFFFF7A6F960
:103A2000002008BD003C0240034A044B11681B788B
:103A30000B441360704700BFD413002044050020DE
:103A4000014B1868704700BFD413002038B50446F6
:103A5000FFF7F6FF631C054602D0044B1B781C449D
:103A6000FFF7EEFF401BA042FAD338BD440500200B
:103A7000002800F09E8038B5056C04463DB1236CEB
:103A8000DB060CD5002384F83C30012038BDFEF75E
:103A900025FD6564236C84F83C50DB06F2D4236C6E
:103AA000474A23F4885323F0020343F002032364BC
:103AB0005168236821F440315160516860680143C6
:103AC00051605A682069A16822F480725A605A686D
:103AD00042EA00225A605A68E06822F040725A6056
:103AE0005A680A435A609A68A16A22F400629A608E
:103AF0009A6802439A60334A91429A6851D022F000
:103B00007062E06A9A609A68114399609A6822F03C
:103B100040529A609A6802439A609A6822F00202C0
:103B20009A609A68217E42EA41029A6094F82020C5
:103B3000002A40D05A68616A42F400625A605A68AA
:103B400022F460425A605A68013942EA41325A60AE
:103B5000DA6AE16922F47002DA62DA6A013942EA69
:103B60000152DA629A68616922F400729A609A6876
:103B700094F8300042EA40229A609A6822F4806207
:103B80009A609A68002042EA81229A606064236CFD
:103B900023F0030343F001032364002384F83C3043
:103BA00038BD22F070629A609A6822F040529A60A2
:103BB000B3E7012070475A6822F400625A60C7E7F1
:103BC000002301400100000F704700BF704700BF95
:103BD000704700BF036870B51D685E68AA07044699
:103BE00001D5B0064DD4690701D5320617D4E907CF
:103BF00001D5720604D4A90601D5720169D470BD3D
:103C00001A68D007F7D5236C43F480332364204629
:103C1000FFF7DCFF23686FF001021A60EBE7226C0C
:103C2000D00603D4226C42F4005222649A6812F443
:103C3000401F1ED19A6B12F4401F02D09A685105A2
:103C400017D45A68520514D49A6812F0405F10D104
:103C5000227E72B95A6822F080025A60236C23F4E3
:103C600080532364236CD80503D4236C43F00103F1
:103C70002364204600F0F4F823686FF00C021A6009
:103C8000B5E7226CD10603D4226C42F400722264A0
:103C90009A6812F0405F14D1227E92B9DA6A12F467
:103CA000700F23D15A6822F020025A60236C23F44B
:103CB00080732364236CD80403D4236C43F0010382
:103CC00023642046FFF780FF23686FF012021A601A
:103CD00089E7626C6FF0200542F0020262642046C0
:103CE0001D60FFF775FF23681D6070BD9A6852055F
:103CF000E7D4D7E770B590F83C3082B00246012B8C
:103D00004FF00000019000F09E80012382F83C30CB
:103D10000D6813688C68092DA8B228D81E6905EBB8
:103D2000450E4FF0070C0CFA0EFC26EA0C061E613D
:103D30001E6904FA0EF434431C614C68062C04EB33
:103D400084012AD85C6B05394FF01F0C88400CFAAF
:103D500001F124EA01015963596B084358633B4957
:103D60008B422BD0002082F83C0002B070BD00EBEB
:103D7000400CDE68ACF11E0C4FF0070E04FA0CF498
:103D80000EFA0CFC26EA0C06DE60DE683443DC60CA
:103D90004C68062C04EB8401D4D90C2C1FD81C6B66
:103DA00023391F26884006FA01F124EA010119632C
:103DB000196B0843254918638B42D3D1122D1BD0B0
:103DC000234B9D4222D0112DCCD1224B596821F496
:103DD00080015960596841F400015960C2E7DC6A0A
:103DE00041391F26884006FA01F124EA0101D9620F
:103DF000D96A0843D862B2E7164B596821F400012A
:103E00005960596841F480015960ABE7114B124C7D
:103E10005968124821F480015960596841F4000141
:103E200059602368A0FB03039B0C03EB83035B0037
:103E30000193019B002B95D0019B013B0193019BBA
:103E4000002BF9D18EE7022002B070BD00200140A6
:103E500012000010002301404005002083DE1B43B8
:103E6000704700BF00287BD038B590F8203004465A
:103E7000002B72D02268136843F001031360FFF730
:103E8000DFFD054604E0FFF7DBFD401B0A285BD899
:103E900023685A68D107F6D51A6822F002021A6020
:103EA000FFF7CEFD054604E0FFF7CAFD401B0A28D8
:103EB0004AD823685A689207F6D4227E012A1A68E3
:103EC0000CBF42F0800222F080021A60627E012A5A
:103ED0001A680CBF42F0400222F040021A60A27E33
:103EE000012A1A680CBF42F0200222F020021A6058
:103EF000E27E012A1A680CBF22F0100242F0100282
:103F00001A60227F012A1A680CBF42F0080222F0D0
:103F100008021A60627F012A1A680CBF42F004028C
:103F200022F004021A60D4E90220216902430A4304
:103F300060696168024301390A4300200121DA61A6
:103F4000606284F8201038BD636A052243F40033B0
:103F5000636284F82020012038BDFEF75DFB89E70D
:103F60000120704790F82020013A012A06D9426AC0
:103F7000034642F4802201205A627047404BD3F836
:103F800000220120024330B4C3F80022D3F80022FB
:103F900022F47C52C3F80022D3F800224C6A42EA91
:103FA0000422C3F800224A6902F01F04A040D3F89B
:103FB0001C4224EA0004C3F81C42CD69C443002D0E
:103FC00045D1D3F80C522540C3F80C52D200CD682D
:103FD0008B8802F1804202F5C84243EA0543C2F8E9
:103FE00040328D680B8843EA0543C2F844328B693E
:103FF000234A33BBD2F804322340C2F804320B699F
:10400000C3B91F4BD3F814221440C3F814420B6AEF
:10401000012B05D11A4AD2F81C320343C2F81C32D4
:10402000174AD2F8003223F00103002030BCC2F856
:1040300000327047124AD2F814320343C2F81432E5
:10404000E5E7D2F804320343C2F80432D7E7012D82
:10405000CDD1D3F80C520543C3F80C52D2000D68F1
:104060008B8802F1804202F5C84243EA0543C2F858
:1040700040328D688B8943EA0543C2F84432B6E783
:104080000064004038B590F82030012B044605D07C
:10409000436A43F400234362012038BD02680223CF
:1040A00080F82030136823F001031360FFF7C8FC89
:1040B000054604E0FFF7C4FC431B0A2B07D823681E
:1040C0005B6813F00103F5D16362184638BD636A7B
:1040D000052243F40033636284F82020DCE700BF4C
:1040E00030B490F820C005680CF1FF3CBCF1010F22
:1040F000AC6834D814F0E05F38D0C4F30164032C0A
:1041000042D00120A04018608B68A3B3C868034365
:10411000486843EAC00304F1180000012B5005EB86
:10412000041C0B69CCF884310B7D012B4FEA041180
:1041300005D1DCF8843143F48073CCF884316B18FA
:104140005168C3F88C111268C3F88821DCF88031FB
:1041500043F00103002030BCCCF880317047436A43
:1041600043F480234362012030BC7047436A43F428
:1041700000134362F7E7CB68086843EA405004F154
:1041800018031B01E850CAE7436A43F40003436283
:10419000E9E700BF90F820C00CF1FF3CBCF1010F33
:1041A00065D870B5046841B9E568AE0708D1436ABF
:1041B00043F400134362012070BD2569AD07F6D0BA
:1041C00004EB011C4FEA011EDCF8B05105F00405B8
:1041D0009560002D51D0DCF8B051ED085560DCF849
:1041E000B05105F00205D560DCF8B451DCF8B461DB
:1041F00005F00F0515617444DCF8B451C6F30726C9
:1042000096612D0CD4F8B86155611E700268724435
:10421000D2F8B821120A5A7002687244D2F8B82152
:10422000120C9A7002687244D2F8B821120EDA7039
:1042300002687244D2F8BC211A7102687244D2F842
:10424000BC21120A5A7102687244D2F8BC21120CC5
:104250009A7102687244D2F8BC21120EDA710268B7
:1042600081B9D36843F02003D360002070BD436A56
:1042700043F48023436201207047DCF8B0516D0D98
:104280001560ACE7136943F020031361EDE700BF4D
:10429000704700BF704700BF704700BF704700BF46
:1042A000704700BF704700BF704700BF704700BF36
:1042B000704700BF704700BF704700BF2DE9F04F47
:1042C00003685C69D3F804809F68D3F80CB0D3F816
:1042D0001090D3F818A014F0010683B0054625D03D
:1042E000FA0700F1AA804FF400564FF480400021F5
:1042F000FB0540F1B6802B684FF480729A60BA05D6
:1043000000F1AA807B0503D43E0540F105810646F5
:10431000F9030BD52B684FF480329A60BA0300F191
:10432000E5807B0340F1DD8046F40046210702D59D
:104330001BF0100F7BD1620703D51BF0080F40F074
:104340009280A30704D52B68DB689F0740F0AB8001
:10435000600602D519F0100F63D1A10603D519F03C
:10436000080F40F08780E20604D52B681B699B0785
:1043700040F08E80A70303D518F0100F40F08C801A
:10438000E00302D518F0080F7BD1210444D518F0C2
:10439000040F2B683ED0E20544BF0AF00102164329
:1043A000A70500F18480610504F400622ED51AF09F
:1043B000040F2BD046F00406002A00F088801AF083
:1043C000700A00F08480BAF1400F00F0B58000F26E
:1043D0009180BAF1200F00F0CA80BAF1300F00F0DE
:1043E000BD80BAF1100F40F0A2809A69042122F03A
:1043F00070029A6146F0080659606B6A334328469A
:104400006B62FFF759FF03B0BDE8F08F12B11AF0ED
:10441000700AD8D104225A60002EEED103B0BDE854
:10442000F08F2B68102246F480661A6195E72B689E
:10443000102246F40076DA607DE70122BE079A601A
:1044400042D4790746D43A0763D54FF440564FF427
:10445000A0404FF480514BE728460191FFF71AFF27
:1044600001990E4654E72B680822DA602846FFF7C8
:104470001BFF66E72B6808221A612846FFF716FF24
:1044800071E72B6808225A602846FFF713FF7CE784
:10449000284605F0FFFB6DE72B6810225A6028467E
:1044A000FFF706FF6CE7284605F0C0FB50E71AF05F
:1044B000020F3FF478AF600546F0020604F4006294
:1044C0003FF575AF1AB17AE7FFF7E2FE0BE704227A
:1044D0005A6092E74FF420564FF490404FF4006139
:1044E00006E738031FD546F480361FE72846FFF756
:1044F000D3FE1BE7BAF1500F27D0BAF1600F16D1E7
:104500009A69042122F070029A6146F4807659601B
:1045100073E7FFF7C3FEE6E628460191FFF7C0FE0A
:1045200001990E46F4E62846FFF7BCFEFEE69A69BE
:1045300022F070029A616DE79A69042122F07002FC
:104540009A6146F04006596057E79A69042122F0C3
:1045500070029A6146F0800659604EE79A6904211C
:1045600022F070029A6146F02006596045E79A6988
:10457000042122F070029A6146F0100659603CE76F
:104580000749CA6803024FF6FF0003F4E0630240E4
:10459000134343F0BF6343F40033CB60704700BF65
:1045A00000ED00E01B4BDB68C3F3022300B5C3F151
:1045B000070EBEF1040F03F1040C28BF4FF0040EE8
:1045C000BCF1060F1CD9A3F1030C4FF0FF3303FA23
:1045D0000CF322EA03024FF0FF3303FA0EF321EA51
:1045E000030303FA0CF313431B010028DBB20ADBBD
:1045F00000F1604000F5614080F800335DF804FB95
:1046000000229446E7E7044A00F00F0002441376C4
:104610005DF804FB00ED00E0FCEC00E0002807DBA7
:104620004109044A00F01F000123834042F8213071
:10463000704700BF00E100E0BFF34F8F0549064B14
:10464000CA6802F4E0621343CB60BFF34F8F00BF30
:10465000FDE700BF00ED00E00400FA050138B0F10D
:10466000807F01D30120704710B44FF0E023074C46
:1046700058614FF0F00C84F823C000220721104647
:104680009A615DF8044B1961704700BF00ED00E0CE
:1046900038B50446FFF7D4F9002C6DD0236800220A
:1046A000022184F8351084F834201A6822F00102BF
:1046B00005461A6005E0FFF7C3F9431B052B37D801
:1046C00023681A68D107F6D4D4E90120E1680243CF
:1046D0000A43D4E90451A0692A430A43E1691D68E9
:1046E00002430A4331492940256A2A430A43616A41
:1046F000042924D01A605A6922F007021143D8B263
:104700002B4A59611038A2FB0052120929496FF354
:104710000903895CE1655F2888BF04333F228A4032
:10472000A36500209A600123606584F8353038BDA8
:1047300003232022626584F83530184638BDD4E959
:104740000B512943114319605969A26A21F00701ED
:10475000114341F00401002DD1D078B1B0F5005FD4
:1047600016D0022A03D9032AC9D1EA01C7D54022AB
:104770000123626584F83530012038BD012A03D059
:1047800032F00202BBD1F0E7B5F1C07FB7D1EEE75E
:10479000032AB4D801A050F822F000BF6F470008E8
:1047A0006B4700086F470008894700083F8010F0FA
:1047B000ABAAAAAAC450010870B490F83440856D21
:1047C000012C0AD090F835404FF0010C644580F878
:1047D00034C005D0002380F83430022070BC70470C
:1047E000022680F83560046800264665266826F4AF
:1047F0008026266063608368402B0EBFA260A160A4
:10480000E260C26D08BFE1603F239340AB60236864
:10481000026C43F0160323601AB1236843F00803C7
:104820002360236843F001030020236070BC7047BD
:1048300070B50446866DFFF703F994F83530022B06
:1048400006D080236365002384F83430012070BDD6
:1048500023681A6822F016021A605A6922F0800250
:104860005A61226C054642B31A6822F008021A60A7
:104870001A6822F001021A6005E0FFF7E1F8431B15
:10488000052B10D823681B6813F00103F5D1E16DE7
:104890003F228A40184601210023B26084F8351077
:1048A00084F8343070BD032320226265184684F8F2
:1048B0003530002384F8343070BDA26C002AD3D187
:1048C000D6E700BF90F83530022B03D08023436534
:1048D000012070470268052380F83530136823F003
:1048E0000103002013607047F0B583B0674A876DFD
:1048F000166800230193C36D3D6808229A402A423E
:10490000044603D001680868400778D401229A4021
:104910002A4203D02168496908066AD404229A40D1
:104920002A4203D02168096889075CD410229A4082
:104930002A4203D021680868000741D420229A4007
:104940002A4214D021680868C00610D5BA6094F8CD
:104950003520052A63D00B6813F4802F0B687ED0B6
:10496000190340F18980E36B0BB120469847636DD2
:1049700023B3636DDA071AD522684549052384F805
:1049800035301368A1FB061623F00103B60A136045
:1049900002E01368DB0704D5019B0133B3420193A6
:1049A000F7D90122002384F8352084F83430E36CF1
:1049B00023B1204603B0BDE8F040184703B0F0BD76
:1049C000BA600A6812F4802F0A6822D1D20503D493
:1049D0000A6822F008020A60226C002AAED0204643
:1049E0009047E36DAAE7BA60626D42F00402626527
:1049F0009CE7BA60626D42F0020262658EE7086869
:104A000020F004000860BA60626D42F00102626545
:104A10007CE71103E0D5A26C002AE0D18EE70A689A
:104A200022F016020A604A6922F080024A61226C72
:104A30003AB30A6822F008020A603F2202FA03F33E
:104A4000216DBB600122002384F8352084F83430C6
:104A50000029B3D0204603B0BDE8F040084713F466
:104A6000807380D10A6822F010020A60012284F863
:104A7000352084F8343076E7636C002B7FF475AF13
:104A800075E7A26C002AD4D1D7E700BF400500200B
:104A9000B5814E1B2DE9F04FA94A0B68904285B0B5
:104AA0004FF0000200F0DE80DFF8A4824FF0010B2F
:104AB0008A4603E00132102A00F0A8800BFA02F1C6
:104AC00001EA03069943F5D1DAF8044004F0030C37
:104AD000510003250CF1FF378D40012F6FEA0505CA
:104AE0005AD9BCF1030F40F0C18107680CFA01F1FB
:104AF0003D40294314F4403F0160DBD0914D00213B
:104B00000391696C41F480416964696C01F48041EE
:104B10000391039922F0030101F1804101F59C31D9
:104B200002F003078D68BF004FF00F0C0CFA07FC72
:104B300025EA0C0E844DA8426BD0844DA84200F0AB
:104B40006481DFF810C2604500F06681DFF808C2BA
:104B5000604500F06F81DFF804C2604500F07181AC
:104B6000DFF8FCC1604500F05E81DFF8F8C1604508
:104B700000F06E81DFF8F0C1604500F07081DFF871
:104B8000ECC160450CBF4FF0090C4FF00A0C0CFA59
:104B900007F74EEA070542E0876807EA050EDAF8EC
:104BA0000C708F4047EA0E078760476827EA060EB9
:104BB000C4F30017974047EA0E074760C76807EA43
:104BC000050EDAF808708F4047EA0E07BCF1020FB5
:104BD000C7608AD14FEAD20900EB890902F0070EBB
:104BE000D9F820700097DAF810704FEA8E0E07FAA5
:104BF0000EF701970F2707FA0EFE009F27EA0E0E09
:104C0000019F47EA0E07C9F820706EE705B0BDE8BE
:104C1000F08F4FF0010C0CFA07F74EEA07058D6094
:104C2000D8F80810F543E70254BF29403143C8F8CB
:104C30000810D8F80C10A70254BF29403143C8F817
:104C40000C10D8F80410A70354BF29403143C8F80A
:104C50000410D8F80010E40354BF29403143C8F8C9
:104C6000001027E7DFF8DCB04FF0010A02E0013264
:104C7000102ACBD00AFA02F403EA04069C43F6D1C8
:104C80004D685400032707FA04FC05F003086FEA97
:104C90000C0908F1FF3CBCF1010F69D9B8F1030F11
:104CA00040F0EE80D0F800C008FA04F40CEA090CD9
:104CB00044EA0C0415F4403F0460D8D00024039467
:104CC000DBF8444044F48044CBF84440DBF84440F3
:104CD00004F480440394039C22F0030404F1804410
:104CE00004F59C3402F0030CD4F808E00F274FEAD7
:104CF0008C0C07FA0CFC2EEA0C0CC4F808C0144CFF
:104D0000EF02A4686FEA060C7DD404EA0C04104F8D
:104D1000BC60FC68AF0274D40CEA04040C4FFC6065
:104D20007C68AF036BD40CEA0404094FED037C608C
:104D30003C6862D40CEA0404054D2C6097E700BF80
:104D40000000024000380240000402400008024017
:104D5000003C0140000C02400010024000140240E0
:104D600000180240001C02400020024000240240C3
:104D7000D0F808E0CF6809EA0E0E07FA04FC4CEA06
:104D80000E0CC0F808C0D0F804E0C5F3001C2EEAF1
:104D9000060E0CFA02FC4CEA0E0CC0F804C0D0F867
:104DA0000CE08F6809EA0E0E07FA04FC4CEA0E0CC0
:104DB000B8F1020FC0F80CC07FF474AF4FEAD20C08
:104DC0004FEA8C0C0CF1804C0CF5003C02F0070E05
:104DD000DCF8207000970F694FEA8E0E07FA0EF785
:104DE00001970F2707FA0EFE009F27EA0E0E019F7C
:104DF00047EA0E0ECCF820E054E734439CE73443F6
:104E000093E734438AE7344381E74FF0020C0CFA0E
:104E100007F74EEA070502E74FF0030C0CFA07F715
:104E20004EEA0705FBE64FF0060C0CFA07F74EEAD0
:104E30000705F4E64FF0040C0CFA07F74EEA0705F5
:104E4000EDE64FF0050C0CFA07F74EEA0705E6E62B
:104E50004FF0070C0CFA07F74EEA0705DFE64FF0B4
:104E6000080C0CFA07F74EEA0705D8E6C76807EA08
:104E7000050EDAF808708F4047EA0E07C76034E67F
:104E8000DFF818C08F68DCF80CE0A74009EA0E0EC6
:104E900047EA0E0ECCF80CE004E700BF0000024029
:104EA00002B909048161704718B338B5D0E90031FF
:104EB000826804464CF6CC40186045F255501860A4
:104EC00059609A60FEF7BCFD23680546DA689107D1
:104ED0000AD0FEF7B5FD401B31282368F6D9DA6801
:104EE0009207F3D0032038BD4AF6AA221A600020A8
:104EF00038BD0120704700BF03684AF6AA2200208F
:104F00001A607047F0B58BB060B390F8BD34046898
:104F1000054603F0FF02002B76D02046032385F8D8
:104F2000BD34E36B2E4613F4807308BF2B6102F08F
:104F30009BFE56F810EBB446BCE80F006C460FC45D
:104F4000BCE80F000FC49CE8030084E803002F1D99
:104F500097E80E00704602F083FD044630B102234C
:104F600085F8BD34012420460BB0F0BD0146286809
:104F700002F082FE686858B322464FF0010E2146C7
:104F800002EBC20305EB830302F1010C83F83C2022
:104F9000A3F844205FFA8CF28242C3E9121183F82D
:104FA0003DE083F840105965EAD3002204EBC403C6
:104FB00005EB8303611C83F87C42CCB28442C3E9D5
:104FC000A22283F87D2283F88022C3F89422EDD3B5
:104FD0000FCE6C460FC40FCE0FC496E8030084E8D2
:104FE000030097E80E00286802F07EFE04460028C1
:104FF000B5D1012385F83800286885F8BD3403F061
:10500000FBFA20460BB0F0BD80F8BC2404F02EFB68
:10501000286883E710B590F8BC34012B044600687B
:1050200017D0A36A0122934284F8BC2409D002F06D
:1050300013FE206803F0D0FA002384F8BC3418462D
:1050400010BDA3699342F2D0836B43F48033836332
:10505000EDE7022010BD00BF2DE9F04F066889B0D2
:105060000446304603F006FB10B109B0BDE8F08FEE
:105070000546206803F0D0FA0028F6D0D6F80838A4
:105080002068C3F30D23C4F8FC3406F500630393D2
:1050900003F0C2FA10F0020F20681EBF436903F04C
:1050A0000203436103F0B8FA10F0100F206814D027
:1050B000836923F010038361376A07F4F013B3F5B3
:1050C000802F07F00F0800F0BC83B3F5402F00F0ED
:1050D0005B83836943F01003836103F09DFA10F44E
:1050E000002F206840F0B68203F096FA470300F1E3
:1050F0001082206803F090FA0028C0F282812068B4
:1051000003F08AFA030500F13D81206803F084FA78
:10511000C00400F1A081206803F07EFA10F4005F63
:10512000206840F0818103F077FA010700F1E881FF
:10513000206803F071FA020671D5B269636822F043
:105140008002012BB2616AD994F8A322012A00F0EF
:10515000E683022B63D994F8C722012A00F0FA8370
:10516000032B5CD994F8EB22012A00F00683042B70
:1051700055D994F80F23012A00F01983052B4ED935
:1051800094F83323012A00F02184062B47D994F8A0
:105190005723012A00F02E84072B40D994F87B2353
:1051A000012A00F04084082B39D994F89F23012A62
:1051B00000F04D84092B32D994F8C323012A00F062
:1051C0005A840A2B2BD994F8E723012A00F067842C
:1051D0000B2B24D994F80B24012A00F074840C2B97
:1051E0001DD994F82F24012A00F07A840D2B16D9AA
:1051F00094F85324012A00F096840E2B0FD994F8CA
:105200007724012A00F09D840F2B08D994F89B3451
:10521000012B04D1206804F5936103F0EDF82068B8
:1052200003F0FAF9C30240F1AB806368012B40F24E
:10523000898094F86420D6F82019012A00F066824B
:10524000022B7FD994F88820D6F84019012A00F063
:105250007082032B76D994F8AC20D6F86019012A15
:1052600000F07382042B6DD994F8D020D6F8801901
:10527000012A00F07682052B64D994F8F420D6F840
:10528000A019012A00F03F83062B5BD994F818215E
:10529000D6F8C019012A00F05183072B52D994F88F
:1052A0003C21D6F8E019012A00F05C83082B49D98B
:1052B00094F86021D6F8001A012A00F05F83092BC8
:1052C00040D994F88421D6F8201A012A00F072837C
:1052D0000A2B37D994F8A821D6F8401A012A00F0F1
:1052E0007D830B2B2ED994F8CC21D6F8601A012A95
:1052F00000F08D830C2B25D994F8F021D6F8801A74
:10530000012A00F098830D2B1CD994F81422D6F8AA
:10531000A01A012A00F0A3830E2B13D994F8382287
:10532000D6F8C01A012A00F0AE830F2B0AD994F8E0
:105330005C22D6F8E01A012A00F0B983102B01D9BB
:10534000D6F8003B2068436903F48013436103F0FF
:1053500063F9870221D4206803F05EF9400000F170
:10536000C680206803F058F941077FF57EAE2368B8
:105370005D686A0700F186825A682A435A6074E6BB
:105380002068E4E7039B9B68DF0700F177822068D1
:10539000436903F400634361B8E6D4F804C0BCF188
:1053A000010F28D906F532622346012106E00131BA
:1053B000614502F1200203F124031CD093F8A402FA
:1053C00015680128F3D1002DF1DAD4F8FC7405F446
:1053D000803507F00107BD42E9D183F8A302B06927
:1053E00040F08000B06170690506E0D4039A53680C
:1053F00043F4007353602068436903F4001343616E
:10540000AAE7039A536823F00103536094F8F43435
:10541000012B00F08781204604F0B6F9206843692B
:1054200003F0004343616BE603F028F9206802F0C3
:10543000A5FDE060256801F02FF8227B0146284693
:1054400002F090FB204604F071F92068436903F4F0
:105450000053436167E6039A2068536823F0010311
:105460005360102102F060FD6068D8B106F510634A
:105470004FF67F3199601A6822F400121A60C3F85F
:105480000812D3F8002222F40012C3F80022D3F845
:105490000022013542F00062A842C3F8002203F165
:1054A0002003E7D10399226BCB6943F00113CB6151
:1054B000002A40F020814B6943F4005343F02B0352
:1054C0004B610B6943F00B030B61D6F80038217C6C
:1054D000206823F4FE63C6F8003804F2C44203F0E7
:1054E000DDF82068436903F48053436114E62046E5
:1054F00004F056F92068436903F08043436131E7C3
:10550000204604F00FF92068436903F00803436163
:105510000FE6206803F08CF881462068B9F1000F8F
:105520003FF4E8ADCDE9046506F51067A0464FF0FD
:10553000000A064609E05FEA59090AF1010A08F182
:10554000240807F1200700F03C8119F0010FF2D088
:105550005FFA8AFB3046594603F07CF8C2070546DD
:1055600012D503980121436B0AF00F0201FA02F2EF
:1055700023EA02034363B9602169012900F08781AE
:105580005946204604F0C4F82B0744BF0823BB60EB
:10559000EE0644BF1023BB60680644BF4023BB60D7
:1055A000A90700F142812A062668C4D5D8F85C30E4
:1055B000D8F85450AB42BED806F51061D8F8480070
:1055C000079601EB4A11A5EB030C84458A6928BFB5
:1055D00084461FFA82FE0CF1030CBEEB9C0FC0F058
:1055E0008E81CDF818A08A4622E0ED1AD8F848300E
:1055F000D8F84C109D4228BF1D46237C00935A4684
:10560000ABB2304602F042FFD8F84C30DAF818203E
:105610002B44C8F84C30D8F85C3092B22B44033598
:10562000B2EB950FC8F85C30C0F06481D8F85450E4
:105630009D42DAD8DDF818A02668079B0AF00F050E
:1056400003F500610122D3F83438AA4023EA0203AB
:105650004B6370E702F0E4FF07462068002F3FF439
:1056600043AD049506F53068A3464FF0000A254681
:1056700008E07F080AF1010A08F120080BF1240B69
:1056800000F09C80FC07F4D55FFA8AF4214602F012
:10569000D7FF10F0010F814640F0A88019F0080FE5
:1056A00040F0938019F0100F1CBF1022C8F808209A
:1056B00019F0020F0FD07269110604D5039B5A68C6
:1056C00042F480625A609BF87F22012A00F02E810A
:1056D0000223C8F8083019F0200F1CBF2023C8F897
:1056E000083019F4005F18BF4FF40053286818BF42
:1056F000C8F80830BDE7D1F8843043F00B03C1F897
:1057000084304B6C43F00B034B64DEE60029BFF69C
:1057100097AD206884F8632004F1600102F06CFE0C
:1057200063688DE5002184F8F414204600F0FEFB48
:1057300074E60029BFF68DAD206884F8872004F157
:10574000840102F059FE636883E50029BFF68AAD43
:10575000206884F8AB2004F1A80102F04DFE6368D4
:1057600080E50029BFF687AD206884F8CF2004F1DA
:10577000CC0102F041FE63687DE5206804F53A71D2
:1057800002F03AFE6368F2E4082204F2C4413046B3
:1057900008EBC80802F090FE04EB8802C7F30A1376
:1057A000D2F89C1220680B44C2F89C3291E4206825
:1057B00004F5437102F020FE6368DFE42C46049D8B
:1057C00092E43046059D049E94E429680822C8F8B6
:1057D0000820086C01F53062BF4902EB4A1288428A
:1057E000936867D8284603F083FF5BE72868296938
:1057F0000122C8F8082000F5306202EB4A120129A4
:10580000D0F840E0936867D0B4498E4500F0C2807C
:10581000BAF1000F04D1D5F89422002A00F08B8150
:105820002146284603F06AFF38E70498514602F003
:105830007BFB98F83F30012B00F0B4800223BB6063
:10584000B1E647F6F0731F423FF443AC08EBC808DB
:1058500004EB8808C7F30A12D8F88C1230461746B2
:1058600002F02AFED8F88C3220683B44C8F88C320B
:10587000D8F89C323B44C8F89C322AE4204603F016
:105880006BFF84E5204603F08FFF236874E5D8E9B9
:1058900012231344C8F84C30BAF1000F7FF470AEF5
:1058A000636D002B7FF46CAE206804F2C44202F0FA
:1058B000F5FE65E6180444BF4FF4004191602846A8
:1058C00003F016FF296901297FF4ECAE286805F280
:1058D000C44202F0E3FEE5E6190740F193807E49F9
:1058E0008E457FF6DBAE18047FF5D8AE4FF400414D
:1058F0009160D3E6DDF818A0D8F8545026689D4290
:105900003FF619AE99E60029BFF6BEAC206884F8D0
:10591000F32004F1F00102F06FFD6368B4E4206845
:1059200004F5287102F068FD636812E40022214644
:105930008BF87F22284603F02BFFC9E60029BFF62B
:10594000ACAC206884F8172104F58A7102F054FD8C
:105950006368A2E4206804F5317102F04DFD6368CC
:10596000FFF7FEBB0029BFF6A1AC206884F83B21FD
:1059700004F59C7102F040FD636897E40029BFF6CE
:105980009EAC206884F85F2104F5AE7102F034FD0E
:10599000636894E41904A9D49B067FF541AF2021E4
:1059A00091603DE7002388F83F305946204603F0D8
:1059B000F3FE43E70029BFF68BAC206884F883210F
:1059C00004F5C07102F018FD636881E4206804F5F5
:1059D0004C7102F011FD6368FFF7D7BB0029BFF6D9
:1059E00080AC206884F8A72104F5D27102F004FD90
:1059F000636876E4206804F5557102F0FDFC636885
:105A0000FFF7CABB990673D52021916046E60029AD
:105A1000BFF670AC206884F8CB2104F5E47102F085
:105A2000EBFC636866E4206804F55E7102F0E4FC58
:105A30006368FFF7B8BB0029BFF665AC206884F83F
:105A4000EF2104F5F67102F0D7FC63685BE420688F
:105A500004F5677102F0D0FC6368FFF7ABBB002967
:105A6000BFF65AAC206884F8132204F5047102F0E2
:105A7000C3FC636850E4206804F5707102F0BCFC5C
:105A80006368FFF79EBB0029BFF64FAC206884F81F
:105A9000372204F50D7102F0AFFC636845E420681D
:105AA00004F5797102F0A8FC6368FFF791BB002947
:105AB000BFF644AC206884F85B2204F5167102F04E
:105AC0009BFC63683AE4206804F5816102F094FC71
:105AD0006368FFF784BB00BF0A30544F0A31544F4C
:105AE000206804F22C4102F087FC6368FFF77EBB5C
