:020000040800F2
:10000000700B0020A101000809430008B139000865
:10001000653F00082516000889520008000000000E
:100020000000000000000000000000005F44000825
:10003000391E0008000000000B4300088D4B00082B
:10004000BB010008BB010008BB010008BB010008A0
:10005000BB010008BB010008BB010008BB01000890
:10006000BB010008BB010008BB010008BB01000880
:10007000BB010008BB010008BB010008BB01000870
:100080007D1D0008891D0008BB010008BB01000898
:10009000BB010008BB010008BB010008BB01000850
:1000A000BB010008BB010008BB010008BB01000840
:1000B000BB010008BB010008BB010008BB01000830
:1000C000BB010008BB010008BB010008BB01000820
:1000D000BB010008415200084D5200087D52000843
:1000E000BB010008BB010008BB010008BB01000800
:1000F000BB010008BB010008BB010008BB010008F0
:10010000BB010008BB010008BB010008BB010008DF
:10011000BB010008154D0008314C0008BB01000868
:10012000BB010008BB010008BB010008BB010008BF
:10013000BB010008BB010008BB010008BB010008AF
:10014000BB010008BB010008BB010008BB0100089F
:10015000BB010008BB010008BB010008BB0100088F
:10016000BB010008BB010008BB010008BB0100087F
:10017000BB010008BB010008BB0100080000000033
:10018000BB010008B11E0008DFF810D000F082FBB0
:1001900000480047CD5C0008AFF30080700B0020E2
:1001A0000648804706480047FEE7FEE7FEE7FEE711
:1001B000FEE7FEE7FEE7FEE7FEE7FEE7214C00086C
:1001C000890100082DE9F05F0546002092469B4614
:1001D00088460646814640241BE02846414647465D
:1001E000224600F01FFA53465A46C01A914110D3D6
:1001F00011461846224600F006FA2D1A67EB010850
:100200004F4622460120002100F0FDF917EB0009BE
:100210004E41201EA4F10104DFDC484631462A4647
:100220004346BDE8F09FD2B201E000F8012B491E21
:10023000FBD270470022F6E710B513460A46044683
:100240001946FFF7F0FF204610BD2DE9FE4F80460E
:1002500081EA0300C00F0C46009021F0004123F01A
:100260000045B8EB0200A94105D240462146904620
:100270001C460B46024623F00040104347D0270D92
:10028000C7F30A00C3F30A510290401A01904028B4
:100290006BDAC3F3130040F4801B0098924620B140
:1002A0000023D2EB030A63EB0B0B01985946C0F114
:1002B0004002504600F0A7F906460D465046594602
:1002C000019A00F0BFF910EB08006141002487EAB1
:1002D000115284EAE7731A4340D0009A62B3019A3C
:1002E000012A4FEA075215DC001B61EB02014FF0B7
:1002F000004202EA0752CDE90042001C41F580119C
:1003000032462B4600F0F6F903B0BDE8F08F4046C8
:100310002146F9E7001B61EB0201001C41F5801347
:1003200000185B412018A2F5001747EB030140EAD3
:10033000D570B6196D4111E06D084FEA360645EAF1
:10034000C0754FEA0752001B61EB0201001C41F52A
:10035000801149084FEA30000019514132462B46BE
:1003600003B0BDE8F04F00F0B6B90098012240009C
:100370000023D0EB020263EBE073009821464FEAC2
:10038000E074B8EB000061EB0401E9E783F000439F
:100390005BE781F0004158E72DE9FE4F81EA030455
:1003A00004F0004421F0004100944FF0000B23F0D2
:1003B000004350EA01045ED052EA03045BD0C3F369
:1003C0000A54C1F30A552C44A4F2F3340194A0FB5F
:1003D0000254C1F3130141F48011C3F3130343F436
:1003E000801301FB024400FB034E840A970A44EA8F
:1003F000815447EA8357A4FB076802958D0A05FBE1
:1004000007854FEA932C04FB0C542705029D4FEA05
:10041000065847EA1637B5EB08056EEB070C870E52
:10042000920E47EA811742EA8312A7FB0201B6EB5C
:100430000B0164EB00042B0D43EA0C335E1844EB14
:100440001C50DA465146E7FB0201C5F313044FEA9C
:100450000B3343EA14534FEA0432019C43EA060388
:10046000A4F10C040294009CCDE900B400F042F920
:1004700003B0BDE8F08F00200146F9E72DE9F04D0B
:1004800081EA030404F0004B21F0004514464FF0CC
:10049000000A23F0004150EA050220D054EA01028C
:1004A0001DD0C5F30A570246C5F31303C1F3130069
:1004B000C1F30A5640F4801543F48013A7EB0608F5
:1004C000101BD64608F2FD3873EB050002D308F185
:1004D000010801E092185B41B8F1000F03DA002037
:1004E0000146BDE8F08D00204FF480110646844699
:1004F0000EE0171B73EB050705D3121B63EB050317
:1005000006434CEA010C49084FEA300092185B415F
:1005100050EA0107EDD152EA030012D082EA04004A
:1005200083EA0501084305D0101BAB4106D2012226
:10053000002306E000224FF0004302E06FF00102CA
:1005400053101AEB06004CEB085110EB0A0041EB7C
:100550000B01BDE8F04D00F0BEB80EB5C10F80EA4A
:10056000E0700844CA07002140F233438DE80E00D2
:100570000A460B4600F0BEF803B000BD00F0004292
:1005800030F000400AD0C10D01F56071C0F31600D3
:1005900042EA0151C208400711437047002001465A
:1005A000704701F0004330B421F0004150EA0102ED
:1005B00006D00A0DA2F56072C1F31301002A02DC15
:1005C00030BC00207047440F44EAC104C100E01869
:1005D00030BC00EBC25000F047B830B50B460146C6
:1005E00000202022012409E021FA02F59D4205D3D2
:1005F00003FA02F5491B04FA02F52844151EA2F17C
:100600000102F1DC30BD202A04DB203A00FA02F1BD
:10061000002070479140C2F1200320FA03F31943F0
:1006200090407047202A04DB203A21FA02F0002192
:10063000704721FA02F3D040C2F1200291400843F2
:1006400019467047202A06DBCB17203A41FA02F000
:1006500043EAE07306E041FA02F3D040C2F120021F
:1006600091400843194670470029A8BF7047401CB5
:10067000490008BF20F00100704710B4B0FA80FCB8
:1006800000FA0CF050EA010404BF10BC704749B1F5
:10069000CCF1200421FA04F411FA0CF118BF012165
:1006A00021430843A3EB0C01CB1D4FEA00614FEA45
:1006B000102042BF002010BC704700EBC350104414
:1006C0000029A4BF10BC7047401C490008BF20F09F
:1006D000010010BC704710B5141E73F1000408DA55
:1006E000401C41F1000192185B411A4301D120F0F6
:1006F000010010BD2DE9F04D92469B4611B1B1FAB3
:1007000081F202E0B0FA80F220329046FFF77BFFE0
:1007100004460F4640EA0A0041EA0B0153465A4696
:10072000084313D0114653EA010019D0C8F1400222
:100730005046FFF777FF05460E465046594642465B
:10074000FFF761FF084305D0012004E02046394649
:10075000BDE8F08D0020054346EAE0762C433743A0
:100760000A986305E40AA0EB08000022FD0A44EAA7
:1007700047540A3002D500200146E9E70105101967
:100780006941DDE9084500196941BDE8F04DA2E77E
:100790002DE9F04D00231A461B1A8A4103DB002085
:1007A0000146BDE8F08DC1F30A52C1F3130141F4D3
:1007B00080154FF0000BD10702D100186D41521E79
:1007C0000027044640F2FF11384601EB620A3E461C
:1007D0008046024600204FF48011FFF723FFC21924
:1007E0007141BB1846EB0100B4EB030C75EB000C38
:1007F00004D3E41A65EB000517460E46241908F1E8
:1008000001006D4180463428E3DDF91946EB06000E
:10081000091BA84103D24FF0FF32134601E000222A
:1008200013461BEB070046EB0A51BDE8F04DFFF7FE
:1008300052BFC1F30A52C1F3130140F2FF3341F436
:1008400080119A4202DA00200146704740F2334399
:100850009A42A2F2334202DC5242FFF7E3BEFFF7B4
:10086000D2BE000030B5041E71F1000404DB4FF06D
:100870000044404264EB0101141E73F1000405DBE7
:100880001C464FF00043524263EB0403994208BFF9
:10089000904230BD064C074D06E0E06840F0010391
:1008A00094E8070098471034AC42F6D3FFF770FC89
:1008B000585D0008785D000870B5064601F050FAF2
:1008C0004FF47A74E621204603F0BAF86500284612
:1008D00001F0B4FA01F034FA204601F0AFFAE62153
:1008E000204603F09DF8012E04D0022E05D0032EE1
:1008F00008D105E003F00AFA04E003F017FA01E07A
:1009000003F024FA40F6B836304601F097FAE621B3
:10091000204603F085F800F075FE304601F08EFAAF
:10092000E621204603F09EF8284601F087FA01F000
:1009300017FA284601F082FAE621204603F070F803
:10094000204601F07BFA01F06DFC304601F076FAAA
:10095000E621204603F064F8204601F06FFA0249D0
:100960000878401C087070BD1100002070B5012887
:1009700004D0022805D0032808D105E003F0C6F909
:1009800004E003F0D3F901E003F0E0F94FF47A74E6
:10099000E621204603F032F8A00001F04FFA01F002
:1009A000CFF9204601F04AFAE621204603F038F854
:1009B000600001F043FA00F025FE40F6B835284605
:1009C00001F03CFAE621204603F04CF8204601F005
:1009D00035FA01F0C5F9204601F030FAE62120464B
:1009E00003F01EF8204601F029FA01F01BFC28460E
:1009F000BDE8704001F022BA70B5044600F002FE76
:100A0000012C04D0022C05D0032C08D105E003F002
:100A10007DF904E003F08AF901E003F097F941F26F
:100A20008834204601F00AFA4FF47A75E621284608
:100A300003F018F8284601F001FA01F081F9284680
:100A400001F0FCF9E621284602F0EAFF4FF41670A7
:100A500001F0F4F901F0E6FB40F6B83001F0EEF9F0
:100A6000E621284602F0A6FF204601F0E7F901F052
:100A700077F9284601F0E2F9E621284602F0D0FF96
:100A80002846BDE8704001F0D9B900002DE9F047D3
:100A9000354E3078B0BB354C354F01252078DFF826
:100AA000D4804FF0000A4FF0640910284BD2DFE8E1
:100AB00000F0080F2F4D0F354D0F393B424D444D7F
:100AC0005456A7F80090962364223570594221E0CD
:100AD000607818B9052003F0F5F86570B8F90000E2
:100AE00088B100BFA7F800903570B8F902109623BE
:100AF000C82200F0A3FE84F801A0A8F800A0A8F87E
:100B000002A01DE01FE0B8F802100029EAD11AE0A7
:100B1000012004E0002000F091FE11E00220FFF728
:100B20006BFF0DE00320FAE7FA203880962335703A
:100B300064221149EEE7012000E00220FFF716FFD2
:100B40002078401C20700020BDE8F0879623A7F88D
:100B50000090357064221946DCE70320EEE784F844
:100B600000A00120F0E70000700000202600002017
:100B7000760000201A000020D4FEFFFF2DE9F04788
:100B8000344E307878BB344CDFF8D0900125207893
:100B9000334F4FF0000A4FF064080A2849D2DFE8CB
:100BA00000F0050D204B27424B0D5254A9F8008050
:100BB000322335701A466FF0950115E0607818B948
:100BC000052003F07FF86570B7F9000008B979884F
:100BD00049B1A9F8008035703223B7F902101A46DE
:100BE00018E0012020E024E0002000F027FE1DE0B6
:100BF000607818B9052003F065F86570B7F9000052
:100C000008B97988A9B1A9F800803570B7F9021040
:100C10009623C82200F012FE84F801A0A7F800A0D5
:100C2000A7F802A002E00220FFF7E6FE2078401CB1
:100C300020700020BDE8F0873223A9F800803570CD
:100C40001A469621D0E70320EEE784F800A00120A1
:100C5000F0E7000070000020260000207600002051
:100C60001A0000202DE9F047354E3078B0BB354CE6
:100C7000354F01252078DFF8D4804FF0000A4FF07F
:100C8000640910284BD2DFE800F008102F4D103512
:100C90004D10393B424D444D5456A7F80090322335
:100CA00035701A466FF0950120E0607818B905207C
:100CB00003F008F86570B8F9000080B1A7F800905B
:100CC00035703223B8F902101A4600F0B7FD84F8E7
:100CD00001A0A8F800A0A8F802A01DE01FE0B8F845
:100CE00002100029EAD11AE0012004E0002000F0FF
:100CF000A5FD11E0022000F03BFC0DE00320FAE727
:100D0000FA203880322335701A461149EEE7012067
:100D100000E00220FFF72AFE2078401C207000200F
:100D2000BDE8F0873223A7F8009035701A46962167
:100D3000DCE70320EEE784F800A00120F0E70000E4
:100D40007000002026000020760000201A000020FD
:100D5000D4FEFFFF2DE9F05F474E307800287BD1AD
:100D6000464C6427DFF8189121780125DFF81481BB
:100D700082464FF4967B10296ED2DFE801F0081608
:100D8000235A2C490C2C500C555A640C70753EA0FB
:100D900004F0B6FA217840A004F0B2FAA9F8007085
:100DA000962364223570594211E03BA004F0A8FA62
:100DB0006078C8B93CA004F0A3FA11E0B8F80210BA
:100DC000B1B949E034A004F09BFA012024E00020EE
:100DD00000F034FD3DE030A004F092FA607818B9DC
:100DE000052002F06FFF6570B8F900000028E5D01B
:100DF000A9F800703570B8F902109623C82200F0E7
:100E00001DFD84F801A0A8F800A0A8F802A020E029
:100E100021A004F075FA0220FFF7EEFD19E01EA0F4
:100E200004F06EFA0320F7E71BA004F069FA012032
:100E30000DE019A004F064FAA9F80070962335704B
:100E400064225946C3E714A004F05AFA0220FFF7BF
:100E50008DFD2078401C20700020BDE8F09F0EA082
:100E600004F04EFA0320F2E70BA004F049FA84F8EC
:100E700000A00120F1E70000700000202600002003
:100E8000760000201A00002074382E7478743D22F9
:100E900073643122FFFFFF0074392E7478743D2291
:100EA000256422FFFFFF000074382E7478743D2201
:100EB00073643222FFFFFF002DE9F05F4B4D28786D
:100EC00000287BD1DFF8288164264A4F98F800106B
:100ED0000124DFF824A181466FF0950B0F296DD214
:100EE000DFE801F00825582A3B422A4E5853586142
:100EF0006F787D0041A004F003FA98F8010030BB40
:100F000042A004F0FDF91DE04A88002A56D03E8038
:100F10002C70BAF902109623C82200F08FFC88F8D2
:100F2000019098F80010491C88F8001046E033A0A2
:100F300004F0E6F9012014E030A004F0E1F998F89B
:100F4000010020B9052002F0BDFE88F80140BAF981
:100F5000000051460028DAD1D6E728A004F0D0F9E5
:100F60000220FFF749FD24E024A004F0C9F93E80E7
:100F7000962364222C705900002000F05FFC18E0DA
:100F80001EA004F0BDF90320EBE71CA004F0B8F9A3
:100F900001200CE019A004F0B3F93E8096232C70D8
:100FA00064225946E8E715A004F0AAF90220FFF7E9
:100FB000DDFC98F80000401C88F800000020BDE827
:100FC000F09F0EA004F09CF996233E802C706422C2
:100FD0001946D1E709A004F093F90320E7E707A039
:100FE00004F08EF988F800900120E8E770000020F6
:100FF00026000020760000201A00002074392E748C
:1010000078743D22256422FFFFFF000074382E749F
:1010100078743D2273643222FFFFFF002DE9F04710
:10102000444E307800286CD1434C6427DFF80C81A3
:1010300021780125DFF808A181460F2961D2DFE878
:1010400001F00811131A31384549534E5357636D57
:1010500072006078A8B93BA004F052F90DE04A880C
:10106000A2B94EE0012021E09623A8F80070357067
:101070006422194626E0607818B9052002F022FEA5
:101080006570BAF9000051460028E8D0A8F8007051
:101090003570BAF902109623C82200F0CFFB84F80D
:1010A00001902BE02BA004F02BF90220FFF7A4FC09
:1010B00024E028A004F024F9A8F800709623294918
:1010C00035706422002000F0B9FB17E021A004F085
:1010D00017F9D0E71FA004F013F90320E6E71DA0DD
:1010E00004F00EF9012007E01AA004F009F9BBE7AB
:1010F00018A004F005F90220FFF738FC2078401C06
:1011000020700020BDE8F08712A004F0F9F8A8F8DC
:1011100000709623642235705942D3E70DA004F085
:10112000EFF80320E8E70BA004F0EAF884F8009059
:101130000120E7E770000020260000207600002054
:101140001A00002074382E7478743D2273643222A1
:10115000FFFFFF0074392E7478743D22256422FF4E
:10116000FFFF0000D4FEFFFF2DE9F05F404E307816
:10117000002864D13F4C6427DFF8FC802178DFF839
:10118000FCB00125DFF8F8A08146102957D2DFE82E
:1011900001F0590811131D34593B3F5944494D5929
:1011A00063686078C0B937A004F0AAF810E04A88F4
:1011B000BAB944E0012024E0A8F800709623357005
:1011C00064225946002000F039FB35E0607818B9F8
:1011D000052002F077FD6570BAF90000514600283D
:1011E000E5D0A8F800703570BAF902109623C8222D
:1011F00000F024FB84F801901EE026A004F080F8A3
:101200000220FFF7F9FB17E022A004F079F8DDE7F0
:1012100020A004F075F80320F3E71EA004F070F896
:10122000012007E01BA004F06BF8C5E719A004F04B
:1012300067F80220FFF79AFB2078401C20700020FE
:10124000BDE8F09F13A004F05BF89623A8F80070A7
:10125000357064221946B5E70EA004F051F803205A
:10126000E8E70CA004F04CF884F800900120E7E7D0
:10127000700000202600002076000020D4FEFFFF32
:101280001A00002074382E7478743D227364322260
:10129000FFFFFF0074392E7478743D22256422FF0D
:1012A000FFFF00002DE9F047374E3078C0BB374CC8
:1012B000C820374F22780125DFF8D8804FF0000A88
:1012C0004FF064096FF09501102A4DD2DFE802F06B
:1012D000080E2E300E36300E3A3C444F464F5557CE
:1012E0003223388035701A46962123E0607818B989
:1012F000052002F0E7FC6570B8F9000088B100BF76
:10130000A7F8009035703223B8F902101A4600F0A1
:1013100095FA84F801A0A8F800A0A8F802A020E09F
:1013200022E0B8F802100029EAD11DE0012006E011
:1013300038801EE0002000F081FA12E00220FFF762
:101340005BFB0EE00320FAE7FA2038803223357089
:101350001A464FF49671EDE7012000E00220FFF7F6
:1013600005FB2078401C20700020BDE8F087A7F81E
:101370000090322335701A46DCE70320EFE784F84B
:1013800000A00120F1E700007000002026000020EE
:10139000760000201A0000202DE9F047344E307806
:1013A00080BB344CDFF8D09001252078334F4FF0CC
:1013B000000A4FF064086FF095010A2848D2DFE870
:1013C00000F0050C1F4A26414A0C50523223A9F85E
:1013D000008035701A46962115E0607818B905200E
:1013E00002F070FC6570B7F9000008B9798849B15E
:1013F000A9F8008035703223B7F902101A4618E0B8
:10140000012020E024E0002000F018FA1DE06078C0
:1014100018B9052002F056FC6570B7F9000008B94C
:101420007988A9B1A9F800803570B7F90210962320
:10143000C82200F003FA84F801A0A7F800A0A7F8DA
:1014400002A002E00220FFF7D7FA2078401C2070AB
:101450000020BDE8F087A9F80080322335701A46D5
:10146000D1E70320EFE784F800A00120F1E70000B6
:101470007000002026000020760000201A000020C6
:101480002DE9F047364E3078C0BB364C364F01253B
:101490002078DFF8D8804FF0000A4FF064096FF031
:1014A000950110284CD2DFE800F0080F2F4E0F35C1
:1014B0004E0F393B434E454E54563223A7F8009009
:1014C00035701A46962121E0607818B9052002F09F
:1014D000F9FB6570B8F9000088B100BFA7F800906B
:1014E00035703223B8F902101A4600F0A7F984F8D3
:1014F00001A0A8F800A0A8F802A01EE020E0B8F81B
:1015000002100029EAD11BE0012004E0002000F0D5
:1015100095F912E0022000F02BF80EE00320FAE724
:10152000FA203880322335701A464FF49671EDE771
:10153000012000E00220FFF719FA2078401C2070FB
:101540000020BDE8F087A7F80090322335701A46D6
:10155000DCE70320EFE784F800A00120F1E70000BA
:101560007000002026000020760000201A000020D5
:1015700070B5044600F046F8012C04D0022C05D0CA
:10158000032C08D105E002F0C1FB04E002F0CEFB21
:1015900001E002F0DBFB41F28834204600F04EFC13
:1015A0004FF47A75E621284602F05CFA284600F0EE
:1015B00045FC00F0C5FB284600F040FCE62128462B
:1015C00002F02EFA4FF4167000F038FC00F02AFEFC
:1015D00040F6B83000F032FCE621284602F0FCF973
:1015E000204600F02BFC00F0BBFB284600F026FC58
:1015F000E621284602F014FA2846BDE8704000F0C3
:101600001DBC000008B5064800230093C8229FEDCA
:10161000030A0221006800F07FFD08BD000094422B
:1016200068000020FEE700002DE9F041724C804682
:101630002DED028B0F46607A002510B1012806D0EF
:10164000D4E0012060726D4890ED000ACCE094ED8A
:101650000C0A6B4A10EE101A002091420FDC10EEBB
:10166000101A684A91420AD8B1EE400A3A46BDEED5
:10167000C00A414610EE100A00B200F06DF994ED78
:101680000C0A614A10EE101A4FF4A01611449FED97
:101690005F8AB1420AD838EE400A3A464146BDEE6A
:1016A000C00A10EE100A00B200F056F994ED0C0AD0
:1016B000574A10EE101A1144B1420CD8B1EE400A4C
:1016C0003A4630EE480A4146BDEEC00A10EE100A16
:1016D00000B200F041F994ED0C0A4E4A10EE101AD7
:1016E0004FF4202611449FED4C8AB1420AD838EEBF
:1016F000400A3A464146BDEEC00A10EE100A00B25A
:1017000000F02AF994ED0C0A444A10EE101A114424
:10171000B1420CD8B1EE400A3A4630EE480A414692
:10172000BDEEC00A10EE100A00B200F015F994EDFB
:101730000C0A3B4A10EE101A4FF4A0269FED398A8E
:101740001144B1420AD838EE400A3A464146BDEE4D
:10175000C00A10EE100A00B200F0FEF894ED0C0A78
:10176000314A10EE101A1144B1420CD8B1EE400AC1
:101770003A4630EE480A4146BDEEC00A10EE100A65
:1017800000B200F0E9F894ED0C0A284A10EE101AA5
:101790009FED278A1144B1420AD838EE400A3A46F2
:1017A0004146BDEEC00A10EE100A00B200F0D4F8B7
:1017B00094ED0C0A1F4A10EE101A1144B1420CD8D5
:1017C000B1EE400A3A4630EE480A4146BDEEC00A44
:1017D00010EE100A00B200F0BFF8012806D1012572
:1017E00000209FED150A607284ED0C0A2846BDECBE
:1017F000028BBDE8F08100003400002030000020A2
:1018000000002041000020C1000056BD0000B4428D
:101810000000563D0000D1BC000034430000D13C24
:1018200000807BBC0000874300807B3C00804EBC76
:101830000000B44300804E3C000000002DE9F04F52
:1018400000EE100A2DED028B81B0B8EEC00A1C46E6
:1018500093469FED3E1A20EE010A04F021FA00EEB5
:10186000101A0646B8EEC00A20EE010A04F018FA73
:101870000546801B804602F043FD00FB0BF706FB8C
:1018800006F005FB0500FEF768FE824641EC100BF2
:10189000009103F069FD9FED2E8B51EC100B53EC82
:1018A000182BFEF779FDFEF77CFE00EE100A04F01F
:1018B000F7F9B7FBF0F9A81902F022FD009900FB37
:1018C0000BF741EC10AB03F04FFD53EC182B51EC30
:1018D000100BFEF761FDFEF764FE00EE100A04F047
:1018E000DFF9B7FBF0F7B8F10000E3B203D401462B
:1018F0000FFA89F204E0711BC9F10000884602B2B8
:101900009146022002F03CFCE3B241464A460420E4
:1019100002F036FC7519E3B203D43AB229461646F2
:1019200004E06D42784202B216462946012002F0D8
:1019300027FCE3B229463246032002F021FC01B025
:10194000BDEC028BBDE8F04F02F006BC33338141A1
:10195000666666666666F63F70B5124C0025237AA9
:101960003BB1012B0DD0022B12D00020032B13D141
:1019700015E000F019F841F2707000F05FFA0120F4
:101980000AE0022020724FF4967000F057FA04E04B
:1019900000F0B4F808B103202072284670BD01257C
:1019A000FAE70000340000202DE9F047DFF8488115
:1019B0000446154698F805004FF0000910B10128BB
:1019C0007DD096E04C480FB2EBB290ED060A48424B
:1019D00006B2002C3EDB00EE904A3A460120F8EEBB
:1019E000E00A20EE800ABCEEC00A10EE101A02F0E7
:1019F000C7FB00EE104AD8ED060AEBB2B8EEC00AFB
:101A00003246022020EE200ABCEEC00A10EE101A68
:101A100002F0B6FB00EE104AD8ED060AEBB2B8EEC3
:101A2000C00A3246032020EE200ABCEEC00A10EEA7
:101A3000101A02F0A5FB00EE104AD8ED060AEBB230
:101A4000B8EEC00A3A4620EE200ABCEEC00A10EEFC
:101A5000101A40E0644200EE904A3A460120F8EE47
:101A6000E00A20EE800ABCEEC00A10EE101A02F066
:101A700087FB00EE104AD8ED060AEBB2B8EEC00ABA
:101A80003246022020EE200ABCEEC00A10EE101AE8
:101A900002F076FB00EE104AD8ED060AEBB2B8EE83
:101AA000C00A3A46032020EE200ABCEEC00A10EE1F
:101AB000101A02F065FBEBB200EE104A00E013E0F2
:101AC000B8EEC00AD8ED060A324620EE200ABCEE77
:101AD000C00A10EE101A042002F052FB02F03CFB88
:101AE000012188F8051004E0002088F805004FF077
:101AF00001094846BDE8F087340000202DE9F04197
:101B00002DED048B1546002659B155B17D4C7E4A0A
:101B1000A379D2ED000ADFED7D8A3BB1012B4DD0D8
:101B2000ECE00020BDEC048BBDE8F0810121A17147
:101B300077495A2802DA10F15A0F21DC00EE100A18
:101B4000D4ED0B0AB8EEC00A30EE800A84ED0A0A22
:101B500002E000BF30EE680A10EE100A8842F9DA9F
:101B600084ED0A0A02E000BF30EE280AB5EEC00A92
:101B7000F1EE10FAF8D384ED0A0A84ED0B0ABDE009
:101B800000EE100AB8EEC00A30EE800A84ED0A0AB0
:101B900002E000BF30EE680A10EE100A8842F9DA5F
:101BA00084ED0A0A02E000BF30EE280AB5EEC00A52
:101BB000F1EE10FAF8D384ED0A0A9FE094ED0A0AD8
:101BC000544F30EE600A10EE100AB84201DD30EEDC
:101BD000680A514B10EE100A984201D930EE280ADB
:101BE0004E4B94ED071AF0EEC01A11EE900A98428F
:101BF00003DDF7EE081A21EE211AD4ED091A70EE72
:101C0000611A21EE008A94ED081A84ED090A00EEAB
:101C1000101A01EE218AB8EE400AB4EEC08AF1EE45
:101C200010FA00EE101A02DDB8EE408A0EE0B8EEAF
:101C3000400AB1EE400AB4EEC08AF1EE10FA05D2C5
:101C400000EE101AB8EE400AB1EE408A904610EE4F
:101C5000900AFEF793FC41EC100B31A053EC102BD3
:101C600003F04EFB18EE100AFEF788FC41EC100B57
:101C70002FA053EC102B03F043FBBDEEC89AEAB241
:101C800019EE100A01B2012002F00EFBB1EE480A73
:101C9000EAB2BDEEC08A18EE100A01B2022002F0CC
:101CA00003FB18EE100AEAB201B2032002F0FCFABC
:101CB00019EE100AEAB201B2042002F0F5FA02F0BD
:101CC0004BFA94ED0A0AD8ED000A30EE600AB0EE45
:101CD000C00A10EE100AB84201DD38EEC00A00203A
:101CE00010EE101AB1F17E5F0ADCE179491CC9B22D
:101CF000E171032902D3E0710126A071304611E79A
:101D0000E071FBE734000020300000200000B44305
:101D10000000B44300003443000034C300003442E8
:101D200074322E7478743D22256622FFFFFF000076
:101D300074332E7478743D22256622FFFFFF000065
:101D400008B5064800230093C8229FED030A03212B
:101D5000006800F0E1F908BD000074C268000020CE
:101D600008B5054800230093C822B1EE040A0321F8
:101D7000006800F0D1F908BD68000020014800F0BB
:101D8000BDBA000058020020014800F0B7BA0000B8
:101D9000B802002001681823CAB2103AB2FBF3F26D
:101DA000054B6FF30901032A9B5CC36500D9091D2C
:101DB0008165084670470000385D000810B501468F
:101DC00000208B698A6A4FF0C07453B1B3F5005F8D
:101DD00015D072B1012A0CD0022A0AD0032A09D1E7
:101DE00004E01AB1012A06D0022A03D1C96AC90146
:101DF00000D5012010BDC96AA142FAD010BD002A49
:101E0000F7D0012AF2D0022AF3D0032AF3D010BD72
:101E100030B50468256825F4802525600468636072
:101E20008368402B036803D099600068C26030BDAE
:101E30009A600068C16030BD704700004FF40771C0
:101E400070B5B0FBF1F2B0FBF1F501FB1204094EE5
:101E500003E0304600F010F86D1E002DF9D1002C83
:101E600006D04FF47A706043BDE8704000F004B8CB
:101E700070BD0000603D08000B49097848434FF0F1
:101E8000E021401E486100228A61086940F001009B
:101E900008610869C30701D0C003FAD5086920F0BA
:101EA000010008618A6170476C00002072B6FEE78D
:101EB000704710B590B0044603AA3221684602F07C
:101EC00060FA6946204600F00AF8684602F026FAF1
:101ED000401E81B2684602F03FFA10B010BD70B5E6
:101EE0000D4604460188284602F0B3FAA178284638
:101EF00002F098FAE178284602F094FAE278211D7F
:101F0000284602F091FA284602F013FA01462846C4
:101F1000BDE8704002F086BA37B58EB0154604466B
:101F20000FAB01220A2100F0DAF86946204600F0E2
:101F300053F8040015D19DF804009DF83C10884228
:101F400002D0072011B030BDBDF90500FEF705FB3A
:101F50009FED051B53EC112BFEF790FAFEF721FBCA
:101F600028602046EEE7000000000000000024404A
:101F700037B58EB0154604460FAB0122102100F094
:101F8000AEF86946204600F027F804001DD19DF800
:101F900004009DF83C10884202D0072011B030BDEB
:101FA0009DF80710BDF8050061F31F409DF808106B
:101FB00040EA0160FEF7D1FA9FED051B53EC112BAF
:101FC000FEF75CFAFEF7EDFA28602046E6E700002F
:101FD00000000000000024402DE9F04105460020EB
:101FE0000C4681F8370006468046642762E00120EF
:101FF00000F0F6FAA86802F091F9A8B394F8370057
:10200000010716D5A86802F00BFA84F8360094F898
:10201000370040F0100084F837002046FFF749FFF2
:1020200094F83610884202D00620BDE8F0810020E6
:10203000FBE741070ED5A86802F0F2F9A119761C5A
:102040000871E078F6B2B04234D194F8370040F02D
:1020500008000EE081070FD5A86802F0E1F9E070F2
:102060002D2802D90520E0E724E094F8370040F05D
:10207000040084F837001DE0C0070CD0A86802F007
:10208000CFF9A070112801D90420CEE794F83700C9
:1020900040F00200EDE7B8F1000F03D0B8F1050FF2
:1020A0000DD005E0A86802F0BBF98046052801D0F4
:1020B0004FF000087F1EBFB299D20220B5E7A86892
:1020C00002F0AEF948EA0028A8F5E0510539EFD151
:1020D000A4F8008094F8370040F00100C9E770B51B
:1020E0008EB0044644F61240ADF800008DF80210A0
:1020F0008DF803200021684603E05D5C4618491C0A
:1021000035719142F9DB6168FFF7E9FE204603F083
:10211000BCF80EB070BD00002DE9F04116462DED63
:10212000028B86B00F4680461D46B0EE408A03AA59
:10213000072168460E9C02F024F918EE100A1D498A
:10214000884202DD9FED1C8A06E018EE100A1B494A
:10215000884201D99FED1A8A3946684602F062F931
:10216000B2EE040A28EE000ABDEEC00A10EE100A14
:1021700001B2684602F067F93146684602F069F933
:102180002946684602F065F90DF10D030722082182
:102190004046FFF7A4FF5CB10022B0EE480A394682
:1021A000404600F00FF806B0BDEC028BBDE8F081B0
:1021B0000020F8E70000344300003443000034C33B
:1021C000000034C32DE9F04115462DED028B82B09D
:1021D000B0EE408A0F46804600244FF07E566A4695
:1021E0003946404615B1FFF7C3FE01E0FFF794FE04
:1021F0009DED000A38EE400AF0EEC00A10EE900A9B
:10220000B04205DC002002B0BDEC028BBDE8F081DD
:10221000641CA4B2642C01D30120F4E7642000F014
:10222000DFF9DCE708B5064800230093C8229FEDDC
:10223000030A02210068FFF76FFF08BD0000AEC26D
:10224000680000202DE9F0410446876D00F0D2FAC5
:10225000064694F835000025022806D080206065E7
:1022600084F834500120BDE8F0812068016821F035
:10227000160101602068416921F080014161206CF4
:1022800008B9A06C20B12068016821F00801016044
:102290002068016821F0010101600CE000F0AAFA59
:1022A000801B052807D920206065032084F83500AD
:1022B00084F83450D7E720680068C007EED194F85E
:1022C0005C103F208840B860012084F8350084F815
:1022D00034500020C7E790F83510022903D0802140
:1022E000416501207047052180F8351000680168BC
:1022F00021F0010101600020704700002DE9F84342
:1023000004464FF00009CDF8009063484FF4165191
:10231000A56D0068B0FBF1F72E6894F85C100820FA
:1023200000FA01F131420FD021680A6852070BD53B
:102330000A6822F004020A6094F85C108840A860E1
:10234000606D40F00100606594F85C104FF001088A
:1023500008FA01F0304208D021684969090604D51D
:10236000A860606D40F00200606594F85C10042085
:102370008840304208D021680968890704D5A860E0
:10238000606D40F00400606594F85C101020884097
:10239000304218D021680968090714D5A860206860
:1023A0000168490304D50068000308D5A16C07E063
:1023B0000168C90503D4016821F008010160216C9E
:1023C00009B12046884794F85C10202088403042AC
:1023D00031D021680968C9062DD5A86094F8350068
:1023E00005282068016806D0490347D50068000326
:1023F0001DD4616C1CE021F0160101602068416968
:1024000021F080014161206C08B9A06C20B12068E6
:10241000016821F00801016094F85C103F208840B9
:10242000A86084F8358084F83490216D1FE0E16B5A
:1024300009B120468847606D00282BD0606DC00729
:1024400014D0052084F835002068016821F00101CE
:1024500001600098401C0090B84203D820680068D2
:10246000C007F6D184F8358084F83490E16C0029F7
:1024700010D001B02046BDE8F04308470168C90507
:10248000D5D4016821F01001016084F8358084F80A
:102490003490CCE7BDE8F8830C0000202DE9F04132
:1024A000044600F0A7F906465CB1022084F8350026
:1024B000002584F834502068016821F00101016092
:1024C0000DE00120BDE8F08100F094F9801B0528A3
:1024D00005D920206065032084F83500F2E72068E4
:1024E0000068C007F0D12268116820480140D4E993
:1024F00001031843D4E9033633431843636918438F
:10250000A3691843E3691843236A18430843616ABF
:10251000042903D1D4E90B13194308431060206840
:102520004069666A20F0070130460E4301270428FF
:102530000CD1A06A0643E06A40B12046FFF73EFC9A
:1025400020B14020606584F83570BAE720684661A4
:102550002046FFF71FFC94F85C203F2191408160EA
:10256000656584F835700020ACE700003F8010F00E
:102570002DE9F0410446866D90F8340000250128CD
:102580000DD0012084F8340094F835700020012F1C
:1025900007D084F8340002252846BDE8F0810220E7
:1025A000FBE7022784F8357060652046FFF730FCB2
:1025B00094F85C103F208840B0602068016841F0CA
:1025C00016010160206C20B12068016841F008010B
:1025D00001602068016841F001010160DCE7000052
:1025E00070B5044600F006F90546601C02D00448A8
:1025F0000078044400F0FEF8401BA042FAD370BDFE
:10260000000000202DE9F84FDFF8BCA100220125D1
:1026100003264FF00F090AF1040BAAF1040E00BFC4
:102620000B6805FA02F42340A34270D10F7907F03A
:102630000307012F01D0022F16D187684FEA420805
:1026400006FA08FC27EA0C07D1F80CC00CFA08FCC3
:102650004CEA070CC0F808C04768A7430C79C4F3DC
:10266000001494403C4344600C79E443A4070AD02E
:10267000C4684FEA420C06FA0CF7BC438F6807FAAD
:102680000CF72743C7600C7904F00304022C12D125
:10269000D40800EB840CDCF820405707FF0E09FA41
:1026A00007F824EA0804D1F8108008FA07F848EA85
:1026B0000408CCF8208004684FEA420C06FA0CF7B4
:1026C000BC430F7907F0030707FA0CF727430760AD
:1026D0004C6814F4403F70D03C4C276847F4804766
:1026E0002760246822F0030704F480440094384CE7
:1026F00007EB040CDCF8084897074FEA177809FA4B
:1027000008F7BC43334FB84202D1002724E054E01D
:10271000314FB84201D101271EE0304FB84201D1FC
:10272000022719E02E4FB84201D1032714E02D4FA4
:10273000B84201D104270FE02B4FB84201D1052741
:102740000AE02A4FB84201D1062705E0284FB842D7
:1027500001D1072700E0082707FA08F72743CCF83C
:102760000878DAF800405746D1F804C09C435FEA85
:10277000CC2C00D51C433C60DBF800405F46D1F810
:1027800004C09C435FEA8C2C00D51C433C60DEF8FF
:1027900000407746D1F804C09C435FEA8C3C00D5EA
:1027A0001C433C60084F083F3C68D1F804C09C4380
:1027B0005FEACC3C00D51C433C60521C102AFFF45D
:1027C0002FAFBDE8F88F0000083C014044380240BC
:1027D00000300140000002400004024000080240B6
:1027E000000C024000100240001402400018024099
:1027F000001C024001488068704700000000002073
:10280000024881680278114481607047000000200E
:102810000B4810B5016841F400710160016841F492
:1028200080610160016841F480710160032000F063
:1028300077F80F2000F006F800F024F8002010BD13
:10284000003C024070B50D4D04464FF47A71287873
:10285000B1FBF0F00A490968B1FBF0F000F012FB9F
:1028600048B9102C07D200222146501E00F038F83B
:1028700000206C6070BD012070BD000000000020D1
:102880000C0000200E4808B5016841F48041016049
:10289000006800F4804000900948001F016841F082
:1028A000805101600068002200F0805000901146C5
:1028B000512000F015F8BDE80840512000F002B8A2
:1028C00044380240002809DB00F01F02012191403A
:1028D0004009800000F1E020C0F8001170470000BE
:1028E000F0B40E4B1B680C46C3F30223C3F107057B
:1028F000042D00D90425191D072901D2002300E069
:10290000DB1E012606FA05F1491E214099409E4032
:10291000761E16403143F0BC02F016BD0CED00E00F
:10292000064900F0070208684FF6FF03184040EA26
:102930000220034A10430860704700000CED00E0DD
:102940000000FA052DE9F0470E46050065D0DFF8D6
:102950001481D8F80000F7B200F00700B04207D2A7
:1029600088F80070D8F8000000F00700B04254D199
:1029700028683D4C810712D5400703D5206840F4F4
:10298000E05020602878000703D5206840F46040BC
:1029900020602068A96820F0F000084320602878B3
:1029A000C0072DD0304968680839012812D00228A4
:1029B00013D0032811D00968890700292DDA21686E
:1029C00021F0030101432160FFF714FF814641F22A
:1029D000883A0EE009688903EFE709688901ECE7A6
:1029E000FFF708FFA0EB0901514502D90320BDE81C
:1029F000F0872068696800F00C00B0EB810FEFD120
:102A0000D8F80010404601F00701B14207D907701D
:102A1000006800F00700B04201D00120E7E7287805
:102A2000400705D52068E96820F4E050084320609D
:102A30002878000706D52068296920F4604040EA1C
:102A4000C100206000F038F82168084AC1F3031182
:102A5000515CC8400649086006480068FFF7F2FE6E
:102A60000020C4E7003C024008380240405D0008F6
:102A70000C00002004000020044805490068096893
:102A8000044AC1F38221515CC84070470C00002009
:102A900008380240505D000804480549006809688C
:102AA000044AC1F34231515CC84070470C00002019
:102AB00008380240505D0008154810B5006810F055
:102AC0000C02144813D04110042A0FD0082A0ED14A
:102AD0000F4C241F2268236802F03F025B0207D5D7
:102AE0002068C0F38810A0FB010106E0084610BD75
:102AF0002168C1F38811A1FB00010023FDF762FBEF
:102B00002168C1F30141491C4900B0FBF1F010BD3F
:102B1000083802400024F4002DE9F84F04006ED07C
:102B20002078DFF84C93C007A9F104054AD009F1D9
:102B300004000168C1F38101012908D00068C0F3D5
:102B4000810002280AD1D9F80000400206D5286881
:102B5000800337D560680028E1D033E06068B0F5C5
:102B6000803F10D0B0F5A02F286810D020F480301E
:102B70002860286820F4802028606068A8B1FFF7EA
:102B800039FE06460DE0286840F48030F4E740F452
:102B900080202860F7E700BFFFF72CFE801B642829
:102BA00073D828688003F7D50CE0FFF723FE0646AC
:102BB00005E000BFFFF71EFE801B6428F0D82868E0
:102BC0008003F7D42078DFF8AC8280074FF0000A4A
:102BD0003ED5A748001D016811F00C0F08D0006811
:102BE000C0F3810002280BD1D9F80000400207D4BD
:102BF0002868800716D5E068012800D112E033E18B
:102C0000E068B8B10120C8F80000FFF7F3FD064600
:102C100005E000BFFFF7EEFD801B0228C0D8286842
:102C20008007F7D52868216920F0F80040EAC10044
:102C300028600DE0C8F800A0FFF7DCFD064604E0C0
:102C4000FFF7D8FD801B02281FD828688007F7D41B
:102C50002078000722D5864F87486169703771B1A7
:102C600001210160FFF7C6FD064604E0FFF7C2FD43
:102C7000801B022809D838688007F7D50EE0C0F815
:102C800000A0FFF7B7FD064605E082E0FFF7B2FDC2
:102C9000801B02287DD838688007F7D42078400749
:102CA00068D5DFF8CCB100270BF13C0BDBF8000056
:102CB000C0000BD4DBF8001041F08051CBF80010BD
:102CC000DBF80000012700F0805000906B4E306868
:102CD000C00510D4306840F480703060FFF78AFD82
:102CE000009005E0FFF786FD0099401A022850D8B1
:102CF0003068C005F6D55E4EA0686C3601280FD04E
:102D00000528306810D020F001003060306820F0D5
:102D100004003060A068B8B1FFF76CFD00900FE0D0
:102D2000306840F00100F4E740F004003060F7E75D
:102D3000FFF760FD0099411A41F28830814266D860
:102D400030688007F4D50EE0FFF754FD009007E0EF
:102D5000FFF750FD0099411A41F28830814256D860
:102D600030688007F4D42FB1DBF8001021F08051D7
:102D7000CBF80010A069C8B33D49091D0968C1F32B
:102D8000810102294AD00228504607D0C8F86000C5
:102D900000E03CE0FFF72EFD04463BE04746C8F864
:102DA0006000FFF727FD064605E000BFFFF722FDA4
:102DB000801B02282BD828688001F7D4D4E90701AA
:102DC0000843A16A2E4A490802EB0141626A41EABE
:102DD0008211084394F82C1040EA0161C9F80010F0
:102DE00001203866FFF706FD044606E03EE000BF1E
:102DF000FFF700FD001B022809D828688001F7D5DD
:102E000034E000BFFFF7F6FC001B022802D90320C4
:102E1000BDE8F88F28688001F4D427E00128F7D0B6
:102E2000D9F80000E26900F4800191421CD1226AC5
:102E300000F03F01914217D147F6C071626A01402C
:102E4000B1EB821F10D1A26A4FF0FF3300F4403182
:102E500003EB5202B1EB024F06D194F82C1000F0B4
:102E60007060B0EB016F01D00120D1E70020CFE707
:102E70000438024000004742800E47420070004084
:102E80000000FFFF10B5401EB0F1807F01D301208C
:102E900010BD4FF0E02460610F21601702F054FA7A
:102EA0000020A06107202061002010BD70477047FE
:102EB00070B590F83C20012A32D0012480F83C40C3
:102EC000022280F83D2003685A689D6822F070064F
:102ED0000A6832435A60134B02689A4214D0B2F126
:102EE000804F11D0104B9A420ED0104B9A420BD00B
:102EF0000F4B9A4208D00F4B9A4205D00E4B9A4284
:102F000002D00E4B9A4204D1496825F08003194340
:102F1000916080F83D40002180F83C10084670BD6B
:102F2000022070BD00000140000400400008004085
:102F3000000C004000040140004001400018004027
:102F400010B5040003D094F83D0010B107E0012053
:102F500010BD002084F83C00204600F01FF802203D
:102F600084F83D00211D206801F068FE012084F8EE
:102F7000460084F83E0084F83F0084F8400084F85E
:102F8000410084F8420084F8430084F8440084F847
:102F9000450084F83D00002010BD000008B5006821
:102FA0000B49884212D10B48016841F010010160C1
:102FB0000068002200F01000009011463620FFF754
:102FC0008FFCBDE808403620FFF77CBC08BD000040
:102FD000001000404038024090F83D10012901D017
:102FE00001207047022180F83D100168CA6842F054
:102FF0000102CA6000681149884214D0B0F1804FC4
:1030000011D00F4988420ED00E4988420BD00E498C
:10301000884208D00D49884205D00D49884202D027
:103020000C49884204D1816801F00701062903D0C8
:10303000016841F00101016000207047000001407B
:103040000004004000080040000C00400004014063
:10305000004001400018004070472DE9F04104464F
:103060000068C66805694FF00007A90713D5B107C6
:1030700011D5F91E01610120207720688069800741
:10308000204602D0FFF7E8FF04E000F07EF820467B
:1030900000F07CF82777680716D5700714D52168EB
:1030A0006FF004000861022020772068806910F426
:1030B000407F204602D0FFF7CFFF04E000F065F824
:1030C000204600F063F82777280715D5300713D579
:1030D00021686FF008000861042020772068C0692B
:1030E0008007204602D0FFF7B7FF04E000F04DF85C
:1030F000204600F04BF82777E80616D5F00614D5E1
:1031000021686FF010000861082020772068C069EE
:1031100010F4407F204602D0FFF79EFF04E000F04D
:1031200034F8204600F032F82777E80708D0F00797
:1031300006D021686FF001000861204600F028F8F1
:10314000280608D5300606D521686FF08000086192
:103150002046FFF7ABFE680608D5700606D5216845
:103160006FF040000861204600F058F8A8060AD524
:10317000B00608D521686FF0200008612046BDE840
:10318000F041FFF794BEBDE8F08170477047000042
:103190001E4910B5884237D11D4C002021780129E5
:1031A00001D051B10AE0A188491C89B2A180E2880E
:1031B000914203D3A080207000E0A08061780129B3
:1031C00001D051B10AE06189491C89B2618122892B
:1031D000914203D36081607000E06081A189491C45
:1031E00089B2A181B1F57A7F0ED3A0819FED090B41
:1031F0000120A07053EC102B94ED040B51EC100B3C
:10320000FDF7C4F8C4E9040110BD0000A8000020C7
:103210007000002079E9263108AC7C3F7047704788
:1032200010B504460068406994F84110C0F3C0101E
:10323000212911D180B12068143050E8001F21F0FD
:10324000800140E80012002AF5D1A06B08B1FEF71A
:10325000F9FF204601F030FE2068406994F84210E2
:10326000C0F38010222911D180B12068143050E8B9
:10327000001F21F0400140E80012002AF5D1E06B68
:1032800008B1FEF7DFFF204601F0EFFD002010BD82
:1032900070470000F8B5016804460868CA684B69C1
:1032A00010F00F0F4FF0000559D003F0010602F4A3
:1032B0009077374365D0C10705D0D10503D5616C40
:1032C00041F001016164410705D5D90703D0616C64
:1032D00041F002016164810705D5D90703D0616C13
:1032E00041F004016164010707D502F02001314378
:1032F00003D0616C41F008016164616C00293AD02F
:10330000800604D5900602D5204601F0E3FD206832
:103310004069616CC0F38010090700D460B3204697
:1033200001F0A3FD20684069400621D520681430D3
:1033300050E8001F21F0400140E80012002AF5D1BA
:10334000E06BA8B16E490165E06BFEF7C4FF002891
:1033500011D0E06B016D01B0BDE8F0400847830675
:103360000FD593060DD52046BDE8F84001F0B2BD5B
:103370002046FFF78DFFF8BD2046FFF789FF656403
:10338000F8BD266B2023012E7DD1C6067BD5D6063F
:1033900079D508684868009048694FF002064006F1
:1033A00041D5E16B086840680004000CE8D0A28DAC
:1033B0008242E5D9E085C869B0F5807F2DD02068CC
:1033C0000C3050E8001F21F4807140E80012002A00
:1033D000F5D12068143050E8001F21F0010140E8C9
:1033E0000012002AF5D12068143050E8001F21F0A7
:1033F000400140E80012002AF5D184F842302563EC
:1034000020680C3050E8001F21F0100140E8001245
:10341000002AF5D1E06BFEF715FF6663A08DE18D04
:10342000401A81B22AE0A08DE18D401A81B2E08D70
:103430000028A5D00029A3D022680C3252E8000F42
:1034400020F4907042E80007002FF5D12068143076
:1034500050E8002F22F0010240E80027002FF5D1AC
:1034600084F84230256320680C3050E8002F22F0A9
:10347000100240E80023002BF5D166632046FFF7D9
:10348000CEFEF8BDFFE705062BD5150629D594F825
:1034900041002128F5D1A068B0F5805F01D12069F5
:1034A000B0B1206A411C2162216800784860E08C3C
:1034B000401E0004000CE084E3D12068C16821F0C4
:1034C0008001C1602068C16841F04001C160D8E757
:1034D000206A0088C0F308004860206A801C2062CF
:1034E000E5E74006CDD55006CBD5CA68204622F088
:1034F0004002CA6084F8413000F058FAC1E7000089
:10350000214D000870B5040004D094F84100002556
:1035100010B106E0012070BD84F84050204600F054
:1035200023F8242084F841002068C16821F4005168
:10353000C160204601F030FD2068016921F490410E
:1035400001612068416921F02A0141612068C16858
:1035500041F40051C1606564202084F8410084F882
:1035600042006563002070BD2DE9F04186B006463B
:1035700014216846FCF75EFE8548844BD6F800C0EF
:103580008349103803250227824A00244FF0080897
:103590009C451BD10B6843F400230B60096801F4C0
:1035A00000210591016841F0010101600068CDE949
:1035B000005700F00100CDE9048069461046CDE9CE
:1035C0000245FFF71FF806B0BDE8F081724B9C453D
:1035D00032D10A6842F480120A60096801F480114D
:1035E0000591016841F004010160016801F00401E6
:1035F0000591016841F008010160006802AA00F02D
:10360000080005909814CDE9000782E8300169466A
:103610006248FEF7F7FF0420CDE9000702AA6946D9
:1036200082E830015E48FEF7EDFF002211463520AA
:10363000FFF756F9352027E0DFF868810723C445F6
:1036400025D15349091D0E6846F010060E60096821
:1036500001F010010591016841F00101016000686D
:10366000029400F0010005904FF4C060CDE900071E
:10367000CDE9035369461046FEF7C4FF0022114608
:103680002520FFF72DF92520FFF71CF99BE7DFF830
:103690001881C44554D1D1F800C04CF4003CC1F8A5
:1036A00000C0096801F400310591016841F0010191
:1036B00001600068029400F0010005900C20CDE943
:1036C0000007CDE9035369461046FEF79BFF384DCE
:1036D00036484FF000672860C5E901744FF48068F0
:1036E000C5E903486C614FF44030AC61C5E907405F
:1036F00028466C62FEF7D2FE08B1FEF7D7FBF563F1
:10370000AE632B4D294860351830E5E802074020AC
:10371000A5E81101264845F814496030AC61EC6118
:103720002C626C62FEF7BAFE08B1FEF7BFFBB56310
:10373000002211462620AE63FFF7D2F82620A3E729
:103740001C4A9445A2D10A6842F480220A600968A2
:1037500001F480210591016841F0020101600068D7
:10376000029400F0020005904FF44060CDE900079C
:10377000CDE9035369461048FEF744FF0022114685
:103780002720FFF7ADF827207EE70000004C00401F
:103790004038024000000240005000400008024053
:1037A000000C0240001001400044004088600240CC
:1037B00058020020004800400004024090F84230C7
:1037C000202B01D00220704721B11AB100230363DE
:1037D00001F068BC0120704790F84230202B01D0E6
:1037E0000220704721B11AB10023036301F0A2BC8B
:1037F0000120704770B5044600681349884207D11C
:10380000204601F0FBFC0100104800D001210170AE
:103810000F492068884203D10E48007800F0F8FB79
:103820000D4D2068A84202D1204600F019F820680A
:10383000A84202D1204600F0AFF9BDE87040012255
:1038400004490648FFF7C8BF0010014010000020DF
:10385000004800403E0000200050004010020020C0
:1038600010B5094C00682168096888420BD10748E7
:103870000178A06800F0BFFD2068BDE8104001227B
:103880000249FFF7A9BF10BD64070020880000208F
:1038900070472DE9F843044690F8410098461646D3
:1038A0000D46202802D00220BDE8F88385B17EB104
:1038B00000206064212084F84100FEF79BFFA6846D
:1038C0008146E684A0682027B0F5805F02D003E03F
:1038D0000120E9E7206910B12E4600250EE0002600
:1038E0000CE08021204601F040FCA8B9C6B116F8D2
:1038F000010B21684860E08C401EE084E08C4B4660
:103900004FF00002CDF800800028EAD14FF04001CE
:10391000204601F02AFC40B184F841700320C3E73F
:1039200035F8020BC0F30800E3E784F8417000208B
:10393000BAE7000070B5044690F84100202801D095
:10394000022070BD49B342B32162A284E284002008
:103950006064212384F84130A56B114BEB63A56BA8
:10396000104B2B64A56B104BEB64A36B186525689B
:1039700013462A1DA06BFEF7FBFD21686FF0400087
:1039800008602068143050E8001F41F0800140E8D2
:103990000012002AF5D1002070BD012070BD00008A
:1039A0001F4E0008614E0008314D000870477047F7
:1039B000FEE70000074B10B501225A70CBB202B2ED
:1039C00043F23811052000F01DFCBDE8104000F066
:1039D000C3BB000034000020074B10B503225A700F
:1039E000CBB202B241F68441052000F00BFCBDE8E9
:1039F000104000F0B1BB000034000020074B10B5B0
:103A000002225A70CBB202B243F2D401052000F078
:103A1000F9FBBDE8104000F09FBB0000340000201F
:103A2000064B10B500225A70CBB202B2002105201D
:103A300000F0E8FBBDE8104000F08EBB3400002031
:103A4000074B10B504225A70CBB202B24FF47A6120
:103A5000052000F0D7FBBDE8104000F07DBB000062
:103A600034000020074B10B505225A70CBB202B2C9
:103A700040F6FC01052000F0C5FBBDE8104000F059
:103A80006BBB0000340000201CB50BA1D1E9000184
:103A9000CDE900010A480068C16841F01001C16029
:103AA0001E2208490648FFF789FEFF22694604489E
:103AB000FFF740FF1CBD0000FFAA760000000000D9
:103AC000C80100201803002070B5204D2878012877
:103AD0003BD11F4C607CA17C227D0844E17C1144D9
:103AE0000844A830617DC0B2884221D119A001F0FC
:103AF00007FCB4F81100DFED1A0A00EE100A1B49AA
:103B0000B8EE400A20EE200ADFED160A20EE200A69
:103B1000DFED150A85ED010A30EEC00A10EE100A3D
:103B200085ED020A884203DB9FED110A85ED020A4A
:103B3000002028701E210648FCF77CFBBDE8704081
:103B40001E2203490B48FFF739BE70BD2800002034
:103B5000180300204552524F52210D0A0000000068
:103B600000000038000034430000B4430000B443B8
:103B700000000000C801002010B5012204490548DA
:103B8000FFF72AFEBDE810406420FEF757B9000099
:103B900019000020380100202DE9F843DFF8EC80FF
:103BA0003B4C454698F8000098F80110012221543A
:103BB000401C88F80000691C3648FFF70DFE287885
:103BC000092815D12078002760B9207AEF2809D17B
:103BD00060780A280ED00C283CD00D284FD02EA09B
:103BE00001F08EFB2A4807604760077288F8007072
:103BF000BDE8F883254E0025B61D60192BA18278FB
:103C0000684601F08DFB9DF8000070556D1C032D7A
:103C1000F3DB2B20F0700025601924A1427968465F
:103C200001F07EFB71199DF800006D1C0871032DD9
:103C3000F2DB1649F771891D1DA001F061FB1349E4
:103C40001BA0891D01F05CFB104919A0891D01F022
:103C500057FBC7E72079E17840EA0110A1780A29EB
:103C600000D040420949891C0880E079A27940EAE5
:103C7000021062790A2A00D040424880B2E7A07858
:103C80000228AFD10E480770ACE7000018000020F2
:103C900094000020380100207431302E7478743D77
:103CA000226572726F7222FFFFFF00002564000020
:103CB0007431302E7478743D22257322FFFFFF008B
:103CC000130000200F4A10B5002142F8091F51606F
:103CD00011720C4A093211700B215170022150549B
:103CE000491C0729FBDDEF20107206494FF47A7357
:103CF000092209310448FFF7CCFDBDE8104014202B
:103D0000FEF79CB8940000203801002008B5064852
:103D100000230093C8229FED030A01210068FEF7EB
:103D2000FBF908BD0000A4426800002008B5064861
:103D300000230093C8229FED030A01210068FEF7CB
:103D4000EBF908BD000004C26800002008B5064871
:103D500000230093C8229FED030A01210068FEF7AB
:103D6000DBF908BD000023C3680000200D4808B53A
:103D7000016841F4001101600068002200F40010A5
:103D8000009011461020FEF7ABFD1020FEF79AFDC3
:103D9000002211461120FEF7A3FDBDE808401120C6
:103DA000FEF790BD30380240154808B5016841F073
:103DB00080010160016801F080010091016841F01B
:103DC00001010160016801F001010091016841F009
:103DD00002010160016801F002010091016841F0F7
:103DE00004010160016801F004010091016841F0E3
:103DF00008010160006800F00800009008BD0000A4
:103E0000303802401CB500240F4800940D4901943D
:103E1000016042F2CF01C0E901146321C160802139
:103E20008161FFF78DF808B1FEF740F8009469460C
:103E300005480194FFF73CF8002801D0FEF736F85A
:103E40001CBD000000100040A80000200C4810B568
:103E50000A4901604FF4E1314160002181600C2288
:103E6000C160C0E904128161C161FFF74BFB00280A
:103E700003D0BDE81040FEF719B810BD004C00405B
:103E8000F00000200C4810B50A4901604FF4E13100
:103E90004160002181600C22C160C0E9041281618F
:103EA000C161FFF72FFB002803D0BDE81040FDF7EC
:103EB000FDBF10BD00500040380100200C4810B577
:103EC0000A4901604FF461214160002181600C22A8
:103ED000C160C0E904128161C161FFF713FB0028D2
:103EE00003D0BDE81040FDF7E1BF10BD0010014058
:103EF000800100200C4810B50A4901604FF4E131FF
:103F00004160002181600C22C160C0E9041281611E
:103F1000C161FFF7F7FA002803D0BDE81040FDF7B4
:103F2000C5BF10BD00440040C80100200C4810B5BA
:103F30000A4901604FF4E1314160002181600C22A7
:103F4000C160C0E904128161C161FFF7DBFA00289A
:103F500003D0BDE81040FDF7A9BF10BD00480040E8
:103F600010020020FEE700000B4910B50870F32096
:103F70004870AB2088700120C870002008716B2049
:103F800048714FF47A7306220448FFF782FCBDE8BB
:103F900010400A20FDF752BF4A0300201002002003
:103FA00010B50120FFF7E0FF0220FFF7DDFF03203F
:103FB000FFF7DAFF0420FFF7D7FFBDE81040052028
:103FC000FFF7D2BF104810B50068C16841F020016A
:103FD000C16001220D490C48FFF7FEFB052000F0EF
:103FE0008DF8012000F08AF8022000F087F8032005
:103FF00000F084F8042000F081F86420FDF71EFF33
:10400000BDE81040FFF7CCBF100200203E000020AA
:10401000F0B5384A012411461779CB78591CCEB235
:104020003549C7B10225012F1ED0022F12D1D078F9
:1040300001EB400030F8023C00206B2B1DD01071CA
:10404000D07015705FF0000221F81200521CD2B23D
:104050000A2AF9D3F0BD012801D00528FAD114713C
:1040600021F81300D670F0BD21F81300D6700A2E87
:1040700001D26B28F7D11571D9E7D07010710B8878
:10408000012B02D0052B10D01AE04B88FD2B17D145
:104090008B889F2B14D114705FF0000221F812005E
:1040A000521CD2B2042AF9D3F0BD4B88FD2B02D0AA
:1040B000272B18D004E08B889F2B01D1937843B134
:1040C0005FF0000221F81200521CD2B20A2AF9D382
:1040D000F0BD94705FF0000221F81200521CD2B2C1
:1040E000042AF9D3F0BDC888097940EA01209081FB
:1040F000F0BD000034000020360300202DE9F0411F
:10410000134C05466B262070FE2060709820A0702E
:104110000020E0704FF47A7726713B460522214655
:104120000C48FFF7B6FB0A20FDF788FE25700A2031
:1041300060706D20A070E6703B4604222146054861
:10414000FFF7A7FBBDE8F0410A20FDF777BE0000AE
:104150004A03002010020020074800214FF47A7320
:104160000170FF214170662181706B21C170014691
:1041700004220248FFF78DBB4A03002010020020F2
:1041800070B50446104600F0BBF885B21A48FD260B
:10419000012C0470467005D0042C03D0002A03DBE8
:1041A000012202E0002AFBDB002282702A0AC27090
:1041B000057143710A0E82710A0CC2710A0A0272F9
:1041C0004172002585720121C1726B2101734FF488
:1041D0007A730D2208490948FFF75BFB012C05D1D2
:1041E000074C0A202570FDF729FE2570BDE87040B8
:1041F0000A20FDF723BE00004A0300201002002021
:104200003400002070B50446104600F079F885B2FD
:104210002248FD26012C0470467005D0042C03D0E2
:10422000002A03DB012202E0002AFBDB002282706D
:104230002A0AC270057143710A0E82710A0CC2719A
:104240000A0A0272417201218172C1726B210173EB
:104250004FF47A730D2211491148FFF71AFB0A2017
:10426000FDF7ECFD0D4A0F4B0021143A012C0BD049
:10427000052C08D10020997022F81010401CC0B203
:104280000428F9D3997070BD0020197022F810101D
:10429000401CC0B20428F9D370BD00004A030020BE
:1042A000100200203400002070B50346084600F0DC
:1042B00027F884B21048F625037045700125012BBC
:1042C00017D0042B15D005EBE1718170210AC17064
:1042D0000471427185716B21C1714FF47A730822A8
:1042E00005490648FFF7D5FABDE870400120FDF703
:1042F000C3BDC90FE9E700004A03002010020020F7
:10430000002800DA40427047FEE7704700B5038995
:104310005B1E00F003F8181A80B200BD8288C188C5
:104320008A4203D90089511A401A00E0881A80B2E3
:104330007047F0B50746FFF7F1FF00240646254613
:1043400006E0A9B2384600F007F82044C4B26D1C5C
:10435000B542F6DB2046F0BD10B50C460346FFF72C
:10436000DDFFA04201D8002010BD9888641C198987
:104370002044B0FBF1F201FB1200196880B2085C26
:1043800010BD026000228280C280491C018111465A
:1043900003E003685A54491C89B203898B42F8D858
:1043A000704710B50446FFF7B1FF2189491E89B255
:1043B000884201D1012010BD002010BD00B5FFF7DB
:1043C000A5FF08B1002000BD012000BD10B50446C6
:1043D000FFF7E7FF08B1002010BDA0882189401C2D
:1043E000B0FBF1F201FB120081B2A1802268002330
:1043F000505C535410BD30B50D460446FFF7DEFF48
:1044000010B12046FFF7E2FFE0882189401CB0FB95
:10441000F1F201FB120080B2E08021680D5430BD42
:10442000FFF7D4BFFFF7E7BFF0B515460E460746C6
:10443000002405E0315D3846FFF7DDFF641CA4B2BF
:10444000AC42F7D3F0BD03B501A90222FFF7ECFFA0
:104450000CBD03B501A90222FFF7E6FF0CBD7047B2
:104460000149012008717047100000202DE9F05F1C
:10447000F948F949012590F804C0F9488B7891F87A
:1044800003B00478F748F54E4978877890F804E04F
:10449000427980794FF0500A4FF49679BCF1090FB8
:1044A00020D2DFE80CF00587CCF3F2F1F0EF210029
:1044B00000231A4619461846FDF7C0F9E64CEAA053
:1044C000617800F01DFF2179EBA000F019FF207842
:1044D000012807D14FF4FA60FDF7B0FC01202071EC
:1044E00000202070BDE8F09FDD4F0CB1012BF9D109
:1044F000D94C1D29F6D2DFE801F00F1318F41CF394
:10450000F223F3F2184BF3F22B3018F435F3F23DAB
:10451000F3F2184B50F1F000C82030803D7059E0A4
:104520004FF4167030803D705EE0A6F800A03D703C
:1045300001E2C82030803D7096234A46D249EAE223
:104540004FF44870308082233D70C822CF49E2E2A8
:104550004FF4AF7030803D70D4E24FF48C703080F7
:104560003D70E0E1C820C849308096233D704A463E
:104570001439D0E24FF42F70C449308082233D704B
:104580004FF4C8722339C6E2A07800283CD0A9E7CE
:104590004FF4AF7030803D7040E2B3A000F0B0FE49
:1045A0004FF48C70B949308096233D704FF4C87237
:1045B000D231B0E2AA480CB1012B93D1A64C082904
:1045C00090D2DFE801F0040D161E22282E37C821F4
:1045D0003180057032231A4600216FF09500B0E05B
:1045E0004FF41671318005709623A02240F2AA5133
:1045F00091E2A6F800A005709623C82200211E2093
:104600009FE00420FFF75EFB74E2BBF1000FBED118
:10461000E57001200AE0BBF1000FB8D1E57002207F
:1046200004E0BBF1000FB2D1E5700320BDE8F05FFC
:10463000FCF742B9002060700220207152E7DFF8D9
:1046400020820CB1012BA2D1834C0B299FD2DFE831
:1046500001F006102B461E2B46353A6F7B00A6F85C
:1046600000A088F800509623C82200216FF0310086
:1046700067E0C82084493080962388F800504A4675
:10468000323948E213E2ADE164E123E16CE076A067
:1046900000F036FE4FF496607C4930808223C822B9
:1046A00088F800500F3936E2A6F80090494688F89D
:1046B0000050A7225A20FDF777F91BE2A6F800A0C8
:1046C00088F8005037E1674801784078322909D0EE
:1046D000312912D033291BD024E03AE22BE2F3E156
:1046E0001BE248E1312802D0332803D01AE0332FEF
:1046F00078D017E0312F76D014E0322802D033285A
:1047000003D00FE0332F6FD00CE0322F6DD009E0D3
:10471000312802D0322803D004E0322F71D001E0DA
:10472000312F6FD009206070A9E10028C5D1D9E6EA
:10473000A6F800A088F800509623C82200216FF048
:104740004F00FDF77BF8D5E1A5709621C820FCF756
:104750006BFF10B10020A07002E0A0780028E6D125
:1047600000206070032068E73D4F0CB1012BDED1C3
:10477000394C0729DBD2DFE801F005274049044D19
:104780009D00D2E638A000F0BBFD21793AA000F0F0
:10479000B7FD4FF4FA70308032483D708078312890
:1047A00004D0322806D0332809D0A3E196234A4604
:1047B0003749B0E1364996234A466439ABE134497A
:1047C00096234A466431A6E127A000F099FDA57022
:1047D0009622C8216FF05900FDF790F930B1002002
:1047E000A07006E031E133E1DFE03BE1A078002892
:1047F0009DD16078801C607074E61BA000F080FD85
:1048000090E137E1E3E00020A07073E116A000F032
:1048100077FD9DE614A000F073FD1248017832295F
:1048200004D031290CD0332936D028E14178312900
:1048300002D0332902D022E18078AAE08078ADE06E
:104840004178322902D0332924D018E180783328E6
:1048500027D1FCF793F968E71000002076000020CC
:10486000700000201E00002074392E7478743D22E0
:10487000256422FFFFFF000074352E7478743D22FA
:10488000256422FFFFFF000084FEFFFF6BF9FFFF9E
:1048900044FDFFFF80788DE04178312902D0322934
:1048A00002D0ECE080788DE08078312870D1FCF780
:1048B00073FD3AE7A5709621C820FCF7B5FE10B14C
:1048C0000020A07002E0A078002895D10020607040
:1048D0000420B2E6A0480CB1012B8DD19F4C0A29CF
:1048E0008AD2DFE801F00917F11C250807060577D1
:1048F00097E690E689E684E64FF4AF713180057063
:10490000312F3FF453AF322F3FF454AF332F3FF4E6
:1049100056AFEFE0A6F8009049460570C9E64FF49F
:104920008C71318005709623FA226FF4D471F2E015
:10493000A6F800A005709623C8220021322000E7C7
:104940000020A07002E0A0780028BED10020607096
:10495000052072E6804F0CB1012BB6D17F4C0A299D
:10496000BED2DFE801F00807DADF06DADF050C3730
:10497000DBE5FFE5F6E5A6F800A03D7073E6BEF1C5
:10498000320F5FD0BEF1310F0BD0BEF1330F14D018
:1049900075E0332859D072E0332A70D1312857D0CE
:1049A0006DE0322A04D1332869D1FCF76FF8BCE6F8
:1049B000332A64D1322855D061E0312A02D0322A1C
:1049C00003D05CE0322855D059E0312857D1FCF7AC
:1049D00069FCAAE6C821A5700846FCF725FE002858
:1049E000B1D0ADE75C4F0CB1012BAED15B4C0629C9
:1049F000B6D2DFE801F0049297031D4CA8E54FF40E
:104A0000AF7131803D70312804D0322806D0332870
:104A100009D06FE096234A4651497CE050499623DD
:104A20004A46643977E04E4996234A46643172E03B
:104A3000BEF1320F06D0BEF1310F0CD0BEF1330FF4
:104A400013D01CE0312AA7D1A3E7FCF735FA6CE6B6
:104A5000FCF7E4FA69E6322AAAD133280FD1FCF731
:104A600001F962E6FCF776F95FE6312AAAD0322A2C
:104A700003D004E0FCF778FB57E6312804D0BDE80A
:104A8000F05F38A000F03CBCFCF7FAFC4DE6C82112
:104A9000A5700846FCF7C8FD10B10020A07002E028
:104AA000A0780028A1D1002060700720C5E52A4F1A
:104AB0000CB1012B99D1294C062999D2DFE801F0DC
:104AC000052D32033B4968E52CE0AFF2642000F08D
:104AD00017FC2179AFF2602000F012FC4FF4AF70A8
:104AE000308029483D708079312806D0322809D09D
:104AF00033280CD06078401C7DE6194996234A463D
:104B00000F3108E0164996234A46553903E0144907
:104B100096234A467331002013E6A6F800904946D2
:104B20003D70C6E5A5709621C820FCF77DFD0028E4
:104B30007FF469AE28E5AFF2D02000F0E1FB4FF43E
:104B40008C703080962300213D704FF4C8724B204A
:104B5000F7E50020607070E5700000201000002074
:104B6000F9FCFFFF74382E7478743D224572726F21
:104B7000723A20496E76616C696420515220436F0D
:104B8000646522FFFFFF00001E000020FDF738BE15
:104B900030B593B030216846FBF74CFB14210CA8CC
:104BA000FBF748FB1C480025016841F0805101607B
:104BB000006800F0805011901848016841F480416D
:104BC00001600068022400F48040119001200090F0
:104BD000000401908001CDE9064008AA0420A82124
:104BE00082E813000B906846FDF796FF08B172B695
:104BF000FEE70CA90F2081E831004FF4A0500F9080
:104C0000109005210CA8FDF79DFE002801D072B67A
:104C1000FEE713B030BD0000403802400070004095
:104C20000248016841F470010160704788ED00E0BE
:104C30000148FEF712BA0000A8000020F0B5026893
:104C4000294C2A4D2A4E2B4F2B4B4FF0804CA04223
:104C500009D0604507D0A84205D0B04203D0B84281
:104C600001D0984204D122F0700E4A6842EA0E0246
:104C7000A0421BD0604519D0A84217D0B04215D031
:104C8000B84213D0984211D01C4DA8420ED01C4DF2
:104C9000A8420BD01B4DA84208D01B4DA84205D0FE
:104CA0001A4DA84202D01A4DA84203D122F44075F1
:104CB000CA682A434D6922F080022A4302608A684A
:104CC000C2620A688262A04201D0984201D1096999
:104CD0000163012141610169C90703D0016921F024
:104CE00001010161F0BD000000000140000400402E
:104CF00000080040000C004000040140004001405A
:104D0000004401400048014000180040001C0040E1
:104D1000002000400148FEF7BDBA00003801002025
:104D200010B5806B0021C185C184FEF7B1FA10BDBA
:104D300070B5846B2068406994F84110C0F3C010CE
:104D40000025212904D118B1E584204600F0B4F8EB
:104D50002068406994F84210C0F38010222904D1E1
:104D600018B1E585204600F080F8606C40F0100036
:104D700060642046FEF78CFA70BD10B50146806B6A
:104D8000096809684FF00002C9052ED4C285016880
:104D90000C3151E8003F23F4807341E80034002CCB
:104DA000F5D10168143151E8003F23F0010341E8D7
:104DB0000034002CF5D10168143151E8003F23F094
:104DC000400341E80034002CF5D1202180F8421046
:104DD000016B012909D101680C3151E8003F23F032
:104DE000100341E80034002CF5D14263016B012926
:104DF00002D0FEF7FFFC10BD818DFEF710FA10BD4A
:104E000010B5806B01214163016B012902D0FEF7CF
:104E10003FFD10BD818D4908FEF701FA10BD10B5A8
:104E20000146806B09680968C90516D40021C18450
:104E30000168143151E8002F22F0800241E800237C
:104E4000002BF5D101680C3151E8002F42F04002EF
:104E500041E80023002BF5D110BDFEF7A7FD10BDE2
:104E600010B5806BFEF7A3FD10BD01680C3151E851
:104E7000002F22F4907241E80023002BF5D1016845
:104E8000143151E8002F22F0010241E80023002BE9
:104E9000F5D1016B012909D101680C3151E8002FCE
:104EA00022F0100241E80023002BF5D1202180F8E8
:104EB000421000210163704701680C3151E8002F56
:104EC00022F0C00241E80023002BF5D1202180F818
:104ED0004110704708B590F84210222901D00220F5
:104EE00008BD82684FF480539A4201D1016921B113
:104EF000816A9A421BD04AB10AE00268816A52680C
:104F0000C2F308020A80816A891C08E0026972B152
:104F10000268526802F07F020A70816A491C81624D
:104F2000C18D491E0904090CC18503D01BE002682C
:104F30005268F1E70168CA6822F02002CA6001687D
:104F4000CA6822F48072CA6001684A6922F00102CC
:104F50004A61202180F8421000214163026B012A3E
:104F600003D0FEF747FC002008BD016301680C3147
:104F700051E8002F22F0100241E80023002BF5D168
:104F800001680A68D20602D50A6849680091818DD5
:104F9000FEF745F9E7E7000070B5044600680169CF
:104FA000E26821F44051114301612169A068E2697E
:104FB00008436169114308432168CA6849F20C63D8
:104FC0009A430243CA6020684169A26921F4407192
:104FD0001143416131492068884202D030498842FA
:104FE00002D1FDF759FD01E0FDF746FDE26900231E
:104FF000192164253226B2F5004F626828D0A0FB43
:105000000101930F9200FBF7DDF80146B0FBF5F0CC
:105010006FF01802504301EB800006EB0010B0FB6C
:10502000F5F000F0F002B1FBF5F002EB0012B1FB7D
:10503000F5F06FF01803584301EB800006EB001009
:10504000B0FBF5F000F00F0021681044886070BDDF
:10505000A0FB010192185B41FBF7B4F80146B0FBDD
:10506000F5F00201B1FBF5F06FF01803584301EBC6
:10507000800006EBC000B0FBF5F000F0F80002EB9A
:105080004002B1FBF5F0584301EB800006EBC00095
:10509000B0FBF5F000F00700D6E70000001001407B
:1050A0000014014038B58162044682850020134611
:1050B0006064222284F84220E56B1B4AEA63E56BB8
:1050C0001A4A2A64E56B1A4AEA64E26B10650A46DA
:1050D0002168E06B091DFDF74BFA20680168406804
:1050E0000090206948B120680C3050E8001F41F45E
:1050F000807140E80012002AF5D12068143050E891
:10510000001F41F0010140E80012002AF5D120689B
:10511000143050E8001F41F0400140E80012002A1E
:10512000F5D1002038BD00007B4D0008014E00087D
:10513000314D000881628285C285002141642221AF
:1051400080F84210016921B10168CA6842F4807296
:10515000CA6001684A6942F001024A610068C16898
:1051600041F02001C160002070472DE9F8439846C6
:1051700017460D460446089E24E0701C22D0FDF719
:1051800039FBA0EB0800B0421AD8CEB12068C16844
:10519000490717D5802D15D0402D13D00168C9437C
:1051A00009070FD401680025406800902046FFF7EA
:1051B0005CFE0820606484F840500120BDE8F8835C
:1051C0000320FBE72068006835EA000004D00020D7
:1051D000B842D2D00020F1E70120F9E710B5012252
:1051E00004490548FEF7F8FABDE810406420FCF7D2
:1051F00025BE0000170000208001002070B50E4C75
:105200000025607868B92646A0783070012060706B
:105210000246A11C0948FEF7DFFA6078012803D096
:1052200000E06570002070BD3078552801D02570F1
:10523000F7E76570012070BD150000208001002097
:105240000148FEF727B8000080010020094808B592
:1052500000680168C90608D50168406800900548E3
:10526000FDF7DEFF044901200870BDE80840014851
:10527000FEF710B8C8010020280000200148FEF702
:1052800009B8000010020020FEE738B504460AE025
:105290006068FFF79BF88DF8000001231A46694605
:1052A0002068FEF7F6FA6068FFF738F80028EFD1BB
:1052B00038BD000070B50E4A04464FF4FA75294611
:1052C00002F57B70FFF75DF80A4A294602F20320D7
:1052D000FFF757F8084901F10C0081600C39C0E96B
:1052E00000412046BDE8704001220449FEF774BA2F
:1052F000600300205505002058070020880000208A
:105300000FB4054B10B503A9044A029800F040F908
:1053100010BC5DF814FB0000B55C00088C00002098
:105320000FB4084B10B504A902AA039800F030F995
:10533000044602A9002000F0AEFC204610BC5DF837
:1053400014FB0000975C00080907090E002804DB25
:1053500000F1E02080F80014704700F00F0000F129
:10536000E02080F8141D704700B52DED048BB0EEE1
:10537000409AF0EE609A83B051EC190BFBF708FAF3
:1053800041EC180B18EE100A18EE901A8DED008BF8
:10539000002818BF0120084320F00040C0F17F60C2
:1053A00000F1E040C00F14D019EE101A19EE900A67
:1053B0008DED009B002918BF0121084320F000401B
:1053C000C0F17F6000F1E040C00F04BF012000F099
:1053D00017F8B0EE480A03B0F0EE680ABDEC048B93
:1053E00000BD02E008C8121F08C1002AFAD17047A8
:1053F0007047002001E001C1121F002AFBD1704755
:105400000149086070470000900000202DE9FF5F0F
:1054100082B00021DDE90430020DDDF840B0034325
:1054200018D044F61050A2F2FF32424315141198DE
:1054300001281FD0A5EB0B00401C5FEA000A4FF0CB
:1054400000064E4FDFF83891B046504615D5CAF1E8
:10545000000413E0119801244AA3012801D16FEA46
:105460000B010298119AC0E90031C0E9024206B06E
:10547000BDE8F09FCBF10000DFE704460021404A81
:10548000491842EB0450CDE9001012E0E00707D0C4
:1054900032463B4640464946FAF77EFF80468946FB
:1054A00032463B4610461946FAF776FF06460F4647
:1054B0006410002CEAD1DDE90401DDE90023BAF132
:1054C000000F06DAFAF768FF42464B46FAF764FF28
:1054D00005E0FAF7D3FF42464B46FAF7CFFF044602
:1054E0000E460022284BFBF7BDF903D84FF0FF30E2
:1054F000014607E00022254B20463146FAF7A5FE7B
:10550000FBF797F9102409E0002C0ADB0A2200239C
:10551000FAF758FE039B30321A55641E50EA010216
:10552000F2D1641C039AC4F111031444119A012AA4
:1055300003D0012208430DD10AE0084304D0002023
:105540004FF0110B119072E7A3EB0B056D1E0DE0F0
:105550005B4504DD4FF0000205F1010504E003DACC
:105560004FF00002A5F10105002AECD00298119934
:10557000C0E90231C0E9004579E7000000001440AD
:105580000000F03F300000000000F0430000E03F6A
:105590002DE9FF4F95B09A46884606460025EEE174
:1055A000252877D100242746F94A0121039400E0F9
:1055B000044316F8013F203B01FA03F01042F7D1F3
:1055C00030782A2811D06FF02F033078A0F1300204
:1055D000092A16D8039A44F0020402EB820203EB74
:1055E00042021044761C0390EFE758F8042B039214
:1055F000002A03DA504244F40054039044F00204B9
:10560000761C30782E2816D116F8010F44F00404C9
:105610002A280DD06FF02F023078A0F13003092B2B
:1056200009D807EB870302EB4303C718761CF3E79F
:1056300058F8047B761C30786C280FD006DC4C2898
:1056400017D068280DD06A2814D104E0742810D02F
:105650007A280FD10DE044F400140AE044F48014D9
:1056600001E044F440147278824202D104F58014BF
:10567000761C761C307866280BD013DC582877D03F
:1056800009DC002875D04528F6D04628F4D04728F4
:105690001AD193E118E0632835D0642879D06528C1
:1056A00012D18BE1702873D008DC6728F1D069280B
:1056B0006FD06E280DD06F2806D1ACE073282CD0A7
:1056C000752874D0782853D05246179990476D1C8E
:1056D00054E1C4F30250022809D003280DD0D8F8B1
:1056E000001004280DD00D6008F1040846E1D8F838
:1056F0000010EA17C1E90052F6E7D8F800100D8053
:10570000F2E70D70F0E718F8041B8DF80010002088
:105710008DF80100EB46012003E058F804BB4FF080
:10572000FF3061074FF0000102D40DE009F10101E3
:105730008946B9420FDA8145F8DB1BF809100029C8
:10574000F4D108E009F1010189468142FADB1BF836
:1057500009100029F6D103985346A0EB090721460A
:105760003846179A00F080FA284400EB090507E054
:1057700044E008E10DE01BF8010B524617999047F1
:10578000B9F10109F7D2534621463846179AF2E09B
:1057900039E00A21C4F302524FF0000B0091022AB3
:1057A00006D058F8040BC117032A09D00AE023E0F9
:1057B00008F1070020F00702F2E80201904605E038
:1057C00000B2C117042A01D140B2C117002906DA7C
:1057D0000A460021404261EB02012D2202E022052F
:1057E00004D52B228DF80420012203E0E20701D02A
:1057F0002022F7E7914657E00A2100E010214FF000
:10580000000B00910BE010214FF0000B44F004045A
:105810000827009103E008204FF0000B0090C4F32C
:105820000252022A05D058F8040B0021032A08D09E
:1058300008E008F1070020F00702F2E802019046B4
:1058400003E080B2042A00D1C0B24FF00009220761
:105850002AD53278702A07D0DDF800C08CF0100C01
:105860005CEA0B0C05D00EE040228DF804200122EA
:1058700008E050EA010306D030238DF804308DF89B
:10588000052002229146009B83F0080353EA0B0394
:105890000AD150EA010201D1620705D530228DF804
:1058A00004204FF001097F1E3278582A04D039A213
:1058B0000C920CAA02920BE03BA2F9E75B46009A1D
:1058C000FAF780FC0C9B9B5C029A521E02921370AA
:1058D00050EA0102F2D1029804A9081A00F1200B43
:1058E000600702D524F4803400E001275F4502DD23
:1058F000A7EB0B0000E0002000EB0B0100900398E9
:105900004944401A0390E00306D453462146179AAF
:10591000039800F0A9F90544002706E001A85246C3
:10592000C05D179990476D1C7F1C4F45F6DBE00367
:105930000CD553462146179A039800F095F9054473
:1059400004E030205246179990476D1C0099481E7C
:1059500000900029F5DC08E0029802995246007890
:10596000491C0291179990476D1CBBF10001ABF1E6
:10597000010BF1DC5BE100F065F90544761C307841
:1059800000287FF40DAE19B02846BDE8F08F000066
:105990000928010030313233343536373839616205
:1059A00063646566000000003031323334353637C9
:1059B000383941424344454600000000600700D4A6
:1059C000062708F1070020F00700F0E802238046D0
:1059D00003F0004C5FEA0C0001D097A009E020051D
:1059E00001D596A005E0E00701D095A001E0AFF257
:1059F0004C001390307823F0004365280CD006DC6F
:105A0000452809D046281DD047287FD13BE066288D
:105A100018D067287AD136E00021112F01DB112040
:105A200000E0781CCDE9000104A90CA8FFF7EEFC0A
:105A3000DDE90D010C9A4FF0000B07F101091092FE
:105A400000914EE04FF000400097CDE9011004A90D
:105A50000CA8FFF7DBFCDDE90D020C9B0F994FF062
:105A6000000B91461093009211B9791C00EB0109CB
:105A7000B7EB090003D4C0F1FF3B07F10109A9EB23
:105A80000700019042E0012F00DA01270021112FC9
:105A900001DD112000E03846CDE9000104A90CA881
:105AA000FFF7B4FCDDE90D010C9A00914FF0000BFB
:105AB000B946109221070FD4009A4A4503DA91465D
:105AC00001E0A9F10109B9F1010F05DD109AA9F171
:105AD0000101515C3029F4D0B84202DA10F1040F10
