:020000040800F2
:100000000000022011A90008499F00084D9F000828
:10001000519F0008559F0008599F000800000000EC
:100020000000000000000000000000005D9F0008CC
:10003000619F000800000000659F0008699F00089C
:1000400061A9000861A9000861A9000861A9000868
:1000500061A9000861A9000861A9000861A9000858
:1000600061A9000861A9000861A900086D9F000846
:10007000799F0008859F0008919F00089D9F0008B8
:10008000A99F0008B59F000861A9000861A90008A0
:10009000C19F000861A9000861A9000861A90008C2
:1000A00061A9000861A9000861A9000861A9000808
:1000B00061A9000861A9000861A9000861A90008F8
:1000C00061A9000861A9000861A9000861A90008E8
:1000D00061A90008CD9F0008D99F0008E59F00088E
:1000E00061A9000861A9000861A9000861A90008C8
:1000F00061A9000861A9000861A90008F19F000832
:1001000061A9000861A9000861A9000861A90008A7
:10011000FD9F000809A0000815A0000861A90008BB
:1001200061A9000861A9000821A0000861A90008D0
:1001300061A9000861A9000861A9000861A9000877
:1001400061A9000861A9000861A9000861A9000867
:1001500061A9000861A900082DA0000861A9000894
:1001600061A9000861A9000861A9000861A9000847
:1001700061A9000861A9000861A900080000000049
:0801800061A9000861A9000853
:1001C00081F0004102E000BF83F0004330B54FEA08
:1001D00041044FEA430594EA050F08BF90EA020F75
:1001E0001FBF54EA000C55EA020C7FEA645C7FEA08
:1001F000655C00F0E2804FEA5454D4EB5555B8BF2B
:100200006D420CDD2C4480EA020281EA030382EA9B
:10021000000083EA010180EA020281EA0303362D2D
:1002200088BF30BD11F0004F4FEA01314FF4801C00
:100230004CEA113102D0404261EB410113F0004F12
:100240004FEA03334CEA133302D0524263EB4303C9
:1002500094EA050F00F0A780A4F10104D5F1200E67
:100260000DDB02FA0EFC22FA05F2801841F10001C2
:1002700003FA0EF2801843FA05F359410EE0A5F196
:1002800020050EF1200E012A03FA0EFC28BF4CF0C7
:10029000020C43FA05F3C01851EBE37101F000457D
:1002A00007D54FF0000EDCF1000C7EEB00006EEB8A
:1002B0000101B1F5801F1BD3B1F5001F0CD3490814
:1002C0005FEA30004FEA3C0C04F101044FEA44526B
:1002D00012F5800F80F09A80BCF1004F08BF5FEAF2
:1002E000500C50F1000041EB045141EA050130BDD2
:1002F0005FEA4C0C404141EB0101013C28BFB1F5E4
:10030000801FE9D291F0000F04BF01460020B1FA2E
:1003100081F308BF2033A3F10B03B3F120020CDA01
:100320000C3208DD02F1140CC2F10C0201FA0CF0DF
:1003300021FA02F10CE002F11402D8BFC2F1200C44
:1003400001FA02F120FA0CFCDCBF41EA0C019040FA
:10035000E41AA2BF01EB0451294330BD6FEA040443
:100360001F3C1CDA0C340EDC04F11404C4F120022E
:1003700020FA04F001FA02F340EA030021FA04F340
:1003800045EA030130BDC4F10C04C4F1200220FA97
:1003900002F001FA04F340EA0300294630BD21FAD5
:1003A00004F0294630BD94F0000F83F4801306BF9B
:1003B00081F480110134013D4EE77FEA645C18BF8F
:1003C0007FEA655C29D094EA050F08BF90EA020F26
:1003D00005D054EA000C04BF1946104630BD91EA1E
:1003E000030F1EBF0021002030BD5FEA545C05D121
:1003F0004000494128BF41F0004130BD14F5800460
:100400003CBF01F5801130BD01F0004545F0FE41D3
:1004100041F470014FF0000030BD7FEA645C1ABF08
:10042000194610467FEA655C1CBF0B46024650EA3F
:10043000013406BF52EA033591EA030F41F400216B
:1004400030BD00BF90F0000F04BF0021704730B5F1
:100450004FF4806404F132044FF000054FF00001C6
:1004600050E700BF90F0000F04BF0021704730B587
:100470004FF4806404F1320410F0004548BF40425C
:100480004FF000013EE700BF42004FEAE2014FEAB1
:1004900031014FEA02701FBF12F07F4393F07F4F8C
:1004A00081F06051704732F07F4208BF704793F08F
:1004B0007F4F04BF41F40021704730B54FF46074A2
:1004C00001F0004521F000411CE700BF50EA0102A5
:1004D00008BF704730B54FF000050AE050EA01024E
:1004E00008BF704730B511F0004502D5404261EBBE
:1004F00041014FF4806404F132045FEA915C3FF4FF
:10050000D8AE4FF003025FEADC0C18BF03325FEA9B
:10051000DC0C18BF033202EBDC02C2F1200300FA4C
:1005200003FC20FA02F001FA03FE40EA0E0021FA71
:1005300002F11444BDE600BF4FEA4102B2F1E043CC
:1005400024BFB3F5001CDCF1FE5C0DD901F0004CBA
:100550004FEAC0024CEA5070B2F1004F40EB83000A
:1005600008BF20F00100704711F0804F21D113F136
:100570003872BCBF01F00040704741F480114FEA6F
:100580005252C2F11802C2F1200C10FA0CF320FAF8
:1005900002F018BF40F001004FEAC1234FEAD32315
:1005A00003FA0CFC40EA0C0023FA02F34FEA43037F
:1005B000CCE77FEA625307D150EA01331EBF4FF008
:1005C000FE4040F44000704701F0004040F0FE4023
:1005D00040F40000704700BF53B94AB9002908BF72
:1005E00000281CBF4FF0FF314FF0FF3000F0E2B8A1
:1005F000ADF1080C6DE904CE13F006F9DDF804E066
:10060000DDE9022304B0704700F1340191E83800BD
:100610009C46A6464CF8045D90E8FF0FE54600BDF9
:1006200090EC210B704700BF80EC210B704700BF9E
:1006300090EC200B704700BF80EC200B704700BF90
:10064000D0EC200B704700BFC0EC200B704700BF00
:10065000F0EC0201F0EC0211F0EC0221F0EC0231BE
:10066000F0EC0241F0EC0251F0EC0261F0EC0271AE
:10067000F0EC0281F0EC0291F0EC02A1F0EC02B19E
:10068000F0EC02C1F0EC02D1F0EC02E1F0EC02F18E
:10069000704700BFE0EC0201E0EC0211E0EC022147
:1006A000E0EC0231E0EC0241E0EC0251E0EC0261EE
:1006B000E0EC0271E0EC0281E0EC0291E0EC02A1DE
:1006C000E0EC02B1E0EC02C1E0EC02D1E0EC02E1CE
:1006D000E0EC02F1704700BFB0FC0181B0FC019179
:1006E000B0FC01A1B0FC01B1704700BFA0FC0181CA
:1006F000A0FC0191A0FC01A1A0FC01B1704700BFCA
:10070000EC4600B52DE900502DE9FF1F4FF0000326
:100710002DE90C0001A913F002FBDDF840E012B056
:10072000704700BFEC4600B52DE900502DE9FF1FD2
:100730004FF000032DE90C0001A913F027FBDDF8B1
:1007400040E012B0704700BFEC4600B52DE9005004
:100750002DE9FF1F4FF000032DE90C0001A913F054
:1007600035FBDDF840E012B0704700BFEC4600B545
:100770002DE900502DE9FF1F4FF000032DE90C007B
:1007800001AB13F0F9FADDF840E012B0704700BF9A
:10079000EC4600B52DE900502DE9FF1F4FF0000396
:1007A0002DE90C0001AA13F06AFBDDF840E012B05D
:1007B000704700BF704700BF08B5062001F00AFE71
:1007C000012009F043FC00BF002301461A461846E9
:1007D00002F0C2BA10B4044C03460A4620685DF821
:1007E000044B194600F010B82004002000B5054B5A
:1007F00083B0014601AA186800F006F803B05DF85E
:1008000004FB00BF200400202DE9F047DFF87490BE
:1008100007460E46904602F0DFFAD9F800504DB177
:1008200033781C466BB1344602E014F8013F3BB10B
:100830003D2BFAD1384602F0D5FA0020BDE8F0870A
:10084000A41B28680028F5D02246314601F0E4FCBC
:1008500028B92868035D3D2B00EB040A04D055F845
:10086000040F0028F0D1E5E7D9F80030EB1A9B100F
:100870003846C8F8003002F0B5FA0AF10100BDE8C8
:10088000F08700BFB806002000B583B001AAFFF7CB
:10089000BBFF03B05DF804FB024B0146186800F093
:1008A0000BB800BF20040020024B0146186802F07C
:1008B000FBBA00BF200400202DE9F04F01F10B0529
:1008C000162D83B0064624D8102900F2B08000F01F
:1008D000ADFA102518224FF0020CC14F3A44A2F194
:1008E000080354689C4200F030816368E268A168A4
:1008F00023F003032344CA6091605A6842F0010266
:1009000030465A60083400F097FA204603B0BDE83C
:10091000F08F35F0070500F18A80A94200F2878048
:1009200000F084FAB5F5FC7FC0F079816B0A00F025
:100930008280042B00F23081AB0903F1390C03F102
:1009400038044FEACC03A64F3B44A3F108005B6890
:10095000984206D10CE0002980F2E580DB689842DD
:1009600006D05A6822F00302511B0F29F3DDA4467A
:10097000DFF870823C69444500F0C280636823F070
:100980000309A9EB05030F2B00F34E81002BC7E9E8
:10099000048880F23881B9F5007FD7F804E080F050
:1009A000DB804FEAD90101314FEA5919012303FADB
:1009B00009F357F83120A2604EEA030E07EBC1039A
:1009C000083BE360C7F804E047F83140D4604FEAE1
:1009D000AC0301209840704533D810EA0E0F07D1C0
:1009E0002CF0030C400010EA0E0F0CF1040CF9D0AF
:1009F00007EBCC0A5346E146D9680EE04A6822F07C
:100A00000302A2EB050EBEF10F0F0C46C96800F3FE
:100A1000D080BEF1000F80F2E9808B42EED109F167
:100A2000010919F0030F03F10803E5D128E10C23B4
:100A30003360002469E74FF400734FF0400C3F240B
:100A400081E7BC68636823F00309A94503D3A9EBD8
:100A500005030F2B57DCDFF890B1DBF800200820EE
:100A6000103202EB050801F02DFED7F80814013111
:100A7000024604EB090305D008F1FF3880444142E7
:100A800001EA080841463046CDE9003201F09CFDFC
:100A9000B0F1FF3FDDE90032824600F0E2808342A0
:100AA00000F2DD80DBF804104144CBF80410084666
:100AB00002F1FF3C40F001811AEA0C0F40F0FD808A
:100AC000D7F808A0C84448F00100CAF80400DBF8D1
:100AD0002C208A42DBF8302038BFCBF82C108A4219
:100AE00038BFCBF83010544620F00308A845A8EBD7
:100AF000050301D30F2B06DC304600F09DF998E783
:100B0000D7F804E063E7621943F0010345F00105FB
:100B100065603046BA60536000F08EF908342046B4
:100B200003B0BDE8F08FD3E902411A44E1608C6064
:100B3000516841F001013046516003F1080400F0B2
:100B40007BF9204603B0BDE8F08FD468A2427FF461
:100B5000CCAE0CF1020C0BE7B9F5206F4FEA59222D
:100B600076D3142A00F20B8102F15C03DB005B32C6
:100B7000F918FB580839994203D1E8E09B6899427B
:100B800004D05A6822F003024A45F7D8D968C4E96C
:100B900002318C60DC601AE7142B65D9542B00F20B
:100BA000F7802B0B03F16F0C03F16E044FEACC03BB
:100BB000C9E63046A668631945F001056560F16035
:100BC0008E604EF00101C7E90433C3F80880C3F812
:100BD0000C80596044F802E000F02EF9083494E6E5
:100BE0000000002008000020480700202244304672
:100BF000536843F00103536054F8083FD9608B6099
:100C000000F01AF981E6A1443046D9F8043043F0E7
:100C10000103C9F80430083400F00EF975E64FEA14
:100C2000D50C05F1080258E6621943F0010145F0C0
:100C3000010565603046C7E90422C2F80880C2F8A1
:100C40000C80516044F8093000F0F6F808345CE696
:100C50004FEA991202F13903DB00383288E7BC42CF
:100C600024D0BC6860683FE703F15C0C03F15B04CF
:100C70004FEACC0367E65AF80839534540F0D38071
:100C80001CF0030F0CF1FF3CF5D17B6823EA000355
:100C90007B60400098423FF6D4AE18B9D1E64000E0
:100CA00009F104091842FAD0CC46A1E6DBF80400A9
:100CB0004044CBF8040002F1FF3CD7F8081401319E
:100CC0001BBFAAEB0303C018C7F808A4CBF80400A5
:100CD0001AF00703009343D0C3F108018A44D044BB
:100CE0000A4408EA0C01521A02EA0C01304601914A
:100CF00001F06AFC421C7AD00199A0EB0A0000EBDB
:100D00000108DBF80420C7F808A048F001001144EE
:100D1000BC42CAF80400CBF804103FF4D8AEB9F1D5
:100D20000F0F40D96268A9F10C0020F0070002F013
:100D300001020243626022184FF0050C0F28C2F82E
:100D400004C0C2F808C048D8DAF80400BFE6921020
:100D5000012000FA02F24EEA020EC7F804E016E79C
:100D60000AEB080101EA0C01521A02EA0C013046B2
:100D7000019101F029FC431CBED10099C1E7542A1E
:100D800015D84FEA193202F16F03DB006E32EFE63D
:100D9000B3F5AA7F15D8EB0B03F1780C03F17704B8
:100DA0004FEACC03CFE50123CAF80430A4E6B2F53C
:100DB000AA7F23D84FEAD93202F17803DB007732D9
:100DC000D6E640F25452934223D8AB0C03F17D0C8B
:100DD00003F17C044FEACC03B5E504F10801304689
:100DE00002F062F8DBF80410D7F808A0ACE7009B2B
:100DF000083B9844A8EB0A08002182E740F25453CC
:100E00009A420CD84FEA994202F17D03DB007C3212
:100E1000AEE64FF47E734FF07F0C7E2493E54FF4E3
:100E20007E737E22A4E67B6833E700BF014801F0B1
:100E30003FBC00BFCC080020014801F041BC00BF0E
:100E4000CC08002010B4044C03460A4620685DF824
:100E5000044B194600F002B8200400202DE9F84F99
:100E60001646002900F096800C46804606F10B05D8
:100E7000FFF7DCFF54F8041C162DA4F1080921F03B
:100E8000030758D81025AE4258D8AF4260DABE4B9F
:100E90009A6809EB070C6245DCF8040000F09080CA
:100EA00020F0010363445B68DA0768D420F0030094
:100EB0003B189D4247DDCB0712D454F8083CA9EB00
:100EC000030BDBF8043023F00302104400EB070AA5
:100ED000554540F3F68007EB020A554540F3CC80B8
:100EE00031464046FFF7E8FC0646002800F0208126
:100EF00054F8043C23F001034B44A0F10802934250
:100F000000F0B4803A1F242A00F2D780132A00F29E
:100F1000A2800346224611681960516859609268A0
:100F20009A602146404601F0BFFF4046FFF784FF2C
:100F30003046BDE8F88F35F00705A4D50C23C8F876
:100F40000030002618E01F46DCE90223D3609A60D7
:100F5000D9F804307A1B0F2A03F0010309EB0700CC
:100F60001DD83B43C9F80430436843F00103436094
:100F70004046FFF761FF26463046BDE8F88FC907B7
:100F8000AED454F8083CA9EB030BDBF8043023F093
:100F90000302A0E7BDE8F84F1146FFF78DBC09EB4F
:100FA00005012B4342F00102C9F804304A6043684E
:100FB00043F0010343600831404601F075FFD7E775
:100FC00020F00300C21905F1100C624580F29180F7
:100FD000CA0785D454F8082CA9EB020BDBF80420CF
:100FE00022F00302104400EB070AD4453FF773AF29
:100FF0005E46DBF80C1056F8080F3A1F242AC16031
:10100000886000F2AE80132A40F2A9802168CBF8F4
:1010100008106168CBF80C101B2A00F2A880083475
:101020000BF110022168116061685160A168916044
:101030000BEB0501AAEB050242F0010299604A6040
:10104000DBF8043003F001032B434046CBF80430B7
:10105000FFF7F2FE90E723680360636843601B2A92
:101060003CD804F1080200F1080354E750F8043CAE
:1010700023F003031F446BE73A1F5E46DBF80C3096
:1010800056F8081F242ACB60996022D8132A1ED94B
:101090002368CBF808306368CBF80C301B2A3BD8A8
:1010A00008340BF1100322681A6062685A60A26863
:1010B0009A6034465746D9464AE7214600F072FF07
:1010C0002FE7DCE902133A1FCB609960D5E733467E
:1010D000E9E72146304600F065FFEAE7A368836050
:1010E000E368C360242A27D004F1100200F1100342
:1010F00011E709EB05019960531B43F001034B60B5
:1011000054F8043C03F001032B43404644F8043CEC
:10111000FFF792FE26462FE7A368CBF81030E3686E
:10112000CBF81430242A10D010340BF11803BAE78E
:101130004046FFF781FE04E723690361616941616D
:1011400004F1180200F11803E5E62369CBF8183022
:101150006369CBF81C3018340BF12003A3E7324647
:1011600060E72146304600F01DFF074B60E7A168AD
:10117000CBF81010E168CBF81410242A06D01034F4
:101180000BF118024EE700BF000000202269CBF8E7
:1011900018206269CBF81C2018340BF1200241E7BB
:1011A0002DE9F047074649480E46354616F801EB4B
:1011B00010F80EC01CF0080CF7D1BEF12D0F5AD05C
:1011C000BEF12B0F03BF96F800E06446AE1C6446E8
:1011D0004BB9BEF1300F5CD00A23DFF8F4804FF03A
:1011E000050A99460AE0102B4AD04FF0FF38B8FBA9
:1011F000F3F803FB08FA6FEA0A0A99460025284625
:1012000005E02CD009FB00C0012516F801EBAEF17A
:10121000300CBCF1090F06D9AEF1410CBCF1190F2D
:101220000BD8AEF1370C634510DDB5F1FF3FECD0C4
:101230004045E6D94FF0FF35E7E7AEF1610CBCF170
:10124000190F03D8AEF1570C6345EEDC6B1C0BD0C5
:1012500004B140420AB165B91160BDE8F087D445D8
:10126000D0DD4FF0FF35D0E722233B602846002A2F
:10127000F3D0711EF0E796F800E00124AE1CA7E75A
:10128000BEF1300F11D04FF00F0A6FF07048994641
:10129000B4E7337803F0DF03582B0BD008234FF06B
:1012A000070A6FF060489946A8E7307800F0DF0041
:1012B0005828E8D14FF0100996F801E04FF00F0AD6
:1012C00002366FF070484B4698E700BFB146010800
:1012D0009999991964E700BF10B4044C84461346E9
:1012E00020685DF8044B0A46614659E72004002057
:1012F00010B4044C8446134620685DF8044B0A463B
:1013000061464DE720040020024A0349034800F0EB
:1013100093BB00BF100400200967000828040020C8
:101320000C4B4168994210B5044601D005F0ECF928
:10133000A168094B994202D0204605F0E5F9E16821
:10134000064B994204D02046BDE8104005F0DCB9B8
:1013500010BD00BF7C070020E40700204C080020DF
:1013600008B54B6EDA0702D48B899B0501D50020A6
:1013700008BD886D01F09CF9002008BD08B54B6ED2
:10138000DA0702D48B899B0501D5002008BD886D42
:1013900001F096F9002008BD2DE9F843314C324B9D
:1013A000DFF8D890DFF8D880304FC4F83831002506
:1013B00029460423082204F15C002D4EE360C4E9B1
:1013C0000055C4E90455A5606566A56100F06AFE94
:1013D00004F15800C4E90749C4E90987E66201F04D
:1013E0005FF92946234B6367082204F1C400C4E96E
:1013F0001A55C4E91E552567C4F8CC50C4F880506E
:1014000000F050FE04F1680304F1C000C4F8843019
:10141000C4E92298C4E9247601F042F9164BC4F8D5
:10142000DC30294604F596700822C4E93455C4E935
:101430003855C4F8D850C4F83451C4F8E85000F016
:1014400031FE04F1D003C4E93D87C4F8F09004F5FF
:101450009470C4F8FC60C4F8EC30BDE8F84301F0C7
:101460001FB900BF7C07002009130008A91C000851
:10147000CD1C00080900010012000200411C0008F8
:10148000691C0008F8B506462A4801F011F92A4BF4
:10149000D3F83831002B43D0284FD7E90134013B32
:1014A00004D524E05A1C04F1680420D0B4F90C508F
:1014B000013B002DF6D1224BE36004F15800656634
:1014C00001F0EEF81B4801F0FBF8C4E90155C4E94E
:1014D00004552560A5610822294604F15C0000F04E
:1014E000E1FDC4E90C55C4E911552046F8BD3D683D
:1014F0000DB12F46D1E74FF4D6713046FFF7DCF936
:10150000044680B10423056043600C302946A06086
:1015100025464FF4D07200F0C5FD3C602F46BCE775
:10152000FFF73AFFB8E703483C6001F0C9F80C2325
:101530003360DAE7D80800207C0700201004002080
:101540000100FFFF10B504460B4801F0B1F8636BD2
:101550002BB90A4B0A4AD3F83831626323B1BDE88C
:101560001040054801F0ACB8FFF716FFBDE8104089
:10157000014801F0A5B800BFD80800207C07002072
:1015800021130008014801F093B800BFD8080020DB
:10159000014801F095B800BFD808002008B50548FB
:1015A00001F086F8BDE80840034A0449002000F035
:1015B00043BA00BFD80800201004002061130008BF
:1015C00008B5054A0549002000F036FABDE8084094
:1015D000034801F075B800BF100400207D13000817
:1015E000D808002030B5144683B0054608B1436BD7
:1015F000FBB1636EDB0702D4A389980513D522469D
:10160000284600F061FA636EDA07054602D4A38922
:101610009B0502D5284603B030BDA06D01F050F8FF
:10162000284603B030BDA06D019101F041F8019949
:10163000E5E70191FFF786FF0199DAE7144B70B5F2
:101640001E6805460C460EB1736BE3B1636ED80796
:1016500002D4A389990512D522462946304600F0C6
:1016600033FA636EDA07054602D4A3899B0501D5D8
:10167000284670BDA06D01F023F8284670BDA06D0E
:1016800001F016F8E8E73046FFF75CFFDEE700BF41
:101690002004002030B587B0054608461446019165
:1016A00001F0EEFA01AA0123CDE9020205900493AC
:1016B0000DB16B6B63B3636EB4F90C20D80701D422
:1016C00091051ED5900405D442F4005223F4005332
:1016D000A281636699041FD4284603AA214600F01C
:1016E0002BF8636E0546DA0702D4A3899B0502D561
:1016F000284607B030BDA06D00F0E2FF284607B0D5
:1017000030BDA06D00F0D4FFB4F90C20636ED9E7B2
:101710002846FFF717FFCEE74FF0FF35E3E700BF9E
:1017200010B4044C03460A4620685DF8044B194681
:10173000FFF7B0BF200400209368002B00F0F88072
:101740002DE9F04FB1F90CC01CF0080F83B09046A2
:1017500081460C4631D00B697BB31CF00207D8F8E8
:10176000006038D00027D4F824B0E169DFF8C4A2C3
:101770003D4655452B463A4628BF53464846C5B1D7
:10178000D847002840F3CA80D8F808301B1A07440D
:101790002D1AC8F80830002B00F0B68055452B46AE
:1017A000D4F824B0E16928BF53463A464846002D94
:1017B000E6D1D6E900750836DBE72146484600F059
:1017C00061FB002840F0AF80B4F90CC0D8F800608D
:1017D0001CF00207C6D11CF0010A63D12368A1687E
:1017E000574618468B46002F58D01CF4007F00F057
:1017F000B580B9420A4600F2E1801CF4906F2FD008
:10180000216962695D1A02EB420202EBD2726B1C23
:1018100052103B44934292BF93469B461A461CF497
:10182000806F00F0EA8011464846FFF745F800282F
:1018300000F0F9802A462169009001F071F9A2892F
:10184000009B22F4906242F08002A2815819ABEB17
:101850000505C4F814B02361A5602060BB463A4674
:101860005146009200F09EFBA1682368009AA1EB0C
:101870000B011A443D46A16022600027D8F80830C9
:101880005B1BAA44C8F80830002B3DD02368A16830
:10189000B4F90CC018468B46002FA6D1D6E900A794
:1018A00008369EE73846BB463D460097002D41D09E
:1018B000002846D0009A2068A168D4E90473AA429F
:1018C00028BF2A46B84204D901EB030A524500F367
:1018D0008580934275DCE169676A5A464846B84795
:1018E000B0F1000A1ADD009BB3EB0A0300930FD09E
:1018F0000120D8F80830A3EB0A03D344A5EB0A056E
:10190000C8F80830002BD1D1002003B0BDE8F08F1B
:101910002146484604F0FCFF0028EAD0B4F90C3018
:1019200043F04003A3814FF0FF3003B0BDE8F08FD8
:1019300000207047756833460836002DFAD0D3F87A
:1019400000B02A460A21584601F09AF8002867D0CC
:101950000130A0EB0B0300931A46ACE722699A42D0
:1019600014D36269BA4211D86FF00043BB4228BF5A
:101970003B46656A93FBF2F3E16902FB03F34846D9
:101980005246A847051EC9DD7F1B77E7B94228BF2D
:1019900039460D4618460A46514600F003FBA16839
:1019A0002368491B2B44A16023600029ECD1214608
:1019B000484604F0ADFF0028E6D0AFE7BB463A4604
:1019C0004EE75946019200F0EDFA019AA3689B1A7E
:1019D000A360236813442360924684E75946524625
:1019E00000F0E0FA2368534423602146484604F09F
:1019F0008FFF00283FF477AF90E74846FFF72EFAB5
:101A0000034600287FF422AF2169484601F04CFAD2
:101A1000B4F90C300C2223F08003C9F800207FE7D2
:101A20006A1C009247E70C22B4F90C30C9F8002078
:101A300076E700BF00FCFF7F2DE9F84380460F46A4
:101A400016464FF00009D6E90154013D11D4A3898F
:101A5000012B05F1FF3508D9B4F90E3001332146C9
:101A600003D04046B84749EA00096B1C04F16804FA
:101A7000EDD13668002EE6D14846BDE8F88300BFB8
:101A80000EB400B582B003AB816853F8042B019308
:101A900003F02AF802B05DF804EB03B0704700BF12
:101AA0000FB400B5074983B004AB086853F8042BA2
:101AB0008168019303F018F803B05DF804EB04B0FB
:101AC000704700BF2004002070B50E46144605463E
:101AD00010B1436B002B2FD0636ED80702D4A389BB
:101AE000990520D5A368013B002BA36019DAA269F0
:101AF00093420FDBF0B20A280CD023685A1C2260F4
:101B000005461E70636EDA0702D4A3899B050ED5C5
:101B1000284670BD28462246314600F051F9054658
:101B2000F0E7F0B2E9E7A06D00F0C2FDDAE7A06DE2
:101B300000F0C6FD284670BDFFF704FDCCE700BFEE
:101B40001E4B70B51E6805460C4616B1736B002B14
:101B50002FD0636ED80702D4A389990520D5A36836
:101B6000013B002BA36019DAA26993420FDBE8B2B4
:101B70000A280CD023685A1C226006461D70636E2A
:101B8000DA0702D4A3899B050ED5304670BD3046D6
:101B90002246294600F014F90646F0E7E8B2E9E7E4
:101BA000A06D00F085FDDAE7A06D00F089FD3046FC
:101BB00070BD3046FFF7C6FCCBE700BF2004002015
:101BC0000CB410B59CB01EAB029106916FF00041B1
:101BD00004910791084953F8042B0591002402A9A8
:101BE00001931B9401F060FA029B1C701CB0BDE8CD
:101BF000104002B0704700BF0802FFFF0EB410B5DE
:101C00009DB01FAB6FF00041029006900A4804910E
:101C100007910A4953F8042B0591002402A9006892
:101C200001931B9401F040FA029B1C701DB0BDE8AB
:101C3000104003B0704700BF200400200802FFFFDF
:101C400010B50C46B1F90E1000F090FC002803DB33
:101C5000236D0344236510BDA38923F48053A3811E
:101C600010BD00BF002070472DE9F0410C46B1F9CE
:101C70000C101F46CB05054616460BD421F48051A7
:101C8000A1813B46B4F90E1032462846BDE8F0412A
:101C900000F0ACBCB4F90E100223002200F050FC9E
:101CA000B4F90C10EAE700BF10B50C46B1F90E10FC
:101CB00000F046FCB4F90C30421C0EBF23F48053F4
:101CC00043F480532065A38110BD00BFB1F90E100D
:101CD00000F024BC10B51C4C002924689AB02DDB00
:101CE000009004904FF40270ADF80C004FF000002B
:101CF000199013D001394FF6FF7002910591ADF89C
:101D00000E006946204601F0CFF9421C01DA8B2310
:101D10002360009B00221A701AB010BD4FF6FF70AE
:101D200002910591ADF80E006946204601F0BCF91C
:101D3000431C01DA8B2323601AB010BD8B23236070
:101D40004FF0FF30F8E700BF2004002030B5144604
:101D5000002C9BB005462EDB1A464FF40273ADF8FB
:101D60000C304FF0000300910491199313D04FF6FB
:101D7000FF73013CADF80E3069461E9B029405943A
:101D800001F092F9421C01DA8B232B60009B0022A8
:101D90001A701BB030BD4FF6FF73ADF80E306946B8
:101DA0001E9B0294059401F07FF9431C01DA8B23FA
:101DB0002B601BB030BD8B2303604FF0FF30F8E782
:101DC000F8B50D461446064610B1436B002B4AD0B9
:101DD000B4F90C30A269A26018071FD52269EAB1D4
:101DE000EDB29904626E2F4624D592042FD4226856
:101DF00023696169D31A99422CDD0133A168013945
:101E0000A160511C2160157062699A4219D0A389A2
:101E1000DB0701D50A2D14D03846F8BD21463046DF
:101E200000F030F898B9B4F90C30626EEDB2990454
:101E30002F46DAD443F4005322F40052A3816266A1
:101E4000D3E72146304604F063FD0028E4D04FF08C
:101E5000FF37E1E72146304604F05AFD0028F6D16D
:101E600022680123CAE7FFF76DFBB1E710B4044C09
:101E700003460A4620685DF8044B1946FFF7A0BFE9
:101E80002004002038B52E4B1B6805460C4613B1C4
:101E90005A6B002A4BD0B4F90C3018071CD52269B4
:101EA00022B313F0010107D0616900204942A0600C
:101EB000A1613AB1002038BD980758BF6169A1609F
:101EC000002AF7D1190658BF1046F4D543F0400355
:101ED000A3814FF0FF3038BDD9062CD55A0712D454
:101EE000226943F00803A381002ADAD103F42071A8
:101EF000B1F5007FD5D02146284604F06DFDB4F938
:101F00000C302269CDE7216B51B104F140029142BE
:101F100004D0284600F0C8FFB4F90C300022226338
:101F200022690021C4E9002123F02403D9E71846DF
:101F3000FFF708FBAFE709222A6043F04003C7E739
:101F400020040020032A70B511D940EA01039B0741
:101F50001FD104460B4602E0043A032A1DD9194654
:101F6000204653F8045B54F8046BAE42F4D0541E80
:101F7000B2B1421E013901E0C3180CD012F801EFD2
:101F800011F801CFE645A4EB0203F5D0AEEB0C004F
:101F900070BD541EEDE7184670BD20461946E6E7B1
:101FA000104670BD88420ED98B1883420BD900EBC6
:101FB000020C002A6ED0624613F801CD02F801CD62
:101FC0009942F9D170470F2A0FD8034602F1FF3C1E
:101FD000002A5FD00CF1010C013B8C4411F8012B5D
:101FE00003F8012F6145F9D1704740EA01039B07CF
:101FF00051D1A2F1100370B501F1200C23F00F05AF
:1020000001F1100E00F11004AC441B095EF8105CE5
:1020100044F8105C5EF80C5C44F80C5C5EF8085CFC
:1020200044F8085C5EF8045C44F8045C0EF1100EA1
:10203000E64504F11004E9D1013312F00C0F01EB75
:10204000031102F00F0400EB031328D0043C24F02A
:1020500003064FEA940C1E441C1F8E465EF8045B78
:1020600044F8045FB442F9D10CF1010402F0030218
:1020700003EB840301EB840102F1FF3C4AB10CF154
:10208000010C013B8C4411F8012B03F8012F614531
:10209000F9D170BD704702F1FF3C03469AE7224632
:1020A000EAE700BF830730B547D0541E002A3ED070
:1020B000CAB2034601E0013C39D303F8012B9D0766
:1020C000F9D1032C2CD9CDB205EB05250F2C05EB4E
:1020D000054535D9A4F1100222F00F0C03F1100EC2
:1020E000E6444FEA121C1A46156055609560D560AB
:1020F00010327245F8D10CF1010214F00C0F03EB11
:10210000021204F00F0C13D0ACF1040323F003030C
:102110000433134442F8045B9A42FBD10CF00304ED
:102120002CB1C9B21C4403F8011B9C42FBD130BD49
:1021300064461346002CF4D1F9E703461446C0E781
:102140001A46A446E0E700BF11F0FF01034600F085
:10215000030239D08ABB026810B501EB012E4EEAAA
:102160000E4E8EEA0204A2F1013323EA0203A4F127
:10217000013222EA0402134313F0803F0FD150F8DA
:10218000044F84EA0E0CA4F10133ACF1013223EACE
:10219000040322EA0C02134313F0803FEFD00378CC
:1021A00023B936E010F8013F002B32D09942F9D123
:1021B00010BD8A4228D09A0729D01A7818460133D0
:1021C000002AF6D110467047CAB90268A2F101335D
:1021D00023EA020313F0803F08D150F8042FA2F144
:1021E000013323EA020313F0803FF6D003785BB19A
:1021F00010F8013F002BFBD17047990705D0184616
:1022000013F8012B002AF8D170471846DDE718466D
:10221000A1E7184610BD00BFB2B340EA01039B0717
:1022200030B5844618D1032A16D904460B4606E079
:10223000043A2BD01EF0803F28D1032A2AD92068E7
:10224000194653F8045BA0F1013EA842A4462EEAC9
:10225000000E04F10404EBD09CF800000C788442DA
:1022600016D1012A12D0E64668B11EF8010F11F806
:10227000014FA2EB0E03A04203F1FF3308D11CEB88
:102280000303F1D1184630BD10467047002030BD21
:10229000001B30BDA4461946DEE700BF38B5D0F8B4
:1022A00018410CB1002038BD80210546FEF704FB23
:1022B0000246C5F8180130B1031F7C3243F8044FC1
:1022C0009342FBD1EEE74FF0FF3038BD30B51F2908
:1022D00083B0054609D8D0F818310C4653B153F8ED
:1022E000240043F8242003B030BD162303604FF0D0
:1022F000FF30F8E780210192FEF7DEFA019AC5F877
:10230000180103460028F2D0011F00F17C050020CF
:1023100041F8040FA942FBD1E1E700BF1F2938B5FE
:1023200005461FD8D0F818210C466AB152F8213062
:1023300053B1012B06D0591C10D0002142F82410B3
:1023400020469847002038BD284600F03BF9224639
:1023500001462846BDE8384000F01EB91623036048
:10236000012038BD162303604FF0FF3038BD00BF99
:102370001F292CD838B5D0F818310C460546A3B122
:1023800053F8242003EB84034AB1511C0BD0012ADB
:1023900007D0002520461D609047284638BD012003
:1023A00038BD032038BD022038BD8021FEF784FAF5
:1023B0000346C5F8180138B1021F00217C3042F8ED
:1023C000041F9042FBD1DBE74FF0FF3038BD4FF0E8
:1023D000FF30704738B5144B1F281D681ED8D5F83C
:1023E0001821044662B152F820304BB1012B05D0C0
:1023F000591C0FD0002142F820109847002038BD0A
:10240000284600F0DFF8224601462846BDE838405D
:1024100000F0C2B816232B60012038BD16232B60B4
:102420004FF0FF3038BD00BF20040020124B1F28A2
:1024300070B51E6809D8D6F8183104460D464BB160
:1024400053F8240043F8245070BD162333604FF036
:10245000FF3070BD80213046FEF72EFA0346C6F8E5
:1024600018010028F3D0021F00217C3042F8041F1D
:102470009042FBD1E4E700BF2004002038B50C4BAC
:102480001D68D5F818410CB1002038BD80212846C0
:10249000FEF712FAC5F8180138B1031F00F17C02EB
:1024A00043F8044F9342FBD1EEE74FF0FF3038BDC5
:1024B0002004002038B5184B1F281D6828D8044672
:1024C000D5F81801A0B150F8243000EB84004BB1CE
:1024D0005A1C0BD0012B07D00025056020469847D9
:1024E000284638BD012038BD032038BD022038BD44
:1024F00080212846FEF7E0F9C5F8180140B1031F16
:1025000000F17C01002243F8042F9942FBD1DAE765
:102510004FF0FF3038BD00BF2004002038B5074D14
:102520000022044608462A6007F0B2FD431C00D092
:1025300038BD2B68002BFBD0236038BDB8080020C5
:1025400038B50C46084D8446114620461A460023ED
:102550002B60644607F0A8FD431C00D038BD2B68F3
:10256000002BFBD0236038BDB808002038B50C46DE
:10257000084D8446114620461A4600232B606446C7
:1025800007F06AFD431C00D038BD2B68002BFBD040
:10259000236038BDB808002070B50C46084D0346CE
:1025A0000026204611461C462E6007F047FD431CBE
:1025B00000D070BD2B68002BFBD0236070BD00BF26
:1025C000B808002007F038BD38B5074D0022044692
:1025D00008462A6007F06AFD431C00D038BD2B680E
:1025E000002BFBD0236038BDB808002038B50C465E
:1025F000084D8446114620461A4600232B60644647
:1026000007F038FD431C00D038BD2B68002BFBD0F1
:10261000236038BDB8080020014B1868704700BF20
:102620002004002070B50F4B0F4DAB42A3EB050605
:1026300007D0B610002455F8043B01349847A64251
:10264000F9D812F023F8094D094B5E1BAB424FEA53
:10265000A60606D0002455F8043B01349847A6424C
:10266000F9D870BDD0650108D0650108D0650108B2
:10267000E065010838B5074D074C2C1BA41005D0A8
:10268000013C55F8043D9847002CF9D1BDE838408D
:1026900012F002B8E4650108E0650108704700BF68
:1026A000704700BF704700BF704700BF704700BF52
:1026B000704700BF0120704701207047704700BF7E
:1026C000704700BF082802D14FF48050704708B50A
:1026D000FFF7A2FF162303604FF0FF3008BD00BFD5
:1026E00002780B78012A28BF9A4240F0D8806DE921
:1026F000044540EA0104CDE902676FF0000C4FEA9F
:1027000044721AB380EA010414F0070F6BD100F091
:10271000070420F0070004F0030521F007014FEA49
:10272000C505F0E8042314F0040FF1E804670CFA7F
:1027300005F462EA040266EA04060BD063EA0403C5
:10274000624667EA0407664604E000BFF0E8042337
:10275000F1E8046782FA4CF582EA0604A4FA8CF4E4
:102760006CBB83FA4CF583EA0705A5FA8CF595B99D
:1027700050E9022351E9026782FA4CF582EA060425
:10278000A4FA8CF483FA4CF583EA0705A5FA8CF5D4
:102790002543DBD09CB92DBAB5FA85F424F00704A3
:1027A00027FA04F1DDE9026723FA04F303F0FF00DE
:1027B00001F0FF01FDE80445A0EB0100704724BAD9
:1027C000B4FA84F424F0070426FA04F1DDE9026780
:1027D00022FA04F202F0FF0001F0FF01FDE80445D7
:1027E000A0EB0100704714F0030F3CD110F003047C
:1027F00028D150F8082B51F8083B82FA4CF582EAB0
:102800000305A5FA8CF55DB950F8042C51F8043C89
:1028100082FA4CF582EA0305A5FA8CF5002DE8D082
:102820002DBAB5FA85F424F0070423FA04F122FA4C
:1028300004F202F0FF0001F0FF01FDE80445A0EB07
:10284000010070474FEAC40420F0030050F8082B41
:1028500021F0030151F8083B0CFA04F462EA040287
:1028600063EA0403C9E710F003041DD0A1EB0401DF
:1028700020F00300E40750F8042B06D012D28B7826
:102880005FFAA2F4E41A06D12BB1CB785FFAB2F466
:10289000E41A00D133B920465DF8104B7047A2EB23
:1028A0000300704701F1040150F8042BCC0721F01C
:1028B000030151F8043B48D824D222F07F4482FA25
:1028C0004CF594EA1325A5FA8CF50AD165B951F8AF
:1028D000043B84EA0204B4EB036F0ED150F8042BDE
:1028E000EBE74FEA132355E035F07F454DD10878EB
:1028F000FDE80445C0F1000070474FEA126203F0A2
:10290000FF0347E002EA1C4482FA4CF594EA1345BF
:10291000A5FA8CF50AD165B951F8043B84EA0204A2
:10292000B4EB034F0CD150F8042BEBE74FEA134301
:1029300030E015EA1C4528D10B884FEA124229E005
:102940004FEA124203EA1C4324E002F0FF0482FA39
:102950004CF594EA1365A5FA8CF50AD165B951F8DE
:10296000043B84EA0204B4EB032F09D150F8042B92
:10297000EBE74FEA13630DE015F0FF0F05D10B688D
:102980004FEA122223F07F4304E04FF00000FDE8FD
:102990000445704712BA1BBA82FA4CF482EA030467
:1029A000A4FA8CF5B5FA85F402FA04F203FA04F3FA
:1029B0004FEA1260FDE80445A0EB1360704700BFCA
:1029C00080EA0102844612F0030F4FD111F0030F89
:1029D00032D14DF8044D11F0040F51F8043B0BD0E7
:1029E000A3F101329A4312F0803F04BF4CF8043B3C
:1029F00051F8043B16D100BF51F8044BA3F101324A
:102A00009A4312F0803FA4F101320BD14CF8043B01
:102A1000A24312F0803F04BF51F8043B4CF8044B32
:102A2000EAD023460CF8013B13F0FF0F4FEA3323A3
:102A3000F8D15DF8044B704711F0010F06D011F882
:102A4000012B0CF8012B002A08BF704711F0020F70
:102A5000BFD031F8022B12F0FF0F16BF2CF8022B5B
:102A60008CF8002012F47F4FB3D1704711F8012B7E
:102A70000CF8012B002AF9D1704700BF00000000BC
:102A800001F0FF01102A2BDB10F0070F08D010F81F
:102A9000013B013A8B422DD010F0070F42B3F6D123
:102AA000F0B441EA012141EA014122F007047FF03C
:102AB00000070023F0E80256083C85EA010586EA93
:102AC000010685FA47F5A3FA87F586FA47F6A5FACF
:102AD00087F68EB9EED1F0BC01F0FF0102F00702DB
:102AE00032B110F8013B013A83EA010313B1F8D186
:102AF0000020704701387047002D06BF3546033867
:102B0000073815F0010F07D1013015F4807F02BF9F
:102B1000013015F4C03F0130F0BC0138704700BFF0
:102B2000844641EA000313F003036DD1403A41D3D8
:102B300051F8043B40F8043B51F8043B40F8043B97
:102B400051F8043B40F8043B51F8043B40F8043B87
:102B500051F8043B40F8043B51F8043B40F8043B77
:102B600051F8043B40F8043B51F8043B40F8043B67
:102B700051F8043B40F8043B51F8043B40F8043B57
:102B800051F8043B40F8043B51F8043B40F8043B47
:102B900051F8043B40F8043B51F8043B40F8043B37
:102BA00051F8043B40F8043B51F8043B40F8043B27
:102BB000403ABDD2303211D351F8043B40F8043BC7
:102BC00051F8043B40F8043B51F8043B40F8043B07
:102BD00051F8043B40F8043B103AEDD20C3205D3D7
:102BE00051F8043B40F8043B043AF9D2043208D0CF
:102BF000D2071CBF11F8013B00F8013B01D30B8841
:102C000003806046704700BF082A13D38B078DD01E
:102C100010F003038AD0C3F10403D21ADB071CBFF0
:102C200011F8013B00F8013B80D331F8023B20F85A
:102C3000023B7BE7043AD9D3013A11F8013B00F893
:102C4000013BF9D20B7803704B7843708B7883701B
:102C50006046704700000000000000000000000017
:102C60000000000000000000000000000000000064
:102C70000000000000000000000000000000000054
:102C800030B490F800F020F007016FF0000C10F065
:102C9000070491F820F040F048804FF000046FF0F6
:102CA0000700D1E9002391F840F000F1080082FA12
:102CB0004CF2A4FA8CF283FA4CF3A2FA8CF34BBBDD
:102CC000D1E9022382FA4CF200F10800A4FA8CF256
:102CD00083FA4CF3A2FA8CF3E3B9D1E9042382FA24
:102CE0004CF200F10800A4FA8CF283FA4CF3A2FA39
:102CF0008CF37BB9D1E9062301F1200182FA4CF271
:102D000000F10800A4FA8CF283FA4CF3A2FA8CF3D7
:102D1000002BC6D0002A04BF04301A4612BAB2FAF9
:102D200082F200EBD20030BC7047D1E9002304F0FE
:102D30000305C4F100004FEAC50514F0040F91F833
:102D400040F00CFA05F562EA05021CBF63EA0503D0
:102D500062464FF00004AAE72DE9F8431B4D0646F2
:102D6000286898460F469146FFF7A2FC184B1C684E
:102D70001CB3286865681F2D22DC4EB96B1C023518
:102D8000636044F82570FFF79BFC0020BDE8F883E2
:102D900004EB85010123C1F88890D4F88821AB4069
:102DA0001A43022EC4F88821C1F80881E6D1D4F86C
:102DB0008C211A43C4F88C21E0E7064C1C60D8E74C
:102DC000FFF77EFC4FF0FF30E0E700BF4805002032
:102DD0006C0A0020DC0800200148FFF769BC00BF36
:102DE000C80800200148FFF76BBC00BFC8080020DE
:102DF0002DE9F843064608208946FFF763FCDFF813
:102E0000A48005463046FEF711F8D8F808305F6810
:102E100027F00307A7F11104A4EB09042C44B4FB29
:102E2000F5F4013C05FB04F4A54208DC0021304622
:102E3000FFF7CAFBD8F808303B44984205D030462B
:102E4000FDF7FAFF0020BDE8F88361423046FFF746
:102E5000BBFB01300FD0114AD8F808303F1B47F0B8
:102E600001075F60136830461B1B1360FDF7E4FF2A
:102E70000120BDE8F88300213046FFF7A5FBD8F814
:102E80000820831A0F2BDADD43F001035360044B53
:102E900002491B68C01A0860D1E700BF4C07002038
:102EA000080400200000002000297CD02DE9F0411A
:102EB0000C468046FDF7BAFF54F8043C764FA4F167
:102EC000080523F001016818BE684268864222F0B6
:102ED000030200F08380DE07426000EB020C33D473
:102EE00054F8084CDCF804302D1B2144AC6807F181
:102EF000080C644503F0010364D0D5F80CE0C4F875
:102F00000CE0CEF80840002B00F0818041F0010376
:102F10006B600160B1F5007F22D27868CB08012296
:102F2000490901338A40024357F833107A6007EBAE
:102F3000C302083AC5E9021247F83350CD60404653
:102F4000BDE8F041FDF778BFDCF80430DB072BD596
:102F500041F00103B1F5007F44F8043C0160DCD38B
:102F6000B1F5206F4FEA512353D28B0903F1390099
:102F700003F13802C300F818FB580838984203D10F
:102F800063E09B68984204D05A6822F003028A42A8
:102F9000F7D8D868C5E902308560DD604046BDE8F5
:102FA000F041FDF749BF7047114407F1080C8368F1
:102FB00063453FD0C268DA60936041F001036B6003
:102FC0006950A7E7002B61D10A44D0E90213CB6016
:102FD000996042F001036B60AA50B0E7DB070A4436
:102FE00007D454F8083CED1A1A44D5E90213CB6013
:102FF000996042F001036B60284BBD601B689342EF
:103000009DD8274B40461968FFF7F2FE97E7114419
:10301000CDE7142B08D9542B1FD80B0B03F16F00ED
:1030200003F16E02C300A6E703F15C0003F15B024B
:10303000C300A0E741F001033D617D61C5F808C010
:10304000C5F80CC06B60695079E77968921001246B
:1030500004FA02F20A437A609CE7B3F5AA7F06D825
:10306000CB0B03F1780003F17702C30083E740F252
:103070005452934206D88B0C03F17D0003F17C027D
:10308000C30078E74FF47E737E2274E741F00103BA
:103090006B60016053E700BF000000200C040020BB
:1030A00048070020000000002DE9F04F2DED028BB5
:1030B000D3B00C46CDE9080192460B9303F060FDB6
:1030C000036813931846FFF7DBFDA38912901D06D2
:1030D00003D52369002B00F08A870023CDF810A0C8
:1030E000CDE92733CDE91533CDE917330E9314938A
:1030F0000793049B9FEDA27B1B7829AA8DED107B83
:1031000026929346002B00F0EB81DDF810A004E03E
:103110001AF8013F002B00F01C81252BF8D1049BED
:10312000BAEB030540F01A819AF80030002B00F04A
:10313000D78100239AF801508DF87B3006930AF16D
:10314000010A4FF0FF3903930AF1010AA5F12003A8
:103150005A2B00F23B81DFE813F0A5023901390157
:103160009E023901390139016A00390139016602CB
:10317000780239017102850239017E025B005B0031
:103180005B005B005B005B005B005B005B00390188
:10319000390139013901390139013901CF013901C9
:1031A00034028700CF01CF01CF0139013901390144
:1031B0003901C20239013901B5003901390139013A
:1031C0003E023901B00239013901010739013901E3
:1031D000390139013901390139013901CF01390189
:1031E00034028B00CF01CF01CF01F2028B008000AF
:1031F0003901E8023901DA02B900C9028000390157
:103200003E027D00250739013901280739017D007B
:10321000A5F1300300221AF8015B02EB820203EBF6
:103220004202A5F13003092BF5D906928EE7089DDD
:10323000284603F0A5FC436817931846FFF720FDC6
:1032400018900446284603F09BFC83681593002CD5
:1032500040F070869AF8005076E7039B9AF8005089
:1032600043F0200303936FE7039B43F010030393A2
:10327000039B9C0640F194810B9B073323F00703CB
:103280001A46596852F8083B0B920A460029C0F2C8
:10329000BB85B9F1FF3F00F0F587039921F0800667
:1032A00053EA020100F05A850A2B72F1000180F006
:1032B0007C8730338DF847310DF247130396049322
:1032C000012634E0039B43F010030393039B13F0A8
:1032D000200200F054810B9B073323F007031946AB
:1032E0005A6851F8083B0B91039921F4806600213C
:1032F0000020B9F1FF3F8DF87B0000F0938226F0AB
:103300008000039053EA020040F08B82B9F1000F75
:1033100040F0C187002940F0268516F001061BBF4A
:1033200030238DF8473152AB0DF24713049300233D
:10333000B145CDE90C3349469DF87B200A93B8BFCF
:10334000314605910F93002A52D0059B0133059316
:103350004EE0049BBAEB030500F0C280049B289F5B
:10336000CBE90035279B01332F44072B2897279360
:103370000ADC0BF1080B079B2B440793D4E600BF34
:103380000000000000000000DDE9080126AA03F0AB
:103390008FF980B90DF1A40BEDE7DDE9080126AA4C
:1033A00003F086F9002800F08A800A9B1BB10A9975
:1033B0000898FFF779FD099B9B89590601F1E58281
:1033C000079853B0BDEC028BBDE8F08F002D00F0E4
:1033D000878000228DF8E4508DF87B200123CDE911
:1033E0000C2205931E4639AB0A9291460F92049324
:1033F000039B13F0020302D0059902310591039952
:1034000011F0840405D1DDE905010F1A002F00F346
:103410004183289F8AB1279A0DF17B010132013740
:10342000CBF80010072A4FF0010128972792CBF81C
:10343000041000F387830BF1080B83B1279B1FAAAD
:1034400001330237CBF80020072B4FF002022897F8
:103450002793CBF8042000F383830BF1080B802C17
:1034600000F0FC81A9EB0608B8F1000F00F34282DE
:10347000039BDA0500F16D81049BCBF80030279B9C
:10348000CBF804600133F519072B2895279300F337
:10349000AA820BF1080B039B580705D5DDE905232C
:1034A0009C1A002C00F36E83DDE9062305998A42FD
:1034B000ACBF9B185B180793002D7FF46EAF002301
:1034C00027930A9B1BB10A990898FFF7EDFC0DF1B1
:1034D000A40BCDF810A0049B1B78002B7FF415AE35
:1034E000289B002B3FF467AF099C089826AA214629
:1034F00003F0DEF8A38960E70B9B073323F0070393
:10350000B3EC027B57EC176B0B9327F000431B9334
:103510008DED1A7ADDE91A01AE4B4FF0FF328DEDD9
:10352000107B06F0A7FA002840F09B84DDE91A0121
:10353000A84B4FF0FF3206F07FFA002840F091844C
:10354000002200233046394606F06CFA002840F08D
:103550005B879DF87B20039B9F4C23F080030393A4
:103560009E4B472DC8BF1C4603210023CDE90C33D9
:1035700004940A9305910E4699460F93E3E60B993E
:1035800051F8043B0B91039911F010017FF4ACAE9C
:10359000039A12F0400000F019879BB20A46A3E696
:1035A0000B9A52F8043B0B92039AD00600F1558413
:1035B000039A510640F14D8443F3C03211461BB2C9
:1035C00064E60B9B002253F8041B8DF87B208DF8DA
:1035D000E4100B9302E70B9F57F8043B049300267B
:1035E0008DF87B60002B00F09E86B9F1FF3F00F064
:1035F0000D8504984A463146FFF742FA0A900028A2
:1036000001F025810A9B049A0B97B1469E1A26EA7F
:10361000E673CDE90C999DF87B200593CDF82890B1
:10362000CDF83C908FE60B9B53F8042B0692002AB2
:1036300080F20A84069A0B9352420692039B9AF8F0
:10364000005043F0040303937EE52B239AF80050C7
:103650008DF87B3078E5039B9AF8005043F08003A7
:10366000039371E5524612F8015B2A2D01F019828D
:10367000A5F13003092B92464FF000093FF666ADE5
:103680001AF8015B09EB890903EB4909A5F130033D
:10369000092BF5D95AE5039B9AF8005043F0010332
:1036A000039351E59DF87B309AF80050002B7FF48E
:1036B0004BAD20238DF87B3046E5039B43F010068D
:1036C00016F0200200F089830B9B073323F00703D9
:1036D00019465A6851F8083B0B91012108E6039BF3
:1036E0009AF8005043F0080303932DE50B9A039BCF
:1036F00043F0020652F8043B0B9247F63002ADF855
:103700007C20374A1492022100227825F0E5039BA1
:103710009E0640F1FD830B9B079A1B681A60D21727
:103720005A600B9B04330B93D3E69AF80050039B2B
:103730006C2D00F0538443F01003039304E59AF8D2
:103740000050039B682D00F0408443F04003039336
:10375000FAE4652D40F35381DDE9100100220023D6
:1037600006F056F9002800F04982279B1D4ACBF845
:103770000020013301370122072B28972793CBF82C
:10378000042000F38E850BF1080B209B0E9A9342C8
:1037900004DB039BDB0701D43D467CE6129B139AB6
:1037A000DD19CBE90023279B28950133072B2793AD
:1037B00000F3FE830BF1080B0E9B5C1E002C7FF7C1
:1037C0006AAE102C279B084F40F37885DDE9088905
:1037D000102611E0FFFFEF7FA84B0108AC4B01085A
:1037E000B84B0108E84B0108C44701080BF1080B6E
:1037F000103C102C40F3628501331035072BCBE9C8
:103800000076CDE92735F1DD26AA4946404602F08B
:103810004FFF00287FF4C9ADDDE927350DF1A40B7A
:10382000E6E7039E01293FF43FAD022900F07681CF
:1038300052AC03F00701DB0843EA4273D20830318F
:1038400053EA0207204604F8011DF2D1F707049459
:1038500000F1768252AB03961E1B68E5DDE9052375
:10386000A3EB0208B8F1000F7FF7FCADB8F1100F21
:103870003A46279BC04F29DD19951C961024DDE997
:103880000865194606E0A8F11008B8F1100F0BF111
:10389000080B18DD013110320729CBE90074CDE99E
:1038A0002712F0DD26AA294630460DF1A40B02F0BE
:1038B000FFFE00287FF479ADA8F11008B8F1100FD1
:1038C000DDE92712E6DC199D1C9E0B460133CBF87F
:1038D0000070072B08EB0207CDE92737CBF80480EF
:1038E00000F30E85A9EB0608B8F1000F0BF1080BE9
:1038F0007FF7BEADB8F1100F3A46279B9E4F2EDDE5
:103900005946089CC3464FF01009B84637462E4624
:10391000099D06E0ABF1100BBBF1100F01F108019E
:1039200018DD013394481032072BC1E90009CDE9B5
:103930002732EFDD26AA2946204602F0B9FE0028EC
:103940007FF433ADABF1100BBBF1100FDDE9273283
:1039500029A9E6DC35463E464746D8468B46013324
:10396000CBF80070072B08EB0207CDE92737CBF81F
:10397000048000F325820BF1080B79E5279B7F4932
:10398000CBF8001001337D1C0121072B28952793CC
:10399000CBF8041000F34A850BF1080B002A40F025
:1039A000E084039B0E9A03F0010313433FF473ADCD
:1039B000129B139A5919CBE90023279B28910133B5
:1039C000072B279300F3EF850BF1080B049ACBF834
:1039D00000200E9ACBF8042001335518072BCDE9AF
:1039E00027357FF756ADDDE9080126AA02F060FE13
:1039F00000287FF4DAAC289D0DF1A40B4BE50E9B5B
:103A0000012B0BF1080640F37A81049BCBF80030C0
:103A1000279B013301370122072B28972793CBF8E7
:103A2000042000F3F981129A03F10108139BD519C0
:103A3000B8F1070FC6E90032CDE9278500F3F88118
:103A400008360E9BDDE9100103F1FF390022002347
:103A500005F0DEFF002840F08B81049CC6F804903E
:103A600008F1010801344D44B8F1070FCDE927856D
:103A7000346000F359810836169A726008F1010328
:103A80001544072B22AACDE927353260ABDC06F1BD
:103A9000080B00E5102FDDE92721DFF8E4802DDD9C
:103AA00019934346CDE91C45B046DDE908451E465D
:103AB00004E0103F102F0BF1080B19DD013210311B
:103AC0001023072ACDE92721CBF80060CBF804307A
:103AD000EFDD26AA294620460DF1A40B02F0E8FDF1
:103AE00000287FF462AC103F102FDDE92721E5DCD0
:103AF000DDE91C453046199B464680460132394473
:103B0000072ACBF80080CBF804702891279200F3A5
:103B1000A9839DF87B200BF1080B7AE4149C52A931
:103B200003F00F001B09205C01F8010D43EA02734A
:103B3000120953EA0200F3D152ABCDE903615E1AD8
:103B4000FFF7F5BBDDE9080126AA199302F0B0FDE5
:103B500000287FF42AAC289F199B0DF1A40B6CE47C
:103B6000DDE9080126AA02F0A3FD00287FF41DACC0
:103B7000289F0DF1A40B72E4C4470108E84B01082B
:103B8000B4470108102C279BDFF8CC8323DD474680
:103B9000DDF82490DDF82080102604E0103C102C85
:103BA0000BF1080B16DD01331035072BCBE900763E
:103BB000CDE92735F2DD26AA494640460DF1A40B92
:103BC00002F076FD00287FF4F0AB103C102CDDE90C
:103BD0002735E8DCB84601332544072BCBE90084C0
:103BE000CDE927357FF760ACDDE9080126AA02F0B0
:103BF0005FFD00287FF4D9AB289D55E4209A002A68
:103C00007FF7BCAE0C9E0E9B049A9E42A8BF1E4638
:103C1000002E134419930BDD279B01333744072BE8
:103C2000CBE900262897279300F39F850BF1080B1B
:103C30000C9D002EA8BFAD1B002D00F3EF81049B4F
:103C40000C9A13449946039B5E0500F10C82209C5C
:103C50000E9B9C4203DB039AD50740F18E84129B96
:103C6000139ADD19CBE90023279B28950133072BF5
:103C7000279300F3DE850BF1080B0E9B1C1B199B91
:103C8000A3EB0906A642A8BF2646002E0DDD279B02
:103C9000CBF8009001333544072BCBF8046028950E
:103CA000279300F3E0850BF1080B002EA8BFA41B9F
:103CB000002C7FF7F0AB102C279BA64F40F3FE8221
:103CC000DDE90889102605E00BF1080B103C102CEB
:103CD00040F3F48201331035072BCBE90076CDE9B0
:103CE0002735F1DD26AA4946404602F0E1FC0028CE
:103CF0007FF45BABDDE927350DF1A40BE6E7039B11
:103D0000DC073FF582AE049BCBF80030279B03F124
:103D100001087D1C0123B8F1070F2895CDF89C8080
:103D2000CBF804307FF7A8AEDDE9080126AA02F03F
:103D3000BFFC00287FF439ABDDE9278529AE9BE67F
:103D4000302900F0C882049A03963023023802F822
:103D5000013C52AB1E1A0490FFF7E9BAB9F1000F0B
:103D60007FF4A7AA039652AB4E460493FFF7DFBA3F
:103D70000E9B012B7FF780AE112B764F40F3E48230
:103D800043461024DDE9088B06E00836A9F1100946
:103D9000B9F1100F40F3D78201331035072BC6E974
:103DA0000074CDE92735F0DD26AA5946404602F0D9
:103DB0007FFC00287FF4F9AADDE9273529AEE5E785
:103DC000DDE9080126AA02F073FC00287FF4EDAAC1
:103DD000289F0DF1A40BFFF74BBB0B9951F8043B47
:103DE0000B9116F010010CD116F0400004D00A46D9
:103DF0009BB20121FFF77CBA16F400721CBFDBB244
:103E000002460121FFF774BA5B42039E62EB420255
:103E10002D200121FFF76DBADDE9080126AA02F085
:103E200047FC00287FF4C1AADDE9273729AEFAE56F
:103E3000DDE9080126AA02F03BFC00287FF4B5AAC0
:103E4000DDE9278529AEFCE59AF800500B93FFF7D2
:103E50007BB9039A920500F1A083DA171146FFF7A8
:103E600015BADDE9100102460B4605F003FE0028F5
:103E700040F0CC85612D00F09584412D00F0038544
:103E8000B9F1FF3F00F0AA8325F02003472B04D1AE
:103E9000B9F1000F08BF4FF00109DDE91001039CE3
:103EA000002944F480720592C0F2B584002341ECED
:103EB000180B19930A93A5F14103252B00F2C48234
:103EC000DFE813F09603C202C202C2028F0393031B
:103ED000C202C202C202C202C202C202C202C202C2
:103EE000C202C202C202C202C202C202C202C202B2
:103EF000C202C202C202C202C202C202C202C202A2
:103F0000C202C202C202C202C202C2028F039303F1
:103F1000039BDD0600F10182039B5C0600F1378301
:103F2000039B980540F1F9810B9B079A1B681A7057
:103F3000FFF7F7BB159B9AF80050002B3FF404A93C
:103F40001B78002B3FF400A9039B43F48063039389
:103F5000FFF7FAB8C4470108B4470108BD4B1493F2
:103F6000039B13F0200200F002810B9B073323F028
:103F7000070319465A6851F8083B0B910398C1078B
:103F80000AD553EA020107D040F002010391302123
:103F90008DF87D508DF87C10039921F48066022104
:103FA000FFF7A6B9039EFFF78BBBAB4B1493D7E784
:103FB000DDE9080126AA02F07BFB00287FF4F5A9C1
:103FC000289D0DF1A40BFFF7F7BB43F400739AF89B
:103FD000015003930AF1010AFFF7B6B843F020033A
:103FE0009AF8015003930AF1010AFFF7ADB8089857
:103FF0004021FCF761FC099B18601861002800F063
:10400000C184099A40235361FFF767B804980B975E
:10401000FEF736FEB1460646FFF7F9BA102D3A46CE
:10402000279B8E4F40F3E181DDE90848102605E02B
:104030000BF1080B103D102D40F3D78101331032E6
:10404000072BCBE90076CDE92732F1DD26AA4146E0
:10405000204602F02DFB00287FF4A7A9DDE92732D6
:104060000DF1A40BE6E70D99CDF870A05A4638463D
:104070007A4EDDF854A0189BDDF824B04F464FF07F
:104080001008DDF83C9081B3B9F1000F00F0FD801D
:1040900009F1FF391799C2E9001327990131184432
:1040A00007292890279173DC0832199C9AF8001090
:1040B000E51B8D42A8BF0D46002D0CDD279901316F
:1040C00028440729C2E900752890279100F3098147
:1040D0009AF800100832002DACBF4C1B0C46002C87
:1040E00012DC0F440D990029CED1B9F1000FCFD1C8
:1040F000199BCDF854A0B9469945DDF870A09346B8
:10410000074628BF9946A2E5102C279940F39084D2
:10411000089D04930C9604E0103C102C02F1080258
:1041200015DD013110300729C2E90068CDE92710FB
:10413000F2DD26AA5946284602F0BAFA00287FF492
:1041400034A9103C102CDDE9271029AAE9DC049BD6
:104150000C9D1560013120440729CDE927105460DA
:1041600000F310839AF8001008320F44BAE70B9955
:1041700051F8043B0B91039911F010017FF4FEAE4E
:10418000039A12F0400000F029819BB20A46F5E63E
:104190000898049326AA594602F08AFA00287FF468
:1041A00004A92898049B29AA7FE70021CDE9045699
:1041B00006F48067DFF8A880159ECDF80CA052ACFD
:1041C0008C4605E00A2B72F1000235D353462A468D
:1041D000991841F10001A8FB010525F0030000EB4F
:1041E0009500091A581A4FF0CC3562F1000E05FB04
:1041F00000F508FB0E55A0FB08A005440AF0010ECF
:104200000520AEFB000E40184FEA5A0A303004F881
:10421000010C4AEAC57A0CF1010C013C6D08002F33
:10422000D0D031788C45CDD1BCF1FF0FCAD00A2B4C
:1042300072F1000280F0ED801596DDE9045652AB74
:10424000DDF80CA0CDF838C0CDE903641E1BFFF7E4
:104250006EB800BFCC4B0108B84B0108C447010839
:10426000CDCCCCCCDDE9080126AA199302F020FAC6
:1042700000287FF49AA89DF87B20199B0DF1A40BD0
:10428000FFF7C7B8039EFFF70FB80D9901390AF180
:10429000FF3A0D91FEE60129039E7FF4C6AAFFF7BF
:1042A00008B8DDE9080126AA02F002FA00287FF426
:1042B0007CA8289F0DF1A40BFFF767BA01332544B2
:1042C000072BCBF80070CBF80440CDE927357FF7FA
:1042D000E0A8FFF788BB049A039652AB9E1AFFF73B
:1042E00026B80898049326AA594602F0E1F9002856
:1042F0007FF45BA89AF800102898049B29AAEAE6A4
:10430000DDE9080126AA02F0D3F900287FF44DA8C0
:10431000289F0DF1A40BFFF7A5B80B9B079A1B680C
:104320001A60FFF7FEB94E46062E1A4628BF06262B
:1043300099460A93C14B0596CDE90C220B9704933D
:104340000F92FFF700B8984608F101084D44B8F104
:10435000070FCDE927853760C6F804907FF78BAB50
:10436000E2E4129B13985919CBE90003279B28918B
:104370000133072B279300F316810BF1080B002A5A
:10438000BFF624AB56421032AD4F80F2D382DDE946
:104390000848102505E00BF1080B103E102E40F3E5
:1043A000C98201331031072BCBE90075CDE92731E4
:1043B000F1DD26AA4146204602F07AF900287EF473
:1043C000F4AFDDE927310DF1A40BE6E7039A12F40F
:1043D00000721CBFDBB20246FEF786BF039A12F4DE
:1043E00000721CBFDBB20246C8E50133CBF8007097
:1043F000072B05EB0207CDE92737CBF8045000F374
:10440000E0800BF1080B1AE42D228DF87B20FFF7DA
:10441000A2B8189B1799E41A1A46204602F07AFBB4
:10442000737803B101364FF0000CCFE6DDE90801E7
:1044300026AA02F03DF900287EF4B7AF209A289D05
:104440000DF1A40BFFF7AABA4F46022124AB01934A
:1044500021AB00930898B0EE480AF0EE680A20AB52
:104460003A4602F087FC672D049000F00E82472D3B
:1044700000F09D82049B25F02008B8F1460F03EB65
:10448000070605D11B78302B00F0E482209F3E44C4
:1044900051EC180B0022002305F0BAFA002800F0B6
:1044A00040813346049A9B1A0E93209A0C92B8F1DD
:1044B000470F00F02481B8F1460F00F0FE81531E33
:1044C000612D209300F0DE82412D40F020815021AB
:1044D0000120002BB6BFC2F101032B222D22092B94
:1044E0008DF888108DF8892040F33D820DF19706F4
:1044F000544F32461046A7FB0312D20802EB82014A
:10450000A3EB4101303100F8011C19466329134621
:1045100000F1FF32EEDC303302F8013C831EB3427F
:1045200080F0BC820DF1890213F8011B02F8011F13
:10453000B342F9D152AB181AA0F1AD0316930E9BFA
:10454000169A012B03EB020640F32D82129B1E44A8
:1045500024F4806343F4807303930023CDE90C3388
:1045600026EAE6720F930592199B002B40F0D28049
:104570009DF87B209946FEF7E6BE199A1C1BA2EB1C
:104580000906A6423D46A8BF2646FFF78EBB0B9BF9
:10459000079A1B681A80FFF7C4B843F3C01211468C
:1045A0005BB2FEF773BEDDE9080126AA02F080F8CF
:1045B00000287EF4FAAEDDE92731209A0DF1A40B34
:1045C000DDE6DDE9080126AA02F072F800287EF493
:1045D000ECAE289F0DF1A40BFFF731BB4FF006099D
:1045E0005BE409F10107022130E74F4603212DE783
:1045F00020A8B0EE480AF0EE680A02F0F1FA0022B4
:104600004FF07F5351EC100B04F09AFF002200236F
:1046100006460F4605F0FCF9002840F0BB810A4B26
:10462000039309F1FF33CDE91C9B0D95CDE90E4AAB
:10463000DDF81080DDF80CB01D460DE0E04B010800
:10464000C4470108CDCCCCCCCC4B010800220023C0
:1046500005F0DEF9F0B94D46AD4B00223046394643
:1046600004F06EFF0F46064605F01AFA0446FBF703
:10467000F9FE0B46024639463046FBF7A5FD1BF80E
:104680000430C24608F8013B6B1C05F1FF390646B1
:104690000F46DBD19F4B0C950022304639460D9DCD
:1046A0000D94DDE91C9B0E9CCDF838A0DDF83CA0F4
:1046B00005F0D6F9002840F00E81964B3046394679
:1046C000002205F0A5F918B10D9BDF0700F1038169
:1046D0000C9B002BC0F21A810C9B01334344302207
:1046E00008F8012B4345FBD1049A9B1A0E9325F041
:1046F0002008DAE6049A249B9B1A209A0E93D31C76
:104700000C9201DB914518DA531E023D2093E9B269
:104710000020DEE62D228DF87B204FF00009FEF709
:1047200014BE249BB342BFF4BDAE30215A1C249268
:104730001970249B9E42F9D8B4E60E9B934200F375
:10474000AB80E30740F16081129BD618670502D564
:10475000002A00F33381059B039326EAE673059351
:10476000672500230F930D93FEE6DDE9080126AAD5
:1047700001F09EFF00287EF418AE289F0DF1A40BD7
:10478000FFF756BA0898049326AA594601F090FFFD
:1047900000287EF40AAE9AF800102898049B29AAF3
:1047A0000F449FE478238DF87D3030238DF87C30E2
:1047B000039BB9F1630F43F0020400F3AF800023C1
:1047C0000A9339AB0493039B43F481730593119BC4
:1047D000002B23DB9DED108B00231993612D7FF4BB
:1047E0006AABB0EE480AF0EE680A20A802F0F8F9C9
:1047F00000224FF07F5351EC100B04F0A1FE002279
:10480000002306460F4605F003F9002840F0C28059
:10481000414B039305E70023039C0A93DDE9102332
:1048200003F1004308EE903A2D2308EE102A199365
:10483000D4E7DDE9080126AA01F03AFF00287EF45A
:10484000B4AD209C289D0DF1A40BFFF716BA4E467F
:10485000CDF81490CDE90C009DF87B200B97814694
:104860000F90FEF770BDDDE9080126AA01F020FFD8
:1048700000287EF49AAD209C0E9B289D1C1B0DF1F8
:10488000A40BFFF712BA58238DE7E6077FF532AF86
:10489000C6194FF04708FBE50E9B129A9E180C9B19
:1048A000002B40F3C8806725620500F18880059BD6
:1048B000039326EAE673059353E70C9A04F0010389
:1048C000002A43EA090340F3D580002B40F0BD8065
:1048D0000C9E6625E8E70E9B039A2493D17B18F87B
:1048E000013C8B42424609D1302002F8010C249A47
:1048F000531E249312F8013C9942F6D0392B0BBF7A
:10490000039B01339B7ADBB202F8013C4346EBE6A2
:10491000000030400000E03FB84B0108089809F162
:104920000101FBF7C9FF0490002800F0C980049B37
:104930000A9348E701333144072BCDE92731CBF8FF
:104940000070CBF804607FF73FA8DDE9080126AAD4
:1049500001F0AEFE00287EF428ADDDE927310DF12F
:10496000A40BFFF733B8002840F0818030228DF887
:104970008A200DF18B02303302F8013B22ABD31AAF
:104980001693DCE5089A0C2313604FF0FF3307936E
:10499000FEF716BD4E4B4F4A612D18BF1A46012334
:1049A000039220933DE6E2077FF5D2ADCEE5E10725
:1049B0007FF5A0AE049BA846DE1969E56725159929
:1049C0000B78FF2B78D000240C9A204603E00130AE
:1049D0000131FF2B08D0934206DAD21A4B78002B14
:1049E000F5D10B780134F4E715910D900F940C92EA
:1049F000059B0D9A03930F9B1344189A02FB0366C1
:104A000026EAE6730593AFE516469FE6119B324C06
:104A1000002B039BA8BF9DF87B2023F08003B8BF29
:104A20002D220393B8BF8DF87B202C4BFEF799BD48
:104A30002B4DFFF78EBBC3F101031E44059A039271
:104A400026EAE673059367258BE6129BD6184E443B
:104A5000662529E751EC180B0022002304F0D8FF4B
:104A600000287FF413ADC7F1010720970FE50DF182
:104A70008A0280E743B9059B0393012305936625CA
:104A80001E466EE6702123E5059B0393129B5E1C78
:104A90004E4426EAE6730593662562E602231693E2
:104AA0004DE50B9B9AF80150924653F8042B0B935B
:104AB00042EAE279FEF748BB00230F930D9397E794
:104AC00009998B8943F0400213468A81FEF775BC31
:104AD000CC4B0108B84B0108B04B0108B44B01089E
:104AE000C4470108000000002DE9F04F2DED028BB6
:104AF000D3B01C46CDE906109246054602F040F8B8
:104B00000368139318460B94FEF7BAF812901DB180
:104B10006B6B002B01F08B80069A536EB2F90C2060
:104B2000D90702D4970540F1BE86960406D40699AB
:104B300042F4005223F400538A814B669D0401F134
:104B4000E783069AB2F90C30190740F1C98012695F
:104B5000002A00F0C58003F01A020A2A00F0CF8074
:104B60000023CDF810A0CDE92733CDE91533CDE9E9
:104B700017330E9314930993049B9FED8B7B1B7843
:104B800029AA8DED107B26929346002B00F09A8186
:104B9000DDF810A004E01AF8013F002B00F0C680F9
:104BA000252BF8D1049BBAEB030540F0C4809AF89A
:104BB0000030002B00F0868100239AF801508DF818
:104BC0007B3008930AF1010A4FF0FF3903930AF191
:104BD000010AA5F120035A2B00F2EA80DFE813F066
:104BE000CE02E800E800C702E800E800E8006A003A
:104BF000E800E8007002A102E8007B02AE02E800D3
:104C0000A7025B005B005B005B005B005B005B007E
:104C10005B005B00E800E800E800E800E800E8006E
:104C2000E8007901E800FC01D301790179017901FB
:104C3000E800E800E800E8000803E800E8002E02C9
:104C4000E800E800E8000602E800F602E800E800F4
:104C50003507E800E800E800E800E800E800E800C0
:104C6000E8007901E800FC01D701790179017901B7
:104C7000E302D701CC01E800D902E8008202320247
:104C80009002CC01E80006027D003207E800E8004F
:104C90005807E8007D00A5F1300300221AF8015BF7
:104CA00002EB820203EB4202A5F13003092BF5D996
:104CB00008928EE7079D284601F062FF436817932C
:104CC0001846FDF7DDFF18900446284601F058FF0E
:104CD00083681593002C40F093869AF8005076E78D
:104CE000069D07982946FDF7CDF8002841F03D8440
:104CF000B5F90C3003F01A020A2A7FF431AF069995
:104D0000B1F90E20002AFFF62BAF4A6ED60702D467
:104D10009D0541F17881DDE906102346524653B0E6
:104D2000BDEC028BBDE8F04F01F072BC049BBAEB06
:104D3000030500F0C780049B289FCBE90035279B23
:104D400001332F44072B2897279305DC0BF1080B21
:104D5000099B2B4409932AE7DDE9061026AA01F0F6
:104D600097FC78B90DF1A40BF2E7DDE9061026AA4D
:104D700001F08EFC002800F094800A9911B1079888
:104D8000FEF792F8069B5A6EB3F90C30D40740F147
:104D9000E980590601F1C682099853B0BDEC028B37
:104DA000BDE8F08FAFF300800000000000000000BD
:104DB000002D00F0878000228DF8E4508DF87B20D4
:104DC0000123CDE90C2205931E4639AB0A92914688
:104DD0000F920493039B13F0020302D00599023152
:104DE0000591039911F0840405D1089905980F1ACB
:104DF000002F00F39A83289F8AB1279A0DF17B0137
:104E000001320137CBF80010072A4FF00101289733
:104E10002792CBF8041000F3DB830BF1080B83B16E
:104E2000279B1FAA01330237CBF80020072B4FF036
:104E3000020228972793CBF8042000F3D7830BF1C5
:104E4000080B802C00F05482A9EB0608B8F1000F83
:104E500000F39A82039BDC0500F1D181049BCBF81F
:104E60000030279BCBF804600133F519072B2895F8
:104E7000279300F3EB820BF1080B039B5E0705D52C
:104E8000089B059A9C1A002C00F3BC83DDE90823DB
:104E900005998A42ACBF9B185B180993002D7FF4DB
:104EA00064AF002327930A9B1BB10A990798FDF76B
:104EB000FBFF0DF1A40BCDF810A0049B1B78002B79
:104EC0007FF466AE289B002B40F0EA8700232793EF
:104ED00058E70B9B073323F00703B3EC027B57EC37
:104EE000176B0B9327F000431B938DED1A7ADDE9C6
:104EF0001A01B24B4FF0FF328DED107B04F0BAFD7A
:104F0000002840F02085DDE91A01AC4B4FF0FF325C
:104F100004F092FD002840F0168500220023304660
:104F2000394604F07FFD002841F0C4809DF87B20C5
:104F3000039BA34C23F080030393A24B472DC8BFD0
:104F40001C460023CDE90C33032104940A930591F8
:104F50000E4699460F93002A3FF43CAF059B013360
:104F6000059337E798053FF514AF069CA06DFDF754
:104F7000A7FBB4F90C300CE7039B9AF8005043F000
:104F80002003039323E6039B43F010030393039B47
:104F90009C0640F169840B9B073323F007031A46F4
:104FA000596852F8083B0B920A460029C0F2C384A4
:104FB000B9F1FF3F00F0FD82039921F0800653EA2A
:104FC000020140F0F782B9F1000F40F0F882039639
:104FD00052AB4E46049365E00B9B002253F8041B32
:104FE0008DF87B208DF8E4100B93E9E60B9F57F8C2
:104FF000043B049300268DF87B60002B00F07D8538
:10500000B9F1FF3F00F03D8604984A463146FDF76E
:1050100037FD0A90002801F06F810A9B049A0B97D4
:10502000B1469E1A26EAE673CDE90C999DF87B20DD
:105030000593CDF82890CDF83C908CE7039B43F086
:1050400010030393039B13F0200200F0FB830B9BE0
:10505000073323F0070319465A6851F8083B0B91B0
:10506000039921F4806600210020B9F1FF3F8DF8FB
:105070007B0000F0218126F08000039053EA0200BB
:1050800040F01981B9F1000F40F0E38500299FD16C
:1050900016F001061BBF30238DF8473152AB0DF2DD
:1050A00047130493B1454FF000034946B8BF31465A
:1050B000CDE90C339DF87B200A9305910F934AE7C5
:1050C0000B9B53F8042B0892002A80F2F583089A70
:1050D0000B9352420892039B9AF8005043F004034A
:1050E000039374E5039B9E0640F19A840B9B099AF7
:1050F0001B681A60D2175A600B9B04330B93DAE6D5
:105100000B9A039B43F0020652F8043B0B9247F6BE
:105110003002ADF87C202C4A14920221002278251E
:10512000A2E72B239AF800508DF87B304FE5039BC4
:105130009AF8005043F08003039348E5524612F872
:10514000015B2A2D01F03282A5F13003092B924632
:105150004FF000093FF63DAD1AF8015B09EB8909F4
:1051600003EB4909A5F13003092BF5D931E5039B80
:105170009AF8005043F00103039328E59DF87B3033
:105180009AF80050002B7FF422AD20238DF87B305D
:105190001DE59AF80050039B6C2D00F0A58443F0A8
:1051A0001003039313E59AF80050039B682D00F059
:1051B000858443F04003039309E500BFFFFFEF7FC1
:1051C000A84B0108AC4B0108B84B0108039B43F006
:1051D000100616F0200200F057830B9B073323F0D4
:1051E000070319465A6851F8083B0B9101213BE728
:1051F000039B9AF8005043F008030393E7E4652DFE
:1052000040F33081DDE910010022002304F000FCAE
:10521000002800F03382279BB84ACBF800200133E6
:1052200001370122072B28972793CBF8042000F39E
:1052300003850BF1080B209B0E9A934204DB039B22
:10524000D80701D43D4618E6129B139ADD19CBE925
:105250000023279B28950133072B279300F33784DE
:105260000BF1080B0E9B5C1E002C7FF706AE102C7A
:10527000279BA34F40F3F284DDE90698102605E052
:105280000BF1080B103C102C40F3E884013310356F
:10529000072BCBE90076CDE92735F1DD26AA494673
:1052A000404601F0F5F900287FF467ADDDE92735C8
:1052B0000DF1A40BE6E7039E012900F07B81022992
:1052C00000F0208152AC03F00701DB0843EA42738F
:1052D000D208303153EA0207204604F8011DF2D10A
:1052E000F707049400F14B8252AB03961E1BD9E6DC
:1052F000089B059AA3EB0208B8F1000F7FF7A4AD55
:10530000B8F1100F3A46279B7D4F29DD19951C9661
:105310001024DDE90656194606E0A8F11008B8F198
:10532000100F0BF1080B18DD013110320729CBE902
:105330000074CDE92712F0DD26AA294630460DF18A
:10534000A40B01F0A5F900287FF417ADA8F110080F
:10535000B8F1100FDDE92712E6DC199D1C9E0B4603
:105360000133CBF80070072B08EB0207CDE9273794
:10537000CBF8048000F39583A9EB0608B8F1000F81
:105380000BF1080B7FF766ADB8F1100F3A46279B7B
:105390005B4F2EDD5946079CC3464FF01009B846B7
:1053A00037462E46069D06E0ABF1100BBBF1100F01
:1053B00001F1080118DD013351481032072BC1E912
:1053C0000009CDE92732EFDD26AA2946204601F063
:1053D0005FF900287FF4D1ACABF1100BBBF1100FDB
:1053E000DDE9273229A9E6DC35463E464746D84660
:1053F0008B460133CBF80070072B08EB0207CDE991
:105400002737CBF8048000F310820BF1080B21E55D
:10541000129B13985919CBE90003279B289101335C
:10542000072B279300F3E0850BF1080B002AC0F24D
:105430009587049ACBF800200E9ACBF8042001330C
:105440005518072BCDE927357FF715ADDDE9061097
:1054500026AA01F01DF900287FF48FAC289D0DF1DC
:10546000A40B0AE50E9B012B0BF1080640F3948177
:10547000049BCBF80030279B013301370122072B17
:1054800028972793CBF8042000F35783129A03F14F
:105490000108139BD519B8F1070FC6E90032CDE911
:1054A000278500F3568308360E9BDDE9100103F1D2
:1054B000FF390022002304F0ABFA002840F08D8170
:1054C000049CC6F8049008F1010801344D44B8F179
:1054D000070FCDE92785346000F373810836169AEB
:1054E000726008F101031544072B22AACDE9273584
:1054F0003260ABDC06F1080BBFE400BFE84B0108EB
:10550000E4470108149C52A903F00F001B09205C1A
:1055100001F8010D43EA0273120953EA0200F3D1C4
:1055200052ABCDE903615E1ABCE5102FDDE92721FE
:10553000DFF8C8842DDD19934346CDE91C45B046FC
:10554000DDE906541E4604E0103F102F0BF1080B56
:1055500019DD013210311023072ACDE92721CBF8BC
:105560000060CBF80430EFDD26AA294620460DF175
:10557000A40B01F08DF800287FF4FFAB103F102F33
:10558000DDE92721E5DCDDE91C453046199B46466F
:10559000804601323944072ACBF80080CBF80470EA
:1055A0002891279200F333839DF87B200BF1080BA1
:1055B00021E4039E0A2B72F1000180F0D682303381
:1055C0008DF847310DF2471303960493012669E5E0
:1055D000DDE9061026AA199301F05AF800287FF495
:1055E000CCAB289F199B0DF1A40B18E4DDE9061044
:1055F00026AA01F04DF800287FF4BFAB289F0DF1DB
:10560000A40B1EE4102C279BDFF8F08323DD474614
:10561000DDF81890DDF81C80102604E0103C102CFA
:105620000BF1080B16DD01331035072BCBE90076A3
:10563000CDE92735F2DD26AA494640460DF1A40BF7
:1056400001F026F800287FF498AB103C102CDDE91F
:105650002735E8DCB84601332544072BCBE9008425
:10566000CDE927357FF712ACDDE9061026AA01F057
:105670000FF800287FF481AB289D07E4209A002AC8
:1056800040F31F810C9E0E9B049A9E42A8BF1E46AB
:10569000002E134419930BDD279B01333744072B4E
:1056A000CBE900262897279300F3F9850BF1080B27
:1056B0000C9D002EA8BFAD1B002D00F3F882049BAB
:1056C0000C9A13449946039B590500F10385209CCD
:1056D0000E9B9C4203DB039AD20740F1CC83129BC2
:1056E000139ADD19CBE90023279B28950133072B5B
:1056F000279300F3F3850BF1080B0E9B1C1B199BE2
:10570000A3EB0906A642A8BF2646002E0DDD279B67
:10571000CBF8009001333544072BCBF80460289573
:10572000279300F304860BF1080B002EA8BFA41BDF
:10573000002C7FF7A2AB102C279BAE4F40F38E823C
:10574000DDE90698102605E00BF1080B103C102C43
:1057500040F3848201331035072BCBE90076CDE985
:105760002735F1DD26AA4946404600F091FF002882
:105770007FF403ABDDE927350DF1A40BE6E7302913
:1057800000F08981049A03963023023802F8013C24
:1057900052AB1E1A049085E4039BDB073FF568AE0D
:1057A000049BCBF80030279B03F101087D1C0123EB
:1057B000B8F1070F2895CDF89C80CBF804307FF71F
:1057C0008EAEDDE9061026AA00F062FF00287FF405
:1057D000D4AADDE9278529AE81E60E9B012B7FF750
:1057E0007EAE112B834F40F3558243461024DDE9F2
:1057F00006B806E00836A9F11009B9F1100F40F318
:10580000488201331035072BC6E90074CDE92735EE
:10581000F0DD26AA5946404600F03AFF00287FF402
:10582000ACAADDE9273529AEE5E7DDE9061026AAB1
:1058300000F02EFF00287FF4A0AA289F0DF1A40BF2
:10584000FFF708BB0B9951F8043B0B91039911F03A
:1058500010017FF405AC039A12F0400000F0518271
:105860009BB20A46FFF7FCBB0B9A52F8043B0B9223
:10587000039AD0065AD4039A510653D543F3C03243
:1058800011461BB2FFF791BB0B9951F8043B0B91EA
:1058900016F0100143D116F040003BD00A469BB2EF
:1058A0000121FFF7E1BB069DA86DFCF701FFB5F9EB
:1058B0000C206B6EFFF739B99AF800500B93FFF785
:1058C00086B9279B4C49CBF8001001337D1C012180
:1058D000072B28952793CBF8041000F3D2840BF103
:1058E000080B002A7FF494AD039B0E9A03F001038A
:1058F00013433FF4C2AA129B139A5919CBE9002310
:10590000279B28910133072B279300F36D830BF11D
:10591000080B8EE516F400721CBFDBB202460121B3
:10592000FFF7A2BB039A920500F1AE82DA17114687
:105930000029BFF63DAB5B42039E62EB42022D2085
:105940000121FFF792BBDDE9100102460B4604F08E
:1059500091F8002840F0D685612D00F0BD84412DDE
:1059600000F0A882B9F1FF3F00F0928525F02003F6
:10597000472B04D1B9F1000F08BF4FF00109DDE951
:105980001001039C002944F480720592C0F25384F4
:10599000002341EC180B19930A93A5F14103252B21
:1059A00000F2D081DFE813F04803CE01CE01CE0132
:1059B00041034503CE01CE01CE01CE01CE01CE0181
:1059C000CE01CE01CE01CE01CE01CE01CE01CE015F
:1059D000CE01CE01CE01CE01CE01CE01CE01CE014F
:1059E000CE01CE01CE01CE01CE01CE01CE01CE013F
:1059F00041034503E4470108E84B0108D447010887
:105A0000159B9AF80050002B3FF4E1A81B78002B5F
:105A10003FF4DDA8039B43F480630393FFF7D7B8FB
:105A2000039BDD0600F12781039B5C0600F13282B7
:105A3000039B980540F11F810B9B099A1B681A7004
:105A4000FFF75ABB039EFFF7C4BBB94B1493039BEC
:105A500013F0200261D00B9B073323F00703194694
:105A60005A6851F8083B0B910398C1070AD553EACD
:105A7000020107D040F00201039130218DF87D50E2
:105A80008DF87C10039921F480660221FFF7ECBAAF
:105A9000A84B1493DBE7049A039652AB9E1AFFF7C8
:105AA00001BBDDE9061026AA00F0F2FD00287FF414
:105AB00064A9289F0DF1A40BFFF7C6B943F4007346
:105AC0009AF8015003930AF1010AFFF780B8DDE963
:105AD000061026AA00F0DCFD00287FF44EA9289DC0
:105AE0000DF1A40BFFF7BEBB43F020039AF8015061
:105AF00003930AF1010AFFF76AB84E46062E1A46CA
:105B000028BF062699460A938B4B0596CDE90C22B1
