:020000040800F2
:100000000000022061810008B5780008B978000876
:10001000BD780008C1780008C5780008000000001D
:10002000000000000000000000000000C978000887
:10003000CD78000800000000D1780008D5780008CD
:10004000B1810008B1810008B1810008B1810008C8
:10005000B1810008B1810008B1810008B1810008B8
:10006000B1810008B1810008B1810008D978000889
:10007000E5780008F1780008FD78000809790008A3
:100080001579000821790008B1810008B1810008C4
:100090002D790008B1810008B1810008B181000804
:1000A000B1810008B1810008B1810008B181000868
:1000B000B1810008B1810008B1810008B181000858
:1000C000B1810008B1810008B1810008B181000848
:1000D000B1810008B5790008C1790008CD79000820
:1000E000B1810008B1810008B1810008B181000828
:1000F000B1810008B1810008B1810008D9790008F8
:10010000B1810008B1810008B1810008B181000807
:10011000E5790008F1790008FD790008B18100084F
:10012000B1810008B1810008B1810008B1810008E7
:10013000B1810008B1810008B1810008B1810008D7
:10014000B1810008B1810008B1810008B1810008C7
:10015000B1810008B1810008097A0008B181000866
:10016000B1810008B1810008B1810008B1810008A7
:10017000B1810008B1810008B181000800000000D1
:08018000B1810008B181000803
:1001C00081F0004102E000BF83F0004330B54FEA08
:1001D00041044FEA430594EA050F08BF90EA020F75
:1001E0001FBF54EA000C55EA020C7FEA645C7FEA08
:1001F000655C00F0E2804FEA5454D4EB5555B8BF2B
:100200006D420CDD2C4480EA020281EA030382EA9B
:10021000000083EA010180EA020281EA0303362D2D
:1002200088BF30BD11F0004F4FEA01314FF4801C00
:100230004CEA113102D0404261EB410113F0004F12
:100240004FEA03334CEA133302D0524263EB4303C9
:1002500094EA050F00F0A780A4F10104D5F1200E67
:100260000DDB02FA0EFC22FA05F2801841F10001C2
:1002700003FA0EF2801843FA05F359410EE0A5F196
:1002800020050EF1200E012A03FA0EFC28BF4CF0C7
:10029000020C43FA05F3C01851EBE37101F000457D
:1002A00007D54FF0000EDCF1000C7EEB00006EEB8A
:1002B0000101B1F5801F1BD3B1F5001F0CD3490814
:1002C0005FEA30004FEA3C0C04F101044FEA44526B
:1002D00012F5800F80F09A80BCF1004F08BF5FEAF2
:1002E000500C50F1000041EB045141EA050130BDD2
:1002F0005FEA4C0C404141EB0101013C28BFB1F5E4
:10030000801FE9D291F0000F04BF01460020B1FA2E
:1003100081F308BF2033A3F10B03B3F120020CDA01
:100320000C3208DD02F1140CC2F10C0201FA0CF0DF
:1003300021FA02F10CE002F11402D8BFC2F1200C44
:1003400001FA02F120FA0CFCDCBF41EA0C019040FA
:10035000E41AA2BF01EB0451294330BD6FEA040443
:100360001F3C1CDA0C340EDC04F11404C4F120022E
:1003700020FA04F001FA02F340EA030021FA04F340
:1003800045EA030130BDC4F10C04C4F1200220FA97
:1003900002F001FA04F340EA0300294630BD21FAD5
:1003A00004F0294630BD94F0000F83F4801306BF9B
:1003B00081F480110134013D4EE77FEA645C18BF8F
:1003C0007FEA655C29D094EA050F08BF90EA020F26
:1003D00005D054EA000C04BF1946104630BD91EA1E
:1003E000030F1EBF0021002030BD5FEA545C05D121
:1003F0004000494128BF41F0004130BD14F5800460
:100400003CBF01F5801130BD01F0004545F0FE41D3
:1004100041F470014FF0000030BD7FEA645C1ABF08
:10042000194610467FEA655C1CBF0B46024650EA3F
:10043000013406BF52EA033591EA030F41F400216B
:1004400030BD00BF90F0000F04BF0021704730B5F1
:100450004FF4806404F132044FF000054FF00001C6
:1004600050E700BF90F0000F04BF0021704730B587
:100470004FF4806404F1320410F0004548BF40425C
:100480004FF000013EE700BF42004FEAE2014FEAB1
:1004900031014FEA02701FBF12F07F4393F07F4F8C
:1004A00081F06051704732F07F4208BF704793F08F
:1004B0007F4F04BF41F40021704730B54FF46074A2
:1004C00001F0004521F000411CE700BF50EA0102A5
:1004D00008BF704730B54FF000050AE050EA01024E
:1004E00008BF704730B511F0004502D5404261EBBE
:1004F00041014FF4806404F132045FEA915C3FF4FF
:10050000D8AE4FF003025FEADC0C18BF03325FEA9B
:10051000DC0C18BF033202EBDC02C2F1200300FA4C
:1005200003FC20FA02F001FA03FE40EA0E0021FA71
:1005300002F11444BDE600BF4FEA4102B2F1E043CC
:1005400024BFB3F5001CDCF1FE5C0DD901F0004CBA
:100550004FEAC0024CEA5070B2F1004F40EB83000A
:1005600008BF20F00100704711F0804F21D113F136
:100570003872BCBF01F00040704741F480114FEA6F
:100580005252C2F11802C2F1200C10FA0CF320FAF8
:1005900002F018BF40F001004FEAC1234FEAD32315
:1005A00003FA0CFC40EA0C0023FA02F34FEA43037F
:1005B000CCE77FEA625307D150EA01331EBF4FF008
:1005C000FE4040F44000704701F0004040F0FE4023
:1005D00040F40000704700BF53B94AB9002908BF72
:1005E00000281CBF4FF0FF314FF0FF3000F0E2B8A1
:1005F000ADF1080C6DE904CE0AF0C8F9DDF804E0AD
:10060000DDE9022304B0704700F1340191E83800BD
:100610009C46A6464CF8045D90E8FF0FE54600BDF9
:1006200090EC210B704700BF80EC210B704700BF9E
:1006300090EC200B704700BF80EC200B704700BF90
:10064000D0EC200B704700BFC0EC200B704700BF00
:10065000F0EC0201F0EC0211F0EC0221F0EC0231BE
:10066000F0EC0241F0EC0251F0EC0261F0EC0271AE
:10067000F0EC0281F0EC0291F0EC02A1F0EC02B19E
:10068000F0EC02C1F0EC02D1F0EC02E1F0EC02F18E
:10069000704700BFE0EC0201E0EC0211E0EC022147
:1006A000E0EC0231E0EC0241E0EC0251E0EC0261EE
:1006B000E0EC0271E0EC0281E0EC0291E0EC02A1DE
:1006C000E0EC02B1E0EC02C1E0EC02D1E0EC02E1CE
:1006D000E0EC02F1704700BFB0FC0181B0FC019179
:1006E000B0FC01A1B0FC01B1704700BFA0FC0181CA
:1006F000A0FC0191A0FC01A1A0FC01B1704700BFCA
:10070000EC4600B52DE900502DE9FF1F4FF0000326
:100710002DE90C0001A90AF0C4FBDDF840E012B09D
:10072000704700BFEC4600B52DE900502DE9FF1FD2
:100730004FF000032DE90C0001A90AF0E9FBDDF8F8
:1007400040E012B0704700BFEC4600B52DE9005004
:100750002DE9FF1F4FF000032DE90C0001A90AF05D
:10076000F7FBDDF840E012B0704700BFEC4600B583
:100770002DE900502DE9FF1F4FF000032DE90C007B
:1007800001AB0AF0BBFBDDF840E012B0704700BFE0
:10079000EC4600B52DE900502DE9FF1F4FF0000396
:1007A0002DE90C0001AA0AF025FCDDF840E012B0AA
:1007B000704700BF704700BF08B5062000F04AFB35
:1007C000012007F031F900BF002301461A46184600
:1007D00000F040BD024A0349034800F069B900BF78
:1007E00000000020AD350008180000200C4B4168C7
:1007F000994210B5044601D002F0D8FEA168094B19
:10080000994202D0204602F0D1FEE168064B99429F
:1008100004D02046BDE8104002F0C8BE10BD00BFA5
:10082000C8060020300700209807002008B54B6E4E
:10083000DA0702D48B899B0501D5002008BD886D9D
:1008400000F064FC002008BD08B54B6EDA0702D446
:100850008B899B0501D5002008BD886D00F05EFCEA
:10086000002008BD2DE9F843314C324BDFF8D89019
:10087000DFF8D880304FC4F83831002529460423EA
:10088000082204F15C002D4EE360C4E90055C4E980
:100890000455A5606566A56100F0EEF904F1580005
:1008A000C4E90749C4E90987E66200F027FC294644
:1008B000234B6367082204F1C400C4E91A55C4E954
:1008C0001E552567C4F8CC50C4F8805000F0D4F908
:1008D00004F1680304F1C000C4F88430C4E922982C
:1008E000C4E9247600F00AFC164BC4F8DC30294633
:1008F00004F596700822C4E93455C4E93855C4F8A3
:10090000D850C4F83451C4F8E85000F0B5F904F1F7
:10091000D003C4E93D87C4F8F09004F59470C4F89E
:10092000FC60C4F8EC30BDE8F84300F0E7BB00BF62
:10093000C8060020D5070008610B0008850B0008D9
:100940000900010012000200F90A0008210B00084A
:10095000F8B506462A4800F0D9FB2A4BD3F83831BF
:10096000002B43D0284FD7E90134013B04D524E0C4
:100970005A1C04F1680420D0B4F90C50013B002D3E
:10098000F6D1224BE36004F15800656600F0B6FB37
:100990001B4800F0C3FBC4E90155C4E904552560B8
:1009A000A5610822294604F15C0000F065F9C4E95C
:1009B0000C55C4E911552046F8BD3D680DB12F46D0
:1009C000D1E74FF4D671304600F0DEFD044680B129
:1009D0000423056043600C302946A06025464FF48F
:1009E000D07200F049F93C602F46BCE7FFF73AFFB0
:1009F000B8E703483C6000F091FB0C233360DAE772
:100A000024080020C8060020000000200100FFFF8D
:100A100010B504460B4800F079FB636B2BB90A4B09
:100A20000A4AD3F83831626323B1BDE81040054863
:100A300000F074BBFFF716FFBDE81040014800F05E
:100A40006DBB00BF24080020C8060020ED07000889
:100A5000014800F05BBB00BF24080020014800F003
:100A60005DBB00BF2408002008B5054800F04EFB20
:100A7000BDE80840034A0449002000F019B800BF4F
:100A800024080020000000202D08000808B5054AB1
:100A90000549002000F00CF8BDE80840034800F0CC
:100AA0003DBB00BF000000204908000824080020CA
:100AB0002DE9F84380460F4616464FF00009D6E967
:100AC0000154013D11D4A389012B05F1FF3508D94B
:100AD000B4F90E300133214603D04046B84749EA05
:100AE00000096B1C04F16804EDD13668002EE6D1D4
:100AF0004846BDE8F88300BF10B50C46B1F90E10AA
:100B000000F074FA002803DB236D0344236510BD55
:100B1000A38923F48053A38110BD00BF0020704738
:100B20002DE9F0410C46B1F90C101F46CB050546E6
:100B300016460BD421F48051A1813B46B4F90E1026
:100B400032462846BDE8F04100F07EBAB4F90E10F6
:100B50000223002200F034FAB4F90C10EAE700BFD7
:100B600010B50C46B1F90E1000F02AFAB4F90C30A9
:100B7000421C0EBF23F4805343F480532065A381AD
:100B800010BD00BFB1F90E1000F008BA10B51C4C32
:100B9000002924689AB02DDB009004904FF4027075
:100BA000ADF80C004FF00000199013D001394FF64A
:100BB000FF7002910591ADF80E006946204600F0E5
:100BC000ABFF421C01DA8B232360009B00221A70CA
:100BD0001AB010BD4FF6FF7002910591ADF80E00EE
:100BE0006946204600F098FF431C01DA8B232360FE
:100BF0001AB010BD8B2323604FF0FF30F8E700BF21
:100C00001000002030B51446002C9BB005462EDBAA
:100C10001A464FF40273ADF80C304FF00003009108
:100C20000491199313D04FF6FF73013CADF80E30C9
:100C300069461E9B0294059400F06EFF421C01DA87
:100C40008B232B60009B00221A701BB030BD4FF627
:100C5000FF73ADF80E3069461E9B0294059400F0B8
:100C60005BFF431C01DA8B232B601BB030BD8B2351
:100C700003604FF0FF30F8E7830730B547D0541ECC
:100C8000002A3ED0CAB2034601E0013C39D303F842
:100C9000012B9D07F9D1032C2CD9CDB205EB0525ED
:100CA0000F2C05EB054535D9A4F1100222F00F0CED
:100CB00003F1100EE6444FEA121C1A461560556007
:100CC0009560D56010327245F8D10CF1010214F034
:100CD0000C0F03EB021204F00F0C13D0ACF1040361
:100CE00023F003030433134442F8045B9A42FBD11C
:100CF0000CF003042CB1C9B21C4403F8011B9C4244
:100D0000FBD130BD64461346002CF4D1F9E703460D
:100D10001446C0E71A46A446E0E700BF38B5D0F84D
:100D200018410CB1002038BD8021054600F02CFC94
:100D30000246C5F8180130B1031F7C3243F8044F56
:100D40009342FBD1EEE74FF0FF3038BD30B51F299D
:100D500083B0054609D8D0F818310C4653B153F882
:100D6000240043F8242003B030BD162303604FF065
:100D7000FF30F8E78021019200F006FC019AC5F8E7
:100D8000180103460028F2D0011F00F17C05002065
:100D900041F8040FA942FBD1E1E700BF1F2938B594
:100DA00005461FD8D0F818210C466AB152F82130F8
:100DB00053B1012B06D0591C10D0002142F8241049
:100DC00020469847002038BD284600F03BF92246CF
:100DD00001462846BDE8384000F01EB916230360DE
:100DE000012038BD162303604FF0FF3038BD00BF2F
:100DF0001F292CD838B5D0F818310C460546A3B1B8
:100E000053F8242003EB84034AB1511C0BD0012A70
:100E100007D0002520461D609047284638BD012098
:100E200038BD032038BD022038BD802100F0ACFB66
:100E30000346C5F8180138B1021F00217C3042F882
:100E4000041F9042FBD1DBE74FF0FF3038BD4FF07D
:100E5000FF30704738B5144B1F281D681ED8D5F8D1
:100E60001821044662B152F820304BB1012B05D055
:100E7000591C0FD0002142F820109847002038BD9F
:100E8000284600F0DFF8224601462846BDE83840F3
:100E900000F0C2B816232B60012038BD16232B604A
:100EA0004FF0FF3038BD00BF10000020124B1F284C
:100EB00070B51E6809D8D6F8183104460D464BB1F6
:100EC00053F8240043F8245070BD162333604FF0CC
:100ED000FF3070BD8021304600F056FB0346C6F857
:100EE00018010028F3D0021F00217C3042F8041FB3
:100EF0009042FBD1E4E700BF1000002038B50C4B56
:100F00001D68D5F818410CB1002038BD8021284655
:100F100000F03AFBC5F8180138B1031F00F17C025C
:100F200043F8044F9342FBD1EEE74FF0FF3038BD5A
:100F30001000002038B5184B1F281D6828D804461B
:100F4000D5F81801A0B150F8243000EB84004BB163
:100F50005A1C0BD0012B07D000250560204698476E
:100F6000284638BD012038BD032038BD022038BDD9
:100F70008021284600F008FBC5F8180140B1031F86
:100F800000F17C01002243F8042F9942FBD1DAE7FB
:100F90004FF0FF3038BD00BF1000002038B5074DBE
:100FA0000022044608462A6006F060FD431C00D07B
:100FB00038BD2B68002BFBD0236038BD040800200F
:100FC00038B50C46084D8446114620461A46002383
:100FD0002B60644606F056FD431C00D038BD2B68DC
:100FE000002BFBD0236038BD0408002038B50C4628
:100FF000084D8446114620461A4600232B6064465D
:1010000006F018FD431C00D038BD2B68002BFBD028
:10101000236038BD0408002070B50C46084D034617
:101020000026204611461C462E6006F0F5FC431CA7
:1010300000D070BD2B68002BFBD0236070BD00BFBB
:101040000408002006F0E6BC38B50C46084D84467E
:10105000114620461A4600232B60644606F0F8FC31
:10106000431C00D038BD2B68002BFBD0236038BD5B
:1010700004080020014B1868704700BF10000020D2
:1010800070B50F4B0F4DAB42A3EB050607D0B61062
:10109000002455F8043B01349847A642F9D80AF0D9
:1010A00077FB094D094B5E1BAB424FEAA60606D003
:1010B000002455F8043B01349847A642F9D870BD86
:1010C00020C4000820C4000820C4000828C4000868
:1010D00038B5074D074C2C1BA41005D0013C55F822
:1010E000043D9847002CF9D1BDE838400AF056BBC2
:1010F0002CC4000828C40008704700BF704700BF18
:10110000704700BF704700BF704700BF704700BF07
:101110000120704701207047704700BF704700BF33
:10112000844641EA000313F003036DD1403A41D3F2
:1011300051F8043B40F8043B51F8043B40F8043BB1
:1011400051F8043B40F8043B51F8043B40F8043BA1
:1011500051F8043B40F8043B51F8043B40F8043B91
:1011600051F8043B40F8043B51F8043B40F8043B81
:1011700051F8043B40F8043B51F8043B40F8043B71
:1011800051F8043B40F8043B51F8043B40F8043B61
:1011900051F8043B40F8043B51F8043B40F8043B51
:1011A00051F8043B40F8043B51F8043B40F8043B41
:1011B000403ABDD2303211D351F8043B40F8043BE1
:1011C00051F8043B40F8043B51F8043B40F8043B21
:1011D00051F8043B40F8043B103AEDD20C3205D3F1
:1011E00051F8043B40F8043B043AF9D2043208D0E9
:1011F000D2071CBF11F8013B00F8013B01D30B885B
:1012000003806046704700BF082A13D38B078DD038
:1012100010F003038AD0C3F10403D21ADB071CBF0A
:1012200011F8013B00F8013B80D331F8023B20F874
:10123000023B7BE7043AD9D3013A11F8013B00F8AD
:10124000013BF9D20B7803704B7843708B78837035
:10125000604670472DE9F8431B4D064628689846BE
:101260000F469146FFF752FF184B1C681CB32868C5
:1012700065681F2D22DC4EB96B1C0235636044F893
:101280002570FFF74BFF0020BDE8F88304EB8501D4
:101290000123C1F88890D4F88821AB401A43022E6C
:1012A000C4F88821C1F80881E6D1D4F88C211A430A
:1012B000C4F88C21E0E7064C1C60D8E7FFF72EFF4E
:1012C0004FF0FF30E0E700BF38010020B8090020F0
:1012D000280800202DE9F84306460820894602F038
:1012E0001DFBDFF8A4800546304600F007FCD8F867
:1012F00008305F6827F00307A7F11104A4EB090485
:101300002C44B4FBF5F4013C05FB04F4A54208DCD5
:101310000021304602F0F0FAD8F808303B449842F9
:1013200005D0304600F0F0FB0020BDE8F8836142B4
:10133000304602F0E1FA01300FD0114AD8F80830F7
:101340003F1B47F001075F60136830461B1B1360AB
:1013500000F0DAFB0120BDE8F8830021304602F0FE
:10136000CBFAD8F80820831A0F2BDADD43F00103FB
:101370005360044B02491B68C01A0860D1E700BFE4
:10138000C0090020480500204001002000297CD031
:101390002DE9F0410C46804600F0B0FB54F8043CC7
:1013A000764FA4F1080523F001016818BE68426871
:1013B000864222F0030200F08380DE07426000EBE9
:1013C000020C33D454F8084CDCF804302D1B2144B3
:1013D000AC6807F1080C644503F0010364D0D5F84C
:1013E0000CE0C4F80CE0CEF80840002B00F081803F
:1013F00041F001036B600160B1F5007F22D2786893
:10140000CB080122490901338A40024357F83310BF
:101410007A6007EBC302083AC5E9021247F8335075
:10142000CD604046BDE8F04100F06EBBDCF8043012
:10143000DB072BD541F00103B1F5007F44F8043CF4
:101440000160DCD3B1F5206F4FEA512353D28B09F1
:1014500003F1390003F13802C300F818FB580838CB
:10146000984203D163E09B68984204D05A6822F006
:1014700003028A42F7D8D868C5E902308560DD608A
:101480004046BDE8F04100F03FBB7047114407F112
:10149000080C836863453FD0C268DA60936041F00E
:1014A00001036B606950A7E7002B61D10A44D0E9C2
:1014B0000213CB60996042F001036B60AA50B0E761
:1014C000DB070A4407D454F8083CED1A1A44D5E95E
:1014D0000213CB60996042F001036B60284BBD6042
:1014E0001B6893429DD8274B40461968FFF7F2FED0
:1014F00097E71144CDE7142B08D9542B1FD80B0BB9
:1015000003F16F0003F16E02C300A6E703F15C0074
:1015100003F15B02C300A0E741F001033D617D617F
:10152000C5F808C0C5F80CC06B60695079E77968E8
:101530009210012404FA02F20A437A609CE7B3F5A0
:10154000AA7F06D8CB0B03F1780003F17702C30022
:1015500083E740F25452934206D88B0C03F17D008E
:1015600003F17C02C30078E74FF47E737E2274E7B8
:1015700041F001036B60016053E700BF40010020B0
:101580004C050020BC0900202DE9F04F01F10B05AE
:10159000162D83B0064624D8102900F2B08000F042
:1015A000ADFA102518224FF0020CC14F3A44A2F1B7
:1015B000080354689C4200F030816368E268A168C7
:1015C00023F003032344CA6091605A6842F0010289
:1015D00030465A60083400F097FA204603B0BDE860
:1015E000F08F35F0070500F18A80A94200F287806C
:1015F00000F084FAB5F5FC7FC0F079816B0A00F049
:101600008280042B00F23081AB0903F1390C03F125
:1016100038044FEACC03A64F3B44A3F108005B68B3
:10162000984206D10CE0002980F2E580DB68984200
:1016300006D05A6822F00302511B0F29F3DDA4469D
:10164000DFF870823C69444500F0C280636823F093
:101650000309A9EB05030F2B00F34E81002BC7E90B
:10166000048880F23881B9F5007FD7F804E080F073
:10167000DB804FEAD90101314FEA5919012303FAFE
:1016800009F357F83120A2604EEA030E07EBC103BD
:10169000083BE360C7F804E047F83140D4604FEA04
:1016A000AC0301209840704533D810EA0E0F07D1E3
:1016B0002CF0030C400010EA0E0F0CF1040CF9D0D2
:1016C00007EBCC0A5346E146D9680EE04A6822F09F
:1016D0000302A2EB050EBEF10F0F0C46C96800F322
:1016E000D080BEF1000F80F2E9808B42EED109F18B
:1016F000010919F0030F03F10803E5D128E10C23D8
:101700003360002469E74FF400734FF0400C3F242E
:1017100081E7BC68636823F00309A94503D3A9EBFB
:1017200005030F2B57DCDFF890B1DBF80020082011
:10173000103202EB050802F0F1F8D7F80814013175
:10174000024604EB090305D008F1FF38804441420A
:1017500001EA080841463046CDE9003202F0CCF8F3
:10176000B0F1FF3FDDE90032824600F0E2808342C3
:1017700000F2DD80DBF804104144CBF80410084689
:1017800002F1FF3C40F001811AEA0C0F40F0FD80AD
:10179000D7F808A0C84448F00100CAF80400DBF8F4
:1017A0002C208A42DBF8302038BFCBF82C108A423C
:1017B00038BFCBF83010544620F00308A845A8EBFA
:1017C000050301D30F2B06DC304600F09DF998E7A6
:1017D000D7F804E063E7621943F0010345F001051F
:1017E00065603046BA60536000F08EF908342046D8
:1017F00003B0BDE8F08FD3E902411A44E1608C6088
:10180000516841F001013046516003F1080400F0D5
:101810007BF9204603B0BDE8F08FD468A2427FF484
:10182000CCAE0CF1020C0BE7B9F5206F4FEA592250
:1018300076D3142A00F20B8102F15C03DB005B32E9
:10184000F918FB580839994203D1E8E09B6899429E
:1018500004D05A6822F003024A45F7D8D968C4E98F
:1018600002318C60DC601AE7142B65D9542B00F22E
:10187000F7802B0B03F16F0C03F16E044FEACC03DE
:10188000C9E63046A668631945F001056560F16058
:101890008E604EF00101C7E90433C3F80880C3F835
:1018A0000C80596044F802E000F02EF9083494E608
:1018B0004001002048010020BC090020224430469D
:1018C000536843F00103536054F8083FD9608B60BC
:1018D00000F01AF981E6A1443046D9F8043043F00B
:1018E0000103C9F80430083400F00EF975E64FEA38
:1018F000D50C05F1080258E6621943F0010145F0E4
:10190000010565603046C7E90422C2F80880C2F8C4
:101910000C80516044F8093000F0F6F808345CE6B9
:101920004FEA991202F13903DB00383288E7BC42F2
:1019300024D0BC6860683FE703F15C0C03F15B04F2
:101940004FEACC0367E65AF80839534540F0D38094
:101950001CF0030F0CF1FF3CF5D17B6823EA000378
:101960007B60400098423FF6D4AE18B9D1E6400003
:1019700009F104091842FAD0CC46A1E6DBF80400CC
:101980004044CBF8040002F1FF3CD7F808140131C1
:101990001BBFAAEB0303C018C7F808A4CBF80400C8
:1019A0001AF00703009343D0C3F108018A44D044DE
:1019B0000A4408EA0C01521A02EA0C01304601916D
:1019C00001F09AFF421C7AD00199A0EB0A0000EBCB
:1019D0000108DBF80420C7F808A048F00100114412
:1019E000BC42CAF80400CBF804103FF4D8AEB9F1F9
:1019F0000F0F40D96268A9F10C0020F0070002F037
:101A000001020243626022184FF0050C0F28C2F851
:101A100004C0C2F808C048D8DAF80400BFE6921043
:101A2000012000FA02F24EEA020EC7F804E016E7BF
:101A30000AEB080101EA0C01521A02EA0C013046D5
:101A4000019101F059FF431CBED10099C1E7542A0E
:101A500015D84FEA193202F16F03DB006E32EFE660
:101A6000B3F5AA7F15D8EB0B03F1780C03F17704DB
:101A70004FEACC03CFE50123CAF80430A4E6B2F55F
:101A8000AA7F23D84FEAD93202F17803DB007732FC
:101A9000D6E640F25452934223D8AB0C03F17D0CAE
:101AA00003F17C044FEACC03B5E504F108013046AC
:101AB000FFF76CFCDBF80410D7F808A0ACE7009B3C
:101AC000083B9844A8EB0A08002182E740F25453EF
:101AD0009A420CD84FEA994202F17D03DB007C3236
:101AE000AEE64FF47E734FF07F0C7E2493E54FF407
:101AF0007E737E22A4E67B6833E700BF0148FFF7D0
:101B000005BB00BF180800200148FFF707BB00BF56
:101B100018080020000000002DE9F04F2DED028B89
:101B2000D3B00C46CDE9080192460B9301F0DCFEE0
:101B300003681393184601F063FFA38912901D06F2
:101B400003D52369002B00F08A870023CDF810A06D
:101B5000CDE92733CDE91533CDE917330E9314932F
:101B60000793049B9FEDA27B1B7829AA8DED107B28
:101B700026929346002B00F0EB81DDF810A004E0E4
:101B80001AF8013F002B00F01C81252BF8D1049B93
:101B9000BAEB030540F01A819AF80030002B00F0F0
:101BA000D78100239AF801508DF87B3006930AF113
:101BB000010A4FF0FF3903930AF1010AA5F120034E
:101BC0005A2B00F23B81DFE813F0A50239013901FD
:101BD0009E023901390139016A0039013901660271
:101BE000780239017102850239017E025B005B00D7
:101BF0005B005B005B005B005B005B005B0039012E
:101C0000390139013901390139013901CF0139016E
:101C100034028700CF01CF01CF01390139013901E9
:101C20003901C20239013901B500390139013901DF
:101C30003E023901B0023901390101073901390188
:101C4000390139013901390139013901CF0139012E
:101C500034028B00CF01CF01CF01F2028B00800054
:101C60003901E8023901DA02B900C90280003901FC
:101C70003E027D00250739013901280739017D0021
:101C8000A5F1300300221AF8015B02EB820203EB9C
:101C90004202A5F13003092BF5D906928EE7089D83
:101CA000284601F021FE43681793184601F0A8FE6C
:101CB00018900446284601F017FE83681593002CFF
:101CC00040F070869AF8005076E7039B9AF800502F
:101CD00043F0200303936FE7039B43F01003039348
:101CE000039B9C0640F194810B9B073323F0070371
:101CF0001A46596852F8083B0B920A460029C0F26E
:101D0000BB85B9F1FF3F00F0F587039921F080060C
:101D100053EA020100F05A850A2B72F1000180F0AB
:101D20007C8730338DF847310DF2471303960493C7
:101D3000012634E0039B43F010030393039B13F04D
:101D4000200200F054810B9B073323F00703194650
:101D50005A6851F8083B0B91039921F480660021E1
:101D60000020B9F1FF3F8DF87B0000F0938226F050
:101D70008000039053EA020040F08B82B9F1000F1B
:101D800040F0C187002940F0268516F001061BBFF0
:101D900030238DF8473152AB0DF2471304930023E3
:101DA000B145CDE90C3349469DF87B200A93B8BF75
:101DB000314605910F93002A52D0059B01330593BC
:101DC0004EE0049BBAEB030500F0C280049B289F01
:101DD000CBE90035279B01332F44072B2897279306
:101DE0000ADC0BF1080B079B2B440793D4E600BFDA
:101DF0000000000000000000DDE9080126AA01F053
:101E0000A9FB80B90DF1A40BEDE7DDE9080126AAD5
:101E100001F0A0FB002800F08A800A9B1BB10A9900
:101E20000898FFF7B3FA099B9B89590601F1E582EF
:101E3000079853B0BDEC028BBDE8F08F002D00F089
:101E4000878000228DF8E4508DF87B200123CDE9B6
:101E50000C2205931E4639AB0A9291460F920493C9
:101E6000039B13F0020302D00599023105910399F7
:101E700011F0840405D1DDE905010F1A002F00F3EC
:101E80004183289F8AB1279A0DF17B0101320137E6
:101E9000CBF80010072A4FF0010128972792CBF8C2
:101EA000041000F387830BF1080B83B1279B1FAA53
:101EB00001330237CBF80020072B4FF0020228979E
:101EC0002793CBF8042000F383830BF1080B802CBD
:101ED00000F0FC81A9EB0608B8F1000F00F3428284
:101EE000039BDA0500F16D81049BCBF80030279B42
:101EF000CBF804600133F519072B2895279300F3DD
:101F0000AA820BF1080B039B580705D5DDE90523D1
:101F10009C1A002C00F36E83DDE9062305998A42A2
:101F2000ACBF9B185B180793002D7FF46EAF0023A6
:101F300027930A9B1BB10A990898FFF727FA0DF11E
:101F4000A40BCDF810A0049B1B78002B7FF415AEDA
:101F5000289B002B3FF467AF099C089826AA2146CE
:101F600001F0F8FAA38960E70B9B073323F007031E
:101F7000B3EC027B57EC176B0B9327F000431B93DA
:101F80008DED1A7ADDE91A01AE4B4FF0FF328DED7F
:101F9000107B05F0C3F9002840F09B84DDE91A01AD
:101FA000A84B4FF0FF3205F09BF9002840F09184D8
:101FB000002200233046394605F088F9002840F019
:101FC0005B879DF87B20039B9F4C23F0800303934A
:101FD0009E4B472DC8BF1C4603210023CDE90C337F
:101FE00004940A9305910E4699460F93E3E60B99E4
:101FF00051F8043B0B91039911F010017FF4ACAE42
:10200000039A12F0400000F019879BB20A46A3E63B
:102010000B9A52F8043B0B92039AD00600F15584B8
:10202000039A510640F14D8443F3C03211461BB26E
:1020300064E60B9B002253F8041B8DF87B208DF87F
:10204000E4100B9302E70B9F57F8043B0493002620
:102050008DF87B60002B00F09E86B9F1FF3F00F009
:102060000D8504984A46314601F06AFC0A90002822
:1020700001F025810A9B049A0B97B1469E1A26EA25
:10208000E673CDE90C999DF87B200593CDF8289057
:10209000CDF83C908FE60B9B53F8042B0692002A58
:1020A00080F20A84069A0B9352420692039B9AF896
:1020B000005043F0040303937EE52B239AF800506D
:1020C0008DF87B3078E5039B9AF8005043F080034D
:1020D000039371E5524612F8015B2A2D01F0198233
:1020E000A5F13003092B92464FF000093FF666AD8B
:1020F0001AF8015B09EB890903EB4909A5F13003E3
:10210000092BF5D95AE5039B9AF8005043F00103D7
:10211000039351E59DF87B309AF80050002B7FF433
:102120004BAD20238DF87B3046E5039B43F0100632
:1021300016F0200200F089830B9B073323F007037E
:1021400019465A6851F8083B0B91012108E6039B98
:102150009AF8005043F0080303932DE50B9A039B74
:1021600043F0020652F8043B0B9247F63002ADF8FA
:102170007C20374A1492022100227825F0E5039B47
:102180009E0640F1FD830B9B079A1B681A60D217CD
:102190005A600B9B04330B93D3E69AF80050039BD1
:1021A0006C2D00F0538443F01003039304E59AF878
:1021B0000050039B682D00F0408443F040030393DC
:1021C000FAE4652D40F35381DDE91001002200237C
:1021D00005F072F8002800F04982279B1D4ACBF8D1
:1021E0000020013301370122072B28972793CBF8D2
:1021F000042000F38E850BF1080B209B0E9A93426E
:1022000004DB039BDB0701D43D467CE6129B139A5B
:10221000DD19CBE90023279B28950133072B279352
:1022200000F3FE830BF1080B0E9B5C1E002C7FF766
:102230006AAE102C279B084F40F37885DDE90889AA
:10224000102611E0FFFFEF7F1CBA000820BA00083B
:102250002CBA00085CBA0008B8B700080BF1080BEC
:10226000103C102C40F3628501331035072BCBE96D
:102270000076CDE92735F1DD26AA4946404601F032
:1022800069F900287FF4C9ADDDE927350DF1A40B0C
:10229000E6E7039E01293FF43FAD022900F0768175
:1022A00052AC03F00701DB0843EA4273D208303135
:1022B00053EA0207204604F8011DF2D1F7070494FF
:1022C00000F1768252AB03961E1B68E5DDE905231B
:1022D000A3EB0208B8F1000F7FF7FCADB8F1100FC7
:1022E0003A46279BC04F29DD19951C961024DDE93D
:1022F0000865194606E0A8F11008B8F1100F0BF1B7
:10230000080B18DD013110320729CBE90074CDE943
:102310002712F0DD26AA294630460DF1A40B01F064
:1023200019F900287FF479ADA8F11008B8F1100F61
:10233000DDE92712E6DC199D1C9E0B460133CBF824
:102340000070072B08EB0207CDE92737CBF8048094
:1023500000F30E85A9EB0608B8F1000F0BF1080B8E
:102360007FF7BEADB8F1100F3A46279B9E4F2EDD8A
:102370005946089CC3464FF01009B84637462E46CA
:10238000099D06E0ABF1100BBBF1100F01F1080144
:1023900018DD013394481032072BC1E90009CDE95B
:1023A0002732EFDD26AA2946204601F0D3F800287F
:1023B0007FF433ADABF1100BBBF1100FDDE9273229
:1023C00029A9E6DC35463E464746D8468B460133CA
:1023D000CBF80070072B08EB0207CDE92737CBF8C5
:1023E000048000F325820BF1080B79E5279B7F49D8
:1023F000CBF8001001337D1C0121072B2895279372
:10240000CBF8041000F34A850BF1080B002A40F0CA
:10241000E084039B0E9A03F0010313433FF473AD72
:10242000129B139A5919CBE90023279B289101335A
:10243000072B279300F3EF850BF1080B049ACBF8D9
:1024400000200E9ACBF8042001335518072BCDE954
:1024500027357FF756ADDDE9080126AA01F07AF8A5
:1024600000287FF4DAAC289D0DF1A40B4BE50E9B00
:10247000012B0BF1080640F37A81049BCBF8003066
:10248000279B013301370122072B28972793CBF88D
:10249000042000F3F981129A03F10108139BD51966
:1024A000B8F1070FC6E90032CDE9278500F3F881BE
:1024B00008360E9BDDE9100103F1FF3900220023ED
:1024C00004F0FAFE002840F08B81049CC6F80490CA
:1024D00008F1010801344D44B8F1070FCDE9278513
:1024E000346000F359810836169A726008F10103CE
:1024F0001544072B22AACDE927353260ABDC06F163
:10250000080B00E5102FDDE92721DFF8E4802DDD41
:1025100019934346CDE91C45B046DDE908451E4602
:1025200004E0103F102F0BF1080B19DD01321031C0
:102530001023072ACDE92721CBF80060CBF804301F
:10254000EFDD26AA294620460DF1A40B01F002F882
:1025500000287FF462AC103F102FDDE92721E5DC75
:10256000DDE91C453046199B464680460132394418
:10257000072ACBF80080CBF804702891279200F34B
:10258000A9839DF87B200BF1080B7AE4149C52A9D7
:1025900003F00F001B09205C01F8010D43EA0273F0
:1025A000120953EA0200F3D152ABCDE903615E1A7E
:1025B000FFF7F5BBDDE9080126AA199300F0CAFF71
:1025C00000287FF42AAC289F199B0DF1A40B6CE422
:1025D000DDE9080126AA00F0BDFF00287FF41DAC4C
:1025E000289F0DF1A40B72E4B8B700085CBA00088C
:1025F000A8B70008102C279BDFF8CC8323DD4746C3
:10260000DDF82490DDF82080102604E0103C102C2A
:102610000BF1080B16DD01331035072BCBE90076E3
:10262000CDE92735F2DD26AA494640460DF1A40B37
:1026300000F090FF00287FF4F0AB103C102CDDE997
:102640002735E8DCB84601332544072BCBE9008465
:10265000CDE927357FF760ACDDE9080126AA00F057
:1026600079FF00287FF4D9AB289D55E4209A002AF1
:102670007FF7BCAE0C9E0E9B049A9E42A8BF1E46DE
:10268000002E134419930BDD279B01333744072B8E
:10269000CBE900262897279300F39F850BF1080BC1
:1026A0000C9D002EA8BFAD1B002D00F3EF81049BF5
:1026B0000C9A13449946039B5E0500F10C82209C02
:1026C0000E9B9C4203DB039AD50740F18E84129B3C
:1026D000139ADD19CBE90023279B28950133072B9B
:1026E000279300F3DE850BF1080B0E9B1C1B199B37
:1026F000A3EB0906A642A8BF2646002E0DDD279BA8
:10270000CBF8009001333544072BCBF804602895B3
:10271000279300F3E0850BF1080B002EA8BFA41B44
:10272000002C7FF7F0AB102C279BA64F40F3FE82C6
:10273000DDE90889102605E00BF1080B103C102C90
:1027400040F3F48201331035072BCBE90076CDE955
:102750002735F1DD26AA4946404600F0FBFE002859
:102760007FF45BABDDE927350DF1A40BE6E7039BB6
:10277000DC073FF582AE049BCBF80030279B03F1CA
:1027800001087D1C0123B8F1070F2895CDF89C8026
:10279000CBF804307FF7A8AEDDE9080126AA00F0E7
:1027A000D9FE00287FF439ABDDE9278529AE9BE609
:1027B000302900F0C882049A03963023023802F8C8
:1027C000013C52AB1E1A0490FFF7E9BAB9F1000FB1
:1027D0007FF4A7AA039652AB4E460493FFF7DFBAE5
:1027E0000E9B012B7FF780AE112B764F40F3E482D6
:1027F00043461024DDE9088B06E00836A9F11009EC
:10280000B9F1100F40F3D78201331035072BC6E919
:102810000074CDE92735F0DD26AA5946404600F080
:1028200099FE00287FF4F9AADDE9273529AEE5E70E
:10283000DDE9080126AA00F08DFE00287FF4EDAA4C
:10284000289F0DF1A40BFFF74BBB0B9951F8043BEC
:102850000B9116F010010CD116F0400004D00A467E
:102860009BB20121FFF77CBA16F400721CBFDBB2E9
:1028700002460121FFF774BA5B42039E62EB4202FB
:102880002D200121FFF76DBADDE9080126AA00F02D
:1028900061FE00287FF4C1AADDE9273729AEFAE5F9
:1028A000DDE9080126AA00F055FE00287FF4B5AA4C
:1028B000DDE9278529AEFCE59AF800500B93FFF778
:1028C0007BB9039A920500F1A083DA171146FFF74E
:1028D00015BADDE9100102460B4604F01FFD002881
:1028E00040F0CC85612D00F09584412D00F00385EA
:1028F000B9F1FF3F00F0AA8325F02003472B04D154
:10290000B9F1000F08BF4FF00109DDE91001039C88
:10291000002944F480720592C0F2B584002341EC92
:10292000180B19930A93A5F14103252B00F2C482D9
:10293000DFE813F09603C202C202C2028F039303C0
:10294000C202C202C202C202C202C202C202C20267
:10295000C202C202C202C202C202C202C202C20257
:10296000C202C202C202C202C202C202C202C20247
:10297000C202C202C202C202C202C2028F03930397
:10298000039BDD0600F10182039B5C0600F13783A7
:10299000039B980540F1F9810B9B079A1B681A70FD
:1029A000FFF7F7BB159B9AF80050002B3FF404A9E2
:1029B0001B78002B3FF400A9039B43F4806303932F
:1029C000FFF7FAB8B8B70008A8B70008BD4B1493D2
:1029D000039B13F0200200F002810B9B073323F0CE
:1029E000070319465A6851F8083B0B910398C10731
:1029F0000AD553EA020107D040F0020103913021C9
:102A00008DF87D508DF87C10039921F480660221A9
:102A1000FFF7A6B9039EFFF78BBBAB4B1493D7E729
:102A2000DDE9080126AA00F095FD00287FF4F5A94C
:102A3000289D0DF1A40BFFF7F7BB43F400739AF840
:102A4000015003930AF1010AFFF7B6B843F02003DF
:102A50009AF8015003930AF1010AFFF7ADB80898FC
:102A60004021FEF791FD099B18601861002800F0D5
:102A7000C184099A40235361FFF767B804980B9704
:102A800000F0BEFFB1460646FFF7F9BA102D3A46F0
:102A9000279B8E4F40F3E181DDE90848102605E0D1
:102AA0000BF1080B103D102D40F3D781013310328C
:102AB000072BCBE90076CDE92732F1DD26AA414686
:102AC000204600F047FD00287FF4A7A9DDE9273262
:102AD0000DF1A40BE6E70D99CDF870A05A463846E3
:102AE0007A4EDDF854A0189BDDF824B04F464FF025
:102AF0001008DDF83C9081B3B9F1000F00F0FD80C3
:102B000009F1FF391799C2E90013279901311844D7
:102B100007292890279173DC0832199C9AF8001035
:102B2000E51B8D42A8BF0D46002D0CDD2799013114
:102B300028440729C2E900752890279100F30981EC
:102B40009AF800100832002DACBF4C1B0C46002C2C
:102B500012DC0F440D990029CED1B9F1000FCFD16D
:102B6000199BCDF854A0B9469945DDF870A093465D
:102B7000074628BF9946A2E5102C279940F3908478
:102B8000089D04930C9604E0103C102C02F10802FE
:102B900015DD013110300729C2E90068CDE92710A1
:102BA000F2DD26AA5946284600F0D4FC00287FF41E
:102BB00034A9103C102CDDE9271029AAE9DC049B7C
:102BC0000C9D1560013120440729CDE92710546080
:102BD00000F310839AF8001008320F44BAE70B99FB
:102BE00051F8043B0B91039911F010017FF4FEAEF4
:102BF000039A12F0400000F029819BB20A46F5E6E4
:102C00000898049326AA594600F0A4FC00287FF4F3
:102C100004A92898049B29AA7FE70021CDE904563E
:102C200006F48067DFF8A880159ECDF80CA052ACA2
:102C30008C4605E00A2B72F1000235D353462A4632
:102C4000991841F10001A8FB010525F0030000EBF4
:102C50009500091A581A4FF0CC3562F1000E05FBA9
:102C600000F508FB0E55A0FB08A005440AF0010E74
:102C70000520AEFB000E40184FEA5A0A303004F827
:102C8000010C4AEAC57A0CF1010C013C6D08002FD9
:102C9000D0D031788C45CDD1BCF1FF0FCAD00A2BF2
:102CA00072F1000280F0ED801596DDE9045652AB1A
:102CB000DDF80CA0CDF838C0CDE903641E1BFFF78A
:102CC0006EB800BF40BA00082CBA0008B8B70008B8
:102CD000CDCCCCCCDDE9080126AA199300F03AFC52
:102CE00000287FF49AA89DF87B20199B0DF1A40B76
:102CF000FFF7C7B8039EFFF70FB80D9901390AF126
:102D0000FF3A0D91FEE60129039E7FF4C6AAFFF764
:102D100008B8DDE9080126AA00F01CFC00287FF4B1
:102D20007CA8289F0DF1A40BFFF767BA0133254457
:102D3000072BCBF80070CBF80440CDE927357FF79F
:102D4000E0A8FFF788BB049A039652AB9E1AFFF7E0
:102D500026B80898049326AA594600F0FBFB0028E1
:102D60007FF45BA89AF800102898049B29AAEAE649
:102D7000DDE9080126AA00F0EDFB00287FF44DA84C
:102D8000289F0DF1A40BFFF7A5B80B9B079A1B68B2
:102D90001A60FFF7FEB94E46062E1A4628BF0626D1
:102DA00099460A93C14B0596CDE90C220B970493E3
:102DB0000F92FFF700B8984608F101084D44B8F1AA
:102DC000070FCDE927853760C6F804907FF78BABF6
:102DD000E2E4129B13985919CBE90003279B289131
:102DE0000133072B279300F316810BF1080B002A00
:102DF000BFF624AB56421032AD4F80F2D382DDE9EC
:102E00000848102505E00BF1080B103E102E40F38A
:102E1000C98201331031072BCBE90075CDE9273189
:102E2000F1DD26AA4146204600F094FB00287EF4FE
:102E3000F4AFDDE927310DF1A40BE6E7039A12F4B4
:102E400000721CBFDBB20246FEF786BF039A12F483
:102E500000721CBFDBB20246C8E50133CBF800703C
:102E6000072B05EB0207CDE92737CBF8045000F319
:102E7000E0800BF1080B1AE42D228DF87B20FFF780
:102E8000A2B8189B1799E41A1A46204600F0F6FCDF
:102E9000737803B101364FF0000CCFE6DDE908018D
:102EA00026AA00F057FB00287EF4B7AF209A289D91
:102EB0000DF1A40BFFF7AABA4F46022124AB0193F0
:102EC00021AB00930898B0EE480AF0EE680A20ABF8
:102ED0003A4600F0CBFE672D049000F00E82472D9D
:102EE00000F09D82049B25F02008B8F1460F03EB0B
:102EF000070605D11B78302B00F0E482209F3E446A
:102F000051EC180B0022002304F0D6F9002800F041
:102F100040813346049A9B1A0E93209A0C92B8F182
:102F2000470F00F02481B8F1460F00F0FE81531ED8
:102F3000612D209300F0DE82412D40F02081502150
:102F40000120002BB6BFC2F101032B222D22092B39
:102F50008DF888108DF8892040F33D820DF1970699
:102F6000544F32461046A7FB0312D20802EB8201EF
:102F7000A3EB4101303100F8011C194663291346C7
:102F800000F1FF32EEDC303302F8013C831EB34225
:102F900080F0BC820DF1890213F8011B02F8011FB9
:102FA000B342F9D152AB181AA0F1AD0316930E9BA0
:102FB000169A012B03EB020640F32D82129B1E444E
:102FC00024F4806343F4807303930023CDE90C332E
:102FD00026EAE6720F930592199B002B40F0D280EF
:102FE0009DF87B209946FEF7E6BE199A1C1BA2EBC2
:102FF0000906A6423D46A8BF2646FFF78EBB0B9B9F
:10300000079A1B681A80FFF7C4B843F3C012114631
:103010005BB2FEF773BEDDE9080126AA00F09AFA5A
:1030200000287EF4FAAEDDE92731209A0DF1A40BD9
:10303000DDE6DDE9080126AA00F08CFA00287EF41E
:10304000ECAE289F0DF1A40BFFF731BB4FF0060942
:103050005BE409F10107022130E74F4603212DE728
:1030600020A8B0EE480AF0EE680A00F035FD002214
:103070004FF07F5351EC100B03F0B6FE00220023FB
:1030800006460F4604F018F9002840F0BB810A4BB1
:10309000039309F1FF33CDE91C9B0D95CDE90E4A51
:1030A000DDF81080DDF80CB01D460DE054BA0008C4
:1030B000B8B70008CDCCCCCC40BA00080022002321
:1030C00004F0FAF8F0B94D46AD4B002230463946CF
:1030D00003F08AFE0F46064604F036F90446FDF773
:1030E000C1F90B46024639463046FDF76DF81BF82C
:1030F0000430C24608F8013B6B1C05F1FF39064657
:103100000F46DBD19F4B0C950022304639460D9D72
:103110000D94DDE91C9B0E9CCDF838A0DDF83CA099
:1031200004F0F2F8002840F00E81964B3046394604
:10313000002204F0C1F818B10D9BDF0700F10381F4
:103140000C9B002BC0F21A810C9B013343443022AC
:1031500008F8012B4345FBD1049A9B1A0E9325F0E6
:103160002008DAE6049A249B9B1A209A0E93D31C1B
:103170000C9201DB914518DA531E023D2093E9B20F
:103180000020DEE62D228DF87B204FF00009FEF7AF
:1031900014BE249BB342BFF4BDAE30215A1C24920E
:1031A0001970249B9E42F9D8B4E60E9B934200F31B
:1031B000AB80E30740F16081129BD618670502D50A
:1031C000002A00F33381059B039326EAE6730593F7
:1031D000672500230F930D93FEE6DDE9080126AA7B
:1031E00000F0B8F900287EF418AE289F0DF1A40B6A
:1031F000FFF756BA0898049326AA594600F0AAF990
:1032000000287EF40AAE9AF800102898049B29AA98
:103210000F449FE478238DF87D3030238DF87C3087
:10322000039BB9F1630F43F0020400F3AF80002366
:103230000A9339AB0493039B43F481730593119B69
:10324000002B23DB9DED108B00231993612D7FF460
:103250006AABB0EE480AF0EE680A20A800F03CFC29
:1032600000224FF07F5351EC100B03F0BDFD002204
:10327000002306460F4604F01FF8002840F0C280E5
:10328000414B039305E70023039C0A93DDE91023D8
:1032900003F1004308EE903A2D2308EE102A19930B
:1032A000D4E7DDE9080126AA00F054F900287EF4ED
:1032B000B4AD209C289D0DF1A40BFFF716BA4E4625
:1032C000CDF81490CDE90C009DF87B200B9781463A
:1032D0000F90FEF770BDDDE9080126AA00F03AF96B
:1032E00000287EF49AAD209C0E9B289D1C1B0DF19E
:1032F000A40BFFF712BA58238DE7E6077FF532AF2C
:10330000C6194FF04708FBE50E9B129A9E180C9BBE
:10331000002B40F3C8806725620500F18880059B7B
:10332000039326EAE673059353E70C9A04F001032E
:10333000002A43EA090340F3D580002B40F0BD800A
:103340000C9E6625E8E70E9B039A2493D17B18F820
:10335000013C8B42424609D1302002F8010C249AEC
:10336000531E249312F8013C9942F6D0392B0BBF1F
:10337000039B01339B7ADBB202F8013C4346EBE648
:10338000000030400000E03F2CBA0008089809F126
:103390000101FEF7F9F80490002800F0C980049BB1
:1033A0000A9348E701333144072BCDE92731CBF8A5
:1033B0000070CBF804607FF73FA8DDE9080126AA7A
:1033C00000F0C8F800287EF428ADDDE927310DF1C2
:1033D000A40BFFF733B8002840F0818030228DF82D
:1033E0008A200DF18B02303302F8013B22ABD31A55
:1033F0001693DCE5089A0C2313604FF0FF33079314
:10340000FEF716BD4E4B4F4A612D18BF1A460123D9
:10341000039220933DE6E2077FF5D2ADCEE5E107CA
:103420007FF5A0AE049BA846DE1969E567251599CE
:103430000B78FF2B78D000240C9A204603E0013053
:103440000131FF2B08D0934206DAD21A4B78002BB9
:10345000F5D10B780134F4E715910D900F940C928F
:10346000059B0D9A03930F9B1344189A02FB036666
:1034700026EAE6730593AFE516469FE6119B324CAC
:10348000002B039BA8BF9DF87B2023F08003B8BFCF
:103490002D220393B8BF8DF87B202C4BFEF799BDEE
:1034A0002B4DFFF78EBBC3F101031E44059A039217
:1034B00026EAE673059367258BE6129BD6184E44E1
:1034C000662529E751EC180B0022002303F0F4FED7
:1034D00000287FF413ADC7F1010720970FE50DF128
:1034E0008A0280E743B9059B039301230593662570
:1034F0001E466EE6702123E5059B0393129B5E1C1E
:103500004E4426EAE6730593662562E60223169387
:103510004DE50B9B9AF80150924653F8042B0B9300
:1035200042EAE279FEF748BB00230F930D9397E739
:1035300009998B8943F0400213468A81FEF775BCD6
:1035400040BA00082CBA000824BA000828BA0008BB
:10355000B8B700082DE9F843154692682C68FAB10F
:1035600080468946083401E00834CFB16B68591EA3
:10357000002B1746696013DD54F8046C002EF3D05D
:10358000334654F8082C4946404601F0E1FF431CFD
:1035900007D0AA68921B1746AA600834002FE5D10D
:1035A00000200023C5E90133BDE8F88370B5002988
:1035B0003FD005460C4610B1436B002B3CD0636EE8
:1035C000B4F90C20DE0732D4900538D521462846C0
:1035D00000F054F8E36A064633B1E169284698479B
:1035E0000028B8BF4FF0FF36A3891A0639D4216BE3
:1035F00041B104F14003994202D02846FDF7C6FECE
:1036000000232363616C21B12846FDF7BFFE002330
:103610006364FDF71DFA636E0022DB07A2811CD5EF
:10362000A06DFDF76FFDFDF719FA304670BD002A59
:10363000CCD10026304670BDFDF7EAF9BFE7A06D9A
:10364000FDF764FDB4F90C30002BBFD1636ED907D0
:10365000EFD4A06DFDF762FDEBE7A06DFDF75EFD19
:10366000DEE721692846FDF791FEC0E7024B0146DF
:103670001868FFF79BBF00BF10000020B1F90C20B5
:103680002DE9F0410C46110780464BD4616842F4A5
:1036900000630029A38160DDA56A002D3FD00021D1
:1036A00012F48052D8F80060C8F80010E16961D1C6
:1036B00001234046A847431C02466BD0B4F90C30A6
:1036C000A56AE1695F0705D56368D21A236B0BB160
:1036D000E36BD21A00234046A847451C4CD1D8F8CA
:1036E00000101D293DD8324AB4F90C300A4112F0BD
:1036F000010238D162602269226023F40062A28153
:10370000DA0452D4216BC8F8006041B104F14003DF
:10371000994202D04046FDF739FE00232363002082
:10372000BDE8F0812669002EF9D025682660910752
:103730000CBF63690023AD1BA3600BE02B46324630
:10374000E169676A4046B847B0F1000CA5EB0C058B
:10375000664406DD002DF1DCE1E7E16B00299BDC2E
:10376000DDE7B4F90C3043F04003A3814FF0FF30A4
:10377000BDE8F081226DA5E7B4F90C302269226022
:1037800023F40062A281DB044FF000026260B9D52D
:103790002065B7E7D8F80030002B8FD01D2B01D063
:1037A000162BDED1C8F80060B9E70029AAD1EFE7EF
:1037B000FEFFBFDF38B50C46054608B1436B03B3C7
:1037C000B4F90C0088B1636EDB0701D481050FD515
:1037D00028462146FFF752FF636EDA07054602D4FA
:1037E000A3899B0508D5284638BD0546284638BD1F
:1037F000A06DFDF78BFCEBE7A06DFDF78FFC284675
:1038000038BDFDF705F9DBE750B338B5174B1D6838
:1038100004460DB16B6BBBB1B4F90C0088B1636E9B
:10382000DB0701D4810513D528462146FFF726FF83
:10383000636EDA07054602D4A3899B050CD528469A
:1038400038BD0546284638BD2846FDF7E1F8E3E7D0
:10385000A06DFDF75BFCE7E7A06DFDF75FFCEEE711
:10386000034A04490448FDF723B900BF10000020B3
:1038700000000020B53700081800002040EA0103CE
:103880009B0710B501D1032A17D8844601F1FF3EEA
:1038900007E01EF8011F03F8011B541E29B19C46C6
:1038A00022466346002AF4D110BD9444002CFBD07C
:1038B00003F8011B6345FBD110BD8E468446DEF83C
:1038C0000040A4F1013323EA040313F0803F714662
:1038D0000EF1040EDAD1043A032A4CF8044BEED868
:1038E0007146D3E7F030704700487047400600202B
:1038F000004870474006002038B5074D00220446B6
:1039000008462A6004F0C0F8431C00D038BD2B687C
:10391000002BFBD0236038BD04080020082802D10A
:103920004FF48050704708B5FDF7A4FB16230360E1
:103930004FF0FF3008BD00BF000000000000000095
:1039400001F0FF01102A2BDB10F0070F08D010F850
:10395000013B013A8B422DD010F0070F42B3F6D154
:10396000F0B441EA012141EA014122F007047FF06D
:1039700000070023F0E80256083C85EA010586EAC4
:10398000010685FA47F5A3FA87F586FA47F6A5FA00
:1039900087F68EB9EED1F0BC01F0FF0102F007020C
:1039A00032B110F8013B013A83EA010313B1F8D1B7
:1039B0000020704701387047002D06BF3546033898
:1039C000073815F0010F07D1013015F4807F02BFD1
:1039D000013015F4C03F0130F0BC0138704700BF22
:1039E00000000000000000000000000000000000D7
:1039F00000000000000000000000000000000000C7
:103A000030B490F800F020F007016FF0000C10F0D7
:103A1000070491F820F040F048804FF000046FF068
:103A20000700D1E9002391F840F000F1080082FA84
:103A30004CF2A4FA8CF283FA4CF3A2FA8CF34BBB4F
:103A4000D1E9022382FA4CF200F10800A4FA8CF2C8
:103A500083FA4CF3A2FA8CF3E3B9D1E9042382FA96
:103A60004CF200F10800A4FA8CF283FA4CF3A2FAAB
:103A70008CF37BB9D1E9062301F1200182FA4CF2E3
:103A800000F10800A4FA8CF283FA4CF3A2FA8CF34A
:103A9000002BC6D0002A04BF04301A4612BAB2FA6C
:103AA00082F200EBD20030BC7047D1E9002304F071
:103AB0000305C4F100004FEAC50514F0040F91F8A6
:103AC00040F00CFA05F562EA05021CBF63EA050343
:103AD00062464FF00004AAE753EC102B70B5154E68
:103AE00023F000410025B142044605601FD8164668
:103AF0000E431CD0104E1E4018465EB910461946A3
:103B000000220E4B03F070F96FF0350502460846AF
:103B100021F0004120F0FF40091520F4E000A1F25F
:103B2000FE3140F07F53294443F40013216043ECFD
:103B3000102B70BDFFFFEF7F0000F07F00005043AF
:103B40002DE9F04F03690C69A34283B0C0F28A806B
:103B5000013C01F1140500F1140855F8243058F81F
:103B6000242001339A428E4681464FEA840105EBB8
:103B7000840708EB840AB2FBF3F63AD3CDE90015CB
:103B80000022AC46404613465CF8041B05681FFA49
:103B900081FB06FB0B22090C4FEA124B06FB01BB13
:103BA00092B2A9B2891A19441FFA8BF3C3EB2143CD
:103BB00003EB154389B241EA0341674540F8041B12
:103BC0004FEA1B424FEA2343DED2DDE9001558F8E5
:103BD000013073B9AAF1040AD04504D307E0D045F7
:103BE00004F1FF3403D25AF80439002BF7D0C9F896
:103BF00010407146484601F03DFA00282EDB414650
:103C0000002255F8040BD1F800C01FFA80FE1FFAFD
:103C10008CF3A3EB0E031344020CC2EB234202EB22
:103C20001C429BB243EA0243AF4241F8043B4FEAD5
:103C30002242E6D258F8242008EB84036AB9043BF8
:103C4000984504D307E0984504F1FF3403D253F8B4
:103C50000429002AF7D0C9F810400136304603B0D5
:103C6000BDE8F08F002003B0BDE8F08F2DE9F04FE4
:103C70009FB08DED040B0091816B289D029057EC55
:103C8000106B0A92089349B1C26B4A6001239340BA
:103C900004468B6000F034FF0023A363B7F10009F2
:103CA000B4BF012300232B60754BBCBF29F0004932
:103CB000CDF8149033EA090300F0A8809DED047B51
:103CC000002251EC170B00238DED067B03F0F4FA74
:103CD000804668B1089A01231360299B13B1299A81
:103CE000684B1360684B039303981FB0BDE8F08FD7
:103CF0009DED060B02981CAA1DA901F01FFB5FEAAF
:103D00001955824640F09880DDE91C85454405F24E
:103D10003243202B40F38283C3F1400309FA03F9B5
:103D200005F2124326FA03F349EA0300FCF78AFB83
:103D30000123013D1193A1F1F871544B0022FCF7CE
:103D400043FA49A3D3E9002303F04EF848A3D3E98B
:103D50000023FCF73BFA064628460F46FCF782FB99
:103D600045A3D3E9002303F03FF802460B46304653
:103D70003946FCF72BFA06460F4603F0E5FA002217
:103D8000834600233046394603F0A0FA002840F06D
:103D90001983A8EB0508BBF1160F08F1FF3400F2F8
:103DA0008B813B4D05EBCB05D5E90023DDE9060111
:103DB00003F08CFA002871D00023002C0BF1FF3B9C
:103DC0001093C0F27E8100230B93BBF1000F6BDADE
:103DD0000B9BA3EB0B030B93CBF10003CDE90EB3CD
:103DE000009B092B4FF0000B66D8052B40F31B837B
:103DF000043B00930025009B023B032B00F222862C
:103E0000DFE813F05E045B0453043704089AC9F337
:103E1000130942F20F7359EA060913601CD1299B5A
:103E2000002B00F02A861B4B03930833299A039832
:103E300013601FB0BDE8F08FDDE90612C2F3130373
:103E4000084643F07F51CDF84480A5F2FF35DDF8F8
:103E5000708041F4401170E7299B002B40F0E6830D
:103E60000D4B039340E700BF61436F63A787D23FC9
:103E7000B3C8608B288AC63FFB799F501344D33F59
:103E80000000F07F5DBA00085CBA00080000F83F4F
:103E9000D8B7000860BA00086CBA0008B8F1000F83
:103EA00040F35D8410900B9000230F93009BCDF89E
:103EB00038B0092B5C4498D900234FF0FF32CDE98C
:103EC0000923012500930C95029B0021D963099BCE
:103ED0001893029800F0EEFD0390002800F0BB85D7
:103EE000DDE902329A63099B0E2B00F21481002D4A
:103EF00000F011810E9A002A40F33884B14D02F08F
:103F00000F0305EBC3031511D205D3E9008940F176
:103F1000F883AD4BDDE90601D3E9082303F08EF801
:103F2000CDE9120105F00F0503277DB1A64EEB0781
:103F300008D540464946D6E9002302F055FF01372F
:103F4000804689466D1006F10806F0D142464B4680
:103F5000DDE9120103F072F880468946109B43B1F7
:103F60009A4B00224046494603F0B0F9002840F041
:103F7000F0843846FCF776FA42464B4602F034FFAE
:103F8000934B0022FCF722F9099B0646A1F15077DA
:103F9000002B00F0A9800E9B1993099B1293039BA1
:103FA000884D49464046CDE914675E1C03F0CCF9C4
:103FB000129905EBC10313ED027B07468DED167BCD
:103FC000FCF750FA02460B4640464946FCF7FCF81F
:103FD00089460C993037DDE916238046FFB2002967
:103FE00000F052847B49002003F028F8DDE9142317
:103FF000FCF7EAF8039D02460B46CDE914232F7027
:1040000042464B4603F080F9002840F09684CDE903
:104010001AB4CDF858A0129DDDE914AB00272AE0B0
:104020000137AF4280F2DD846B4B50465946002287
:1040300002F0DAFE684B002282468B464046494633
:1040400002F0D2FE8946804603F07EF90446FCF772
:1040500009FA02460B4640464946FCF7B5F83034AB
:1040600006F8014B52465B468046894603F02EF91E
:10407000002840F0B38442464B4654490020FCF7E8
:10408000A3F852465B4603F021F90028C8D0199BDB
:10409000DDF858A0039A374603F1010802E0974281
:1040A00000F07B843E4617F8013D392BF7D00133F1
:1040B000DBB23B70454674E10123002C1093BFF640
:1040C00082AEC8F101030B9300247EE63846FCF76C
:1040D000C9F942464B4602F087FE3D4B0022FCF7F1
:1040E00075F80646A1F150773C4B40464946002200
:1040F000FCF76AF832463B468046894603F004F9ED
:10410000002840F0598440464946324607F10043B2
:1041100003F0DCF828BB1D9B002BC0F291800E9AA7
:104120000E2A00F38D80274D0E9B05EBC30595ED00
:10413000007B0A9B002B8DED007B19DA099B002B7D
:1041400016DC0ED1254B0022DDE9000102F04CFE09
:1041500002460B46DDE9060103F0C2F8002800F034
:104160002B844FF00009039E4F460A9BDD4324E257
:10417000DDE90045DDE9068922462B4640464946F1
:1041800002F05CFF03F0E0F80646FCF76BF922460C
:104190002B4602F029FE039F0B4602464946404645
:1041A000FCF712F806F1300307F8013B099B012BDD
:1041B00000F010830125CDF810A09946DDE900AB91
:1041C000A8462BE0D8B70008C8B800080000F03FA8
:1041D00000001C400000E03F0000244000001440AC
:1041E00052465B462046294602F028FF03F0ACF811
:1041F0000646FCF737F952465B4602F0F5FD08F13A
:1042000001080B46024629462046FBF7DDFF06F172
:104210003003C84507F8013B00F0DA82B94B0022B1
:1042200002F0E2FD0022002304460D4603F044F8AC
:104230000028D5D00E9DDDF810A001353E46B0E037
:104240000C9A002A40F0D28000230F9E0B9D0C9305
:104250001F4655B1002C08DDA5420B9A2B46A8BF7E
:104260002346D21A0B92ED1AE41A0F9B53B10C9B02
:1042700013B1002E40F0E78251460F9A029800F0E9
:1042800027FE82460298012100F03EFD8146BBF1E7
:10429000000F40F0B681009B012B40F3CC81012040
:1042A000204410F01F0000F09A80C0F12003042B7E
:1042B00040F3DA810B9BC0F11C0003440B930544CF
:1042C00004440B9B002B05DD514602981A4600F072
:1042D00059FE8246002C05DD49460298224600F030
:1042E00051FE8146109B002B40F07081099B002BF2
:1042F00040F348810C9B002B40F0A4800E9D0135BB
:10430000DDF80C80099CDDF808B0012607E0514675
:1043100000230A22584600F0FDFB0136824649463A
:104320005046FFF70DFCA64200F1300308F8013BB0
:10433000EDDB099A002AC8BF1646039AD8BF0126AA
:1043400002EB060B0024514601220298009300F074
:1043500019FE4946824600F08DFE002840F3E281B6
:10436000039A02E05A4500F0E8815E460BF1FF3BFC
:1043700016F8013C392BF5D001338BF80030DDF80D
:1043800008804946404600F0BBFB57B12CB1BC4207
:1043900003D02146404600F0B3FB0298394600F0B6
:1043A000AFFB0298514600F0ABFB00233370089B33
:1043B0001D60299B002B3FF497AC03981E601FB033
:1043C000BDE8F08F5846FCF74DF832463B4602F008
:1043D00073FF00287FF4DDAC0BF1FF3BD9E41C2315
:1043E0000B9A1A440B921D441C446AE7009A012A56
:1043F00040F3A881099B0F9A5E1EB242C0F26A8107
:10440000002BA2EB060680F2DD820B9B099A9D1A17
:104410000298012100F078FC07461AE7C3F1200357
:1044200006FA03F082E40125E5E439460023029808
:104430000A2200F06FFB189B002B074640F3EF8227
:104440000E960993002D00F33E81BBF1000F40F062
:10445000DE81B846039E099C731E1C44049B03F036
:104460000103CDE90B43029C49465046FFF768FB28
:1044700039468346504600F0FDFD42464946054612
:10448000204600F019FEC26801460BF13003002AF5
:104490003AD1CDE90903504600F0ECFD09990690A8
:1044A000204600F02DFB069A0A9B002A5AD1009A5A
:1044B0001AB90C9A002A00F09A82002D45DB0B9A5B
:1044C000B346B2420BF8013B00F0B88151460023DD
:1044D0000A22204600F01EFB4745824639464FF02F
:1044E00000034FF00A02204636D000F013FB41468D
:1044F000074600230A22204600F00CFB5E46804659
:10450000B2E700BF000024400298069300F0F8FADA
:10451000002D069B06DB049A009902F001020D4370
:104520002A432AD1514601220298009300F02AFD25
:104530004946824600F09EFD0028009B40F3E7803C
:10454000392B00F02F820BF131030E9D06F8013B51
:104550003C460135474612E700F0DCFA5E46074666
:10456000804681E7002DC0F27D8200990D430C99B1
:104570000D4300F07782002AA1DD392B00F0128272
:104580000133E2E7009B022B7FF7B4AE099B002BBF
:1045900040F01C8149460522029800F0BBFA014612
:1045A0008146504600F066FD002840F30F81039ECF
:1045B0000E9D312306F8013B01350298494601352D
:1045C00000F09EFA002F7FF4E8AEEAE64946504636
:1045D00000F050FD0028BFF689AE51460023029836
:1045E0000A2200F097FA0E9B5E1E0C9B8246002B5F
:1045F0007FF41BAF189B002B40F3FF810E9D0993A6
:104600007EE601465A46029800F062FC009B012BB0
:1046100081466BDD4FF0000BD9F8103009EB8303B6
:10462000186900F01FFBC0F1200039E6924B03939C
:104630000333FFF7FBBB049B002B7FF430AEDDE9B7
:104640000412C2F31303002B7FF429AE8B4B1340EB
:1046500023B10B9B01330B9301340123BBF1000FFA
:1046600040F0AE819B461AE63FF42BAEC0F13C030E
:10467000B6E601230C930A9B0E9A13441893013358
:10468000012B1E460993B8BF0126172E40F3D58192
:10469000012204235B0003F11400B042114602F131
:1046A0000102F7D9029BD96313E401230C930A9EFC
:1046B000002E32DD18960996E7E700230C93DAE71F
:1046C00000230C93F3E7394602982A4600F05AFC7F
:1046D0000746BAE60F9B0B9A0F96F31A9B44099B69
:1046E00015461A441C440B92002691E6049B002BAD
:1046F00090D1DDE90401C1F313030A46002B89D1EF
:10470000A4E79DED067B02278DED127B0DE47FF47F
:104710001CAFDA077FF519AF12E70123CDE90933A2
:10472000FFF7D2BB03D1009BDB073FF519AE5E4616
:104730001BF8013D302BFAD021E6039A31230135D5
:1047400013701CE6119A002A00F0FA8003F233433A
:104750000B9A0F9E15461A441C440B9258E6C8F15A
:10476000010304460B931090FFF79EBB00F0EC8012
:104770000E9B434D5E4206F00F0305EBC303D3E9E6
:104780000023DDE9060102F02FFB3511CDE912010E
:1047900000F04E813B4E0023022780468946E80701
:1047A00009D5D6E900234046494602F01DFB0137F2
:1047B0008046894601236D1006F10806EFD1002BD3
:1047C0007FF4CCABDDE91289FFF7C8BB039ECCE4D4
:1047D000DDF810A00E9D02460B46FBF7F7FC0246E3
:1047E0000B46CDE904230135DDE90023A84602F09C
:1047F0008BFD40B9DDE90023DDE9040102F05CFD39
:1048000018B1F10701D5039A4CE43E46C9E5796831
:10481000029800F04FF90546002800F027813B6917
:1048200002339A0007F10C010C30FCF779FC029876
:104830002946012200F0A6FB80460BE60E9D3C4671
:10484000013547467FE5DDF8088039463246404667
:1048500000F03EFB524601460746404600F082FA11
:1048600051468246404600F04BF90F9B9B1B0F932D
:104870003FF408AD00E500BF6CBA00080000F07F0F
:10488000D8B70008C8B80008DDE9140102F0ACFA96
:10489000039B1F70129B012BCDE90C0100F0C68019
:1048A000129F039BCDF844B01F447C4B002240462E
:1048B000494602F099FA8946804602F045FD834652
:1048C000FBF7D0FD0BF1300B02460B464046494644
:1048D000FBF77AFC06F801BBB74280468946E4D173
:1048E000DDF844B06E4B0022DDE90C01FBF76EFCF5
:1048F00002460B464046494602F006FD002867D1B5
:10490000DDE90C2366490020FBF75EFC02460B46FE
:104910004046494602F0DAFC48B91D9B002BFFF6E1
:1049200093AC0E9B0E2B3FF78FACFFF7FDBB3E46C3
:10493000013F16F8013C302BF9D0199D013530E5C7
:104940001C9BC3F1360303E7DDE906890227FFF765
:1049500005BB099B002B3FF4B9AB189B002B7FF7DD
:10496000DAAB0E9A1293013A4C4B19924046002250
:10497000494602F039FA80468946781CFBF772FDF9
:1049800042464B4602F030FA464B0022FBF71EFC33
:104990000646A1F15077FFF702BB08F10108312369
:1049A000FFF787BB0E9D039AB34639233C460BF8AD
:1049B000013B01354746D8E44FF000094F46F6E584
:1049C0009B4629E60B9A15461A441C440B921FE598
:1049D000199B039A03F10108FFF764BBDDF858A0A7
:1049E000ABE7DDE91AB4DDF858A0FFF794BB392B2B
:1049F000D8D0002D3FF7A7ADA7E5009B022B0ADC1E
:104A0000189B099349460E9DFFF79AF8039A00F107
:104A1000300313708DE4189B09930E96B6E5009B46
:104A2000022BF8DC189B0E9609930BE5374659E7E5
:104A3000DDE912890227FFF791BA029B0021D963B1
:104A4000FFF747BA029B0025DD632946184600F0B0
:104A500031F80390A8B9144B1448002240F2AF116A
:104A600000F056FE002A7FF770AD5BE50E4B0F4855
:104A70002A4640F2EF2100F04BFE0D4B0393FFF767
:104A800033B9DDE902329A634FF0FF3301220A9510
:104A900018930C920993FFF73EBB00BF000024401F
:104AA0000000E03F00001C4070BA000884BA000813
:104AB00060BA0008436C70B505460C464BB153F81C
:104AC000240080B1026843F824200023C3600361FE
:104AD00070BD2122042100F041FE034668640028D5
:104AE000EDD1002070BD012101FA04F6721D920083
:104AF000284600F033FE0028F3D0C0E90146E4E781
:104B000031B1436C4A6853F82200086043F8221020
:104B1000704700BF2DE9F0410D6907460E461C465F
:104B200001F1140E0020DEF800108BB202FB0343EB
:104B30004FEA134C090C02FB01CC01309BB203EB92
:104B40000C4385424EF8043B4FEA1C44EBDC3CB17D
:104B5000B368AB4207DD06EB850301355C61356167
:104B60003046BDE8F081716838460131FFF7A2FF99
:104B70008046A8B13269023206F10C0192000C3075
:104B8000FCF7CEFA7B6C726853F82210316043F860
:104B90002260464606EB850301355C613561DFE73F
:104BA000024B03484246BA2100F0B2FD70BA000839
:104BB000C0BA00082DE9F8431746274A1E460833B5
:104BC0000C46092E82FB03124FEAE3730546C3EB42
:104BD000620339DD4FF0010C00214FEA4C0C6345B4
:104BE00001F10101F9DC2846FFF764FF014668B3D3
:104BF000089B4361092F4FF00103036112DC0A3463
:104C00000927BE420BDDF61B264414F8013B0A229D
:104C1000303B2846FFF77EFFA6420146F5D1084605
:104C2000BDE8F88304F10909C8463C4418F8013B83
:104C30000A22303B2846FFF76DFFA0450146F5D11B
:104C4000A7F108044C44DCE70021CCE70A46034BFB
:104C50000348D32100F05CFD398EE33870BA0008B8
:104C6000C0BA0008B0F5803F034636BF03040020F9
:104C70001020B3F1807F3CBF1B020830B3F1805F8E
:104C80003CBF1B010430B3F1804F03D3002B06DB84
:104C9000013070479B0003D45B0003D42020704791
:104CA0000230704703307047036813F00702014673
:104CB00007D0DA071FD4980721D55B080B600120C5
:104CC000704798B2A0B11046DAB20AB908301B0A90
:104CD0001A0704BF1B0904309A0704BF9B0802305F
:104CE000DA0703D45B0800F1010006D00B607047BF
:104CF0001B0C1020E8E700207047202070479B081D
:104D00000B600220704700BF38B5436C04460D4667
:104D10004BB15868B0B102685A6000220123456166
:104D2000C260036138BD2122042100F017FD034653
:104D300060640028EDD1094B0948002240F245117A
:104D400000F0E6FC1C220121204600F007FD0028AF
:104D5000F1D00122022342608360DEE770BA0008CE
:104D6000C0BA00082DE9F04FD1F810801569A845A8
:104D700085B00E46924605DB2A46534645468A468E
:104D800090461E46DAF80830DAF8041005EB0804FD
:104D9000A342B8BF0131FFF78DFE8446002800F022
:104DA0008B8000F1140707EB840E774505D23B4654
:104DB000002243F8042B9E45FBD8143606EB8808E6
:104DC0000AF11409464509EB850566D2A5EB0A03ED
:104DD000153B23F003030AF1150A043355452CBF94
:104DE0009B464FF0040BCDF808E00394AE46E24634
:104DF00005E0090C2AD1B04507F104074AD956F855
:104E0000041B8DB2002DF4D0CC463C460023019605
:104E10005CF8040B216886B28AB2000C05FB0622FE
:104E2000090C1A4405FB001101EB124192B242EA4F
:104E30000142E64544F8042B4FEA1143E8D8019EAD
:104E400047F80B3056F8041C090CD4D03B680022FC
:104E500048461D463C469446028801FB02C202EBCE
:104E600015429BB243EA024344F8043B50F8043B2A
:104E700025684FEA134CABB201FB0C3303EB124332
:104E800086454FEA134CE7D8B04547F80B3007F199
:104E90000407B4D8DDE902E4D446002C02DC05E0C6
:104EA000013C03D05EF8043D002BF9D06046CCF8FD
:104EB000104005B0BDE8F08F034B044862464FF444
:104EC000B17100F025FC00BF70BA0008C0BA00083C
:104ED00012F003032DE9F041144607462CD10D468C
:104EE000A4101CD03E6C86B3E3074FF0000806D434
:104EF000641014D03068A8B10646E307F8D53246EE
:104F000029463846FFF72EFF35B17B6C696853F8A8
:104F100021202A6043F8215064100546EAD1284632
:104F2000BDE8F081324631463846FFF71BFF30605E
:104F3000C0F800800646E0E7013B0F4A52F8232004
:104F40000023FFF7E7FD0546CAE701213846FFF7D2
:104F5000B1FD064640B1012340F27122C0E904329E
:104F6000002338640360BFE7044B0548324640F233
:104F7000451100F0CDFB00BFC8B7000870BA0008AB
:104F8000C0BA00082DE9F0470C4690462769A3688F
:104F9000496807EB62177D1C9D4206464FEA62197D
:104FA00004DD5B009D4201F10101FADC3046FFF7B0
:104FB00081FD8446002851D0B9F1000F00F11400A2
:104FC0000EDD09F105024FEA820E03460CEB820268
:104FD000002143F8041B9342FBD1AEF114031844A3
:104FE000216904F1140318F01F0803EB81012DD08F
:104FF000C8F1200986464FF0000A1A6802FA08F242
:1050000042EA0A024EF8042B53F8042B994222FA82
:1050100009FAF2D80B1B153B23F00303043304F108
:105020001502914238BF042340F803A0BAF1000FE3
:1050300000D13D46736C6268CCF8105053F82210D2
:105040002160604643F82240BDE8F087043853F8F9
:10505000042B40F8042F9942F9D8EAE7034B04489F
:1050600062464FF4EF7100F053FB00BF70BA0008C6
:10507000C0BA00080B6984460069C01A16D10CF149
:10508000140C14310CEB830210B401EB830301E028
:10509000944508D252F8044D53F8041D8C42F7D0C1
:1050A00005D24FF0FF305DF8044B70477047012088
:1050B0005DF8044B704700BF2DE9F04F13690F698D
:1050C000FF1A002F83B00D46904615D101F114064A
:1050D000143202EB830206EB830301E09E4276D298
:1050E00053F8044D52F8041D8C42F7D006D22B46DB
:1050F00001274546984601E0F9DB00276968FFF77C
:10510000D9FC8146002876D02E69C760D8F81000F7
:1051100005F1140B08F1140E09F1140A05F1100140
:105120000EEB80000BEB860257464FF0000CCDF8DB
:1051300004B05EF8044B51F8045F1FFA84FBABB275
:10514000A3EB0B03240C6344C4EB154404EB23448E
:105150009BB243EA0443704547F8043B4FEA244CB2
:10516000E7D8A0EB0801153989084C1CDDF804B01C
:1051700008F11508A400404538BF04240BEB0405D2
:10518000AA42544430D92746284650F8043B1CFA1A
:1051900083FE190C634401EB2E419BB243EA0143A9
:1051A000824247F8043B4FEA214CEED8013A521BA9
:1051B00022F00302144423B954F8043D013E002BAD
:1051C000FAD04846C9F8106003B0BDE8F08F00215E
:1051D000FFF770FC8146A8B101220023C0E9042337
:1051E000484603B0BDE8F08F8900404538BF002134
:1051F0000AEB0104DFE7074B07484A4640F2452126
:1052000000F086FA034B04484A4640F2372100F08A
:105210007FFA00BF70BA0008C0BA000882B08DEDF6
:10522000000B164B019A1340A3F15073002B06DDBF
:1052300000221946104641EC100B02B070475B4249
:10524000B3F1A07F4FEA235209DA4FF40023134150
:1052500000221946104641EC100B02B07047A2F133
:1052600014031E2BDABF4FF00042DA400122002364
:105270001946104641EC100B02B070470000F07F59
:10528000F8B5046900F1140606EB8404271F54F8EE
:10529000045C2846FFF7E6FCC0F120030A280B60F7
:1052A00033DDBE42A0F10B0119D254F8080C21B332
:1052B000C1F120078D4020FA07F215438840A4F180
:1052C000080145F07F538E4243F4401319D254F83D
:1052D0000C1CF9400843024643EC102BF8BD0B2888
:1052E0000AD005FA01F141F07F53002043F4401346
:1052F000024643EC102BF8BD002045F07F5343F4E9
:105300004013024643EC102BF8BDC0F10B0C25FAFC
:105310000CF1BE4241F07F5338BF54F8081C00F135
:10532000150034BF21FA0CF1002105FA00F0084302
:1053300043F44013024643EC102BF8BD2DE9F04333
:105340000E4683B0012159EC108B1546FFF7B2FBD6
:105350000446002846D0C9F30A57C9F313030FB116
:1053600043F480130193B8F1000313D101A8FFF7B0
:105370009BFC019B63610122203022610FB3A7F2E5
:1053800033470744C0F1350037602860204603B03A
:10539000BDE8F08368460093FFF786FC019BF8B1F7
:1053A0000099C0F1200203FA02F2C3400A430193BC
:1053B000002B62610CBF01220222A3612261002F37
:1053C000DDD104EB8203A0F2324030601869FFF7B0
:1053D00049FCC0EB42102860204603B0BDE8F083D2
:1053E000009AE5E7034B0448224640F20F3100F0F3
:1053F0008FF900BF70BA0008C0BA00082DE9F04369
:1054000083B00E4669460746FFF73AFF01A93046CA
:1054100055EC104BFFF734FF33693A69D21ADDE9D6
:1054200000315B1A03EB4213002B51EC100B0DDD26
:1054300005EB03594D4602460B462046294601F02E
:10544000FDFD41EC100B03B0BDE8F083C3EB03336B
:1054500001EB03573946EEE7172870B506460CDD19
:105460000A490B4D0020002422462B4601F0BCFCCB
:10547000013EF9D141EC100B70BD064B03EBC003AC
:10548000D3E9040141EC100B70BD00BF0000F03FF8
:1054900000002440C8B700080139491101F1010C8E
:1054A000116902F1140303EB81018B4200EB8C0CB8
:1054B00016D210B5A0F1040E53F8044B4EF8044F69
:1054C0009942F9D88B1A153B23F00303043318448F
:1054D000844504D9002340F8043B8445FBD810BD23
:1054E000844505D9002340F8043B8445FBD8704728
:1054F000704700BF03694A11934200F1140009DAB2
:1055000000EB830302E053F8042DAAB98342FAD8D2
:105510000020704700EB8203F8DD11F01F01F5D089
:1055200010B450F8224024FA01F28A40944209D083
:1055300001205DF8044B70470120704753F8042D9B
:10554000002AF5D18342F9D800205DF8044B70475A
:105550002DE9F0478F681D46AF420B680C46164692
:1055600036D8B1F90CC01CF4906F0ED13D461846E8
:105570002A46314600F04CF8A2682368D21B2B441F
:10558000A26023600020BDE8F0874A69096902EB48
:1055900042025F1A02EBD2726B1C52103B449342E0
:1055A00092BF914699461A461CF4806F804611D0EE
:1055B0001146FBF7E9FF824600B321693A46FBF743
:1055C000AFFDA38923F4906343F08003A38105E03A
:1055D0002F46CCE700F018F9824658B10AEB0703D2
:1055E000A9EB0707A760C4F810A0C4F814902360C3
:1055F0002F46BCE721694046FBF7C8FEA3890C2271
:1056000043F04003C8F800204FF0FF30A381BAE711
:1056100088420ED98B1883420BD900EB020C002A6A
:105620006ED0624613F801CD02F801CD9942F9D14E
:1056300070470F2A0FD8034602F1FF3C002A5FD0C3
:105640000CF1010C013B8C4411F8012B03F8012FE4
:105650006145F9D1704740EA01039B0751D1A2F19E
:10566000100370B501F1200C23F00F0501F1100EAD
:1056700000F11004AC441B095EF8105C44F8105CA7
:105680005EF80C5C44F80C5C5EF8085C44F8085C5E
:105690005EF8045C44F8045C0EF1100EE64504F17B
:1056A0001004E9D1013312F00C0F01EB031102F0E9
:1056B0000F0400EB031328D0043C24F003064FEA48
:1056C000940C1E441C1F8E465EF8045B44F8045F75
:1056D000B442F9D10CF1010402F0030203EB84039C
:1056E00001EB840102F1FF3C4AB10CF1010C013BDA
:1056F0008C4411F8012B03F8012F6145F9D170BDDD
:10570000704702F1FF3C03469AE72246EAE700BFF2
:1057100000B50B4C25681446EE681A4685B0034662
:105720000D464CB107490095CDE9011430460649B4
:1057300000F032FAFBF740F804490C46F3E700BFEB
:10574000100000200CBB00081CBB000818BB0008A0
:1057500008B513460022FFF7DBFF00BF38B5A1FBF9
:10576000021454BBFBF710FF054650B350F8042C4D
:1057700022F00302043A242A10D8132A13D91B2A30
:105780000460446016D9242A8460C46011BF00F10B
:10579000100200F118020461446105E02146FBF7A4
:1057A0006BFA284638BD02460023136053609360AD
:1057B000284638BD00F10802F6E7FBF75BFC0C2336
:1057C00003600025284638BD10B4034CD4F8E440EB
:1057D000A4465DF8044B60475005002082B049B1F3
:1057E0005AB16BB113780B601278101E18BF0120EC
:1057F00002B0704701A9002AF3D1104602B07047E9
:105800006FF00100F4E700BF2DE9F84F16460029BC
:1058100000F096800C46804606F10B05FCF76EF909
:1058200054F8041C162DA4F1080921F0030758D8D8
:105830001025AE4258D8AF4260DABE4B9A6809EBE9
:10584000070C6245DCF8040000F0908020F00103B2
:1058500063445B68DA0768D420F003003B189D427C
:1058600047DDCB0712D454F8083CA9EB030BDBF857
:10587000043023F00302104400EB070A554540F3BF
:10588000F68007EB020A554540F3CC80314640468E
:10589000FBF77AFE0646002800F0208154F8043C0D
:1058A00023F001034B44A0F10802934200F0B480BE
:1058B0003A1F242A00F2D780132A00F2A28003465E
:1058C0002246116819605168596092689A602146B1
:1058D0004046FBF75BFD4046FCF716F93046BDE855
:1058E000F88F35F00705A4D50C23C8F80030002642
:1058F00018E01F46DCE90223D3609A60D9F804302F
:105900007A1B0F2A03F0010309EB07001DD83B4364
:10591000C9F80430436843F0010343604046FCF794
:10592000F3F826463046BDE8F88FC907AED454F8E0
:10593000083CA9EB030BDBF8043023F00302A0E7DB
:10594000BDE8F84F1146FBF71FBE09EB05012B43DD
:1059500042F00102C9F804304A60436843F0010391
:10596000436008314046FBF711FDD7E720F0030004
:10597000C21905F1100C624580F29180CA0785D4E6
:1059800054F8082CA9EB020BDBF8042022F00302E8
:10599000104400EB070AD4453FF773AF5E46DBF8CF
:1059A0000C1056F8080F3A1F242AC160886000F2D4
:1059B000AE80132A40F2A9802168CBF808106168F4
:1059C000CBF80C101B2A00F2A88008340BF110024F
:1059D0002168116061685160A16891600BEB05015D
:1059E000AAEB050242F0010299604A60DBF804303C
:1059F00003F001032B434046CBF80430FCF784F856
:105A000090E723680360636843601B2A3CD804F175
:105A1000080200F1080354E750F8043C23F00303A4
:105A20001F446BE73A1F5E46DBF80C3056F8081F40
:105A3000242ACB60996022D8132A1ED92368CBF878
:105A400008306368CBF80C301B2A3BD808340BF1C4
:105A5000100322681A6062685A60A2689A6034462D
:105A60005746D9464AE72146FFF7D2FD2FE7DCE942
:105A700002133A1FCB609960D5E73346E9E7214628
:105A80003046FFF7C5FDEAE7A3688360E368C360BB
:105A9000242A27D004F1100200F1100311E709EBCA
:105AA00005019960531B43F001034B6054F8043C1B
:105AB00003F001032B43404644F8043CFCF724F870
:105AC00026462FE7A368CBF81030E368CBF81430F4
:105AD000242A10D010340BF11803BAE74046FCF723
:105AE00013F804E7236903616169416104F1180255
:105AF00000F11803E5E62369CBF818306369CBF8A9
:105B00001C3018340BF12003A3E7324660E721462E
