:020000040800F2
:100000000000022005240008C51A0008C91A0008CB
:10001000CD1A0008D11A0008D51A00080000000007
:10002000000000000000000000000000D91A0008D5
:10003000DD1A000800000000E11A0008E51A0008B7
:1000400055240008552400085524000855240008AC
:10005000552400085524000855240008552400089C
:10006000552400085524000855240008E91A000802
:10007000F51A0008011B00080D1B0008191B0008D9
:10008000251B0008311B00085524000855240008D2
:100090003D1B00085524000855240008552400087D
:1000A000552400085524000855240008552400084C
:1000B0005524000855240008C51B000855240008D5
:1000C000552400085524000855240008552400082C
:1000D00055240008D11B0008DD1B0008E91B00089F
:1000E000552400085524000855240008552400080C
:1000F000552400085524000855240008F51B000865
:100100005524000855240008011C00085524000847
:100110000D1C0008191C000855240008552400086F
:1001200055240008552400085524000855240008CB
:1001300055240008552400085524000855240008BB
:1001400055240008552400085524000855240008AB
:100150005524000855240008251C000855240008D3
:10016000552400085524000855240008552400088B
:1001700055240008552400085524000800000000FC
:08018000552400085524000875
:1001880081F0004102E000BF83F0004330B54FEA40
:1001980041044FEA430594EA050F08BF90EA020FAD
:1001A8001FBF54EA000C55EA020C7FEA645C7FEA40
:1001B800655C00F0E2804FEA5454D4EB5555B8BF63
:1001C8006D420CDD2C4480EA020281EA030382EAD4
:1001D800000083EA010180EA020281EA0303362D66
:1001E80088BF30BD11F0004F4FEA01314FF4801C39
:1001F8004CEA113102D0404261EB410113F0004F4B
:100208004FEA03334CEA133302D0524263EB430301
:1002180094EA050F00F0A780A4F10104D5F1200E9F
:100228000DDB02FA0EFC22FA05F2801841F10001FA
:1002380003FA0EF2801843FA05F359410EE0A5F1CE
:1002480020050EF1200E012A03FA0EFC28BF4CF0FF
:10025800020C43FA05F3C01851EBE37101F00045B5
:1002680007D54FF0000EDCF1000C7EEB00006EEBC2
:100278000101B1F5801F1BD3B1F5001F0CD349084C
:100288005FEA30004FEA3C0C04F101044FEA4452A3
:1002980012F5800F80F09A80BCF1004F08BF5FEA2A
:1002A800500C50F1000041EB045141EA050130BD0A
:1002B8005FEA4C0C404141EB0101013C28BFB1F51C
:1002C800801FE9D291F0000F04BF01460020B1FA67
:1002D80081F308BF2033A3F10B03B3F120020CDA3A
:1002E8000C3208DD02F1140CC2F10C0201FA0CF018
:1002F80021FA02F10CE002F11402D8BFC2F1200C7D
:1003080001FA02F120FA0CFCDCBF41EA0C01904032
:10031800E41AA2BF01EB0451294330BD6FEA04047B
:100328001F3C1CDA0C340EDC04F11404C4F1200266
:1003380020FA04F001FA02F340EA030021FA04F378
:1003480045EA030130BDC4F10C04C4F1200220FACF
:1003580002F001FA04F340EA0300294630BD21FA0D
:1003680004F0294630BD94F0000F83F4801306BFD3
:1003780081F480110134013D4EE77FEA645C18BFC7
:100388007FEA655C29D094EA050F08BF90EA020F5E
:1003980005D054EA000C04BF1946104630BD91EA56
:1003A800030F1EBF0021002030BD5FEA545C05D159
:1003B8004000494128BF41F0004130BD14F5800498
:1003C8003CBF01F5801130BD01F0004545F0FE410C
:1003D80041F470014FF0000030BD7FEA645C1ABF41
:1003E800194610467FEA655C1CBF0B46024650EA78
:1003F800013406BF52EA033591EA030F41F40021A4
:1004080030BD00BF90F0000F04BF0021704730B529
:100418004FF4806404F132044FF000054FF00001FE
:1004280050E700BF90F0000F04BF0021704730B5BF
:100438004FF4806404F1320410F0004548BF404294
:100448004FF000013EE700BF42004FEAE2014FEAE9
:1004580031014FEA02701FBF12F07F4393F07F4FC4
:1004680081F06051704732F07F4208BF704793F0C7
:100478007F4F04BF41F40021704730B54FF46074DA
:1004880001F0004521F000411CE700BF50EA0102DD
:1004980008BF704730B54FF000050AE050EA010286
:1004A80008BF704730B511F0004502D5404261EBF6
:1004B80041014FF4806404F132045FEA915C3FF437
:1004C800D8AE4FF003025FEADC0C18BF03325FEAD4
:1004D800DC0C18BF033202EBDC02C2F1200300FA85
:1004E80003FC20FA02F001FA03FE40EA0E0021FAAA
:1004F80002F11444BDE600BF4FEA4102B2F1E04305
:1005080024BFB3F5001CDCF1FE5C0DD901F0004CF2
:100518004FEAC0024CEA5070B2F1004F40EB830042
:1005280008BF20F00100704711F0804F21D113F16E
:100538003872BCBF01F00040704741F480114FEAA7
:100548005252C2F11802C2F1200C10FA0CF320FA30
:1005580002F018BF40F001004FEAC1234FEAD3234D
:1005680003FA0CFC40EA0C0023FA02F34FEA4303B7
:10057800CCE77FEA625307D150EA01331EBF4FF040
:10058800FE4040F44000704701F0004040F0FE405B
:1005980040F40000704700BF53B94AB9002908BFAA
:1005A80000281CBF4FF0FF314FF0FF3000F0E2B8D9
:1005B800ADF1080C6DE904CE04F000FCDDF804E0B0
:1005C800DDE9022304B0704700F1340191E83800F6
:1005D8009C46A6464CF8045D90E8FF0FE54600BD32
:1005E80090EC210B704700BF80EC210B704700BFD7
:1005F80090EC200B704700BF80EC200B704700BFC9
:10060800D0EC200B704700BFC0EC200B704700BF38
:10061800F0EC0201F0EC0211F0EC0221F0EC0231F6
:10062800F0EC0241F0EC0251F0EC0261F0EC0271E6
:10063800F0EC0281F0EC0291F0EC02A1F0EC02B1D6
:10064800F0EC02C1F0EC02D1F0EC02E1F0EC02F1C6
:10065800704700BFE0EC0201E0EC0211E0EC02217F
:10066800E0EC0231E0EC0241E0EC0251E0EC026126
:10067800E0EC0271E0EC0281E0EC0291E0EC02A116
:10068800E0EC02B1E0EC02C1E0EC02D1E0EC02E106
:10069800E0EC02F1704700BFB0FC0181B0FC0191B1
:1006A800B0FC01A1B0FC01B1704700BFA0FC018102
:1006B800A0FC0191A0FC01A1A0FC01B1704700BF02
:1006C800EC4600B52DE900502DE9FF1F4FF000035F
:1006D8002DE90C0001A904F0FCFDDDF840E012B0A2
:1006E800704700BFEC4600B52DE900502DE9FF1F0B
:1006F8004FF000032DE90C0001A904F021FEDDF8FC
:1007080040E012B0704700BFEC4600B52DE900503C
:100718002DE9FF1F4FF000032DE90C0001A904F09B
:100728002FFEDDF840E012B0704700BFEC4600B580
:100738002DE900502DE9FF1F4FF000032DE90C00B3
:1007480001AB04F0F3FDDDF840E012B0704700BFE4
:10075800EC4600B52DE900502DE9FF1F4FF00003CE
:100768002DE90C0001AA04F05DFEDDF840E012B0AE
:10077800704700BF704700BF08B5062000F0F8F8C2
:10078800012001F05BFA00BF002301461A46184613
:1007980000F09ABA830730B547D0541E002A3ED0DD
:1007A800CAB2034601E0013C39D303F8012B9D0787
:1007B800F9D1032C2CD9CDB205EB05250F2C05EB6F
:1007C800054535D9A4F1100222F00F0C03F1100EE3
:1007D800E6444FEA121C1A46156055609560D560CC
:1007E80010327245F8D10CF1010214F00C0F03EB32
:1007F800021204F00F0C13D0ACF1040323F003032E
:100808000433134442F8045B9A42FBD10CF003040E
:100818002CB1C9B21C4403F8011B9C42FBD130BD6A
:1008280064461346002CF4D1F9E703461446C0E7A2
:100838001A46A446E0E700BF38B5D0F818410CB115
:10084800002038BD8021054600F0D8FB0246C5F8D7
:10085800180130B1031F7C3243F8044F9342FBD197
:10086800EEE74FF0FF3038BD30B51F2983B005469D
:1008780009D8D0F818310C4653B153F8240043F87E
:10088800242003B030BD162303604FF0FF30F8E793
:100898008021019200F0B2FB019AC5F818010346C5
:1008A8000028F2D0011F00F17C05002041F8040F58
:1008B800A942FBD1E1E700BF1F2938B505461FD87B
:1008C800D0F818210C466AB152F8213053B1012BE7
:1008D80006D0591C10D0002142F824102046984711
:1008E800002038BD284600F0FDF82246014628467B
:1008F800BDE8384000F0E0B816230360012038BD99
:10090800162303604FF0FF3038BD00BF1F292CD8D5
:1009180038B5D0F818310C460546A3B153F8242051
:1009280003EB84034AB1511C0BD0012A07D00025E0
:1009380020461D609047284638BD012038BD032059
:1009480038BD022038BD802100F058FB0346C5F8A9
:10095800180138B1021F00217C3042F8041F904270
:10096800FBD1DBE74FF0FF3038BD4FF0FF30704769
:1009780038B5144B1F281D681ED8D5F81821044611
:1009880062B152F820304BB1012B05D0591C0FD061
:10099800002142F820109847002038BD284600F072
:1009A800A1F8224601462846BDE8384000F084B840
:1009B80016232B60012038BD16232B604FF0FF3023
:1009C80038BD00BF00000020124B1F2870B51E68FC
:1009D80009D8D6F8183104460D464BB153F824000F
:1009E80043F8245070BD162333604FF0FF3070BDBC
:1009F8008021304600F002FB0346C6F818010028A3
:100A0800F3D0021F00217C3042F8041F9042FBD132
:100A1800E4E700BF0000002038B50C4B1D68D5F88E
:100A280018410CB1002038BD8021284600F0E6FAB4
:100A3800C5F8180138B1031F00F17C0243F8044FD0
:100A48009342FBD1EEE74FF0FF3038BD00000020A5
:100A580038B5184B1F281D6828D80446D5F8180142
:100A6800A0B150F8243000EB84004BB15A1C0BD0D5
:100A7800012B07D00025056020469847284638BD39
:100A8800012038BD032038BD022038BD802128460A
:100A980000F0B4FAC5F8180140B1031F00F17C0159
:100AA800002243F8042F9942FBD1DAE74FF0FF30D8
:100AB80038BD00BF0000002070B50C46084D034645
:100AC8000026204611461C462E6001F0AFF8431C54
:100AD80000D070BD2B68002BFBD0236070BD00BF19
:100AE8008C06002001F0A0B8014B1868704700BFC1
:100AF8000000002070B50F4B0F4DAB42A3EB05066D
:100B080007D0B610002455F8043B01349847A64294
:100B1800F9D805F055F8094D094B5E1BAB424FEA71
:100B2800A60606D0002455F8043B01349847A6428F
:100B3800F9D870BDB4640008B4640008B46400084F
:100B4800BC64000838B5074D074C2C1BA41005D011
:100B5800013C55F8043D9847002CF9D1BDE83840D0
:100B680005F034B8C0640008BC640008704700BFD2
:100B7800704700BF704700BF704700BF704700BF95
:100B8800704700BF0120704701207047704700BFC1
:100B9800704700BF844641EA000313F003036DD198
:100BA800403A41D351F8043B40F8043B51F8043B28
:100BB80040F8043B51F8043B40F8043B51F8043B2F
:100BC80040F8043B51F8043B40F8043B51F8043B1F
:100BD80040F8043B51F8043B40F8043B51F8043B0F
:100BE80040F8043B51F8043B40F8043B51F8043BFF
:100BF80040F8043B51F8043B40F8043B51F8043BEF
:100C080040F8043B51F8043B40F8043B51F8043BDE
:100C180040F8043B51F8043B40F8043B51F8043BCE
:100C280040F8043B403ABDD2303211D351F8043B6E
:100C380040F8043B51F8043B40F8043B51F8043BAE
:100C480040F8043B51F8043B40F8043B103AEDD21D
:100C58000C3205D351F8043B40F8043B043AF9D26E
:100C6800043208D0D2071CBF11F8013B00F8013B41
:100C780001D30B8803806046704700BF082A13D34E
:100C88008B078DD010F003038AD0C3F10403D21A66
:100C9800DB071CBF11F8013B00F8013B80D331F89A
:100CA800023B20F8023B7BE7043AD9D3013A11F81A
:100CB800013B00F8013BF9D20B7803704B78437085
:100CC8008B788370604670472DE9F8431B4D0646C4
:100CD800286898460F469146FFF752FF184B1C6844
:100CE8001CB3286865681F2D22DC4EB96B1C0235C1
:100CF800636044F82570FFF74BFF0020BDE8F883D8
:100D080004EB85010123C1F88890D4F88821AB4011
:100D18001A43022EC4F88821C1F80881E6D1D4F814
:100D28008C211A43C4F88C21E0E7064C1C60D8E7F4
:100D3800FFF72EFF4FF0FF30E0E700BF280100204B
:100D480040080020B00600202DE9F8430646082098
:100D5800894600F02BFCDFF8A4800546304600F0F9
:100D680007FCD8F808305F6827F00307A7F11104DB
:100D7800A4EB09042C44B4FBF5F4013C05FB04F492
:100D8800A54208DC0021304600F0FEFBD8F8083008
:100D98003B44984205D0304600F0F0FB0020BDE807
:100DA800F8836142304600F0EFFB01300FD0114A62
:100DB800D8F808303F1B47F001075F6013683046DA
:100DC8001B1B136000F0DAFB0120BDE8F88300214B
:100DD800304600F0D9FBD8F80820831A0F2BDADD4B
:100DE80043F001035360044B02491B68C01A0860B2
:100DF800D1E700BF48080020380500203001002056
:100E080000297CD02DE9F0410C46804600F0B0FB6B
:100E180054F8043C764FA4F1080523F00101681842
:100E2800BE684268864222F0030200F08380DE0733
:100E3800426000EB020C33D454F8084CDCF8043060
:100E48002D1B2144AC6807F1080C644503F001032D
:100E580064D0D5F80CE0C4F80CE0CEF80840002BBC
:100E680000F0818041F001036B600160B1F5007F03
:100E780022D27868CB080122490901338A4002430B
:100E880057F833107A6007EBC302083AC5E9021233
:100E980047F83350CD604046BDE8F04100F06EBBE6
:100EA800DCF80430DB072BD541F00103B1F5007FF6
:100EB80044F8043C0160DCD3B1F5206F4FEA5123BC
:100EC80053D28B0903F1390003F13802C300F81833
:100ED800FB580838984203D163E09B68984204D0D5
:100EE8005A6822F003028A42F7D8D868C5E9023066
:100EF8008560DD604046BDE8F04100F03FBB7047CB
:100F0800114407F1080C836863453FD0C268DA6072
:100F1800936041F001036B606950A7E7002B61D132
:100F28000A44D0E90213CB60996042F001036B6078
:100F3800AA50B0E7DB070A4407D454F8083CED1A76
:100F48001A44D5E90213CB60996042F001036B6043
:100F5800284BBD601B6893429DD8274B40461968B3
:100F6800FFF7F2FE97E71144CDE7142B08D9542B6D
:100F78001FD80B0B03F16F0003F16E02C300A6E745
:100F880003F15C0003F15B02C300A0E741F0010339
:100F98003D617D61C5F808C0C5F80CC06B6069503B
:100FA80079E779689210012404FA02F20A437A6018
:100FB8009CE7B3F5AA7F06D8CB0B03F1780003F1C1
:100FC8007702C30083E740F25452934206D88B0C51
:100FD80003F17D0003F17C02C30078E74FF47E73D0
:100FE8007E2274E741F001036B60016053E700BFA4
:100FF800300100203C050020440800202DE9F04F76
:1010080001F10B05162D83B0064624D8102900F2ED
:10101800B08000F0ADFA102518224FF0020CC14F35
:101028003A44A2F1080354689C4200F03081636896
:10103800E268A16823F003032344CA6091605A68F8
:1010480042F0010230465A60083400F097FA204610
:1010580003B0BDE8F08F35F0070500F18A80A9429A
:1010680000F2878000F084FAB5F5FC7FC0F0798142
:101078006B0A00F08280042B00F23081AB0903F187
:10108800390C03F138044FEACC03A64F3B44A3F1D3
:1010980008005B68984206D10CE0002980F2E580E0
:1010A800DB68984206D05A6822F00302511B0F29C8
:1010B800F3DDA446DFF870823C69444500F0C28045
:1010C800636823F00309A9EB05030F2B00F34E8196
:1010D800002BC7E9048880F23881B9F5007FD7F87A
:1010E80004E080F0DB804FEAD90101314FEA591959
:1010F800012303FA09F357F83120A2604EEA030EE0
:1011080007EBC103083BE360C7F804E047F8314048
:10111800D4604FEAAC0301209840704533D810EAF8
:101128000E0F07D12CF0030C400010EA0E0F0CF143
:10113800040CF9D007EBCC0A5346E146D9680EE017
:101148004A6822F00302A2EB050EBEF10F0F0C460F
:10115800C96800F3D080BEF1000F80F2E9808B42AD
:10116800EED109F1010919F0030F03F10803E5D1E4
:1011780028E10C233360002469E74FF400734FF033
:10118800400C3F2481E7BC68636823F00309A94544
:1011980003D3A9EB05030F2B57DCDFF890B1DBF87D
:1011A80000200820103202EB050800F0FFF9D7F8FC
:1011B80008140131024604EB090305D008F1FF3891
:1011C8008044414201EA080841463046CDE90032F0
:1011D80000F0DAF9B0F1FF3FDDE90032824600F0B5
:1011E800E280834200F2DD80DBF804104144CBF852
:1011F8000410084602F1FF3C40F001811AEA0C0F86
:1012080040F0FD80D7F808A0C84448F00100CAF8AB
:101218000400DBF82C208A42DBF8302038BFCBF8FA
:101228002C108A4238BFCBF83010544620F00308FF
:10123800A845A8EB050301D30F2B06DC304600F0C8
:101248009DF998E7D7F804E063E7621943F00103D2
:1012580045F0010565603046BA60536000F08EF9CC
:101268000834204603B0BDE8F08FD3E902411A44A0
:10127800E1608C60516841F001013046516003F132
:10128800080400F07BF9204603B0BDE8F08FD4686D
:10129800A2427FF4CCAE0CF1020C0BE7B9F5206F3B
:1012A8004FEA592276D3142A00F20B8102F15C032B
:1012B800DB005B32F918FB580839994203D1E8E0A2
:1012C8009B68994204D05A6822F003024A45F7D82D
:1012D800D968C4E902318C60DC601AE7142B65D93F
:1012E800542B00F2F7802B0B03F16F0C03F16E0403
:1012F8004FEACC03C9E63046A668631945F00105F4
:101308006560F1608E604EF00101C7E90433C3F8EF
:101318000880C3F80C80596044F802E000F02EF908
:10132800083494E6300100203801002044080020E9
:1013380022443046536843F00103536054F8083F91
:10134800D9608B6000F01AF981E6A1443046D9F8DB
:10135800043043F00103C9F80430083400F00EF9F2
:1013680075E64FEAD50C05F1080258E6621943F014
:10137800010145F0010565603046C7E90422C2F85D
:101388000880C2F80C80516044F8093000F0F6F883
:1013980008345CE64FEA991202F13903DB0038326F
:1013A80088E7BC4224D0BC6860683FE703F15C0C66
:1013B80003F15B044FEACC0367E65AF80839534552
:1013C80040F0D3801CF0030F0CF1FF3CF5D17B6893
:1013D80023EA00037B60400098423FF6D4AE18B978
:1013E800D1E6400009F104091842FAD0CC46A1E63A
:1013F800DBF804004044CBF8040002F1FF3CD7F8C6
:10140800081401311BBFAAEB0303C018C7F808A4CE
:10141800CBF804001AF00703009343D0C3F1080186
:101428008A44D0440A4408EA0C01521A02EA0C0120
:101438003046019100F0A8F8421C7AD00199A0EB3F
:101448000A0000EB0108DBF80420C7F808A048F000
:1014580001001144BC42CAF80400CBF804103FF460
:10146800D8AEB9F10F0F40D96268A9F10C0020F08D
:10147800070002F001020243626022184FF0050CD7
:101488000F28C2F804C0C2F808C048D8DAF8040027
:10149800BFE69210012000FA02F24EEA020EC7F8E7
:1014A80004E016E70AEB080101EA0C01521A02EA05
:1014B8000C013046019100F067F8431CBED1009939
:1014C800C1E7542A15D84FEA193202F16F03DB003D
:1014D8006E32EFE6B3F5AA7F15D8EB0B03F1780C63
:1014E80003F177044FEACC03CFE50123CAF80430AF
:1014F800A4E6B2F5AA7F23D84FEAD93202F17803DD
:10150800DB007732D6E640F25452934223D8AB0C34
:1015180003F17D0C03F17C044FEACC03B5E504F13B
:1015280008013046FFF76CFCDBF80410D7F808A078
:10153800ACE7009B083B9844A8EB0A08002182E727
:1015480040F254539A420CD84FEA994202F17D0373
:10155800DB007C32AEE64FF47E734FF07F0C7E24C6
:1015680093E54FF47E737E22A4E67B6833E700BFE1
:101578000148FFF705BB00BFA00600200148FFF7A0
:1015880007BB00BFA006002038B5074D002204465F
:1015980008462A6000F058FB431C00D038BD2B6871
:1015A800002BFBD0236038BD8C060020082802D110
:1015B8004FF48050704708B5FFF796FA162303607A
:1015C8004FF0FF3008BD00BF10B5054C237833B984
:1015D800044B13B10448AFF300800123237010BDFE
:1015E8007808002000000000C85B000808B5034B1D
:1015F8001BB103490348AFF3008008BD0000000099
:101608007C080020C85B00080D480E49032210B56D
:101618000023C0E900124FF4C0244FF4A0014FF09A
:101628000122C0E90233C0E904418261838300F0EA
:1016380071FF00B910BDBDE8104000F021BA00BF2D
:10164800940800200064004030B51F4B026889B040
:1016580000249A42CDE90244CDE90444069401D01D
:1016680009B030BD03F5EA3300941A6C174842F00C
:1016780000721A641A6C02F000720092009A0194C7
:101688001A6B42F001021A631B6B9FED0D7B03F08E
:101698000103019302A909230322CDE905238DED56
:1016A800027B019D01F050FD22462146142001F0E5
:1016B800E5FA142001F01EFB09B030BDAFF300803D
:1016C8000018000002000000006400400000024012
:1016D80030B583B000233E4A0093116B3D483E4D20
:1016E80041F480011163116B01F4800100910099AC
:1016F8000193116B436041F400111163126B436154
:1017080002F40012019280224FF4007482604FF4B8
:101718008062C0E903420199056004210322C0E9FF
:101728000633C0E90831C0E90A23036301F00AFB64
:1017380000284AD1002211460B2001F09FFA0B2005
:1017480001F0D8FA002211460C2001F097FA0C207B
:1017580001F0D0FA002211460D2001F08FFA0D2079
:1017680001F0C8FA002211460E2001F087FA0E2077
:1017780001F0C0FA002211460F2001F07FFA0F2075
:1017880001F0B8FA00221146102001F077FA102073
:1017980001F0B0FA00221146112001F06FFA112071
:1017A80001F0A8FA002211462F2001F067FA2F2035
:1017B80001F0A0FA00221146462001F05FFA462007
:1017C80003B0BDE8304001F095BA00F059F9B1E72F
:1017D80000380240C0080020106402402DE9F041A2
:1017E80000248CB0CDE90644CDE90844384B019477
:1017F8000A941A6B374D384F384E42F080021A63FC
:101808001A6B02F080020192019A02941A6B42F05C
:1018180001021A631A6B02F001020292029A0394FF
:101828001A6B42F004021A631A6B02F00402039264
:10183800039A04941A6B42F002021A631A6B02F0BC
:1018480002020492049A05941A6B42F008021A6381
:101858001B6B03F008030593224628460221059BCB
:1018680001F05CFE22463846202101F057FE224650
:101878003046042101F052FE4FF0020801220023F5
:1018880006A92846CDE90623CDF8208001F05CFCA6
:10189800284606A90125CDE90844CDF81880079502
:1018A80001F052FC3846202306A90693CDE90754D7
:1018B800099401F049FC042306A93046CDE9063510
:1018C800CDE9084401F040FC0CB0BDE8F08100BF50
:1018D80000380240000002400008024000040240B4
:1018E80010B5002394B0CDE90933CDE90233CDE931
:1018F8000433234900930693086C224A40F0805031
:101908000864096C01F080510091009901931168F5
:1019180041F48041116012680F9302F48042012063
:1019280001921022CDE90B0202230A210822CDE9F7
:101938000D0308911092A821042208A8CDE91113DB
:10194800019C139201F0EEFD08B172B6FEE79FED1F
:101958000A7B4FF4A0530022CDE9042302A84FF4D8
:10196800805305218DED027B069301F0F1FF08B14C
:1019780072B6FEE714B010BD0F00000002000000B0
:10198800003802400070004080B582B000F084FD4D
:10199800FFF7A6FFFFF722FFFFF79AFEFFF734FED7
:1019A80000F030FA00F066FA00F080FA00F09AFAD7
:1019B80000F076F900F0AEF900F040FA2A4B4FF04B
:1019C800010983F8009002F095FE284800F0B2FE65
:1019D80008B172B6FEE72548022100F0AFFF08B152
:1019E80072B6FEE74FF47A73CDE90090DFED200A76
:1019F8009FED200A204C214D9FED1E8A1A4649462C
:101A0800484603F0FBF816A7D7E900672068FEF7F9
:101A18001BFD32463B46FEF7B9FBFEF76DFD00EEB7
:101A2800100A206003F084F985ED000A03F06AF9D2
:101A38000028EBD04FF4FA7301214FF00008084654
:101A4800D5ED000AB0EE480A1A46CDE9008903F040
:101A5800D5F8012000F04CFD404603F03BF9D5E7EE
:101A68009A9999999999B93F2809002094080020D2
:101A7800000000000000FA4424090020200900208A
:101A880072B6FEE782B00C4B002100915A6C42F40A
:101A980080425A645A6C02F480420092009A019182
:101AA8001A6C42F080521A641B6C03F08053019345
:101AB800019B02B0704700BF00380240FEE700BF3C
:101AC800FEE700BFFEE700BFFEE700BFFEE700BF7E
:101AD800704700BF704700BF704700BF00F0F6BCFA
:101AE800014801F05BBA00BF000C0020014801F07A
:101AF80055BA00BF200A0020014801F04FBA00BFC4
:101B0800C00C0020014801F049BA00BFC0090020FC
:101B1800014801F043BA00BF600C0020014801F001
:101B28003DBA00BFE00A0020014801F037BA00BF03
:101B3800800A002010B51F4C1F4804F11C032246E0
:101B4800002100F077FE78BB2369DBB2072B28D889
:101B58005A1CE118D2B2082A087722D0991C2244CC
:101B6800C9B2082910771CD0DA1C2144D2B2082A3D
:101B7800087716D0191D2244C9B20829107710D049
:101B88005A1D2144D2B2082A08770AD0991D224446
:101B9800C9B20829107704D0214408770BB984F812
:101BA8002330012384F87430BDE81040024800F067
:101BB800F1BE00BF900E002094080020014802F0FA
:101BC800CFB800BF78090020014802F063BB00BF0E
:101BD800B00D0020014802F05DBB00BF680D002079
:101BE800014802F057BB00BF200D0020014801F05A
:101BF800D5B900BFA00B0020014802F0B1B800BF62
:101C080030090020014802F045BB00BF400E00200B
:101C1800014802F03FBB00BFF80D0020014801F069
:101C2800BDB900BF400B00200120704708B5FEF782
:101C38005BFF162303604FF0FF3008BD08B5FEF7C1
:101C480053FF16230360FEE70C490D4A0B6810B5D5
:101C58000C4C121B2BB11844904207D80860184648
:101C680010BD094B0B6018449042F7D9FEF73CFFB2
:101C78000C2303604FF0FF33184610BD2C090020D9
:101C88000000022000040000C0270020034AD2F808
:101C9800883043F47003C2F88830704700ED00E0E4
:101CA80000B51A481A4A87B00260532200234260DE
:101CB8006322CDE90233CDE90433CDE90033C0E92D
:101CC80002320361836101F001FF98B94FF4805338
:101CD8000E48029302A901F091FF98B9002200234F
:101CE8000A486946CDE9002302F0D6F828B907B0BA
:101CF8005DF804FBFFF7C4FEE8E7FFF7C1FE07B095
:101D08005DF804FBFFF7BCFEE8E700BF7809002098
:101D18000008004000B51A481A4A87B002605322EA
:101D28000023426040F2E732CDE90233CDE90433C3
:101D3800CDE90033C0E902320361836101F0C6FED8
:101D480098B94FF480530E48029302A901F056FF48
:101D580098B9002200230A486946CDE9002302F019
:101D68009BF828B907B05DF804FBFFF789FEE8E7A0
:101D7800FFF786FE07B05DF804FBFFF781FEE8E792
:101D880030090020000C004000B51B4A036893424C
:101D980083B005D0194A934218D003B05DF804FB0C
:101DA8000022174B0092196C41F0040119641B6C56
:101DB80003F00403009311461E20009B00F05EFF11
:101DC8001E2003B05DF804EB00F094BF00220C4B1A
:101DD8000192196C41F0080119641B6C03F00803A7
:101DE800019311463220019B00F048FF322003B0D6
:101DF8005DF804EB00F07EBF00080040000C0040D6
:101E08000038024010B50B480B4C00234FF4E13169
:101E18000C22C0E90041C0E90233C0E90432C0E93C
:101E2800063302F07DF800B910BDBDE81040FFF799
:101E380027BE00BF400E0020004C004010B50B48E4
:101E48000B4C00234FF4E1310C22C0E90041C0E9FA
:101E58000233C0E90432C0E9063302F061F800B980
:101E680010BDBDE81040FFF70BBE00BFF80D002005
:101E78000050004010B50B480B4C00234FF4E131E3
:101E88000822C0E90041C0E90233C0E90432C0E9D0
:101E9800063302F045F800B910BDBDE81040FFF761
:101EA800EFBD00BFB00D00200010014010B50B4879
:101EB8000B4C00234FF4E1310C22C0E90041C0E98A
:101EC8000233C0E90432C0E9063302F029F800B948
:101ED80010BDBDE81040FFF7D3BD00BF680D00205E
:101EE8000044004010B50B480B4C00234FF4E1317F
:101EF8000C22C0E90041C0E90233C0E90432C0E95C
:101F0800063302F00DF800B910BDBDE81040FFF728
:101F1800B7BD00BF200D0020004800402DE9F0416A
:101F28000368B44A92B000249342CDE90C44CDE949
:101F38000E440546109476D0AF4A934200F0DC80F8
:101F4800AE4A934200F08081AD4A934206D0AD4A32
:101F5800934200F0C28112B0BDE8F081AA4B089408
:101F68001A6CAA48AA4E42F400321A641A6C02F497
:101F780000320892089A09941A6B42F001021A6317
:101F88001B6B03F0010309930C220223CDE90C23F8
:101F98000CA907230327CDE90F73099A01F0D4F898
:101FA8009C4934634FF00063C6E900134FF4806323
:101FB800336130460423C6E90244C6E90544C6E94C
:101FC8000744C6E90A74736200F0BCFE002840F0BA
:101FD800F981914C9149EE634FF000620023C4E906
:101FE800001240214FF48062C4E9021322610421E7
:101FF80003222046C4E90533C4E90733C4E90912BA
:10200800C4E90B33B56300F09DFE002840F0D7818A
:102018000022AC6311462620A56300F02FFE26207F
:1020280000F068FE97E7784B01941A6C7C487D4E67
:1020380042F400221A641A6C02F400220192019AF6
:1020480002941A6B42F004021A631B6B03F0040338
:1020580002934FF440620223CDE90C23032708239F
:102068000CA9CDE90F73029A01F06EF8DFF8D4C11C
:1020780034634FF00063C6E900C34FF480633361F3
:1020880030460423C6E90244C6E90544C6E90744C4
:10209800C6E90A74736200F055FE002840F0838197
:1020A800614C6249EE634FF000620023C4E90012FC
:1020B80040214FF48062C4E9021322610421032203
:1020C8002046C4E90533C4E90733C4E90912C4E961
:1020D8000B33B56300F036FE002840F06181002222
:1020E800AC6311463420A56300F0C8FD342000F02D
:1020F80001FE12B0BDE8F081434B03941A6C4848C6
:1021080042F480121A641A6C02F480120392039A41
:1021180004941A6B42F004021A631A6B02F0040268
:102128000492049A05941A6B42F008021A631B6B16
:1021380003F008034FF4805205930327082602236F
:102148000CA9CDE90C23CDE90F76059B4FF00408C7
:1021580000F0FAFF0223364810960CA9354ECDE957
:102168000C83CDE90E4700F0EFFF334AC6F8248010
:102178004FF00063C6E9002330464FF48063C6E998
:102188000244C6E90544C6E90744C6E90A7434634B
:10219800336100F0D7FD002840F00881274C28491A
:1021A800EE634FF000620023C4E9001240214FF4AF
:1021B8008062C4E902132261042103222046C4E993
:1021C8000533C4E90733C4E90912C4E90B33B5631D
:1021D80000F0B8FD002840F0EC800022AC63114606
:1021E8003520A56300F04AFD352000F083FD12B0CC
:1021F800BDE8F081004C0040005000400010014054
:1022080000440040004800400038024000000240FE
:10221800E00A002088600240800A0020A060024096
:1022280000080240C00C0020600C002070600240D2
:10223800000C0240000C002010600240A00B00209F
:10224800B860024040600240634B06945A6C634891
:10225800634E42F010025A645A6C02F01002069261
:10226800069A07941A6B42F001021A631B6B03F07B
:10227800010307934FF4C0620223CDE90C2303271F
:1022880007230CA9CDE90F73079A00F05DFF5548A5
:1022980034634FF00063C6E900034023B3604FF492
:1022A8008063C6E9034330460423C6E90544C6E90A
:1022B8000744C6E90A74736200F044FD00287BD124
:1022C8000022AE6311462520B56300F0D7FC252017
:1022D80000F010FD12B0BDE8F0813F4B0A941A6C73
:1022E8004148424E42F480221A641A6C02F4802259
:1022F8000A920A9A0B941A6B42F002021A631B6B39
:1023080003F002030B934FF440620223CDE90C2340
:10231800032707230CA9CDE90F730B9A00F014FFCC
:10232800334A34634FF00063C6E900234FF48063F7
:10233800336130460423C6E90244C6E90544C6E9C8
:102348000744C6E90A74736200F0FCFC00283FD118
:10235800284C2949EE634FF000620023C4E90012BB
:1023680040214FF48062C4E9021322610421032250
:102378002046C4E90533C4E90733C4E90912C4E9AE
:102388000B33B56300F0DEFCF8B90022AC631146EC
:102398002720A56300F072FC272000F0ABFCDAE5EB
:1023A800FFF76EFB9BE6FFF76BFB79E6FFF768FB31
:1023B800F4E6FFF765FB10E7FFF762FB80E7FFF73E
:1023C8005FFB25E6FFF75CFB03E6FFF759FBDCE75D
:1023D800FFF756FBBCE700BF003802400000024090
:1023E800400B0020B864024000040240200A00208C
:1023F80028600240C009002058600240DFF834D04D
:10240800FFF744FC0C480D490D4A002302E0D4585C
:10241800C4500433C4188C42F9D30A4A0A4C002326
:1024280001E013600432A242FBD3FEF763FBFFF71F
:10243800ABFA704700000220000000204C05002085
:10244800C064000850050020C0270020FEE70000F7
:1024580038B50E4A0E4B1278054618684FF47A7351
:10246800B3FBF2F3B0FBF3F000F052FC08B90F2D08
:1024780001D9012038BD0446024629464FF0FF30F5
:1024880000F0FCFB034B20461D6038BD44050020CE
:10249800400500204805002008B50B4B1A6842F497
:1024A80000721A601A6842F480621A601A6842F46C
:1024B80080721A60032000F0CFFB0F20FFF7C8FFDF
:1024C800FFF7E0FA002008BD003C0240034A044B35
:1024D80011681B780B441360704700BF880E0020FA
:1024E80044050020014B1868704700BF880E002083
:1024F80038B50446FFF7F6FF631C054602D0044BC7
:102508001B781C44FFF7EEFF401BA042FAD338BDEE
:102518004405002000287BD038B590F820300446C8
:10252800002B72D02268136843F001031360FFF791
:10253800D9FF054604E0FFF7D5FF401B0A285BD802
:1025480023685A68D107F6D51A6822F002021A6081
:10255800FFF7C8FF054604E0FFF7C4FF401B0A2841
:102568004AD823685A689207F6D4227E012A1A6844
:102578000CBF42F0800222F080021A60627E012ABB
:102588001A680CBF42F0400222F040021A60A27E94
:10259800012A1A680CBF42F0200222F020021A60B9
:1025A800E27E012A1A680CBF22F0100242F01002E3
:1025B8001A60227F012A1A680CBF42F0080222F032
:1025C80008021A60627F012A1A680CBF42F00402EE
:1025D80022F004021A60D4E90220216902430A4366
:1025E80060696168024301390A4300200121DA6108
:1025F800606284F8201038BD636A052243F4003312
:10260800636284F82020012038BDFFF71DF889E7B0
:102618000120704790F82020013A012A06D9426A21
:10262800034642F4802201205A627047404BD3F897
:1026380000220120024330B4C3F80022D3F800225C
:1026480022F47C52C3F80022D3F800224C6A42EAF2
:102658000422C3F800224A6902F01F04A040D3F8FC
:102668001C4224EA0004C3F81C42CD69C443002D6F
:1026780045D1D3F80C522540C3F80C52D200CD688E
:102688008B8802F1804202F5C84243EA0543C2F84A
:1026980040328D680B8843EA0543C2F844328B699F
:1026A800234A33BBD2F804322340C2F804320B6900
:1026B800C3B91F4BD3F814221440C3F814420B6A51
:1026C800012B05D11A4AD2F81C320343C2F81C3236
:1026D800174AD2F8003223F00103002030BCC2F8B8
:1026E80000327047124AD2F814320343C2F8143247
:1026F800E5E7D2F804320343C2F80432D7E7012DE4
:10270800CDD1D3F80C520543C3F80C52D2000D6852
:102718008B8802F1804202F5C84243EA0543C2F8B9
:1027280040328D688B8943EA0543C2F84432B6E7E4
:102738000064004038B590F82030012B044605D0DD
:10274800436A43F400234362012038BD0268022330
:1027580080F82030136823F001031360FFF7C2FEEE
:10276800054604E0FFF7BEFE431B0A2B07D8236883
:102778005B6813F00103F5D16362184638BD636ADC
:10278800052243F40033636284F82020DCE700BFAD
:1027980030B490F820C005680CF1FF3CBCF1010F83
:1027A800AC6839D814F0E05F06D1436A43F40013EB
:1027B8004362012030BC7047C4F301640120A0408B
:1027C80018608B686BB3C8680343486843EAC00362
:1027D80004F1180000012B5005EB041C0B69CCF820
:1027E80084310B7D012B4FEA041105D1DCF88431CB
:1027F80043F48073CCF884316B185168C3F88C119A
:102808001268C3F88821DCF8803143F00103002006
:1028180030BCCCF880317047436A43F4802343626C
:10282800C7E7CB68086843EA405004F118031B0166
:10283800E850D1E790F820C00CF1FF3CBCF1010F43
:102848006BD870B5046841B9E568AD0708D1436A2B
:1028580043F400134362012070BD2569AE07F6D02A
:1028680004EB011C4FEA011EDCF8B05105F0040529
:102878009560002D57D0DCF8B051ED085560DCF8B4
:10288800B05105F00205D560DCF8B4512D0758BFEA
:10289800DCF8B451DCF8B46154BF05F00F05082525
:1028A80015617444DCF8B451C6F3072696612D0C03
:1028B800D4F8B86155611E7002687244D2F8B82124
:1028C800120A5A7002687244D2F8B821120C9A702F
:1028D80002687244D2F8B821120EDA7002687244A3
:1028E800D2F8BC211A7102687244D2F8BC21120ACB
:1028F8005A7102687244D2F8BC21120C9A710268AB
:102908007244D2F8BC21120EDA71026881B9D36818
:1029180043F02003D360002070BD436A43F4802352
:10292800436201207047DCF8B0516D0D1560A6E7D1
:10293800136943F020031361EDE700BF90F82020EE
:10294800013A012A034605D9426A42F4802201204D
:102958005A627047026853690B43002053617047FD
:10296800704700BF704700BF704700BF704700BF87
:10297800704700BF704700BF704700BF704700BF77
:10298800704700BF704700BF704700BF704700BF67
:10299800704700BF2DE9F04F03685C69D3F80480E5
:1029A8009F68D3F80CB0D3F81090D3F818A014F09F
:1029B800010683B0054625D0FA0700F1AA804FF436
:1029C80000564FF480400021FB0540F1B6802B688B
:1029D8004FF480729A60BA0500F1AA807B0503D48F
:1029E8003E0540F105810646F9030BD52B684FF4E7
:1029F80080329A60BA0300F1E5807B0340F1DD8004
:102A080046F40046210702D51BF0100F7BD1620760
:102A180003D51BF0080F40F09280A30704D52B685C
:102A2800DB689F0740F0AB80600602D519F0100FF5
:102A380063D1A10603D519F0080F40F08780E2069C
:102A480004D52B681B699B0740F08E80A70303D52C
:102A580018F0100F40F08C80E00302D518F0080F32
:102A68007BD1210444D518F0040F2B683ED0E20531
:102A780044BF0AF001021643A70500F184806105EE
:102A880004F400622ED51AF0040F2BD046F0040689
:102A9800002A00F088801AF0700A00F08480BAF1E9
:102AA800400F00F0B58000F29180BAF1200F00F0DD
:102AB800CA80BAF1300F00F0BD80BAF1100F40F0B3
:102AC800A2809A69042122F070029A6146F00806F1
:102AD80059606B6A334328466B62FFF759FF03B0AE
:102AE800BDE8F08F12B11AF0700AD8D104225A60EA
:102AF800002EEED103B0BDE8F08F2B68102246F40B
:102B080080661A6195E72B68102246F40076DA6031
:102B18007DE70122BE079A6042D4790746D43A0776
:102B280063D54FF440564FF4A0404FF480514BE723
:102B380028460191FFF716FF01990E4654E72B68C6
:102B48000822DA602846FFF719FF66E72B68082293
:102B58001A612846FFF716FF71E72B6808225A60AA
:102B68002846FFF713FF7CE72846FFF709FF6DE7C4
:102B78002B6810225A602846FFF706FF6CE72846A4
:102B8800FFF7FAFE50E71AF0020F3FF478AF60053E
:102B980046F0020604F400623FF575AF1AB17AE711
:102BA800FFF7DEFE0BE704225A6092E74FF4205647
:102BB8004FF490404FF4006106E738031FD546F400
:102BC80080361FE72846FFF7CFFE1BE7BAF1500F04
:102BD80027D0BAF1600F16D19A69042122F0700249
:102BE8009A6146F48076596073E7FFF7BFFEE6E620
:102BF80028460191FFF7BCFE01990E46F4E62846E7
:102C0800FFF7B8FEFEE69A6922F070029A616DE756
:102C18009A69042122F070029A6146F040065960D0
:102C280057E79A69042122F070029A6146F08006FB
:102C380059604EE79A69042122F070029A6146F0C1
:102C48002006596045E79A69042122F070029A61CA
:102C580046F0100659603CE70749CA6803024FF678
:102C6800FF0003F4E0630240134343F0BF6343F4FF
:102C78000033CB60704700BF00ED00E01B4BDB6802
:102C8800C3F3022300B5C3F1070EBEF1040F03F12D
:102C9800040C28BF4FF0040EBCF1060F1CD9A3F199
:102CA800030C4FF0FF3303FA0CF322EA03024FF050
:102CB800FF3303FA0EF321EA030303FA0CF3134379
:102CC8001B010028DBB20ADB00F1604000F561401F
:102CD80080F800335DF804FB00229446E7E7044AD5
:102CE80000F00F00024413765DF804FB00ED00E0ED
:102CF800FCEC00E0002807DB044A4109012300F04E
:102D08001F00834042F82130704700BF00E100E017
:102D18000138B0F1807F01D30120704710B44FF023
:102D2800E023074C58614FF0F00C84F823C00022D0
:102D3800072110469A615DF8044B1961704700BF7E
:102D480000ED00E038B50446FFF7CCFB002C6DD051
:102D580023680022022184F8351084F834201A6888
:102D680022F0010205461A6005E0FFF7BBFB431B92
:102D7800052B37D823681A68D107F6D4D4E901207F
:102D8800E16802430A43D4E90451A0692A430A438B
:102D9800E1691D6802430A4331492940256A2A43EB
:102DA8000A43616A042924D01A605A6922F007028A
:102DB8001143D8B22B4A59611038A2FB00521209AC
:102DC80029496FF30903895CE1655F2888BF0433EB
:102DD8003F228A40A36500209A600123606584F839
:102DE800353038BD03232022626584F83530184613
:102DF80038BDD4E90B512943114319605969A26AB6
:102E080021F00701114341F00401002DD1D078B120
:102E1800B0F5005F16D0022A03D9032AC9D1EA0106
:102E2800C7D540220123626584F83530012038BDBA
:102E3800012A03D032F00202BBD1F0E7B5F1C07F1E
:102E4800B7D1EEE7032AB4D801A050F822F000BFAA
:102E58002B2E0008272E00082B2E0008452E0008D0
:102E68003F8010F0ABAAAAAAF85B000870B490F8EB
:102E78003440856D012C0AD090F835404FF0010C94
:102E8800644580F834C005D0002380F8343002202F
:102E980070BC7047022680F83560046800264665D5
:102EA800266826F48026266063608368402B0EBF60
:102EB800A260A160E260C26D08BFE1603F23934059
:102EC800AB602368026C43F0160323601AB12368D1
:102ED80043F008032360236843F0010300202360C4
:102EE80070BC704770B50446866DFFF7FBFA94F81E
:102EF8003530022B06D080236365002384F83430F4
:102F0800012070BD23681A6822F016021A605A69F7
:102F180022F080025A61226C054642B31A6822F0F8
:102F280008021A601A6822F001021A6005E0FFF729
:102F3800D9FA431B052B10D823681B6813F001032B
:102F4800F5D1E16D3F228A40184601210023B26085
:102F580084F8351084F8343070BD0323202262656C
:102F6800184684F83530002384F8343070BDA26CDC
:102F7800002AD3D1D6E700BF90F83530022B03D012
:102F880080234365012070470268052380F83530A7
:102F9800136823F00103002013607047F0B583B075
:102FA800674A876D166800230193C36D3D68082240
:102FB8009A402A42044603D001680868400778D43A
:102FC80001229A402A4203D02168496908066AD436
:102FD80004229A402A4203D02168096889075CD4F0
:102FE80010229A402A4203D021680868000741D479
:102FF80020229A402A4214D021680868C00610D5B9
:10300800BA6094F83520052A63D00B6813F4802F32
:103018000B687ED0190340F18980E36B0BB1204621
:103028009847636D23B3636DDA071AD5226845495B
:10303800052384F835301368A1FB061623F0010335
:10304800B60A136002E01368DB0704D5019B01335D
:10305800B3420193F7D90122002384F8352084F87C
:103068003430E36C23B1204603B0BDE8F040184784
:1030780003B0F0BDBA600A6812F4802F0A6822D142
:10308800D20503D40A6822F008020A60226C002ADA
:10309800AED020469047E36DAAE7BA60626D42F071
:1030A800040262659CE7BA60626D42F002026265E2
:1030B8008EE7086820F004000860BA60626D42F08C
:1030C800010262657CE71103E0D5A26C002AE0D119
:1030D8008EE70A6822F016020A604A6922F0800226
:1030E8004A61226C3AB30A6822F008020A603F2259
:1030F80002FA03F3216DBB600122002384F8352016
:1031080084F834300029B3D0204603B0BDE8F0403D
:10311800084713F4807380D10A6822F010020A600D
:10312800012284F8352084F8343076E7636C002B6C
:103138007FF475AF75E7A26C002AD4D1D7E700BF3A
:1031480040050020B5814E1B2DE9F04FA44A0B68BD
:10315800904285B04FF0000200F0D480DFF89082F2
:103168004FF0010B8A4603E00132102A00F09E80DE
:103178000BFA02F101EA03069943F5D1DAF80440A3
:1031880004F0030C510003250CF1FF378D40012F8B
:103198006FEA050550D9BCF1030F40F0A581076817
:1031A8000CFA01F13D40294314F4403F0160DBD0A3
:1031B8008C4D00210391696C41F480416964696C0C
:1031C80001F480410391039922F0030101F1804148
:1031D80001F59C3102F003078D68BF004FF00F0C1A
:1031E8000CFA07FC25EA0C0E7F4DA84261D07F4DF2
:1031F800A84200F05681DFF8FCC1604500F0588114
:10320800DFF8F4C1604500F06181DFF8F0C1604586
:1032180000F06381DFF8E8C1604500F05081DFF815
:10322800E4C160450CBF4FF0070C4FF0080C0CFAD6
:1032380007F74EEA070542E0876807EA050EDAF85D
:103248000C708F4047EA0E078760476827EA060E2A
:10325800C4F30017974047EA0E074760C76807EAB4
:10326800050EDAF808708F4047EA0E07BCF1020F26
:10327800C76094D14FEAD20900EB890902F0070E22
:10328800D9F820700097DAF810704FEA8E0E07FA16
:103298000EF701970F2707FA0EFE009F27EA0E0E7A
:1032A800019F47EA0E07C9F8207078E705B0BDE826
:1032B800F08F4FF0010C0CFA07F74EEA07058D6006
:1032C800D8F80810F543E70254BF29403143C8F83D
:1032D8000810D8F80C10A70254BF29403143C8F889
:1032E8000C10D8F80410A70354BF29403143C8F87C
:1032F8000410D8F80010E40354BF29403143C8F83B
:10330800001031E7DFF8DCB04FF0010A02E00132CB
:10331800102ACBD00AFA02F403EA04069C43F6D139
:103328004D685400032707FA04FC05F003086FEA08
:103338000C0908F1FF3CBCF1010F65D9B8F1030F86
:1033480040F0DC80D0F800C008FA04F40CEA090C5C
:1033580044EA0C0415F4403F0460D8D000240394D8
:10336800DBF8444044F48044CBF84440DBF8444064
:1033780004F480440394039C22F0030404F1804481
:1033880004F59C3402F0030CD4F808E00F274FEA48
:103398008C0C07FA0CFC2EEA0C0CC4F808C0144C70
:1033A800EF02A4686FEA060C79D404EA0C04104F03
:1033B800BC60FC68AF0270D404EA0C040C4FFC60DB
:1033C8007C68AF0367D40CEA0404094FED037C6002
:1033D8003C685ED40CEA0404054D2C6097E700BFF6
:1033E8000000024000380240000402400008024089
:1033F800003C0140000C0240001002400014024052
:1034080000180240001C0240D0F808E0CF6809EA22
:103418000E0E07FA04FC4CEA0E0CC0F808C0D0F8EF
:1034280004E0C5F3001C2EEA060E0CFA02FC4CEA76
:103438000E0CC0F804C0D0F80CE08F6809EA0E0E34
:1034480007FA04FC4CEA0E0CB8F1020FC0F80CC0E5
:103458007FF478AF4FEAD20C4FEA8C0C0CF1804C19
:103468000CF5003C02F0070EDCF8207000970F699D
:103478004FEA8E0E07FA0EF701970F2707FA0EFE8E
:10348800009F27EA0E0E019F47EA0E0ECCF820E0B7
:1034980058E73443A0E7344397E734438EE734438F
:1034A80085E74FF0020C0CFA07F74EEA070506E726
:1034B8004FF0030C0CFA07F74EEA0705FFE64FF04A
:1034C800060C0CFA07F74EEA0705F8E64FF0040C6D
:1034D8000CFA07F74EEA0705F1E64FF0050C0CFA6F
:1034E80007F74EEA0705EAE6C76807EA050EDAF8BD
:1034F80008708F4047EA0E07C76050E6DFF818C02B
:103508008F68DCF80CE0A74009EA0E0E47EA0E0EB9
:10351800CCF80CE016E700BF0000024002B909042D
:1035280081617047002800F0D8812DE9F0410368D7
:10353800DD0782B004462FD59D498A6802F00C0247
:10354800042A00F0EC808A6802F00C02082A00F0D5
:10355800E2806368B3F5803F00F0EB80B3F5A02FFD
:1035680000F07381924D2A6822F480322A602A681A
:1035780022F480222A60002B40F0E080FEF7B2FFA0
:10358800064605E0FEF7AEFF801B642800F20081C6
:103598002B689F03F6D423689D0728D5844A916831
:1035A80011F00C0F00F09B80916801F00C010829C4
:1035B80000F09180E368002B00F00C817D4B7C4E7D
:1035C80001221A60FEF78EFF054605E0FEF78AFF26
:1035D800401B022800F2DC8033689F07F6D5336869
:1035E800226923F0F80343EAC203336023681A0709
:1035F8005CD45D073AD56E4A136C13F0805340F0E3
:1036080088800193136C43F080531364136C03F0A8
:1036180080530193019B0125674E3368D80540F11B
:10362800A780A368012B00F0B780052B00F01D814F
:103638005F4E326F22F001023267326F22F00402CD
:103648003267002B40F0AD80FEF74CFF41F288381E
:10365800074605E0FEF746FFC01B404500F298808C
:10366800336F9B07F6D4002D40F0F980A369CBB1E6
:103678004F4DAA6802F00C02082A00F0BC80022B09
:103688004C4B4FF000021A6600F0F980FEF72AFF53
:10369800044604E0FEF726FF001B022878D82B68B2
:1036A8009B01F7D4002002B0BDE8F0816369FBB14B
:1036B800404B3F4E0122C3F8802EFEF713FF05460C
:1036C80004E0FEF70FFF401B022861D8736F9B07C9
:1036D800F7D523688DE7526851023FF56BAF344A3E
:1036E8001268920738D5E268012A35D00120DAE756
:1036F800304A2F4EC2F8803EFEF7F4FE054604E03D
:10370800FEF7F0FE401B022842D8736F9F07F7D4DC
:10371800DFE7002580E74A6851027FF51AAF244A9F
:10372800126892037FF538AF6268002A7FF434AFDD
:10373800DCE71F4A136843F480331360FEF7D2FEB8
:103748001B4E054604E0FEF7CDFE401B64281FD83B
:1037580033689B03F7D51EE7154920690A6822F0EC
:10376800F80242EAC0020A601A077FF542AF9DE7F5
:10377800336843F480733360FEF7B4FE074633685A
:10378800D9053FF54EAFFEF7ADFEC01B0228F6D9AE
:10379800032002B0BDE8F081054A136F43F001032E
:1037A8001367FEF79FFE024F064641F288380AE08B
:1037B800003802400000474200700040FEF792FEC9
:1037C800801B4045E4D83B6F9A07F7D5002D3FF49E
:1037D8004DAF44E0424A434E1360FEF783FE054670
:1037E80004E0FEF77FFE401B0228D1D83368990712
:1037F800F7D42368FBE6012B3FF478AF6B68E269E6
:1038080003F4800191427FF471AF226A03F03F0113
:1038180091427FF46BAF616A47F6C0721A40B2EB0F
:10382800811F7FF463AFA26A520803F44031013A62
:10383800B1EB024F7FF45AAFE26A03F07063B3EB67
:10384800026F14BF012000202DE7264B1A6842F4AE
:1038580080221A601A6842F480321A606EE7214AA0
:10386800136C23F08053136400E71E4B1A6F42F069
:1038780004021A671A6F42F001021A6791E7FEF70D
:1038880031FE064605E0FEF72DFE801B02283FF6B6
:103898007FAF2B689901F6D4D4E90731626A0B43EC
:1038A80043EA8213D4E90A2052080D4943EA006327
:1038B800013A43EA024301226B600A66FEF712FEF0
:1038C800084D044605E0FEF70DFE001B02283FF6F2
:1038D8005FAF2B689A01F6D5E4E60120704700BF78
:1038E8000000474200380240164908B58B6803F0CB
:1038F8000C03042B1BD0082B01D0134808BD4A68C1
:103908004B68496813F4800302F03F0211D10E4856
:10391800C1F38811A1FB0001FCF73EFE094B5B686F
:10392800C3F3014301335B00B0FBF3F008BD074864
:1039380008BD0648C1F388110023A1FB0001FCF76C
:103948002BFEEBE7003802400024F40040787D01AC
:10395800002800F08780484A136803F007038B4269
:103968002DE9F0410D46044609D2CBB21370136815
:1039780003F007038B4202D00120BDE8F0812368E1
:10398800980714D5590704D53C498A6842F4E0528F
:103998008A601A0704D539498A6842F460428A6005
:1039A8003649A0688A6822F0F00202438A60DF077D
:1039B80021D56268012A57D0931E012B2F4B1B6813
:1039C8004DD99907D8D52D4EB36823F00303134377
:1039D800B360FEF787FD41F28838074604E0FEF73A
:1039E80081FDC01B404544D8B368626803F00C03EE
:1039F800B3EB820FF3D1204A136803F00703AB42FD
:103A080006D9EBB21370136803F00703AB42B3D1C6
:103A180023685A0706D51949E0688A6822F4E052F3
:103A280002438A601B0707D5144A2169936823F467
:103A3800604343EAC1039360FFF756FF0F4A104CF7
:103A480092681049C2F303120346A25C0E48D340A1
:103A580000680B60FEF7FCFC0020BDE8F0819801CF
:103A6800B1D489E701207047044B1B689E03AAD490
:103A780082E7032081E700BF003C02400038024093
:103A8800E85B00084005002048050020044B054974
:103A98009B68054A0868C3F38223D35CD840704703
:103AA8000038024040050020E05B0008044B05494F
:103AB8009B68054A0868C3F34233D35CD840704713
:103AC8000038024040050020E05B0008002800F0B4
:103AD8008F8038B590F83D30044603F0FF02002B84
:103AE80000F0818022684349022384F83D308A42ED
:103AF800136864D0B2F1804F30D0A1F57C418A427E
:103B08002CD001F580618A4228D001F580618A4273
:103B180024D001F578418A4251D037498A4221D0D0
:103B280001F580618A421DD001F580618A4219D071
:103B3800A1F598318A4215D001F580618A4211D0E9
:103B480001F580618A420DD0A5696168E06823F0BB
:103B580080032B431360D062916210E0A16823F0C8
:103B680070030B432069A16923F44073034323F0D6
:103B78008003E0680B4361681360D062916201239F
:103B880053611369DB0703D5136923F0010313613C
:103B9800012384F8463084F83E3084F83F3084F8B6
:103BA800403084F8413084F8423084F8433084F857
:103BB800443084F8453084F83D30002038BDA06892
:103BC800216923F07003034323F440730B43A16975
:103BD80023F080030B431360E368D3626368936246
:103BE80063691363CBE780F83C20FEF7CDF879E7EB
:103BF80001207047000001400040014090F83C203F
:103C0800012A6ED00346026830B40120022483F8EA
:103C18003C0083F83D40946824F47F4424F0770402
:103C280094600C68602C76D011D8402C5BD02ED8CC
:103C3800202C04D000F2888034F010011FD1916844
:103C480021F07001214341F00701916016E0B4F5BD
:103C5800805F13D0B4F5005F33D0702C0FD1D1E959
:103C6800015094682843CD6824F47F4140EA052038
:103C780008439060916841F077019160002001212C
:103C8800002283F83D1083F83C2030BC7047502C4C
:103C9800F5D14868CC68116A21F00A010843116A15
:103CA80021F001011162916921F0F00141EA04114A
:103CB80091611062916821F0700141F057019160A3
:103CC800DCE7D1E9015094682843CD6824F47F41AA
:103CD80040EA052008439060916841F48041916072
:103CE800CCE7022070474868CC68116A21F00A01C5
:103CF8000843116A21F001011162916921F0F00174
:103D080041EA041191611062916821F0700141F05B
:103D180047019160B2E74868CC68116A21F0A001B8
:103D280041EA0011106A20F010001062906920F436
:103D3800704040EA043090611162916821F070018E
:103D480041F06701916099E7302C3FF478AF96E72E
:103D5800704700BF704700BF704700BF704700BF83
:103D6800036870B5DE681D69A907044601D5B20766
:103D780051D4690701D572073AD42B0701D530070A
:103D880024D4EA0601D5F30610D4E80701D5F107D3
:103D980057D42A0601D533065BD4680601D57106C7
:103DA8005FD4AA0601D5B30642D470BD23686FF06C
:103DB80010021A6108222277DB6913F4407F20463B
:103DC80063D0FFF7C7FF00232377DEE723686FF090
:103DD80008021A6104222277DB699907204651D12B
:103DE800FFF7B6FF2046FFF7B7FF00232377C8E7A2
:103DF80023686FF004021A61022222779B6913F488
:103E0800407F20463BD1FFF7A3FF2046FFF7A4FFE2
:103E180000232377B1E76FF002021A6101220277CB
:103E28009B699B0725D0FFF795FF00232377A0E721
:103E380023686FF0200220461A61BDE8704000F048
:103E48006BB823686FF001021A61204600F03AFD52
:103E58009FE723686FF080021A61204600F05EF841
:103E68009BE723686FF040021A612046FFF776FF50
:103E780097E7FFF76DFF2046FFF76EFFD5E7FFF7DF
:103E880069FFC5E7FFF766FFAFE7FFF761FF204669
:103E9800FFF762FF97E700BF90F83C20012A37D070
:103EA80003460268022030B483F83D0050680D686C
:103EB800946820F0700028435060164882421AD057
:103EC800B2F1804F17D0A0F57C40824213D000F5A4
:103ED800806082420FD000F5806082420BD000F5EE
:103EE8007840824207D000F57050824203D0A0F596
:103EF8009430824204D1496824F080040C439460D1
:103F08000020012283F83D2083F83C0030BC704734
:103F18000220704700000140704700BF704700BF93
:103F2800002800F0878038B590F84130044603F047
:103F3800FF02002B79D02368E068242284F841200E
:103F4800DA6822F40052DA601969A26821F4405153
:103F580001432069196102436069D9680243E06935
:103F680021F4164121F00C0102430A43DA605A6930
:103F7800A069314922F4407202438B425A6136D01B
:103F88002E4A934233D0FFF781FDE2691921B2F539
:103F9800004FD4E90053A0FB01012BD09A009B0FDE
:103FA800FCF7FAFA264AA2FB00135B09642101FB1D
:103FB800130000013230A2FB00201B0103EB501359
:103FC800AB602A6922F490422A616A6922F02A02C7
:103FD8006A61EA680023202142F40052EA606364BF
:103FE80084F8411084F842101846636338BDFFF71F
:103FF8005DFDCAE7DA184FF000035B41FCF7CCFA25
:104008000F4AA2FB00314909642303FB1103DB00BB
:104018003233A2FB0323C3F342121B0902EB011242
:1040280003F4F8731344AB60CBE780F84020FDF746
:1040380075FF80E70120704700100140001401401F
:104048001F85EB51704700BF704700BF704700BF26
:1040580008B5806B0368596990F84120212A0BD074
:10406800596990F84220222A1ED0436C43F010036D
:10407800436400F06DFD08BD0906F1D50022C28435
:1040880003F10C0252E8002F22F0C00203F10C0CDD
:104098004CE800210029F3D1202280F841205969F9
:1040A80090F84220222AE0D14A06DED50022C285B5
:1040B80003F10C0252E8002F22F4907203F10C0C69
:1040C8004CE800210029F3D103F1140252E8002F33
:1040D80022F0010203F1140C4CE800210029F3D16D
:1040E800026B012A05D02022002380F842200363B6
:1040F800BBE703F10C0252E8002F22F0100203F193
:104108000C0C4CE800210029F3D1ECE708B5806BD2
:104118000023C385C38400F01BFD08BD806B08B570
:1041280001234363036B012B02D0FFF78FFF08BD08
:10413800818D490800F072FC08BD00BF08B503680E
:10414800806B1A6812F480722BD10368C28503F160
:104158000C0252E8002F22F4807203F10C0C4CE898
:1041680000210029F3D103F1140252E8002F22F0B4
:10417800010203F1140C4CE800210029F3D103F1EA
:10418800140252E8002F22F0400203F1140C4CE80C
:1041980000210029F3D1202280F84220026B012A55
:1041A80007D000234363036B012B0FD0FFF74CFFAD
:1041B80008BD03F10C0252E8002F22F0100203F1AF
:1041C8000C0C4CE800210029F3D1EAE7818D00F0BE
:1041D80025FC08BD83680168826AB3F5805F42D018
:1041E800002B39D04B6803F07F031370826A0132C9
:1041F800C38D8262013B9BB2C385002B32D100B5CF
:104208000268D16821F0200183B0D160D16821F41F
:104218008071D16051694FF0200C21F0010151618A
:1042280080F842C04363016B012925D1036302F181
:104238000C0353E8003F23F0100302F10C0C4CE888
:1042480000310029F3D11368DB061AD4818D00F000
:10425800E5FB03B05DF804FB0369002BC2D14B6892
:10426800DBB2C2E770470369002BF8D14B68C3F390
:10427800080322F8023BBBE7FFF7E6FE03B05DF850
:1042880004FB002301931368019353680193019B76
:10429800DCE700BF30B503681A68DD68596912F0B9
:1042A8000F0F83B0044670D1910602D5A90600F11C
:1042B800A380216B01290BD0100602D5290600F135
:1042C800A580520602D5680600F1BF8003B030BD54
:1042D800D006F1D5E906EFD5002201921A680192BD
:1042E8005A680192019A5A69550640F13C81E06B7F
:1042F8000268526892B2002AE8D0A18D9142E5D9AD
:10430800E285C269B2F5807F36D003F10C0252E82B
:10431800002F22F4807203F10C0545E800210029E2
:10432800F3D103F1140252E8002F22F0010203F145
:10433800140545E800210029F3D103F1140252E8DD
:10434800002F22F0400203F1140545E8002100295E
:10435800F3D1202284F84220216303F10C0252E8B1
:10436800002F22F0100203F10C0545E80021002976
:10437800F3D1FEF7B7FDA18D02236363E38DC91A5C
:10438800204689B200F04AFBA0E711F0010140F095
:10439800CF8015F4907F8CD0D0070BD5E80540F17D
:1043A800DE80606C40F00100606450075CD5002935
:1043B80040F0C280900766D5100700F1CD80616C8F
:1043C800002983D0910609D5AA0607D594F842207A
:1043D800222A03D12046FFF7FDFE23685A69616C43
:1043E80002F0400201F0080152EA010555D12046C9
:1043F80000F0AEFB656469E790F84230222B7FF449
:1044080065AF03B0BDE83040FFF7E4BE94F8412043
:10441800212A7FF45BAFA168226AB1F5805F00F0C2
:10442800DD80511C216212785A60E28C013A92B206
:10443800E284002A7FF44AAFDA6822F08002DA6068
:10444800DA6842F04002DA6040E7DA68202122F0B8
:104458004002DA60204684F84110FFF7F3FD35E7A3
:10446800E8059ED4500767D490070CD50029A3D03F
:10447800616C41F0040161641107A0D5616C41F0E1
:10448800080161649BE7100799D505F020000843EF
:10449800F4D1626C002AA1D118E703F10C0252E8AA
:1044A800002F22F4907203F10C0040E8002100294B
:1044B800F3D103F1140252E8002F22F0010203F1B4
:1044C800140040E800210029F3D1226B012A22D0F0
:1044D8000022202184F8421022635A69550634D5F7
:1044E80003F1140252E8002F22F0400203F11400F5
:1044F80040E800210029F3D1E06B30B33D4B036560
:10450800FEF73AFD00283FF4E1AEE06B036D03B01F
:10451800BDE83040184703F10C0252E8002F22F0A2
:10452800100203F10C0040E800210029F3D1CFE785
:10453800D00795D450070CD5616C41F00201616435
:10454800910795D4110799D439E7204600F000FB6C
:10455800BCE691078CD4F5E7A9068FD499E75007F4
:104568003FF528AF80E7E18DE28DA08D92B289B248
:10457800002A3FF4ABAE411A89B200293FF4A6AE37
:1045880003F10C0252E8002F22F4907203F10C059B
:1045980045E800200028F3D103F1140252E8002F67
:1045A80022F0010203F1140545E800200028F3D1A8
:1045B800202284F84220206303F10C0252E8002FE5
:1045C80022F0100203F10C0545E800200028F3D181
:1045D80002236363204600F021FA77E62169002967
:1045E8007FF41FAF32F8021BC1F308015960226241
:1045F8001BE700BF1541000870B5134600252222AD
:1046080082B004464564816280F842208385C06B8D
:104618001D4E05650A462168C6631C4E06641C4E7D
:10462800C6640431FEF722FC236801951A680192DA
:1046380059682269019101995AB103F10C0252E8B3
:10464800002F42F4807203F10C0040E80021002999
:10465800F3D103F1140252E8002F42F0010203F1F2
:10466800140040E800210029F3D103F1140252E8B4
:10467800002F42F0400203F1140141E80020002815
:10468800F3D102B070BD00BF4541000825410008C4
:104698005940000890F842C0BCF1200F06D139B348
:1046A80030B583B022B9012003B030BD0220704775
:1046B80001230363002343630446FFF79DFF00289B
:1046C800F2D1236B012BEED122680190136801937C
:1046D80053680193019B02F10C0353E8003F43F038
:1046E800100302F10C0444E800310029F3D1DBE7A0
:1046F8000120704710B58EB000228DF806209DF875
:1047080006301E4C5B09ADF80A309DF80630DB0216
:1047180043F004039BB2ADF808308DF807209DF8EC
:1047280007305B09ADF80E309DF80730DB0243F027
:1047380004039BB2ADF80C30BDF80A30012000210B
:10474800CDE90C019BB20121BDF808000B9104933F
:10475800BDF80E10BDF80C3080B289B29BB2CDE91D
:104768000922CDE90501CDE9073204A92046FDF764
:1047780051FF0028F9D10EB010BD00BF94080020E9
:104788002DE9F0418B1E82B00022DBB28DF80320A8
:104798008DF804208DF805208DF806208DF8072067
:1047A8008DF804309DF803309DF804209A4258D9BA
:1047B800404CDFF80C81404F054604F154069DF843
:1047C80004309DF803105B1A0022DBB28DF8053027
:1047D800E26328789DF8073043EA002323646B7866
:1047E8000421DBB284F854306164A2649DF805307A
:1047F8008DF80620072B4ED816E09DF803300233BB
:10480800EA5C9DF8063001332344D2B283F8542081
:104818009DF806300133DBB28DF806309DF8033081
:104828000133DBB28DF803309DF806209DF8053082
:104838009A42E2D39DF8053020490133E3643246B9
:1048480043463846FDF7A4FF58BB9DF807300133AF
:10485800DBB28DF807309DF803209DF804309A42AA
:10486800ADD302B0BDE8F0819DF803300233EA5CB5
:104878009DF8063001332344D2B283F854209DF8C2
:1048880006300133DBB28DF806309DF80330013372
:10489800DBB28DF803309DF80630062BE4D90823E7
:1048A800E3640649434632463846FDF771FF00285F
:1048B800F7D1CAE7900E002094080020CC0E002003
:1048C8008C0E0020394B1B786BB30368384A93422F
:1048D8002AD0B3F1804F31D0364A934233D0364A8A
:1048E800934226D0354A934237D0354A934239D03D
:1048F800344A93423BD0344A934229D0334A9342B4
:104908003AD0334A93423CD0324A93423ED0324A5C
:10491800934240D0314A934242D0314A934202D125
:10492800304B5B6823B970472F4B5B68002BFAD07C
:1049380018472E4B5B68002BFAD1F4E72C4B5B68C9
:10494800002BF5D1EFE72B4B5B68002BF0D1EAE7A2
:10495800294B5B68002BEBD1E5E7284B5B68002B04
:10496800E6D1E0E7264B5B68002BE1D1DBE7254B7E
:104978005B68002BDCD1D6E7234B5B68002BD7D1D3
:10498800D1E7224B5B68002BD2D1CCE7204B5B6888
:10499800002BCDD1C7E71F4B5B68002BC8D1C2E7FE
:1049A8001D4B5B68002BC3D1BDE700BF2809002061
:1049B800000001400004004000080040000C0040D6
:1049C8000010004000140040000401400040014075
:1049D800004401400048014000180040001C00400D
:1049E80000200040080F0020700F0020580F002002
:1049F800680F0020600F0020380F0020500F0020A3
:104A0800480F0020400F0020300F0020280F002002
:104A1800200F0020180F0020100F002038B5394B48
:104A28001B789BB10368384A934204460FD0374A33
:104A380093422AD0364A934236D0364A934215D00A
:104A4800354A93424ED0354A93423CD038BD344D16
:104A5800D5F8083413B105F501709847B5F8042462
:104A680030492046BDE83840FFF714BE2E4DD5F832
:104A7800083413B105F501709847B5F804242B499B
:104A88002046BDE83840FFF705BE294DD5F8083463
:104A980013B105F501709847B5F804242549204657
:104AA800BDE83840FFF7F6BD234DD5F8083413B1FB
:104AB80005F501709847B5F8042420492046BDE85B
:104AC8003840FFF7E7BD1E4DD5F8083413B105F59A
:104AD80001709847B5F804241A492046BDE83840C3
:104AE800FFF7D8BD184DD5F8083413B105F5017096
:104AF8009847B5F8042415492046BDE83840FFF723
:104B0800C9BD00BF28090020001001400044004032
:104B180000480040004C0040005000400014014094
:104B2800B4230020B82500209017002094190020F5
:104B3800A81F0020AC2100209C1B0020A01D0020E5
:104B4800780F00207C110020841300208815002095
:104B58001E4A0368934216D01D4A93421AD01D4A32
:104B680093421ED01C4A934206D01C4A93421FD03F
:104B78001B4A934223D070471A49B1F8042401F51F
:104B88000171FFF787BD1849B1F8042401F50171D7
:104B9800FFF780BD1549B1F8042401F50171FFF74D
:104BA80079BD1349B1F8042401F50171FFF772BD0D
:104BB8001049B1F8042401F50171FFF76BBD0E49E6
:104BC800B1F8042401F50171FFF764BD001001403C
:104BD8000044004000480040004C004000500040A5
:104BE8000014014090170020B4230020A81F0020C3
:104BF8009C1B002084130020780F00202DE9F0432F
:104C08002DED028B89B007460E461446002120225E
:104C180068461D469DF848909DF84C80B0EE408A45
:104C2800F0EE608AFBF7B6FDF2EE047A28EE270A6A
:104C3800F2EE047A68EEA70AB5EEC00AF1EE10FAB1
:104C4800D8BFB1EE400AF5EEC00ABCEEC00AF1EEDC
:104C580010FAD8BFF1EE600A10EE103AFCEEE07AD6
:104C68001FFA83FE17EE90CA2B0A8DF805304FEA1B
:104C78001E238DF807304FEA1C634FEA1C418DF85C
:104C880009306B238DF804404FEA1C228DF80A1076
:104C98008DF80F306846FD23240A10218DF8007026
:104CA8008DF802608DF80D908DF80E808DF8034018
:104CB8008DF806508DF808E08DF80B208DF80CC0A3
:104CC8008DF80130FFF75CFD09B0BDEC028BBDE843
:104CD800F08300BF00B585B0014600234FF0FF0CFC
:104CE80046F666328DF8001068460421CDE9013396
:104CF80003938DF801C0ADF80220FFF741FD05B020
:104D08005DF804FB094A137FFD2BFCD1537F9F2BD1
:104D1800F9D1137FFD2B06D1507FA0F19F00B0FA87
:104D280080F0400970470020704700BF900E0020B7
:104D3800DFED1F7A20EE270AB5EEC00AF1EE10FA71
:104D4800FDEEC07A04D517EE903A013B07EE903A93
:104D5800F8EEE77A9FED177A30EE670A20EE070A39
:104D6800FCEEC07A17EE903A9BB2B3F5007F1AD2E8
:104D780007EE903AF8EE677A591C30EE670A0E4A49
:104D8800F7EE007A02EB830302EB810293ED007ADF
:104D9800D2ED006A77EEC07A20EE260A67EE877AAF
:104DA80037EE800A704730EE470A01210023E6E714
:104DB80083F9223E00000044005C00082DE9F0471A
:104DC80086468C460846089E154674461946002BAA
:104DD80040F0C2808542B2FA82F245D94AB1C2F1A6
:104DE800200300FA02FC2EFA03F3954043EA0C0C68
:104DF80094404FEA154EA8B2BCFBFEF8230C0EFBFC
:104E080018CC08FB00F943EA0C43994528D9EB185C
:104E180008F1FF3704D2994502D9A8F102072B44BB
:104E2800A3EB0903A4B2B3FBFEFC0EFB1C330CFB83
:104E380000F044EA0344A04214D92C190CF1FF33C2
:104E480004D2A04202D9ACF102032C44241A43EA4A
:104E580007401EB1D440002334607360BDE8F0877A
:104E68004746DDE76346F1E792BB431B01214FEA62
:104E7800154EAFB2B3FBFEFC200C0EFB1C330CFB33
:104E880007F840EA0343984562D9EB180CF1FF3064
:104E980004D2984502D9ACF102002B44A3EB0803D5
:104EA800A4B2B3FBFEFC0EFB1C330CFB07F744EA71
:104EB8000344A7424ED92C190CF1FF3304D2A74260
:104EC80002D9ACF102032C44E41B43EA0040C0E7DA
:104ED800C2F1200320FA03F1954090402EFA03F323
:104EE80003434FEA154EAFB2B1FBFEFC0EFB1C109C
:104EF800190C0CFB07F841EA0041884504FA02F452
:104F080022D969180CF1FF3004D2884502D9ACF1D6
:104F180002002944A1EB08019BB2B1FBFEFC0EFB89
:104F28001C110CFB07F743EA01439F420ED9EB180B
:104F38000CF1FF3104D29F4202D9ACF102012B449B
:104F4800DB1B41EA004192E76046E3E76146F7E789
:104F58006046A3E76346B7E7834206D916B900213E
:104F680008467BE7C6E900E0F9E7B3FA83F78FB9AB
:104F7800834201D3724508D8BEEB020460EB0303F9
:104F880001209C461EB9002168E73846FAE7C6E9C1
:104F9800004CF8E7C7F1200CBB4022FA0CF41C4384
:104FA8002EFA0CF120FA0CF3B84001434FEA1449E9
:104FB8000EFA07F5B3FBF9F81FFA84FE09FB18305F
:104FC8000B0C08FB0EFA43EA00439A4502FA07F273
:104FD80040D9E31808F1FF3004D29A4502D9A8F164
:104FE80002002344A3EB0A0389B2B3FBF9F809FBD7
:104FF800183308FB0EFE41EA03418E452CD961188F
:1050080008F1FF3304D28E4502D9A8F102032144E6
:1050180043EA0040A0FB0298A1EB0E014145CE46B1
:10502800434602D306D14D4504D2B9EB020E68EBD4
:1050380004030138002EA6D0B5EB0E0261EB030184
:1050480001FA0CFC22FA07F34CEA0303F940C6E91B
:10505800003198E74046C5E74346D9E703685A0058
:105068004CBF43F0004323F00043184470472DE938
:10507800F0470546164621B34F1EB8464FF00009C3
:1050880009EB080404EBD474641005EBC40108466A
:10509800FFF7E4FFA7424FEAC40A15D0B04204D98B
:1050A800A1450DD004F1FF38EAE70AF108002844C9
:1050B800FFF7D4FF0138B04203D204F10109DFE75A
:1050C80000210846BDE8F087B042E9D8F9E70000BA
:1050D800012806D0022806D00028044818BF00205E
:1050E8007047034870470348704700BFE5560008FB
:1050F800EB560008F15600081F4B37B504468D1EC5
:105108004BB101A92846AFF3008048B90023092014
:10511800236103B030BD1948194B1B1ADB100193EA
:1051280001992A46FFF7A3FF01460028EED0FFF7B2
:1051380095FF4B68A064012B1BD0002B01F10400E4
:105148000EDA0123C4E913030368002B0CDAC3F356
:105158000360FFF7BDFF031E0CBF09200020D7E73F
:10516800FFF77CFF0023EDE7FFF778FF03460020F9
:10517800CEE700230520CBE7000000000464000808
:10518800B4640008036810B50446D80706D413F0C1
:10519800020F04F1500018D0FBF72AFA23685907C8
:1051A80003D404F1D800FBF72BFA23681A0703D4B9
:1051B80004F5AC70FBF72CFA2368DB0608D404F579
:1051C800EC70BDE81040FBF767BAFBF709FAE5E7B2
:1051D80010BD0346006800B118447047704770B5A9
:1051E80005460C46216C2846FFF786FF064608B19F
:1051F800FBF7C2FA236C6B6122462B692946012012
:1052080098470828EED00728F2D13046216CFFF7DE
:10521800E5FF201DFBF7D8F92DE9F0470C1DD0F864
:105228000C90D0F818A0074616460FCCADF5767D41
:1052380003AD0FC50FCC0FC50FCC0FC594E80F00F9
:105248000DF1080885E80F000025C8F80050D8F8C7
:1052580040103846FFF750FF0936F6B2044668BBDF
:10526800D8F840307B614FF4F47241467CA8FBF7D4
:1052780091FC3B697CAA3946304698478A9B05468B
:10528800C8F848303A46CDE9008A3B463146012005
:10529800C847C0B9C4B94FF4F4727CA94046FBF7BB
:1052A80079FC082D2646D2D0072D0CD12046D8F8F7
:1052B8004010FFF793FF03A8FBF786F9D8F83830BA
:1052C80046F01006DCE7092420460DF5767DBDE89A
:1052D800F087F0B5CB6BFBB00D1D0B6406460F468F
:1052E8000FCD01AC0FC40FCD0FC40FCD0FC495E87F
:1052F8000F0084E80F004FF0FF33009310993046F9
:10530800FFF7FAFE78B933696A46314698470828A4
:105318000446F3D06846FFF735FF062C03D139461B
:105328003046FFF75CFF09207BB0F0BD10B4826106
:10533800DA6BC16010BC1A6419460022FFF76CBF13
:1053480070B5C66843690B6404460D4626B1012250
:10535800FFF762FFFBF710FA03690A4601460220CD
:105368009847072805D00828F4D129462046FFF792
:1053780036FF3046296CFFF731FF281DFBF724F96B
:10538800C2680AB9FFF7A5BFCA6B0A640022FFF713
:1053980043BF30B5039C052911D8DFE801F00503A8
:1053A8001003030E012030BD4BB90F2A07D800EBBC
:1053B8008200436823600020F5E7436CFAE7022087
:1053C800F1E71FB503AB009300230A461946FFF720
:1053D800E0FF039805B05DF804FB30B5039C052990
:1053E80012D8DFE801F005031103030E012030BDD8
:1053F80053B90F2A08D800EB8200236843600020C5
:10540800F5E723684364FAE70220F0E71FB503AB2A
:105418000093002303920A461946FFF7DEFF05B002
:105428005DF804FBF0B5D36BADF5117D141D136465
:1054380006460F460FCC17AD0FC50FCC0FC50FCCC6
:105448000FC594E80F0085E80F004FF0FF3316935F
:1054580026996846FFF750FE90B90C2116A86A46AF
:10546800FFF7D4FF394616A8B04748B9049B16AAD7
:105478006946082098470528044602D00928E7D13C
:10548800092416A8FFF77EFE20460DF5117DF0BD14
:105498002DE9F04FCD6C87B0174655F8042B0495CD
:1054A8000C4600F003099A4653BB12028DF81530DA
:1054B800039203238DF81430236DB9F1020F08BF4E
:1054C800A56B13F0010840F0008100F00803009379
:1054D8002B68FBB903A9384600F034FA002840F0DD
:1054E800F780B8F1000F00F0F5800F213846FFF77C
:1054F80068FF0E2102463846FFF788FF764A4AE0E1
:10550800130C8DF815301204DBB205EB83050392FA
:105518000223CFE7BAF1020F0CBFD5F804B0B5F8F3
:1055280002B0A26C18BF2B8801930CBF05F10806C6
:105538002E1D0F212BF0010538461544FFF741FFBA
:105548008542019B29D823F001022A44824294BF54
:10555800002201224FEA4B0000F0020003F0010391
:1055680040EA0305012D1AD0022D60D0002D40F02D
:10557800AF80351DB9F1000FAAD0002AA8D0304657
:10558800FFF76CFDA56306462046AFF300800028B0
:1055980000F09E8032460F213FE00022DAE7B9F1A1
:1055A800000F26D1002A3FD073683268991C4FEA51
:1055B800D27200F08D8004F158010133029109D0B4
:1055C800301DFFF706FE02AB01462046AFF3008010
:1055D800054648B30D213846FFF7F3FE022D029B1E
:1055E800206202D1E36204F12C03C4E909360620E3
:1055F80017E00D213846FFF7E4FE256A854213D1EE
:10560800A36A9E4210D13046FFF728FD0F210246BB
:105618003846FFF7FBFE224600213846FFF7F6FE24
:10562800072007B0BDE8F08F06F1080550E7356898
:1056380025F00045B9F1000F2AD19AB1009BCBB1F2
:1056480085B9CB4618E00BF1010B019B029306EBE1
:105658008B00FFF7BEFD0022014602AB2046AFF3E8
:10566800008060B13368002B00DA0436013506EBA0
:1056780085052DE7DDF800B004F158030193AB452B
:10568800E1D10D213846FFF79CFE029B2062ACE772
:105698000D213846FFF795FED4F820B08345E1D1B7
:1056A800A36A9E42DED14FF000080423C4E90B83AD
:1056B800F318A56263633368434503DA681C06EB95
:1056C8008000A1E74FF00108D0E74FF0000801E79C
:1056D8000920A6E70820A4E7000000000023FFF740
:1056E800D7BE0123FFF7D4BE0223FFF7D1BE2DE9B1
:1056F800F0410446C2B015461F4605292AD8DFE8FE
:1057080001F0032029739E1A27BB836B92B20121F3
:10571800043001FA07F616421CBF53F8046B40F830
:1057280027600137102FF4D1A90400D4A363002007
:1057380042B0BDE8F081836B62B953F8042B426430
:10574800F4E7012F4FEA124896B205D108EB060399
:10575800102B19D90220EBE7052FFBD108EB060522
:10576800202DF7D8B8F10F0F40F28E8076B335466A
:105778002368580740F19280204623F0040340F83C
:10578800D83BFAF741FF89E0B8F1100FE2D00025C5
:105798007DE0052F04F1500007D123F0010343F009
:1057A80002032360FAF728FF75E023F00303236060
:1057B800FAF71AFF6FE0B8F10F0F02D820A8FAF72E
:1057C8001BFF1DB16846FAF71FFF6EE000256EE06B
:1057D800B8F10F0F02D820A8FAF70AFF002DA6D0BB
:1057E8006846FAF70DFFA2E7032FB3D197B207EB8C
:1057F8001245102D4FEA1246ACD80368190706D592
:1058080023F00803036000F5AC70FAF723FF20A823
:10581800FAF720FFA26B20AB03EBC6037900D51A79
:10582800013903EB050006D202EBC702A26320A8E8
:10583800FAF7EEFE7BE7006843F8040BF0E7002F69
:1058480088D1102A86D80368DA0606D523F0100313
:10585800036000F5EC70FAF729FF20AE3046FAF73E
:1058680025FFA36B0022012101FA02F028421CBF88
:1058780053F8040B46F822000132042AF4D1A3633A
:105888003046FAF709FF52E7102D80D9103D2368FA
:10589800DA073FF57EAF002D7FF46AAF012F8AD17A
:1058A80020A8FAF7A1FE002D90D0C8F11006A06B31
:1058B800002E03460EDD20AB720003EBC803013A4D
:1058C800A0EB030C53F80C1043F8041B013AF9D26F
:1058D80000EBC6039DB14246102A42A838BF1022E9
:1058E80000EBC20269000139A2F5C672184650F8E9
:1058F800046B42F8046F0139F9D203EBC503012F99
:1059080008BF0433012FA3637FF462AF20A8FAF71E
:1059180067FE0CE7027A03467AB9427A82B1013A05
:1059280042724268111D12680260416003221A72B5
:105938001A68100E12021A607047013AD2B2F6E7DE
:10594800B02070472DE9F043054685B00E464FF06C
:1059580000083046FFF7DEFFB028044615D1B8F13D
:10596800000F0ED102AC43460E2241460094284651
:10597800FFF70FFD009443460F2241462846FFF7E4
:105988002CFD002005B0BDE8F08302061DD40023DD
:1059980002AF4FEA8009194600970D222846FFF703
:1059A800F8FC5FFA89F9029B09F1040914F0400F29
:1059B80014BFA3EB09034B440293009700230D2265
:1059C80019462846FFF709FDC3E700F0F003802BCE
:1059D80018D104023046FFF79DFF0443B4F5004F89
:1059E80001D10920CEE724010023A2B21946284696
:1059F800FFF77DFE0028F4D114F4004F18BF4FF0D4
:105A08000108A6E7902B0DD100F00D030D2BE8D06F
:105A180002AF002300F00F02009719462846FFF74F
:105A2800B8FCCAE7A02B0ED1C34303F007034FF419
:105A38007F621A41030702F47F6201D542F4804273
:105A48000023194643E0B02B5DD1A0F1B103042B2C
:105A58004DD8DFE803F0030C2D3943003046FFF73B
:105A680059FF431EDBB20E2B0246E9D9B9E70023E2
:105A780002AC0D22194600942846FFF78AFC3046EE
:105A8800FFF748FF022710F08003029A06D1B840BA
:105A980002F5017210440290009490E700F07F0034
:105AA800B8401044029030460737FFF733FFEAE763
:105AB8003046FFF72FFF020300F00F0002F47022B8
:105AC800013001230243BCE700231A46052128467A
