:020000040800F2
:1000000000000220298D0008618300086583000834
:10001000698300086D8300087183000800000000F8
:1000200000000000000000000000000075830008D0
:1000300079830008000000007D83000881830008A8
:10004000798D0008798D0008798D0008798D000878
:10005000798D0008798D0008798D0008798D000868
:10006000798D0008798D0008798D00088583000856
:10007000918300089D830008A9830008B5830008C8
:10008000C1830008CD830008798D0008798D0008B0
:10009000D9830008798D0008798D0008798D0008D2
:1000A000798D0008798D0008798D0008798D000818
:1000B000798D0008798D0008798D0008798D000808
:1000C000798D0008798D0008798D0008798D0008F8
:1000D000798D0008E5830008F1830008FD8300089E
:1000E000798D0008798D0008798D0008798D0008D8
:1000F000798D0008798D0008798D00080984000841
:10010000798D0008798D0008798D0008798D0008B7
:1001100015840008218400082D840008798D0008CA
:10012000798D0008798D000839840008798D0008E0
:10013000798D0008798D0008798D0008798D000887
:10014000798D0008798D0008798D0008798D000877
:10015000798D0008798D000845840008798D0008A4
:10016000798D0008798D0008798D0008798D000857
:10017000798D0008798D0008798D00080000000055
:08018000798D0008798D00085B
:1001C00081F0004102E000BF83F0004330B54FEA08
:1001D00041044FEA430594EA050F08BF90EA020F75
:1001E0001FBF54EA000C55EA020C7FEA645C7FEA08
:1001F000655C00F0E2804FEA5454D4EB5555B8BF2B
:100200006D420CDD2C4480EA020281EA030382EA9B
:10021000000083EA010180EA020281EA0303362D2D
:1002200088BF30BD11F0004F4FEA01314FF4801C00
:100230004CEA113102D0404261EB410113F0004F12
:100240004FEA03334CEA133302D0524263EB4303C9
:1002500094EA050F00F0A780A4F10104D5F1200E67
:100260000DDB02FA0EFC22FA05F2801841F10001C2
:1002700003FA0EF2801843FA05F359410EE0A5F196
:1002800020050EF1200E012A03FA0EFC28BF4CF0C7
:10029000020C43FA05F3C01851EBE37101F000457D
:1002A00007D54FF0000EDCF1000C7EEB00006EEB8A
:1002B0000101B1F5801F1BD3B1F5001F0CD3490814
:1002C0005FEA30004FEA3C0C04F101044FEA44526B
:1002D00012F5800F80F09A80BCF1004F08BF5FEAF2
:1002E000500C50F1000041EB045141EA050130BDD2
:1002F0005FEA4C0C404141EB0101013C28BFB1F5E4
:10030000801FE9D291F0000F04BF01460020B1FA2E
:1003100081F308BF2033A3F10B03B3F120020CDA01
:100320000C3208DD02F1140CC2F10C0201FA0CF0DF
:1003300021FA02F10CE002F11402D8BFC2F1200C44
:1003400001FA02F120FA0CFCDCBF41EA0C019040FA
:10035000E41AA2BF01EB0451294330BD6FEA040443
:100360001F3C1CDA0C340EDC04F11404C4F120022E
:1003700020FA04F001FA02F340EA030021FA04F340
:1003800045EA030130BDC4F10C04C4F1200220FA97
:1003900002F001FA04F340EA0300294630BD21FAD5
:1003A00004F0294630BD94F0000F83F4801306BF9B
:1003B00081F480110134013D4EE77FEA645C18BF8F
:1003C0007FEA655C29D094EA050F08BF90EA020F26
:1003D00005D054EA000C04BF1946104630BD91EA1E
:1003E000030F1EBF0021002030BD5FEA545C05D121
:1003F0004000494128BF41F0004130BD14F5800460
:100400003CBF01F5801130BD01F0004545F0FE41D3
:1004100041F470014FF0000030BD7FEA645C1ABF08
:10042000194610467FEA655C1CBF0B46024650EA3F
:10043000013406BF52EA033591EA030F41F400216B
:1004400030BD00BF90F0000F04BF0021704730B5F1
:100450004FF4806404F132044FF000054FF00001C6
:1004600050E700BF90F0000F04BF0021704730B587
:100470004FF4806404F1320410F0004548BF40425C
:100480004FF000013EE700BF42004FEAE2014FEAB1
:1004900031014FEA02701FBF12F07F4393F07F4F8C
:1004A00081F06051704732F07F4208BF704793F08F
:1004B0007F4F04BF41F40021704730B54FF46074A2
:1004C00001F0004521F000411CE700BF50EA0102A5
:1004D00008BF704730B54FF000050AE050EA01024E
:1004E00008BF704730B511F0004502D5404261EBBE
:1004F00041014FF4806404F132045FEA915C3FF4FF
:10050000D8AE4FF003025FEADC0C18BF03325FEA9B
:10051000DC0C18BF033202EBDC02C2F1200300FA4C
:1005200003FC20FA02F001FA03FE40EA0E0021FA71
:1005300002F11444BDE600BF4FEA4102B2F1E043CC
:1005400024BFB3F5001CDCF1FE5C0DD901F0004CBA
:100550004FEAC0024CEA5070B2F1004F40EB83000A
:1005600008BF20F00100704711F0804F21D113F136
:100570003872BCBF01F00040704741F480114FEA6F
:100580005252C2F11802C2F1200C10FA0CF320FAF8
:1005900002F018BF40F001004FEAC1234FEAD32315
:1005A00003FA0CFC40EA0C0023FA02F34FEA43037F
:1005B000CCE77FEA625307D150EA01331EBF4FF008
:1005C000FE4040F44000704701F0004040F0FE4023
:1005D00040F40000704700BF53B94AB9002908BF72
:1005E00000281CBF4FF0FF314FF0FF3000F0E2B8A1
:1005F000ADF1080C6DE904CE12F0A2F8DDF804E0CC
:10060000DDE9022304B0704700F1340191E83800BD
:100610009C46A6464CF8045D90E8FF0FE54600BDF9
:1006200090EC210B704700BF80EC210B704700BF9E
:1006300090EC200B704700BF80EC200B704700BF90
:10064000D0EC200B704700BFC0EC200B704700BF00
:10065000F0EC0201F0EC0211F0EC0221F0EC0231BE
:10066000F0EC0241F0EC0251F0EC0261F0EC0271AE
:10067000F0EC0281F0EC0291F0EC02A1F0EC02B19E
:10068000F0EC02C1F0EC02D1F0EC02E1F0EC02F18E
:10069000704700BFE0EC0201E0EC0211E0EC022147
:1006A000E0EC0231E0EC0241E0EC0251E0EC0261EE
:1006B000E0EC0271E0EC0281E0EC0291E0EC02A1DE
:1006C000E0EC02B1E0EC02C1E0EC02D1E0EC02E1CE
:1006D000E0EC02F1704700BFB0FC0181B0FC019179
:1006E000B0FC01A1B0FC01B1704700BFA0FC0181CA
:1006F000A0FC0191A0FC01A1A0FC01B1704700BFCA
:10070000EC4600B52DE900502DE9FF1F4FF0000326
:100710002DE90C0001A912F09EFADDF840E012B0BC
:10072000704700BFEC4600B52DE900502DE9FF1FD2
:100730004FF000032DE90C0001A912F0C3FADDF817
:1007400040E012B0704700BFEC4600B52DE9005004
:100750002DE9FF1F4FF000032DE90C0001A912F055
:10076000D1FADDF840E012B0704700BFEC4600B5AA
:100770002DE900502DE9FF1F4FF000032DE90C007B
:1007800001AB12F095FADDF840E012B0704700BFFF
:10079000EC4600B52DE900502DE9FF1F4FF0000396
:1007A0002DE90C0001AA12F006FBDDF840E012B0C2
:1007B000704700BF704700BF08B5062001F0E6FD96
:1007C000012007F04FFE00BF002301461A461846DD
:1007D00002F0A2BA10B4044C03460A4620685DF841
:1007E000044B194600F010B82004002000B5054B5A
:1007F00083B0014601AA186800F006F803B05DF85E
:1008000004FB00BF200400202DE9F047DFF87490BE
:1008100007460E46904602F0BFFAD9F800504DB197
:1008200033781C466BB1344602E014F8013F3BB10B
:100830003D2BFAD1384602F0B5FA0020BDE8F0872A
:10084000A41B28680028F5D02246314601F0C0FCE0
:1008500028B92868035D3D2B00EB040A04D055F845
:10086000040F0028F0D1E5E7D9F80030EB1A9B100F
:100870003846C8F8003002F095FA0AF10100BDE8E8
:10088000F08700BFB806002000B583B001AAFFF7CB
:10089000BBFF03B05DF804FB024B0146186800F093
:1008A0000BB800BF20040020024B0146186802F07C
:1008B000DBBA00BF200400202DE9F04F01F10B0549
:1008C000162D83B0064624D8102900F2B08000F01F
:1008D000ADFA102518224FF0020CC14F3A44A2F194
:1008E000080354689C4200F030816368E268A168A4
:1008F00023F003032344CA6091605A6842F0010266
:1009000030465A60083400F097FA204603B0BDE83C
:10091000F08F35F0070500F18A80A94200F2878048
:1009200000F084FAB5F5FC7FC0F079816B0A00F025
:100930008280042B00F23081AB0903F1390C03F102
:1009400038044FEACC03A64F3B44A3F108005B6890
:10095000984206D10CE0002980F2E580DB689842DD
:1009600006D05A6822F00302511B0F29F3DDA4467A
:10097000DFF870823C69444500F0C280636823F070
:100980000309A9EB05030F2B00F34E81002BC7E9E8
:10099000048880F23881B9F5007FD7F804E080F050
:1009A000DB804FEAD90101314FEA5919012303FADB
:1009B00009F357F83120A2604EEA030E07EBC1039A
:1009C000083BE360C7F804E047F83140D4604FEAE1
:1009D000AC0301209840704533D810EA0E0F07D1C0
:1009E0002CF0030C400010EA0E0F0CF1040CF9D0AF
:1009F00007EBCC0A5346E146D9680EE04A6822F07C
:100A00000302A2EB050EBEF10F0F0C46C96800F3FE
:100A1000D080BEF1000F80F2E9808B42EED109F167
:100A2000010919F0030F03F10803E5D128E10C23B4
:100A30003360002469E74FF400734FF0400C3F240B
:100A400081E7BC68636823F00309A94503D3A9EBD8
:100A500005030F2B57DCDFF890B1DBF800200820EE
:100A6000103202EB050801F009FED7F80814013135
:100A7000024604EB090305D008F1FF3880444142E7
:100A800001EA080841463046CDE9003201F078FD20
:100A9000B0F1FF3FDDE90032824600F0E2808342A0
:100AA00000F2DD80DBF804104144CBF80410084666
:100AB00002F1FF3C40F001811AEA0C0F40F0FD808A
:100AC000D7F808A0C84448F00100CAF80400DBF8D1
:100AD0002C208A42DBF8302038BFCBF82C108A4219
:100AE00038BFCBF83010544620F00308A845A8EBD7
:100AF000050301D30F2B06DC304600F09DF998E783
:100B0000D7F804E063E7621943F0010345F00105FB
:100B100065603046BA60536000F08EF908342046B4
:100B200003B0BDE8F08FD3E902411A44E1608C6064
:100B3000516841F001013046516003F1080400F0B2
:100B40007BF9204603B0BDE8F08FD468A2427FF461
:100B5000CCAE0CF1020C0BE7B9F5206F4FEA59222D
:100B600076D3142A00F20B8102F15C03DB005B32C6
:100B7000F918FB580839994203D1E8E09B6899427B
:100B800004D05A6822F003024A45F7D8D968C4E96C
:100B900002318C60DC601AE7142B65D9542B00F20B
:100BA000F7802B0B03F16F0C03F16E044FEACC03BB
:100BB000C9E63046A668631945F001056560F16035
:100BC0008E604EF00101C7E90433C3F80880C3F812
:100BD0000C80596044F802E000F02EF9083494E6E5
:100BE0000000002008000020480700202244304672
:100BF000536843F00103536054F8083FD9608B6099
:100C000000F01AF981E6A1443046D9F8043043F0E7
:100C10000103C9F80430083400F00EF975E64FEA14
:100C2000D50C05F1080258E6621943F0010145F0C0
:100C3000010565603046C7E90422C2F80880C2F8A1
:100C40000C80516044F8093000F0F6F808345CE696
:100C50004FEA991202F13903DB00383288E7BC42CF
:100C600024D0BC6860683FE703F15C0C03F15B04CF
:100C70004FEACC0367E65AF80839534540F0D38071
:100C80001CF0030F0CF1FF3CF5D17B6823EA000355
:100C90007B60400098423FF6D4AE18B9D1E64000E0
:100CA00009F104091842FAD0CC46A1E6DBF80400A9
:100CB0004044CBF8040002F1FF3CD7F8081401319E
:100CC0001BBFAAEB0303C018C7F808A4CBF80400A5
:100CD0001AF00703009343D0C3F108018A44D044BB
:100CE0000A4408EA0C01521A02EA0C01304601914A
:100CF00001F046FC421C7AD00199A0EB0A0000EBFF
:100D00000108DBF80420C7F808A048F001001144EE
:100D1000BC42CAF80400CBF804103FF4D8AEB9F1D5
:100D20000F0F40D96268A9F10C0020F0070002F013
:100D300001020243626022184FF0050C0F28C2F82E
:100D400004C0C2F808C048D8DAF80400BFE6921020
:100D5000012000FA02F24EEA020EC7F804E016E79C
:100D60000AEB080101EA0C01521A02EA0C013046B2
:100D7000019101F005FC431CBED10099C1E7542A42
:100D800015D84FEA193202F16F03DB006E32EFE63D
:100D9000B3F5AA7F15D8EB0B03F1780C03F17704B8
:100DA0004FEACC03CFE50123CAF80430A4E6B2F53C
:100DB000AA7F23D84FEAD93202F17803DB007732D9
:100DC000D6E640F25452934223D8AB0C03F17D0C8B
:100DD00003F17C044FEACC03B5E504F10801304689
:100DE00002F042F8DBF80410D7F808A0ACE7009B4B
:100DF000083B9844A8EB0A08002182E740F25453CC
:100E00009A420CD84FEA994202F17D03DB007C3212
:100E1000AEE64FF47E734FF07F0C7E2493E54FF4E3
:100E20007E737E22A4E67B6833E700BF014801F0B1
:100E30001BBC00BFCC080020014801F01DBC00BF56
:100E4000CC08002010B4044C03460A4620685DF824
:100E5000044B194600F002B8200400202DE9F84F99
:100E60001646002900F096800C46804606F10B05D8
:100E7000FFF7DCFF54F8041C162DA4F1080921F03B
:100E8000030758D81025AE4258D8AF4260DABE4B9F
:100E90009A6809EB070C6245DCF8040000F09080CA
:100EA00020F0010363445B68DA0768D420F0030094
:100EB0003B189D4247DDCB0712D454F8083CA9EB00
:100EC000030BDBF8043023F00302104400EB070AA5
:100ED000554540F3F68007EB020A554540F3CC80B8
:100EE00031464046FFF7E8FC0646002800F0208126
:100EF00054F8043C23F001034B44A0F10802934250
:100F000000F0B4803A1F242A00F2D780132A00F29E
:100F1000A2800346224611681960516859609268A0
:100F20009A602146404601F09FFF4046FFF784FF4C
:100F30003046BDE8F88F35F00705A4D50C23C8F876
:100F40000030002618E01F46DCE90223D3609A60D7
:100F5000D9F804307A1B0F2A03F0010309EB0700CC
:100F60001DD83B43C9F80430436843F00103436094
:100F70004046FFF761FF26463046BDE8F88FC907B7
:100F8000AED454F8083CA9EB030BDBF8043023F093
:100F90000302A0E7BDE8F84F1146FFF78DBC09EB4F
:100FA00005012B4342F00102C9F804304A6043684E
:100FB00043F0010343600831404601F055FFD7E795
:100FC00020F00300C21905F1100C624580F29180F7
:100FD000CA0785D454F8082CA9EB020BDBF80420CF
:100FE00022F00302104400EB070AD4453FF773AF29
:100FF0005E46DBF80C1056F8080F3A1F242AC16031
:10100000886000F2AE80132A40F2A9802168CBF8F4
:1010100008106168CBF80C101B2A00F2A880083475
:101020000BF110022168116061685160A168916044
:101030000BEB0501AAEB050242F0010299604A6040
:10104000DBF8043003F001032B434046CBF80430B7
:10105000FFF7F2FE90E723680360636843601B2A92
:101060003CD804F1080200F1080354E750F8043CAE
:1010700023F003031F446BE73A1F5E46DBF80C3096
:1010800056F8081F242ACB60996022D8132A1ED94B
:101090002368CBF808306368CBF80C301B2A3BD8A8
:1010A00008340BF1100322681A6062685A60A26863
:1010B0009A6034465746D9464AE7214600F04EFF2B
:1010C0002FE7DCE902133A1FCB609960D5E733467E
:1010D000E9E72146304600F041FFEAE7A368836074
:1010E000E368C360242A27D004F1100200F1100342
:1010F00011E709EB05019960531B43F001034B60B5
:1011000054F8043C03F001032B43404644F8043CEC
:10111000FFF792FE26462FE7A368CBF81030E3686E
:10112000CBF81430242A10D010340BF11803BAE78E
:101130004046FFF781FE04E723690361616941616D
:1011400004F1180200F11803E5E62369CBF8183022
:101150006369CBF81C3018340BF12003A3E7324647
:1011600060E72146304600F0F9FE074B60E7A168D2
:10117000CBF81010E168CBF81410242A06D01034F4
:101180000BF118024EE700BF000000202269CBF8E7
:1011900018206269CBF81C2018340BF1200241E7BB
:1011A0002DE9F047074649480E46354616F801EB4B
:1011B00010F80EC01CF0080CF7D1BEF12D0F5AD05C
:1011C000BEF12B0F03BF96F800E06446AE1C6446E8
:1011D0004BB9BEF1300F5CD00A23DFF8F4804FF03A
:1011E000050A99460AE0102B4AD04FF0FF38B8FBA9
:1011F000F3F803FB08FA6FEA0A0A99460025284625
:1012000005E02CD009FB00C0012516F801EBAEF17A
:10121000300CBCF1090F06D9AEF1410CBCF1190F2D
:101220000BD8AEF1370C634510DDB5F1FF3FECD0C4
:101230004045E6D94FF0FF35E7E7AEF1610CBCF170
:10124000190F03D8AEF1570C6345EEDC6B1C0BD0C5
:1012500004B140420AB165B91160BDE8F087D445D8
:10126000D0DD4FF0FF35D0E722233B602846002A2F
:10127000F3D0711EF0E796F800E00124AE1CA7E75A
:10128000BEF1300F11D04FF00F0A6FF07048994641
:10129000B4E7337803F0DF03582B0BD008234FF06B
:1012A000070A6FF060489946A8E7307800F0DF0041
:1012B0005828E8D14FF0100996F801E04FF00F0AD6
:1012C00002366FF070484B4698E700BFE9350108D9
:1012D0009999991964E700BF10B4044C84461346E9
:1012E00020685DF8044B0A46614659E72004002057
:1012F00010B4044C8446134620685DF8044B0A463B
:1013000061464DE720040020024A0349034800F0EB
:1013100093BB00BF10040020FD4A000828040020F1
:101320000C4B4168994210B5044601D003F0E6FB2E
:10133000A168094B994202D0204603F0DFFBE16827
:10134000064B994204D02046BDE8104003F0D6BBBE
:1013500010BD00BF7C070020E40700204C080020DF
:1013600008B54B6EDA0702D48B899B0501D50020A6
:1013700008BD886D01F078F9002008BD08B54B6EF6
:10138000DA0702D48B899B0501D5002008BD886D42
:1013900001F072F9002008BD2DE9F843314C324BC1
:1013A000DFF8D890DFF8D880304FC4F83831002506
:1013B00029460423082204F15C002D4EE360C4E9B1
:1013C0000055C4E90455A5606566A56100F046FEB8
:1013D00004F15800C4E90749C4E90987E66201F04D
:1013E0003BF92946234B6367082204F1C400C4E992
:1013F0001A55C4E91E552567C4F8CC50C4F880506E
:1014000000F02CFE04F1680304F1C000C4F884303D
:10141000C4E92298C4E9247601F01EF9164BC4F8F9
:10142000DC30294604F596700822C4E93455C4E935
:101430003855C4F8D850C4F83451C4F8E85000F016
:101440000DFE04F1D003C4E93D87C4F8F09004F523
:101450009470C4F8FC60C4F8EC30BDE8F84301F0C7
:10146000FBB800BF7C07002009130008611C0008BE
:10147000851C00080900010012000200F91B000889
:10148000211C0008F8B506462A4801F0EDF82A4B61
:10149000D3F83831002B43D0284FD7E90134013B32
:1014A00004D524E05A1C04F1680420D0B4F90C508F
:1014B000013B002DF6D1224BE36004F15800656634
:1014C00001F0CAF81B4801F0D7F8C4E90155C4E996
:1014D00004552560A5610822294604F15C0000F04E
:1014E000BDFDC4E90C55C4E911552046F8BD3D6861
:1014F0000DB12F46D1E74FF4D6713046FFF7DCF936
:10150000044680B10423056043600C302946A06086
:1015100025464FF4D07200F0A1FD3C602F46BCE799
:10152000FFF73AFFB8E703483C6001F0A5F80C2349
:101530003360DAE7D80800207C0700201004002080
:101540000100FFFF10B504460B4801F08DF8636BF6
:101550002BB90A4B0A4AD3F83831626323B1BDE88C
:101560001040054801F088B8FFF716FFBDE81040AD
:10157000014801F081B800BFD80800207C07002096
:1015800021130008014801F06FB800BFD8080020FF
:10159000014801F071B800BFD808002008B505481F
:1015A00001F062F8BDE80840034A0449002000F059
:1015B00043BA00BFD80800201004002061130008BF
:1015C00008B5054A0549002000F036FABDE8084094
:1015D000034801F051B800BF100400207D1300083B
:1015E000D808002030B5144683B0054608B1436BD7
:1015F000FBB1636EDB0702D4A389980513D522469D
:10160000284600F03DFA636EDA07054602D4A38946
:101610009B0502D5284603B030BDA06D01F02CF823
:10162000284603B030BDA06D019101F01DF801996D
:10163000E5E70191FFF786FF0199DAE7144B70B5F2
:101640001E6805460C460EB1736BE3B1636ED80796
:1016500002D4A389990512D522462946304600F0C6
:101660000FFA636EDA07054602D4A3899B0501D5FC
:10167000284670BDA06D00F0FFFF284670BDA06D2C
:1016800000F0F2FFE8E73046FFF75CFFDEE700BF5F
:101690002004002030B587B0054608461446019165
:1016A00001F0CEFA01AA0123CDE9020205900493CC
:1016B0000DB16B6B63B3636EB4F90C20D80701D422
:1016C00091051ED5900405D442F4005223F4005332
:1016D000A281636699041FD4284603AA214600F01C
:1016E0002BF8636E0546DA0702D4A3899B0502D561
:1016F000284607B030BDA06D00F0BEFF284607B0F9
:1017000030BDA06D00F0B0FFB4F90C20636ED9E7D6
:101710002846FFF717FFCEE74FF0FF35E3E700BF9E
:1017200010B4044C03460A4620685DF8044B194681
:10173000FFF7B0BF200400209368002B00F0F88072
:101740002DE9F04FB1F90CC01CF0080F83B09046A2
:1017500081460C4631D00B697BB31CF00207D8F8E8
:10176000006038D00027D4F824B0E169DFF8C4A2C3
:101770003D4655452B463A4628BF53464846C5B1D7
:10178000D847002840F3CA80D8F808301B1A07440D
:101790002D1AC8F80830002B00F0B68055452B46AE
:1017A000D4F824B0E16928BF53463A464846002D94
:1017B000E6D1D6E900750836DBE72146484600F059
:1017C0003DFB002840F0AF80B4F90CC0D8F80060B1
:1017D0001CF00207C6D11CF0010A63D12368A1687E
:1017E000574618468B46002F58D01CF4007F00F057
:1017F000B580B9420A4600F2E1801CF4906F2FD008
:10180000216962695D1A02EB420202EBD2726B1C23
:1018100052103B44934292BF93469B461A461CF497
:10182000806F00F0EA8011464846FFF745F800282F
:1018300000F0F9802A462169009001F051F9A2894F
:10184000009B22F4906242F08002A2815819ABEB17
:101850000505C4F814B02361A5602060BB463A4674
:101860005146009200F07AFBA1682368009AA1EB30
:101870000B011A443D46A16022600027D8F80830C9
:101880005B1BAA44C8F80830002B3DD02368A16830
:10189000B4F90CC018468B46002FA6D1D6E900A794
:1018A00008369EE73846BB463D460097002D41D09E
:1018B000002846D0009A2068A168D4E90473AA429F
:1018C00028BF2A46B84204D901EB030A524500F367
:1018D0008580934275DCE169676A5A464846B84795
:1018E000B0F1000A1ADD009BB3EB0A0300930FD09E
:1018F0000120D8F80830A3EB0A03D344A5EB0A056E
:10190000C8F80830002BD1D1002003B0BDE8F08F1B
:101910002146484603F0F6F90028EAD0B4F90C3025
:1019200043F04003A3814FF0FF3003B0BDE8F08FD8
:1019300000207047756833460836002DFAD0D3F87A
:1019400000B02A460A21584601F07AF8002867D0EC
:101950000130A0EB0B0300931A46ACE722699A42D0
:1019600014D36269BA4211D86FF00043BB4228BF5A
:101970003B46656A93FBF2F3E16902FB03F34846D9
:101980005246A847051EC9DD7F1B77E7B94228BF2D
:1019900039460D4618460A46514600F0DFFAA1685E
:1019A0002368491B2B44A16023600029ECD1214608
:1019B000484603F0A7F90028E6D0AFE7BB463A4611
:1019C0004EE75946019200F0C9FA019AA3689B1AA2
:1019D000A360236813442360924684E75946524625
:1019E00000F0BCFA2368534423602146484603F0C4
:1019F00089F900283FF477AF90E74846FFF72EFAC1
:101A0000034600287FF422AF2169484601F02CFAF2
:101A1000B4F90C300C2223F08003C9F800207FE7D2
:101A20006A1C009247E70C22B4F90C30C9F8002078
:101A300076E700BF00FCFF7F2DE9F84380460F46A4
:101A400016464FF00009D6E90154013D11D4A3898F
:101A5000012B05F1FF3508D9B4F90E3001332146C9
:101A600003D04046B84749EA00096B1C04F16804FA
:101A7000EDD13668002EE6D14846BDE8F88300BFB8
:101A800070B50E461446054610B1436B002B2FD09F
:101A9000636ED80702D4A389990520D5A368013BBA
:101AA000002BA36019DAA26993420FDBF0B20A2877
:101AB0000CD023685A1C226005461E70636EDA073C
:101AC00002D4A3899B050ED5284670BD2846224620
:101AD000314600F051F90546F0E7F0B2E9E7A06DB4
:101AE00000F0C2FDDAE7A06D00F0C6FD284670BD2B
:101AF000FFF728FDCCE700BF1E4B70B51E680546FA
:101B00000C4616B1736B002B2FD0636ED80702D42E
:101B1000A389990520D5A368013B002BA36019DA9E
:101B2000A26993420FDBE8B20A280CD023685A1C42
:101B3000226006461D70636EDA0702D4A3899B05F6
:101B40000ED5304670BD30462246294600F014F9C5
:101B50000646F0E7E8B2E9E7A06D00F085FDDAE7B8
:101B6000A06D00F089FD304670BD3046FFF7EAFCFD
:101B7000CBE700BF200400200CB410B59CB01EAB16
:101B8000029106916FF0004104910791084953F8C2
:101B9000042B0591002402A901931B9401F064FA1F
:101BA000029B1C701CB0BDE8104002B0704700BF23
:101BB0000802FFFF0EB410B59DB01FAB6FF00041DF
:101BC000029006900A48049107910A4953F8042BA1
:101BD0000591002402A9006801931B9401F044FAC6
:101BE000029B1C701DB0BDE8104003B0704700BFE1
:101BF000200400200802FFFF10B50C46B1F90E10BA
:101C000000F090FC002803DB236D0344236510BD26
:101C1000A38923F48053A38110BD00BF0020704727
:101C20002DE9F0410C46B1F90C101F46CB050546D5
:101C300016460BD421F48051A1813B46B4F90E1015
:101C400032462846BDE8F04100F0ACBCB4F90E10B5
:101C50000223002200F050FCB4F90C10EAE700BFA8
:101C600010B50C46B1F90E1000F046FCB4F90C307A
:101C7000421C0EBF23F4805343F480532065A3819C
:101C800010BD00BFB1F90E1000F024BC10B51C4C03
:101C9000002924689AB02DDB009004904FF4027064
:101CA000ADF80C004FF00000199013D001394FF639
:101CB000FF7002910591ADF80E006946204601F0D3
:101CC000D3F9421C01DA8B232360009B00221A7097
:101CD0001AB010BD4FF6FF7002910591ADF80E00DD
:101CE0006946204601F0C0F9431C01DA8B232360CA
:101CF0001AB010BD8B2323604FF0FF30F8E700BF10
:101D00002004002030B51446002C9BB005462EDB85
:101D10001A464FF40273ADF80C304FF000030091F7
:101D20000491199313D04FF6FF73013CADF80E30B8
:101D300069461E9B0294059401F096F9421C01DA53
:101D40008B232B60009B00221A701BB030BD4FF616
:101D5000FF73ADF80E3069461E9B0294059401F0A6
:101D600083F9431C01DA8B232B601BB030BD8B231E
:101D700003604FF0FF30F8E7F8B50D46144606460D
:101D800010B1436B002B4AD0B4F90C30A269A260A9
:101D900018071FD52269EAB1EDB29904626E2F4689
:101DA00024D592042FD4226823696169D31A9942F9
:101DB0002CDD0133A1680139A160511C216015702F
:101DC00062699A4219D0A389DB0701D50A2D14D084
:101DD0003846F8BD2146304600F030F898B9B4F9DD
:101DE0000C30626EEDB299042F46DAD443F40053FE
:101DF00022F40052A3816266D3E72146304602F006
:101E000081FF0028E4D04FF0FF37E1E7214630465C
:101E100002F078FF0028F6D122680123CAE7FFF715
:101E200091FBB1E710B4044C03460A4620685DF804
:101E3000044B1946FFF7A0BF2004002038B52E4BF5
:101E40001B6805460C4613B15A6B002A4BD0B4F9F7
:101E50000C3018071CD5226922B313F0010107D0FA
:101E6000616900204942A060A1613AB1002038BDFB
:101E7000980758BF6169A160002AF7D1190658BFB9
:101E80001046F4D543F04003A3814FF0FF3038BD36
:101E9000D9062CD55A0712D4226943F00803A3812E
:101EA000002ADAD103F42071B1F5007FD5D02146A4
:101EB000284602F08BFFB4F90C302269CDE7216B84
:101EC00051B104F14002914204D0284600F0CCFF09
:101ED000B4F90C300022226322690021C4E90021F8
:101EE00023F02403D9E71846FFF72CFBAFE70922BC
:101EF0002A6043F04003C7E720040020032A70B59E
:101F000011D940EA01039B071FD104460B4602E0AA
:101F1000043A032A1DD91946204653F8045B54F8A5
:101F2000046BAE42F4D0541EB2B1421E013901E03E
:101F3000C3180CD012F801EF11F801CFE645A4EB5D
:101F40000203F5D0AEEB0C0070BD541EEDE7184651
:101F500070BD20461946E6E7104670BD88420ED98E
:101F60008B1883420BD900EB020C002A6ED062461C
:101F700013F801CD02F801CD9942F9D170470F2A2B
:101F80000FD8034602F1FF3C002A5FD00CF1010C90
:101F9000013B8C4411F8012B03F8012F6145F9D165
:101FA000704740EA01039B0751D1A2F1100370B5BD
:101FB00001F1200C23F00F0501F1100E00F11004C7
:101FC000AC441B095EF8105C44F8105C5EF80C5CD5
:101FD00044F80C5C5EF8085C44F8085C5EF8045C4D
:101FE00044F8045C0EF1100EE64504F11004E9D14A
:101FF000013312F00C0F01EB031102F00F0400EBA0
:10200000031328D0043C24F003064FEA940C1E442A
:102010001C1F8E465EF8045B44F8045FB442F9D19D
:102020000CF1010402F0030203EB840301EB8401D1
:1020300002F1FF3C4AB10CF1010C013B8C4411F858
:10204000012B03F8012F6145F9D170BD704702F1F2
:10205000FF3C03469AE72246EAE700BF830730B514
:1020600047D0541E002A3ED0CAB2034601E0013CCC
:1020700039D303F8012B9D07F9D1032C2CD9CDB20C
:1020800005EB05250F2C05EB054535D9A4F110020C
:1020900022F00F0C03F1100EE6444FEA121C1A4610
:1020A000156055609560D56010327245F8D10CF11D
:1020B000010214F00C0F03EB021204F00F0C13D00A
:1020C000ACF1040323F003030433134442F8045B2C
:1020D0009A42FBD10CF003042CB1C9B21C4403F8A2
:1020E000011B9C42FBD130BD64461346002CF4D149
:1020F000F9E703461446C0E71A46A446E0E700BFE6
:1021000011F0FF01034600F0030239D08ABB0268D8
:1021100010B501EB012E4EEA0E4E8EEA0204A2F13A
:10212000013323EA0203A4F1013222EA0402134339
:1021300013F0803F0FD150F8044F84EA0E0CA4F145
:102140000133ACF1013223EA040322EA0C02134307
:1021500013F0803FEFD0037823B936E010F8013F49
:10216000002B32D09942F9D110BD8A4228D09A076B
:1021700029D01A7818460133002AF6D11046704744
:10218000CAB90268A2F1013323EA020313F0803FC7
:1021900008D150F8042FA2F1013323EA020313F00F
:1021A000803FF6D003785BB110F8013F002BFBD1E4
:1021B0007047990705D0184613F8012B002AF8D16B
:1021C00070471846DDE71846A1E7184610BD00BF66
:1021D000B2B340EA01039B0730B5844618D1032A05
:1021E00016D904460B4606E0043A2BD01EF0803F79
:1021F00028D1032A2AD92068194653F8045BA0F194
:10220000013EA842A4462EEA000E04F10404EBD0DD
:102210009CF800000C78844216D1012A12D0E646C0
:1022200068B11EF8010F11F8014FA2EB0E03A04296
:1022300003F1FF3308D11CEB0303F1D1184630BD85
:1022400010467047002030BD001B30BDA446194623
:10225000DEE700BF38B5D0F818410CB1002038BD1A
:1022600080210546FEF728FB0246C5F8180130B16B
:10227000031F7C3243F8044F9342FBD1EEE74FF04B
:10228000FF3038BD30B51F2983B0054609D8D0F8D6
:1022900018310C4653B153F8240043F8242003B0FE
:1022A00030BD162303604FF0FF30F8E78021019224
:1022B000FEF702FB019AC5F8180103460028F2D088
:1022C000011F00F17C05002041F8040FA942FBD159
:1022D000E1E700BF1F2938B505461FD8D0F81821FF
:1022E0000C466AB152F8213053B1012B06D0591C6B
:1022F00010D0002142F8241020469847002038BD15
:10230000284600F03BF9224601462846BDE8384001
:1023100000F01EB916230360012038BD16230360A8
:102320004FF0FF3038BD00BF1F292CD838B5D0F88A
:1023300018310C460546A3B153F8242003EB84035F
:102340004AB1511C0BD0012A07D0002520461D6040
:102350009047284638BD012038BD032038BD0220F3
:1023600038BD8021FEF7A8FA0346C5F8180138B138
:10237000021F00217C3042F8041F9042FBD1DBE7B2
:102380004FF0FF3038BD4FF0FF30704738B5144B79
:102390001F281D681ED8D5F81821044662B152F8CE
:1023A00020304BB1012B05D0591C0FD0002142F831
:1023B00020109847002038BD284600F0DFF822465C
:1023C00001462846BDE8384000F0C2B816232B600D
:1023D000012038BD16232B604FF0FF3038BD00BF01
:1023E00020040020124B1F2870B51E6809D8D6F8AB
:1023F000183104460D464BB153F8240043F82450DD
:1024000070BD162333604FF0FF3070BD8021304621
:10241000FEF752FA0346C6F818010028F3D0021F4F
:1024200000217C3042F8041F9042FBD1E4E700BF5A
:102430002004002038B50C4B1D68D5F818410CB1AC
:10244000002038BD80212846FEF736FAC5F818016D
:1024500038B1031F00F17C0243F8044F9342FBD1D3
:10246000EEE74FF0FF3038BD2004002038B5184BA0
:102470001F281D6828D80446D5F81801A0B150F8C7
:10248000243000EB84004BB15A1C0BD0012B07D039
:102490000025056020469847284638BD012038BDF4
:1024A000032038BD022038BD80212846FEF704FAFB
:1024B000C5F8180140B1031F00F17C01002243F868
:1024C000042F9942FBD1DAE74FF0FF3038BD00BF4F
:1024D0002004002038B5074D0022044608462A6033
:1024E00005F0E2FF431C00D038BD2B68002BFBD069
:1024F000236038BDB808002038B50C46084D844626
:10250000114620461A4600232B60644605F0D8FF8A
:10251000431C00D038BD2B68002BFBD0236038BD96
:10252000B808002038B50C46084D844611462046B0
:102530001A4600232B60644605F09AFF431C00D026
:1025400038BD2B68002BFBD0236038BDB8080020B5
:1025500070B50C46084D03460026204611461C4621
:102560002E6005F077FF431C00D070BD2B68002B58
:10257000FBD0236070BD00BFB808002005F068BF25
:1025800038B5074D0022044608462A6005F09AFF38
:10259000431C00D038BD2B68002BFBD0236038BD16
:1025A000B808002038B50C46084D84461146204630
:1025B0001A4600232B60644605F068FF431C00D0D8
:1025C00038BD2B68002BFBD0236038BDB808002035
:1025D000014B1868704700BF2004002070B50F4BF6
:1025E0000F4DAB42A3EB050607D0B610002455F8FB
:1025F000043B01349847A642F9D810F0E3FF094D97
:10260000094B5E1BAB424FEAA60606D0002455F8E4
:10261000043B01349847A642F9D870BDAC5A010872
:10262000AC5A0108AC5A0108BC5A010838B5074D2C
:10263000074C2C1BA41005D0013C55F8043D9847CD
:10264000002CF9D1BDE8384010F0C2BFC05A0108D3
:10265000BC5A0108704700BF704700BF704700BFF9
:10266000704700BF704700BF704700BF0120704730
:1026700001207047704700BF704700BF082802D193
:102680004FF48050704708B5FFF7A2FF1623036090
:102690004FF0FF3008BD00BF000000000000000048
:1026A00002780B78012A28BF9A4240F0D8806DE961
:1026B000044540EA0104CDE902676FF0000C4FEADF
:1026C00044721AB380EA010414F0070F6BD100F0D2
:1026D000070420F0070004F0030521F007014FEA8A
:1026E000C505F0E8042314F0040FF1E804670CFAC0
:1026F00005F462EA040266EA04060BD063EA040306
:10270000624667EA0407664604E000BFF0E8042377
:10271000F1E8046782FA4CF582EA0604A4FA8CF424
:102720006CBB83FA4CF583EA0705A5FA8CF595B9DD
:1027300050E9022351E9026782FA4CF582EA060465
:10274000A4FA8CF483FA4CF583EA0705A5FA8CF514
:102750002543DBD09CB92DBAB5FA85F424F00704E3
:1027600027FA04F1DDE9026723FA04F303F0FF001E
:1027700001F0FF01FDE80445A0EB0100704724BA19
:10278000B4FA84F424F0070426FA04F1DDE90267C0
:1027900022FA04F202F0FF0001F0FF01FDE8044517
:1027A000A0EB0100704714F0030F3CD110F00304BC
:1027B00028D150F8082B51F8083B82FA4CF582EAF0
:1027C0000305A5FA8CF55DB950F8042C51F8043CCA
:1027D00082FA4CF582EA0305A5FA8CF5002DE8D0C3
:1027E0002DBAB5FA85F424F0070423FA04F122FA8D
:1027F00004F202F0FF0001F0FF01FDE80445A0EB48
:10280000010070474FEAC40420F0030050F8082B81
:1028100021F0030151F8083B0CFA04F462EA0402C7
:1028200063EA0403C9E710F003041DD0A1EB04011F
:1028300020F00300E40750F8042B06D012D28B7866
:102840005FFAA2F4E41A06D12BB1CB785FFAB2F4A6
:10285000E41A00D133B920465DF8104B7047A2EB63
:102860000300704701F1040150F8042BCC0721F05C
:10287000030151F8043B48D824D222F07F4482FA65
:102880004CF594EA1325A5FA8CF50AD165B951F8EF
:10289000043B84EA0204B4EB036F0ED150F8042B1E
:1028A000EBE74FEA132355E035F07F454DD108782B
:1028B000FDE80445C0F1000070474FEA126203F0E2
:1028C000FF0347E002EA1C4482FA4CF594EA134500
:1028D000A5FA8CF50AD165B951F8043B84EA0204E3
:1028E000B4EB034F0CD150F8042BEBE74FEA134342
:1028F00030E015EA1C4528D10B884FEA124229E046
:102900004FEA124203EA1C4324E002F0FF0482FA79
:102910004CF594EA1365A5FA8CF50AD165B951F81E
:10292000043B84EA0204B4EB032F09D150F8042BD2
:10293000EBE74FEA13630DE015F0FF0F05D10B68CD
:102940004FEA122223F07F4304E04FF00000FDE83D
:102950000445704712BA1BBA82FA4CF482EA0304A7
:10296000A4FA8CF5B5FA85F402FA04F203FA04F33A
:102970004FEA1260FDE80445A0EB1360704700BF0A
:1029800080EA0102844612F0030F4FD111F0030FC9
:1029900032D14DF8044D11F0040F51F8043B0BD027
:1029A000A3F101329A4312F0803F04BF4CF8043B7C
:1029B00051F8043B16D100BF51F8044BA3F101328A
:1029C0009A4312F0803FA4F101320BD14CF8043B42
:1029D000A24312F0803F04BF51F8043B4CF8044B73
:1029E000EAD023460CF8013B13F0FF0F4FEA3323E4
:1029F000F8D15DF8044B704711F0010F06D011F8C3
:102A0000012B0CF8012B002A08BF704711F0020FB0
:102A1000BFD031F8022B12F0FF0F16BF2CF8022B9B
:102A20008CF8002012F47F4FB3D1704711F8012BBE
:102A30000CF8012B002AF9D1704700BF00000000FC
:102A400001F0FF01102A2BDB10F0070F08D010F85F
:102A5000013B013A8B422DD010F0070F42B3F6D163
:102A6000F0B441EA012141EA014122F007047FF07C
:102A700000070023F0E80256083C85EA010586EAD3
:102A8000010685FA47F5A3FA87F586FA47F6A5FA0F
:102A900087F68EB9EED1F0BC01F0FF0102F007021B
:102AA00032B110F8013B013A83EA010313B1F8D1C6
:102AB0000020704701387047002D06BF35460338A7
:102AC000073815F0010F07D1013015F4807F02BFE0
:102AD000013015F4C03F0130F0BC0138704700BF31
:102AE000844641EA000313F003036DD1403A41D319
:102AF00051F8043B40F8043B51F8043B40F8043BD8
:102B000051F8043B40F8043B51F8043B40F8043BC7
:102B100051F8043B40F8043B51F8043B40F8043BB7
:102B200051F8043B40F8043B51F8043B40F8043BA7
:102B300051F8043B40F8043B51F8043B40F8043B97
:102B400051F8043B40F8043B51F8043B40F8043B87
:102B500051F8043B40F8043B51F8043B40F8043B77
:102B600051F8043B40F8043B51F8043B40F8043B67
:102B7000403ABDD2303211D351F8043B40F8043B07
:102B800051F8043B40F8043B51F8043B40F8043B47
:102B900051F8043B40F8043B103AEDD20C3205D317
:102BA00051F8043B40F8043B043AF9D2043208D00F
:102BB000D2071CBF11F8013B00F8013B01D30B8881
:102BC00003806046704700BF082A13D38B078DD05F
:102BD00010F003038AD0C3F10403D21ADB071CBF31
:102BE00011F8013B00F8013B80D331F8023B20F89B
:102BF000023B7BE7043AD9D3013A11F8013B00F8D4
:102C0000013BF9D20B7803704B7843708B7883705B
:102C10006046704700000000000000000000000057
:102C200000000000000000000000000000000000A4
:102C30000000000000000000000000000000000094
:102C400030B490F800F020F007016FF0000C10F0A5
:102C5000070491F820F040F048804FF000046FF036
:102C60000700D1E9002391F840F000F1080082FA52
:102C70004CF2A4FA8CF283FA4CF3A2FA8CF34BBB1D
:102C8000D1E9022382FA4CF200F10800A4FA8CF296
:102C900083FA4CF3A2FA8CF3E3B9D1E9042382FA64
:102CA0004CF200F10800A4FA8CF283FA4CF3A2FA79
:102CB0008CF37BB9D1E9062301F1200182FA4CF2B1
:102CC00000F10800A4FA8CF283FA4CF3A2FA8CF318
:102CD000002BC6D0002A04BF04301A4612BAB2FA3A
:102CE00082F200EBD20030BC7047D1E9002304F03F
:102CF0000305C4F100004FEAC50514F0040F91F874
:102D000040F00CFA05F562EA05021CBF63EA050310
:102D100062464FF00004AAE72DE9F8431B4D064632
:102D2000286898460F469146FFF79EFC184B1C6892
:102D30001CB3286865681F2D22DC4EB96B1C023558
:102D4000636044F82570FFF797FC0020BDE8F88326
:102D500004EB85010123C1F88890D4F88821AB40A9
:102D60001A43022EC4F88821C1F80881E6D1D4F8AC
:102D70008C211A43C4F88C21E0E7064C1C60D8E78C
:102D8000FFF77AFC4FF0FF30E0E700BF4805002076
:102D90006C0A0020DC0800200148FFF765BC00BF7A
:102DA000C80800200148FFF767BC00BFC808002022
:102DB0002DE9F843064608208946FFF75FFCDFF857
:102DC000A48005463046FEF731F8D8F808305F6831
:102DD00027F00307A7F11104A4EB09042C44B4FB6A
:102DE000F5F4013C05FB04F4A54208DC0021304663
:102DF000FFF7C6FBD8F808303B44984205D0304670
:102E0000FEF71AF80020BDE8F88361423046FFF76C
:102E1000B7FB01300FD0114AD8F808303F1B47F0FC
:102E200001075F60136830461B1B1360FEF704F850
:102E30000120BDE8F88300213046FFF7A1FBD8F858
:102E40000820831A0F2BDADD43F001035360044B93
:102E500002491B68C01A0860D1E700BF4C07002078
:102E6000080400200000002000297CD02DE9F0415A
:102E70000C468046FDF7DAFF54F8043C764FA4F187
:102E8000080523F001016818BE684268864222F0F6
:102E9000030200F08380DE07426000EB020C33D4B3
:102EA00054F8084CDCF804302D1B2144AC6807F1C1
:102EB000080C644503F0010364D0D5F80CE0C4F8B5
:102EC0000CE0CEF80840002B00F0818041F00103B7
:102ED0006B600160B1F5007F22D27868CB080122D7
:102EE000490901338A40024357F833107A6007EBEF
:102EF000C302083AC5E9021247F83350CD60404694
:102F0000BDE8F041FDF798BFDCF80430DB072BD5B6
:102F100041F00103B1F5007F44F8043C0160DCD3CB
:102F2000B1F5206F4FEA512353D28B0903F13900D9
:102F300003F13802C300F818FB580838984203D14F
:102F400063E09B68984204D05A6822F003028A42E8
:102F5000F7D8D868C5E902308560DD604046BDE835
:102F6000F041FDF769BF7047114407F1080C836811
:102F700063453FD0C268DA60936041F001036B6043
:102F80006950A7E7002B61D10A44D0E90213CB6056
:102F9000996042F001036B60AA50B0E7DB070A4476
:102FA00007D454F8083CED1A1A44D5E90213CB6053
:102FB000996042F001036B60284BBD601B6893422F
:102FC0009DD8274B40461968FFF7F2FE97E711445A
:102FD000CDE7142B08D9542B1FD80B0B03F16F002E
:102FE00003F16E02C300A6E703F15C0003F15B028C
:102FF000C300A0E741F001033D617D61C5F808C051
:10300000C5F80CC06B60695079E7796892100124AB
:1030100004FA02F20A437A609CE7B3F5AA7F06D865
:10302000CB0B03F1780003F17702C30083E740F292
:103030005452934206D88B0C03F17D0003F17C02BD
:10304000C30078E74FF47E737E2274E741F00103FA
:103050006B60016053E700BF000000200C040020FB
:1030600048070020000000002DE9F04F2DED028BF5
:10307000D3B00C46CDE9080192460B9301F07AFFDC
:10308000036813931846FFF7DBFDA38912901D0612
:1030900003D52369002B00F08A870023CDF810A008
:1030A000CDE92733CDE91533CDE917330E931493CA
:1030B0000793049B9FEDA27B1B7829AA8DED107BC3
:1030C00026929346002B00F0EB81DDF810A004E07F
:1030D0001AF8013F002B00F01C81252BF8D1049B2E
:1030E000BAEB030540F01A819AF80030002B00F08B
:1030F000D78100239AF801508DF87B3006930AF1AE
:10310000010A4FF0FF3903930AF1010AA5F12003E8
:103110005A2B00F23B81DFE813F0A5023901390197
:103120009E023901390139016A003901390166020B
:10313000780239017102850239017E025B005B0071
:103140005B005B005B005B005B005B005B003901C8
:10315000390139013901390139013901CF01390109
:1031600034028700CF01CF01CF0139013901390184
:103170003901C20239013901B5003901390139017A
:103180003E023901B0023901390101073901390123
:10319000390139013901390139013901CF013901C9
:1031A00034028B00CF01CF01CF01F2028B008000EF
:1031B0003901E8023901DA02B900C9028000390197
:1031C0003E027D00250739013901280739017D00BC
:1031D000A5F1300300221AF8015B02EB820203EB37
:1031E0004202A5F13003092BF5D906928EE7089D1E
:1031F000284601F0BFFE436817931846FFF720FDED
:1032000018900446284601F0B5FE83681593002CFB
:1032100040F070869AF8005076E7039B9AF80050C9
:1032200043F0200303936FE7039B43F010030393E2
:10323000039B9C0640F194810B9B073323F007030B
:103240001A46596852F8083B0B920A460029C0F208
:10325000BB85B9F1FF3F00F0F587039921F08006A7
:1032600053EA020100F05A850A2B72F1000180F046
:103270007C8730338DF847310DF247130396049362
:10328000012634E0039B43F010030393039B13F0E8
:10329000200200F054810B9B073323F007031946EB
:1032A0005A6851F8083B0B91039921F4806600217C
:1032B0000020B9F1FF3F8DF87B0000F0938226F0EB
:1032C0008000039053EA020040F08B82B9F1000FB6
:1032D00040F0C187002940F0268516F001061BBF8B
:1032E00030238DF8473152AB0DF24713049300237E
:1032F000B145CDE90C3349469DF87B200A93B8BF10
:10330000314605910F93002A52D0059B0133059356
:103310004EE0049BBAEB030500F0C280049B289F9B
:10332000CBE90035279B01332F44072B28972793A0
:103330000ADC0BF1080B079B2B440793D4E600BF74
:103340000000000000000000DDE9080126AA01F0ED
:10335000A9FB80B90DF1A40BEDE7DDE9080126AA70
:1033600001F0A0FB002800F08A800A9B1BB10A999B
:103370000898FFF779FD099B9B89590601F1E582C1
:10338000079853B0BDEC028BBDE8F08F002D00F024
:10339000878000228DF8E4508DF87B200123CDE951
:1033A0000C2205931E4639AB0A9291460F92049364
:1033B000039B13F0020302D0059902310591039992
:1033C00011F0840405D1DDE905010F1A002F00F387
:1033D0004183289F8AB1279A0DF17B010132013781
:1033E000CBF80010072A4FF0010128972792CBF85D
:1033F000041000F387830BF1080B83B1279B1FAAEE
:1034000001330237CBF80020072B4FF00202289738
:103410002793CBF8042000F383830BF1080B802C57
:1034200000F0FC81A9EB0608B8F1000F00F342821E
:10343000039BDA0500F16D81049BCBF80030279BDC
:10344000CBF804600133F519072B2895279300F377
:10345000AA820BF1080B039B580705D5DDE905236C
:103460009C1A002C00F36E83DDE9062305998A423D
:10347000ACBF9B185B180793002D7FF46EAF002341
:1034800027930A9B1BB10A990898FFF7EDFC0DF1F1
:10349000A40BCDF810A0049B1B78002B7FF415AE75
:1034A000289B002B3FF467AF099C089826AA214669
:1034B00001F0F8FAA38960E70B9B073323F00703B9
:1034C000B3EC027B57EC176B0B9327F000431B9375
:1034D0008DED1A7ADDE91A01AE4B4FF0FF328DED1A
:1034E000107B04F0D3FC002840F09B84DDE91A0136
:1034F000A84B4FF0FF3204F0ABFC002840F0918461
:10350000002200233046394604F098FC002840F0A1
:103510005B879DF87B20039B9F4C23F080030393E4
:103520009E4B472DC8BF1C4603210023CDE90C3319
:1035300004940A9305910E4699460F93E3E60B997E
:1035400051F8043B0B91039911F010017FF4ACAEDC
:10355000039A12F0400000F019879BB20A46A3E6D6
:103560000B9A52F8043B0B92039AD00600F1558453
:10357000039A510640F14D8443F3C03211461BB209
:1035800064E60B9B002253F8041B8DF87B208DF81A
:10359000E4100B9302E70B9F57F8043B04930026BB
:1035A0008DF87B60002B00F09E86B9F1FF3F00F0A4
:1035B0000D8504984A463146FFF742FA0A900028E2
:1035C00001F025810A9B049A0B97B1469E1A26EAC0
:1035D000E673CDE90C999DF87B200593CDF82890F2
:1035E000CDF83C908FE60B9B53F8042B0692002AF3
:1035F00080F20A84069A0B9352420692039B9AF831
:10360000005043F0040303937EE52B239AF8005007
:103610008DF87B3078E5039B9AF8005043F08003E7
:10362000039371E5524612F8015B2A2D01F01982CD
:10363000A5F13003092B92464FF000093FF666AD25
:103640001AF8015B09EB890903EB4909A5F130037D
:10365000092BF5D95AE5039B9AF8005043F0010372
:10366000039351E59DF87B309AF80050002B7FF4CE
:103670004BAD20238DF87B3046E5039B43F01006CD
:1036800016F0200200F089830B9B073323F0070319
:1036900019465A6851F8083B0B91012108E6039B33
:1036A0009AF8005043F0080303932DE50B9A039B0F
:1036B00043F0020652F8043B0B9247F63002ADF895
:1036C0007C20374A1492022100227825F0E5039BE2
:1036D0009E0640F1FD830B9B079A1B681A60D21768
:1036E0005A600B9B04330B93D3E69AF80050039B6C
:1036F0006C2D00F0538443F01003039304E59AF813
:103700000050039B682D00F0408443F04003039376
:10371000FAE4652D40F35381DDE910010022002316
:1037200004F082FB002800F04982279B1D4ACBF859
:103730000020013301370122072B28972793CBF86C
:10374000042000F38E850BF1080B209B0E9A934208
:1037500004DB039BDB0701D43D467CE6129B139AF6
:10376000DD19CBE90023279B28950133072B2793ED
:1037700000F3FE830BF1080B0E9B5C1E002C7FF701
:103780006AAE102C279B084F40F37885DDE9088945
:10379000102611E0FFFFEF7F344001083840010898
:1037A0004440010874400108FC3601080BF1080B85
:1037B000103C102C40F3628501331035072BCBE908
:1037C0000076CDE92735F1DD26AA4946404601F0CD
:1037D00069F900287FF4C9ADDDE927350DF1A40BA7
:1037E000E6E7039E01293FF43FAD022900F0768110
:1037F00052AC03F00701DB0843EA4273D2083031D0
:1038000053EA0207204604F8011DF2D1F707049499
:1038100000F1768252AB03961E1B68E5DDE90523B5
:10382000A3EB0208B8F1000F7FF7FCADB8F1100F61
:103830003A46279BC04F29DD19951C961024DDE9D7
:103840000865194606E0A8F11008B8F1100F0BF151
:10385000080B18DD013110320729CBE90074CDE9DE
:103860002712F0DD26AA294630460DF1A40B01F0FF
:1038700019F900287FF479ADA8F11008B8F1100FFC
:10388000DDE92712E6DC199D1C9E0B460133CBF8BF
:103890000070072B08EB0207CDE92737CBF804802F
:1038A00000F30E85A9EB0608B8F1000F0BF1080B29
:1038B0007FF7BEADB8F1100F3A46279B9E4F2EDD25
:1038C0005946089CC3464FF01009B84637462E4665
:1038D000099D06E0ABF1100BBBF1100F01F10801DF
:1038E00018DD013394481032072BC1E90009CDE9F6
:1038F0002732EFDD26AA2946204601F0D3F800281A
:103900007FF433ADABF1100BBBF1100FDDE92732C3
:1039100029A9E6DC35463E464746D8468B46013364
:10392000CBF80070072B08EB0207CDE92737CBF85F
:10393000048000F325820BF1080B79E5279B7F4972
:10394000CBF8001001337D1C0121072B289527930C
:10395000CBF8041000F34A850BF1080B002A40F065
:10396000E084039B0E9A03F0010313433FF473AD0D
:10397000129B139A5919CBE90023279B28910133F5
:10398000072B279300F3EF850BF1080B049ACBF874
:1039900000200E9ACBF8042001335518072BCDE9EF
:1039A00027357FF756ADDDE9080126AA01F07AF840
:1039B00000287FF4DAAC289D0DF1A40B4BE50E9B9B
:1039C000012B0BF1080640F37A81049BCBF8003001
:1039D000279B013301370122072B28972793CBF828
:1039E000042000F3F981129A03F10108139BD51901
:1039F000B8F1070FC6E90032CDE9278500F3F88159
:103A000008360E9BDDE9100103F1FF390022002387
:103A100004F00AFA002840F08B81049CC6F8049058
:103A200008F1010801344D44B8F1070FCDE92785AD
:103A3000346000F359810836169A726008F1010368
:103A40001544072B22AACDE927353260ABDC06F1FD
:103A5000080B00E5102FDDE92721DFF8E4802DDDDC
:103A600019934346CDE91C45B046DDE908451E469D
:103A700004E0103F102F0BF1080B19DD013210315B
:103A80001023072ACDE92721CBF80060CBF80430BA
:103A9000EFDD26AA294620460DF1A40B01F002F81D
:103AA00000287FF462AC103F102FDDE92721E5DC10
:103AB000DDE91C453046199B4646804601323944B3
:103AC000072ACBF80080CBF804702891279200F3E6
:103AD000A9839DF87B200BF1080B7AE4149C52A972
:103AE00003F00F001B09205C01F8010D43EA02738B
:103AF000120953EA0200F3D152ABCDE903615E1A19
:103B0000FFF7F5BBDDE9080126AA199300F0CAFF0B
:103B100000287FF42AAC289F199B0DF1A40B6CE4BC
:103B2000DDE9080126AA00F0BDFF00287FF41DACE6
:103B3000289F0DF1A40B72E4FC36010874400108C3
:103B4000EC360108102C279BDFF8CC8323DD474699
:103B5000DDF82490DDF82080102604E0103C102CC5
:103B60000BF1080B16DD01331035072BCBE900767E
:103B7000CDE92735F2DD26AA494640460DF1A40BD2
:103B800000F090FF00287FF4F0AB103C102CDDE932
:103B90002735E8DCB84601332544072BCBE9008400
:103BA000CDE927357FF760ACDDE9080126AA00F0F2
:103BB00079FF00287FF4D9AB289D55E4209A002A8C
:103BC0007FF7BCAE0C9E0E9B049A9E42A8BF1E4679
:103BD000002E134419930BDD279B01333744072B29
:103BE000CBE900262897279300F39F850BF1080B5C
:103BF0000C9D002EA8BFAD1B002D00F3EF81049B90
:103C00000C9A13449946039B5E0500F10C82209C9C
:103C10000E9B9C4203DB039AD50740F18E84129BD6
:103C2000139ADD19CBE90023279B28950133072B35
:103C3000279300F3DE850BF1080B0E9B1C1B199BD1
:103C4000A3EB0906A642A8BF2646002E0DDD279B42
:103C5000CBF8009001333544072BCBF8046028954E
:103C6000279300F3E0850BF1080B002EA8BFA41BDF
:103C7000002C7FF7F0AB102C279BA64F40F3FE8261
:103C8000DDE90889102605E00BF1080B103C102C2B
:103C900040F3F48201331035072BCBE90076CDE9F0
:103CA0002735F1DD26AA4946404600F0FBFE0028F4
:103CB0007FF45BABDDE927350DF1A40BE6E7039B51
:103CC000DC073FF582AE049BCBF80030279B03F165
:103CD00001087D1C0123B8F1070F2895CDF89C80C1
:103CE000CBF804307FF7A8AEDDE9080126AA00F082
:103CF000D9FE00287FF439ABDDE9278529AE9BE6A4
:103D0000302900F0C882049A03963023023802F862
:103D1000013C52AB1E1A0490FFF7E9BAB9F1000F4B
:103D20007FF4A7AA039652AB4E460493FFF7DFBA7F
:103D30000E9B012B7FF780AE112B764F40F3E48270
:103D400043461024DDE9088B06E00836A9F1100986
:103D5000B9F1100F40F3D78201331035072BC6E9B4
:103D60000074CDE92735F0DD26AA5946404600F01B
:103D700099FE00287FF4F9AADDE9273529AEE5E7A9
:103D8000DDE9080126AA00F08DFE00287FF4EDAAE7
:103D9000289F0DF1A40BFFF74BBB0B9951F8043B87
:103DA0000B9116F010010CD116F0400004D00A4619
:103DB0009BB20121FFF77CBA16F400721CBFDBB284
:103DC00002460121FFF774BA5B42039E62EB420296
:103DD0002D200121FFF76DBADDE9080126AA00F0C8
:103DE00061FE00287FF4C1AADDE9273729AEFAE594
:103DF000DDE9080126AA00F055FE00287FF4B5AAE7
:103E0000DDE9278529AEFCE59AF800500B93FFF712
:103E10007BB9039A920500F1A083DA171146FFF7E8
:103E200015BADDE9100102460B4604F02FF8002810
:103E300040F0CC85612D00F09584412D00F0038584
:103E4000B9F1FF3F00F0AA8325F02003472B04D1EE
:103E5000B9F1000F08BF4FF00109DDE91001039C23
:103E6000002944F480720592C0F2B584002341EC2D
:103E7000180B19930A93A5F14103252B00F2C48274
:103E8000DFE813F09603C202C202C2028F0393035B
:103E9000C202C202C202C202C202C202C202C20202
:103EA000C202C202C202C202C202C202C202C202F2
:103EB000C202C202C202C202C202C202C202C202E2
:103EC000C202C202C202C202C202C2028F03930332
:103ED000039BDD0600F10182039B5C0600F1378342
:103EE000039B980540F1F9810B9B079A1B681A7098
:103EF000FFF7F7BB159B9AF80050002B3FF404A97D
:103F00001B78002B3FF400A9039B43F480630393C9
:103F1000FFF7FAB8FC360108EC360108BD4B1493E4
:103F2000039B13F0200200F002810B9B073323F068
:103F3000070319465A6851F8083B0B910398C107CB
:103F40000AD553EA020107D040F002010391302163
:103F50008DF87D508DF87C10039921F48066022144
:103F6000FFF7A6B9039EFFF78BBBAB4B1493D7E7C4
:103F7000DDE9080126AA00F095FD00287FF4F5A9E7
:103F8000289D0DF1A40BFFF7F7BB43F400739AF8DB
:103F9000015003930AF1010AFFF7B6B843F020037A
:103FA0009AF8015003930AF1010AFFF7ADB8089897
:103FB0004021FCF781FC099B18601861002800F083
:103FC000C184099A40235361FFF767B804980B979F
:103FD000FEF736FEB1460646FFF7F9BA102D3A460F
:103FE000279B8E4F40F3E181DDE90848102605E06C
:103FF0000BF1080B103D102D40F3D7810133103227
:10400000072BCBE90076CDE92732F1DD26AA414620
:10401000204600F047FD00287FF4A7A9DDE92732FC
:104020000DF1A40BE6E70D99CDF870A05A4638467D
:104030007A4EDDF854A0189BDDF824B04F464FF0BF
:104040001008DDF83C9081B3B9F1000F00F0FD805D
:1040500009F1FF391799C2E9001327990131184472
:1040600007292890279173DC0832199C9AF80010D0
:10407000E51B8D42A8BF0D46002D0CDD27990131AF
:1040800028440729C2E900752890279100F3098187
:104090009AF800100832002DACBF4C1B0C46002CC7
:1040A00012DC0F440D990029CED1B9F1000FCFD108
:1040B000199BCDF854A0B9469945DDF870A09346F8
:1040C000074628BF9946A2E5102C279940F3908413
:1040D000089D04930C9604E0103C102C02F1080299
:1040E00015DD013110300729C2E90068CDE927103C
:1040F000F2DD26AA5946284600F0D4FC00287FF4B9
:1041000034A9103C102CDDE9271029AAE9DC049B16
:104110000C9D1560013120440729CDE9271054601A
:1041200000F310839AF8001008320F44BAE70B9995
:1041300051F8043B0B91039911F010017FF4FEAE8E
:10414000039A12F0400000F029819BB20A46F5E67E
:104150000898049326AA594600F0A4FC00287FF48E
:1041600004A92898049B29AA7FE70021CDE90456D9
:1041700006F48067DFF8A880159ECDF80CA052AC3D
:104180008C4605E00A2B72F1000235D353462A46CD
:10419000991841F10001A8FB010525F0030000EB8F
:1041A0009500091A581A4FF0CC3562F1000E05FB44
:1041B00000F508FB0E55A0FB08A005440AF0010E0F
:1041C0000520AEFB000E40184FEA5A0A303004F8C2
:1041D000010C4AEAC57A0CF1010C013C6D08002F74
:1041E000D0D031788C45CDD1BCF1FF0FCAD00A2B8D
:1041F00072F1000280F0ED801596DDE9045652ABB5
:10420000DDF80CA0CDF838C0CDE903641E1BFFF724
:104210006EB800BF5840010844400108FC36010850
:10422000CDCCCCCCDDE9080126AA199300F03AFCEC
:1042300000287FF49AA89DF87B20199B0DF1A40B10
:10424000FFF7C7B8039EFFF70FB80D9901390AF1C0
:10425000FF3A0D91FEE60129039E7FF4C6AAFFF7FF
:1042600008B8DDE9080126AA00F01CFC00287FF44C
:104270007CA8289F0DF1A40BFFF767BA01332544F2
:10428000072BCBF80070CBF80440CDE927357FF73A
:10429000E0A8FFF788BB049A039652AB9E1AFFF77B
:1042A00026B80898049326AA594600F0FBFB00287C
:1042B0007FF45BA89AF800102898049B29AAEAE6E4
:1042C000DDE9080126AA00F0EDFB00287FF44DA8E7
:1042D000289F0DF1A40BFFF7A5B80B9B079A1B684D
:1042E0001A60FFF7FEB94E46062E1A4628BF06266C
:1042F00099460A93C14B0596CDE90C220B9704937E
:104300000F92FFF700B8984608F101084D44B8F144
:10431000070FCDE927853760C6F804907FF78BAB90
:10432000E2E4129B13985919CBE90003279B2891CB
:104330000133072B279300F316810BF1080B002A9A
:10434000BFF624AB56421032AD4F80F2D382DDE986
:104350000848102505E00BF1080B103E102E40F325
:10436000C98201331031072BCBE90075CDE9273124
:10437000F1DD26AA4146204600F094FB00287EF499
:10438000F4AFDDE927310DF1A40BE6E7039A12F44F
:1043900000721CBFDBB20246FEF786BF039A12F41E
:1043A00000721CBFDBB20246C8E50133CBF80070D7
:1043B000072B05EB0207CDE92737CBF8045000F3B4
:1043C000E0800BF1080B1AE42D228DF87B20FFF71B
:1043D000A2B8189B1799E41A1A46204600F094FDDB
:1043E000737803B101364FF0000CCFE6DDE9080128
:1043F00026AA00F057FB00287EF4B7AF209A289D2C
:104400000DF1A40BFFF7AABA4F46022124AB01938A
:1044100021AB00930898B0EE480AF0EE680A20AB92
:104420003A4600F0A3FE672D049000F00E82472D5F
:1044300000F09D82049B25F02008B8F1460F03EBA5
:10444000070605D11B78302B00F0E482209F3E4404
:1044500051EC180B0022002303F0E6FC002800F0CA
:1044600040813346049A9B1A0E93209A0C92B8F11D
:10447000470F00F02481B8F1460F00F0FE81531E73
:10448000612D209300F0DE82412D40F020815021EB
:104490000120002BB6BFC2F101032B222D22092BD4
:1044A0008DF888108DF8892040F33D820DF1970634
:1044B000544F32461046A7FB0312D20802EB82018A
:1044C000A3EB4101303100F8011C19466329134662
:1044D00000F1FF32EEDC303302F8013C831EB342C0
:1044E00080F0BC820DF1890213F8011B02F8011F54
:1044F000B342F9D152AB181AA0F1AD0316930E9B3B
:10450000169A012B03EB020640F32D82129B1E44E8
:1045100024F4806343F4807303930023CDE90C33C8
:1045200026EAE6720F930592199B002B40F0D28089
:104530009DF87B209946FEF7E6BE199A1C1BA2EB5C
:104540000906A6423D46A8BF2646FFF78EBB0B9B39
:10455000079A1B681A80FFF7C4B843F3C0121146CC
:104560005BB2FEF773BEDDE9080126AA00F09AFAF5
:1045700000287EF4FAAEDDE92731209A0DF1A40B74
:10458000DDE6DDE9080126AA00F08CFA00287EF4B9
:10459000ECAE289F0DF1A40BFFF731BB4FF00609DD
:1045A0005BE409F10107022130E74F4603212DE7C3
:1045B00020A8B0EE480AF0EE680A00F00BFD0022D9
:1045C0004FF07F5351EC100B03F0C6F9002200238B
:1045D00006460F4603F028FC002840F0BB810A4B3A
:1045E000039309F1FF33CDE91C9B0D95CDE90E4AEC
:1045F000DDF81080DDF80CB01D460DE06C400108C0
:10460000FC360108CDCCCCCC584001080022002358
:1046100003F00AFCF0B94D46AD4B00223046394656
:1046200003F09AF90F46064603F046FC0446FBF7F2
:1046300019FF0B46024639463046FBF7C5FD1BF80D
:104640000430C24608F8013B6B1C05F1FF390646F1
:104650000F46DBD19F4B0C950022304639460D9D0D
:104660000D94DDE91C9B0E9CCDF838A0DDF83CA034
:1046700003F002FC002840F00E81964B304639468C
:10468000002203F0D1FB18B10D9BDF0700F103817D
:104690000C9B002BC0F21A810C9B01334344302247
:1046A00008F8012B4345FBD1049A9B1A0E9325F081
:1046B0002008DAE6049A249B9B1A209A0E93D31CB6
:1046C0000C9201DB914518DA531E023D2093E9B2AA
:1046D0000020DEE62D228DF87B204FF00009FEF74A
:1046E00014BE249BB342BFF4BDAE30215A1C2492A9
:1046F0001970249B9E42F9D8B4E60E9B934200F3B6
:10470000AB80E30740F16081129BD618670502D5A4
:10471000002A00F33381059B039326EAE673059391
:10472000672500230F930D93FEE6DDE9080126AA15
:1047300000F0B8F900287EF418AE289F0DF1A40B04
:10474000FFF756BA0898049326AA594600F0AAF92A
:1047500000287EF40AAE9AF800102898049B29AA33
:104760000F449FE478238DF87D3030238DF87C3022
:10477000039BB9F1630F43F0020400F3AF80002301
:104780000A9339AB0493039B43F481730593119B04
:10479000002B23DB9DED108B00231993612D7FF4FB
:1047A0006AABB0EE480AF0EE680A20A800F012FCEE
:1047B00000224FF07F5351EC100B03F0CDF8002294
:1047C000002306460F4603F02FFB002840F0C2806E
:1047D000414B039305E70023039C0A93DDE9102373
:1047E00003F1004308EE903A2D2308EE102A1993A6
:1047F000D4E7DDE9080126AA00F054F900287EF488
:10480000B4AD209C289D0DF1A40BFFF716BA4E46BF
:10481000CDF81490CDE90C009DF87B200B978146D4
:104820000F90FEF770BDDDE9080126AA00F03AF905
:1048300000287EF49AAD209C0E9B289D1C1B0DF138
:10484000A40BFFF712BA58238DE7E6077FF532AFC6
:10485000C6194FF04708FBE50E9B129A9E180C9B59
:10486000002B40F3C8806725620500F18880059B16
:10487000039326EAE673059353E70C9A04F00103C9
:10488000002A43EA090340F3D580002B40F0BD80A5
:104890000C9E6625E8E70E9B039A2493D17B18F8BB
:1048A000013C8B42424609D1302002F8010C249A87
:1048B000531E249312F8013C9942F6D0392B0BBFBA
:1048C000039B01339B7ADBB202F8013C4346EBE6E3
:1048D000000030400000E03F44400108089809F122
:1048E0000101FBF7E9FF0490002800F0C980049B58
:1048F0000A9348E701333144072BCDE92731CBF840
:104900000070CBF804607FF73FA8DDE9080126AA14
:1049100000F0C8F800287EF428ADDDE927310DF15C
:10492000A40BFFF733B8002840F0818030228DF8C7
:104930008A200DF18B02303302F8013B22ABD31AEF
:104940001693DCE5089A0C2313604FF0FF330793AE
:10495000FEF716BD4E4B4F4A612D18BF1A46012374
:10496000039220933DE6E2077FF5D2ADCEE5E10765
:104970007FF5A0AE049BA846DE1969E56725159969
:104980000B78FF2B78D000240C9A204603E00130EE
:104990000131FF2B08D0934206DAD21A4B78002B54
:1049A000F5D10B780134F4E715910D900F940C922A
:1049B000059B0D9A03930F9B1344189A02FB036601
:1049C00026EAE6730593AFE516469FE6119B324C47
:1049D000002B039BA8BF9DF87B2023F08003B8BF6A
:1049E0002D220393B8BF8DF87B202C4BFEF799BD89
:1049F0002B4DFFF78EBBC3F101031E44059A0392B2
:104A000026EAE673059367258BE6129BD6184E447B
:104A1000662529E751EC180B0022002303F004FA65
:104A200000287FF413ADC7F1010720970FE50DF1C2
:104A30008A0280E743B9059B03930123059366250A
:104A40001E466EE6702123E5059B0393129B5E1CB8
:104A50004E4426EAE6730593662562E60223169322
:104A60004DE50B9B9AF80150924653F8042B0B939B
:104A700042EAE279FEF748BB00230F930D9397E7D4
:104A800009998B8943F0400213468A81FEF775BC71
:104A900058400108444001083C40010840400108DA
:104AA000FC3601082DE9F843154692682C68FAB1E6
:104AB00080468946083401E00834CFB16B68591E3E
:104AC000002B1746696013DD54F8046C002EF3D0F8
:104AD000334654F8082C4946404601F0B9FF431CC0
:104AE00007D0AA68921B1746AA600834002FE5D1A8
:104AF00000200023C5E90133BDE8F88370B5002923
:104B00003FD005460C4610B1436B002B3CD0636E82
:104B1000B4F90C20DE0732D4900538D5214628465A
:104B200000F054F8E36A064633B1E1692846984735
:104B30000028B8BF4FF0FF36A3891A0639D4216B7D
:104B400041B104F14003994202D02846FEF78CF9A6
:104B500000232363616C21B12846FEF785F9002309
:104B60006364FCF70FFD636E0022DB07A2811CD596
:104B7000A06DFDF775FDFCF70BFD304670BD002AFA
:104B8000CCD10026304670BDFCF7DCFCBFE7A06D41
:104B9000FDF76AFDB4F90C30002BBFD1636ED90765
:104BA000EFD4A06DFDF768FDEBE7A06DFDF764FDA8
:104BB000DEE721692846FEF757F9C0E7024B0146B8
:104BC0001868FFF79BBF00BF20040020B1F90C203C
:104BD0002DE9F0410C46110780464BD4616842F440
:104BE00000630029A38160DDA56A002D3FD000216C
:104BF00012F48052D8F80060C8F80010E16961D161
:104C000001234046A847431C02466BD0B4F90C3040
:104C1000A56AE1695F0705D56368D21A236B0BB1FA
:104C2000E36BD21A00234046A847451C4CD1D8F864
:104C300000101D293DD8324AB4F90C300A4112F057
:104C4000010238D162602269226023F40062A281ED
:104C5000DA0452D4216BC8F8006041B104F140037A
:104C6000994202D04046FEF7FFF80023236300205C
:104C7000BDE8F0812669002EF9D0256826609107ED
:104C80000CBF63690023AD1BA3600BE02B463246CB
:104C9000E169676A4046B847B0F1000CA5EB0C0526
:104CA000664406DD002DF1DCE1E7E16B00299BDCC9
:104CB000DDE7B4F90C3043F04003A3814FF0FF303F
:104CC000BDE8F081226DA5E7B4F90C3022692260BD
:104CD00023F40062A281DB044FF000026260B9D5C8
:104CE0002065B7E7D8F80030002B8FD01D2B01D0FE
:104CF000162BDED1C8F80060B9E70029AAD1EFE78A
:104D0000FEFFBFDF38B50C46054608B1436B03B361
:104D1000B4F90C0088B1636EDB0701D481050FD5AF
:104D200028462146FFF752FF636EDA07054602D494
:104D3000A3899B0508D5284638BD0546284638BDB9
:104D4000A06DFDF791FCEBE7A06DFDF795FC284603
:104D500038BDFCF7F7FBDBE750B338B5174B1D68E0
:104D600004460DB16B6BBBB1B4F90C0088B1636E36
:104D7000DB0701D4810513D528462146FFF726FF1E
:104D8000636EDA07054602D4A3899B050CD5284635
:104D900038BD0546284638BD2846FCF7D3FBE3E777
:104DA000A06DFDF761FCE7E7A06DFDF765FCEEE7A0
:104DB000034A04490448FCF73FBE00BF200400201A
:104DC00010040020054D0008280400202DE9F041C2
:104DD000B1F90C300C46990796B008D504F143039D
:104DE0000122C4E90432236016B0BDE8F081B4F9B1
:104DF0000E100029064626DB6A4600F0C3F800289C
:104E00001FDB019D05F47045A5F50055B5FA85F544
:104E10004FF480686D094FF4006741463046FBF758
:104E20004BFDE8B1B4F90C30C4F8148043F08003B2
:104E300020602061A3813DBB3B43A38116B0BDE848
:104E4000F081B4F90C3013F0800519D04FF0400810
:104E50000025414630462F46FBF72EFD0028E1D1C4
:104E6000B4F90C309A05BFD423F0030304F14302D4
:104E700043F002030121C4E90421A3812260B3E7C6
:104E80004FF480682F46C8E7B4F90E10304600F0A2
:104E90008FF810B9B4F90C30CEE7A38923F00303DF
:104EA00043F001031BB2C7E770B50C46B1F90E1011
:104EB000002996B015461E4614DB6A4600F062F8DB
:104EC00000280FDB019901F47041A1F50051B1FAFE
:104ED00081F14FF4806349094FF4006031602B6029
:104EE00016B070BDA18911F0800106D000214023C9
:104EF000084631602B6016B070BD4FF480630846E1
:104F000031602B6016B070BD40EA01039B0710B5FD
:104F100001D1032A17D8844601F1FF3E07E01EF8AD
:104F2000011F03F8011B541E29B19C46224663460B
:104F3000002AF4D110BD9444002CFBD003F8011BCF
:104F40006345FBD110BD8E468446DEF80040A4F1D7
:104F5000013323EA040313F0803F71460EF1040E7F
:104F6000DAD1043A032A4CF8044BEED87146D3E761
:104F7000F0307047004870473C06002000487047FA
:104F80003C06002070B50C46084D0346002620461E
:104F900011461C462E6003F08BFA431C00D070BDF6
:104FA0002B68002BFBD0236070BD00BFB808002029
:104FB00038B5074D0022044608462A6003F07EFA01
:104FC000431C00D038BD2B68002BFBD0236038BDBC
:104FD000B808002053EC102B70B5154E23F000419B
:104FE0000025B142044605601FD816460E431CD06A
:104FF000104E1E4018465EB91046194600220E4B50
:1050000002F0AAFC6FF035050246084621F0004187
:1050100020F0FF40091520F4E000A1F2FE3140F03D
:105020007F53294443F40013216043EC102B70BDDF
:10503000FFFFEF7F0000F07F000050430000000002
:105040002DE9F04F03690C69A34283B0C0F28A8056
:10505000013C01F1140500F1140855F8243058F80A
:10506000242001339A428E4681464FEA840105EBA3
:10507000840708EB840AB2FBF3F63AD3CDE90015B6
:105080000022AC46404613465CF8041B05681FFA34
:1050900081FB06FB0B22090C4FEA124B06FB01BBFE
:1050A00092B2A9B2891A19441FFA8BF3C3EB2143B8
:1050B00003EB154389B241EA0341674540F8041BFD
:1050C0004FEA1B424FEA2343DED2DDE9001558F8D0
:1050D000013073B9AAF1040AD04504D307E0D045E2
:1050E00004F1FF3403D25AF80439002BF7D0C9F881
:1050F00010407146484601F03DFA00282EDB41463B
:10510000002255F8040BD1F800C01FFA80FE1FFAE8
:105110008CF3A3EB0E031344020CC2EB234202EB0D
:105120001C429BB243EA0243AF4241F8043B4FEAC0
:105130002242E6D258F8242008EB84036AB9043BE3
:10514000984504D307E0984504F1FF3403D253F89F
:105150000429002AF7D0C9F810400136304603B0C0
:10516000BDE8F08F002003B0BDE8F08F2DE9F04FCF
:105170009FB08DED040B0091816B289D029057EC40
:10518000106B0A92089349B1C26B4A6001239340A5
:1051900004468B6000F034FF0023A363B7F10009DD
:1051A000B4BF012300232B60754BBCBF29F000491D
:1051B000CDF8149033EA090300F0A8809DED047B3C
:1051C000002251EC170B00238DED067B02F02CFE24
:1051D000804668B1089A01231360299B13B1299A6C
:1051E000684B1360684B039303981FB0BDE8F08FC2
:1051F0009DED060B02981CAA1DA901F01FFB5FEA9A
:105200001955824640F09880DDE91C85454405F239
:105210003243202B40F38283C3F1400309FA03F9A0
:1052200005F2124326FA03F349EA0300FBF70AF9F1
:105230000123013D1193A1F1F871544B0022FAF7BB
:10524000C3FF49A3D3E9002302F086FB48A3D3E9B7
:105250000023FAF7BBFF064628460F46FBF702F984
:1052600045A3D3E9002302F077FB02460B46304604
:105270003946FAF7ABFF06460F4602F01DFE002244
:10528000834600233046394602F0D8FD002840F01E
:105290001983A8EB0508BBF1160F08F1FF3400F2E3
:1052A0008B813B4D05EBCB05D5E90023DDE90601FC
:1052B00002F0C4FD002871D00023002C0BF1FF3B4D
:1052C0001093C0F27E8100230B93BBF1000F6BDAC9
:1052D0000B9BA3EB0B030B93CBF10003CDE90EB3B8
:1052E000009B092B4FF0000B66D8052B40F31B8366
:1052F000043B00930025009B023B032B00F2228617
:10530000DFE813F05E045B0453043704089AC9F322
:10531000130942F20F7359EA060913601CD1299B45
:10532000002B00F02A861B4B03930833299A03981D
:1053300013601FB0BDE8F08FDDE90612C2F313035E
:10534000084643F07F51CDF84480A5F2FF35DDF8E3
:10535000708041F4401170E7299B002B40F0E683F8
:105360000D4B039340E700BF61436F63A787D23FB4
:10537000B3C8608B288AC63FFB799F501344D33F44
:105380000000F07F75400108744001080000F83FFC
:10539000203701087840010884400108B8F1000F67
:1053A00040F35D8410900B9000230F93009BCDF889
:1053B00038B0092B5C4498D900234FF0FF32CDE977
:1053C0000923012500930C95029B0021D963099BB9
:1053D0001893029800F0EEFD0390002800F0BB85C2
:1053E000DDE902329A63099B0E2B00F21481002D35
:1053F00000F011810E9A002A40F33884B14D02F07A
:105400000F0305EBC3031511D205D3E9008940F161
:10541000F883AD4BDDE90601D3E9082302F0C6FBB2
:10542000CDE9120105F00F0503277DB1A64EEB076C
:1054300008D540464946D6E9002302F08DFA0137E7
:10544000804689466D1006F10806F0D142464B466B
:10545000DDE9120102F0AAFB80468946109B43B1A8
:105460009A4B00224046494602F0E8FC002840F0F2
:10547000F0843846FAF7F6FF42464B4602F06CFAE3
:10548000934B0022FAF7A2FE099B0646A1F1507742
:10549000002B00F0A9800E9B1993099B1293039B8C
:1054A000884D49464046CDE914675E1C02F004FD74
:1054B000129905EBC10313ED027B07468DED167BB8
:1054C000FAF7D0FF02460B4640464946FAF77CFE03
:1054D00089460C993037DDE916238046FFB2002952
:1054E00000F052847B49002002F060FBDDE91423C8
:1054F000FAF76AFE039D02460B46CDE914232F708E
:1055000042464B4602F0B8FC002840F09684CDE9B4
:105510001AB4CDF858A0129DDDE914AB00272AE09B
:105520000137AF4280F2DD846B4B50465946002272
:1055300002F012FA684B002282468B4640464946EA
:1055400002F00AFA8946804602F0B6FC0446FAF7F1
:1055500089FF02460B4640464946FAF735FE30348D
:1055600006F8014B52465B468046894602F066FCCF
:10557000002840F0B38442464B4654490020FAF7D5
:1055800023FE52465B4602F059FC0028C8D0199B06
:10559000DDF858A0039A374603F1010802E097426C
:1055A00000F07B843E4617F8013D392BF7D00133DC
:1055B000DBB23B70454674E10123002C1093BFF62B
:1055C00082AEC8F101030B9300247EE63846FAF759
:1055D00049FF42464B4602F0BFF93D4B0022FAF725
:1055E000F5FD0646A1F150773C4B40464946002266
:1055F000FAF7EAFD32463B468046894602F03CFC1B
:10560000002840F0598440464946324607F100439D
:1056100002F014FC28BB1D9B002BC0F291800E9A57
:105620000E2A00F38D80274D0E9B05EBC30595EDEB
:10563000007B0A9B002B8DED007B19DA099B002B68
:1056400016DC0ED1254B0022DDE9000102F084F9C1
:1056500002460B46DDE9060102F0FAFB002800F0E5
:105660002B844FF00009039E4F460A9BDD4324E242
:10567000DDE90045DDE9068922462B4640464946DC
:1056800002F094FA02F018FC0646FAF7EBFE224606
:105690002B4602F061F9039F0B46024649464046FD
:1056A000FAF792FD06F1300307F8013B099B012B45
:1056B00000F010830125CDF810A09946DDE900AB7C
:1056C000A8462BE020370108103801080000F03F01
:1056D00000001C400000E03F000024400000144097
:1056E00052465B462046294602F060FA02F0E4FB8F
:1056F0000646FAF7B7FE52465B4602F02DF908F16E
:1057000001080B46024629462046FAF75DFD06F1E0
:105710003003C84507F8013B00F0DA82B94B00229C
:1057200002F01AF90022002304460D4602F07CFB29
:105730000028D5D00E9DDDF810A001353E46B0E022
:105740000C9A002A40F0D28000230F9E0B9D0C93F0
:105750001F4655B1002C08DDA5420B9A2B46A8BF69
:105760002346D21A0B92ED1AE41A0F9B53B10C9BED
:1057700013B1002E40F0E78251460F9A029800F0D4
:1057800027FE82460298012100F03EFD8146BBF1D2
:10579000000F40F0B681009B012B40F3CC8101202B
:1057A000204410F01F0000F09A80C0F12003042B69
:1057B00040F3DA810B9BC0F11C0003440B930544BA
:1057C00004440B9B002B05DD514602981A4600F05D
:1057D00059FE8246002C05DD49460298224600F01B
:1057E00051FE8146109B002B40F07081099B002BDD
:1057F00040F348810C9B002B40F0A4800E9D0135A6
:10580000DDF80C80099CDDF808B0012607E0514660
:1058100000230A22584600F0FDFB01368246494625
:105820005046FFF70DFCA64200F1300308F8013B9B
:10583000EDDB099A002AC8BF1646039AD8BF012695
:1058400002EB060B0024514601220298009300F05F
:1058500019FE4946824600F08DFE002840F3E281A1
:10586000039A02E05A4500F0E8815E460BF1FF3BE7
:1058700016F8013C392BF5D001338BF80030DDF8F8
:1058800008804946404600F0BBFB57B12CB1BC42F2
:1058900003D02146404600F0B3FB0298394600F0A1
:1058A000AFFB0298514600F0ABFB00233370089B1E
:1058B0001D60299B002B3FF497AC03981E601FB01E
:1058C000BDE8F08F5846FAF7CDFD32463B4602F070
:1058D000ABFA00287FF4DDAC0BF1FF3BD9E41C23CD
:1058E0000B9A1A440B921D441C446AE7009A012A41
:1058F00040F3A881099B0F9A5E1EB242C0F26A81F2
:10590000002BA2EB060680F2DD820B9B099A9D1A02
:105910000298012100F078FC07461AE7C3F1200342
:1059200006FA03F082E40125E5E4394600230298F3
:105930000A2200F06FFB189B002B074640F3EF8212
:105940000E960993002D00F33E81BBF1000F40F04D
:10595000DE81B846039E099C731E1C44049B03F021
:105960000103CDE90B43029C49465046FFF768FB13
:1059700039468346504600F0FDFD424649460546FD
:10598000204600F019FEC26801460BF13003002AE0
:105990003AD1CDE90903504600F0ECFD0999069093
:1059A000204600F02DFB069A0A9B002A5AD1009A45
:1059B0001AB90C9A002A00F09A82002D45DB0B9A46
:1059C000B346B2420BF8013B00F0B88151460023C8
:1059D0000A22204600F01EFB4745824639464FF01A
:1059E00000034FF00A02204636D000F013FB414678
:1059F000074600230A22204600F00CFB5E46804644
:105A0000B2E700BF000024400298069300F0F8FAC5
:105A1000002D069B06DB049A009902F001020D435B
:105A20002A432AD1514601220298009300F02AFD10
:105A30004946824600F09EFD0028009B40F3E78027
:105A4000392B00F02F820BF131030E9D06F8013B3C
:105A50003C460135474612E700F0DCFA5E46074651
:105A6000804681E7002DC0F27D8200990D430C999C
:105A70000D4300F07782002AA1DD392B00F012825D
:105A80000133E2E7009B022B7FF7B4AE099B002BAA
:105A900040F01C8149460522029800F0BBFA0146FD
:105AA0008146504600F066FD002840F30F81039EBA
:105AB0000E9D312306F8013B013502984946013518
:105AC00000F09EFA002F7FF4E8AEEAE64946504621
:105AD00000F050FD0028BFF689AE51460023029821
:105AE0000A2200F097FA0E9B5E1E0C9B8246002B4A
:105AF0007FF41BAF189B002B40F3FF810E9D099391
:105B00007EE601465A46029800F062FC009B012B9B
